:100000000C94F4000C941C010C941C010C944D10E5
:100010000C944D100C944D100C941C010C941C016C
:100020000C941C010C941C010C941C010C941C01DC
:100030000C941C010C941C010C941C010C941C01CC
:100040000C94E40E0C941C010C94B20E0C948C0EC7
:100050000C941C010C941C010C941C010C941C01AC
:100060000C942E0F0C941C0107634236B79BD8A743
:100070001A39685618AEBAAB558C1D3CB7CC5763CD
:10008000BD6DEDFD753EF6177231BF000000803F7B
:1000900000407A10F35A00A0724E18090010A5D43F
:1000A000E80000E87648170000E40B54020000CA9C
:1000B0009A3B000000E1F5050000809698000000E2
:1000C00040420F000000A086010000001027000041
:1000D0000000E803000000006400000000000A00C7
:1000E000000000000100000000002C76D888DC67CA
:1000F0004F0823DFC1DFAE59E1B1B796E5E3E45322
:10010000C63AE651997696E8E6C28426EB898C9B3E
:1001100062ED407C6FFCEFBC9C9F40F2BAA56FA5DE
:10012000F490055A2AF75C936B6CF9676DC11BFC60
:10013000E0E40D47FEF520E6B500D0ED902E03007B
:10014000943577050080841E080000204E0A0000C8
:1001500000C80C333333330F986E12831141EF8D87
:100160002114893BE65516CFFEE6DB18D1844B38C7
:100170001BF77C1D901DA4BBE424203284725E22F8
:100180008100C9F124ECA1E53D2700000000240016
:1001900027002A00000000080002010000030407F5
:1001A0000000000000000000000000002300260006
:1001B000290000000000250028002B00040404048E
:1001C0000404040402020202020203030303030301
:1001D00001020408102040800102040810200102DE
:1001E00004081020E910C21611241FBECFEFD8E07A
:1001F000DEBFCDBF25E0A0E5B2E001C01D92A33374
:10020000B207E1F712E0A0E0B1E0E6ECFEE302C0E5
:1002100005900D92A035B107D9F710E0C3EFD0E0FB
:1002200004C02197FE010E94411DC23FD107C9F7BA
:100230000E9470120C94561F0C940000FC019081D7
:10024000909528E081E397FF03C0990F982701C09C
:10025000990F2150C1F78181892798E021E387FF19
:1002600003C0880F822701C0880F9150C1F70895FD
:10027000982F20918C0381E0213208F043C08091B7
:1002800068038111FCCF80918B0332E030936803C7
:10029000909367039FEF90936603109265032093FA
:1002A0006403ABE6B3E0E4E4F3E090E0291331C08B
:1002B0001092430390914303880F892B809343034B
:1002C00080914203813049F51092420380914303AB
:1002D0008093BB008091BC0083FDF8CF85EC8093B8
:1002E000BC00809168038230E1F3809166038F3F08
:1002F000B1F0809166038032A1F080916603803373
:1003000091F084E010926A0310928C0310926903BA
:1003100008953D9131939F5FC9CF85EEE0CF80E096
:10032000F1CF82E0EFCF83E0EDCF089508951F93E2
:10033000CF93DF93182F692FCDE9D3E08E819F8172
:10034000288931E03093690320938B0310926A036C
:1003500010928C03DC01ED91FC910190F081E02D75
:1003600009958E819F81DC01ED91FC910190F081D6
:10037000E02D612F099581E0DF91CF911F910C94C1
:100380003801FC019081909528E030E081E397FFEF
:1003900003C0990F982701C0990F21503109B9F76F
:1003A0008181892728E030E091E387FF03C0880F2F
:1003B000892701C0880F21503109B9F70895AF92FC
:1003C000BF92CF92DF92EF92FF920F931F93CF9342
:1003D000DF936C017B018B01040F151FEB015E01A4
:1003E000AE18BF08C017D10759F06991D601ED9139
:1003F000FC910190F081E02DC6010995892B79F7D8
:10040000C501DF91CF911F910F91FF90EF90DF9089
:10041000CF90BF90AF900895FC01538D448D252F50
:1004200030E0842F90E0821B930B541710F0CF968E
:10043000089501970895FC01918D828D981761F0C0
:10044000A28DAE0FBF2FB11D5D968C91928D9F5FD7
:100450009F73928F90E008958FEF9FEF0895FC01B6
:10046000918D828D981731F0828DE80FF11D858D69
:1004700090E008958FEF9FEF0895FC01918D228DFC
:10048000892F90E0805C9F4F821B91098F73992781
:10049000089583E794E00E943D0221E0892B09F44E
:1004A00020E0822F089580E090E0892B29F00E94BF
:1004B000490281110C9400000895FC01A48DA80F3D
:1004C000B92FB11DA35ABF4F2C91848D90E0019696
:1004D0008F739927848FA689B7892C93A089B189B6
:1004E0008C91837080648C93938D848D981306C057
:1004F0000288F389E02D80818F7D80830895EF92BB
:10050000FF920F931F93CF93DF93EC0181E0888FCD
:100510009B8D8C8D98131AC0E889F989808185FF9D
:1005200015C09FB7F894EE89FF896083E889F9893F
:1005300080818370806480839FBF81E090E0DF9141
:10054000CF911F910F91FF90EF900895F62E0B8D94
:1005500010E00F5F1F4F0F731127E02E8C8D8E114F
:100560000CC00FB607FCFACFE889F989808185FFB6
:10057000F5CFCE010E945D02F1CFEB8DEC0FFD2F88
:10058000F11DE35AFF4FF0829FB7F8940B8FEA8971
:10059000FB8980818062CFCFCF93DF93EC01888D80
:1005A0008823B9F0AA89BB89E889F9898C9185FDEE
:1005B00003C0808186FD0DC00FB607FCF7CF8C917C
:1005C00085FFF2CF808185FFEDCFCE010E945D02D5
:1005D000E9CFDF91CF910895833081F028F4813005
:1005E00099F08230A9F008958730A9F08830C9F0D9
:1005F0008430B1F4809180008F7D03C080918000B1
:100600008F7780938000089584B58F7784BD089597
:1006100084B58F7DFBCF8091B0008F778093B00041
:1006200008958091B0008F7DF9CFCF93DF93282F6D
:1006300030E0F901EC56FE4F8491F901E053FE4F92
:10064000D491F901E454FE4FC491CC23A1F081115F
:100650000E94EC02EC2FF0E0EE0FFF1FE855FE4F7A
:10066000A591B491EC91ED2381E090E009F480E054
:10067000DF91CF91089580E090E0FACF1F93CF9360
:10068000DF93282F30E0F901EC56FE4F8491F901F9
:10069000E053FE4FD491F901E454FE4FC491CC23B2
:1006A000A9F0162F81110E94EC02EC2FF0E0EE0F62
:1006B000FF1FEE54FE4FA591B4918FB7F894EC91C3
:1006C000111108C0D095DE23DC938FBFDF91CF914D
:1006D0001F910895DE2BF8CF109241031092400332
:1006E00010926A0310928C031092680381E0809349
:1006F00067031092420361E082E10E943E0361E0E1
:1007000083E10E943E03E9EBF0E080818E7F8083ED
:1007100080818D7F808388E48093B80085E4809316
:10072000BC0085E991E090933F0380933E0386E906
:1007300091E090933D0380933C030895CF93DF9322
:1007400090E0FC01E053FE4F249184549E4FFC0145
:1007500084918823C9F090E0880F991FFC01E65727
:10076000FE4FA591B491FC01EE54FE4FC591D4917A
:1007700061110DC09FB7F8948C91209582238C93C2
:100780008881282328839FBFDF91CF91089562300D
:1007900051F49FB7F8943C91822F809583238C93DA
:1007A000E8812E2BEFCF8FB7F894EC912E2B2C9362
:1007B0008FBFEACF3FB7F894809138039091390307
:1007C000A0913A03B0913B0326B5A89B05C02F3FEB
:1007D00019F00196A11DB11D3FBFBA2FA92F982F67
:1007E0008827BC01CD01620F711D811D911D42E062
:1007F000660F771F881F991F4A95D1F708958F922A
:100800009F92AF92BF92CF92DF92EF92FF926B01D5
:100810007C010E94DA034B015C01C114D104E104A4
:10082000F104B9F00E94DA03681979098A099B0971
:10083000683E73408105910580F321E0C21AD1081A
:10084000E108F10888EE880E83E0981EA11CB11C17
:10085000E4CFFF90EF90DF90CF90BF90AF909F904C
:100860008F9008952FB7F8946091340370913503F9
:1008700080913603909137032FBF08950F931F93F4
:100880008091180590911905A0911A05B0911B054A
:10089000892B8A2B8B2B31F10E9432040091230586
:1008A000109124052091250530912605AB01BC014E
:1008B000401B510B620B730B91E0009118051091D6
:1008C000190520911A0530911B0540175107620741
:1008D000730708F090E0809122058111892F1F9104
:1008E0000F91089591E0F7CF85ED8093BC00809142
:1008F000BC0084FDFCCF1092680308952091100382
:10090000260F3327331F21323105ECF42091680381
:10091000FC0190E080E0243069F082E00895A0912D
:1009200010032191AC0140515D4FA40FB52FB11DB3
:100930002C930196861798F380911003680F6093AB
:10094000100380E0089581E008950895E091410347
:1009500080914003E81730F4F0E0E053FD4F8081D0
:1009600090E008958FEF9FEF08959091410380915B
:1009700040032FEF3FEF981748F4E92FF0E0E053E2
:10098000FD4F208130E09F5F90934103C90108959E
:100990008091400390914103891B990B0895CF9258
:1009A000DF92EF92FF920F931F93CF93DF937C011F
:1009B000CB018A0120916903222389F0EB016B01AD
:1009C000C40ED51ECC15DD0569F06991D701ED91F6
:1009D000FC910190F081E02DC7010995F3CF642FC0
:1009E0000E947E04C801DF91CF911F910F91FF906B
:1009F000EF90DF90CF900895CF93DF931F92CDB704
:100A0000DEB76983209169032223F9F020918C03DA
:100A1000203258F021E030E0FC013383228390E063
:100A200080E00F90DF91CF91089580916A03E82FC5
:100A3000F0E0E559FC4F998190838F5F80936A03C2
:100A400080938C0381E090E0ECCF61E0CE010196D1
:100A50000E947E04F7CF20918F03309190032817D6
:100A6000390781F490918D0380918E03981751F08E
:100A7000E0918D03F0E0EE0FFF1FE05BFD4F808102
:100A8000918108958FEF9FEF0895EF92FF920F935A
:100A90001F93CF93DF93DC015C964D915C915D9742
:100AA0004115510579F481E090E013969C938E9363
:100AB000129790E080E0DF91CF911F910F91FF900E
:100AC000EF9008955196ED91FC91529750968C912C
:100AD0005097982F9095EFB65E962C915E97322F97
:100AE0003270F32E21FF02C060957095F89420813A
:100AF000FF2001F1282B2083EA012197F1F729E05B
:100B0000308160FF19C0382B3083EA012197F1F75B
:100B1000769567952150A1F7FF2081F08081892388
:100B20008083EFBE5C968D919C910197F1F781E0F7
:100B300090E0C1CF2923DFCF3923E6CF9081892BE5
:100B4000EFCFEF92FF920F931F93CF93DF93DC01D0
:100B50005C96ED90FC905D97E114F10479F481E0EE
:100B600090E013969C938E93129790E080E0DF9133
:100B7000CF911F910F91FF90EF9008955196ED91B5
:100B8000FC91529750968C915097982F90950FB753
:100B90005E962C915E97122F127021FD6095F8944D
:100BA0002081112319F1282B2083E7012197F1F7E8
:100BB00028E0462F50E0308160FF1AC0382B308388
:100BC000E7012197F1F7BA0175956795215089F7EB
:100BD000112381F08081892380830FBF5C968D91E2
:100BE0009C910197F1F781E090E0C1CF2923DCCF00
:100BF0003923E5CF9081892BEFCF20918F0330915E
:100C000090032817390771F480918E0320918D038A
:100C100090E0805C9F4F821B910960E470E00E942D
:100C2000AF1C089590E080E0089520918F033091EB
:100C3000900328173907C9F490918D0380918E0392
:100C4000981799F0E0918D03F0E0EE0FFF1FE05B45
:100C5000FD4F8081918120918D0330E02F5F3F4FC8
:100C60002F73332720938D0308958FEF9FEF0895FF
:100C7000E0918F03F0919003E817F90769F4A389D5
:100C8000B4899C918589809589238C9310929003D7
:100C900010928F0381E0089580E008958091EF0322
:100CA0009091F003892B31F180918F039091900303
:100CB00023E0853D9207F1F0009711F00E9438067D
:100CC0008091F3038E7F8093F30310928E03109232
:100CD0008D0385ED93E09093900380938F03E091D3
:100CE000E803F091E90380819091EA03892B8083E6
:100CF00081E0089580E00895CF93DF93EC01FB013C
:100D0000828193819B838A8384819581A681B78127
:100D10008C839D83AE83BF8380859185A285B385B7
:100D200088879987AA87BB878AE091E0998388831F
:100D3000848595859D878C87868597859F878E87F7
:100D400080899189998B888B828993899B8B8A8BE7
:100D5000848995899D8B8C8B868997899F8B8E8BB7
:100D6000808D888F818D898F828D8A8F838D8B8FE7
:100D7000848D8C8F80E47D96DE015D9601900D92CE
:100D80008A95E1F7DE01A35ABF4FFB01E35AFF4FFB
:100D900080E401900D928A95E1F7DF91CF9108955B
:100DA000DF92EF92FF920F931F93CF93DF93CDB714
:100DB000DEB7CD59D1090FB6F894DEBF0FBECDBF57
:100DC00080912D0590912E05DC01ED91FC9102841E
:100DD000F385E02D09958C0180911605082E000CF5
:100DE000990B0817190709F04BC01091220501E073
:100DF000009322050E94320460932305709324051A
:100E000080932505909326050E943204609329055E
:100E100070932A0580932B0590932C0581E090E038
:100E2000909328058093270561E0809114050E9426
:100E30003E03E0901C05F0901D05E114F10489F0DB
:100E4000D090160560912D0570912E05CE0101966A
:100E50000E947C06412F40276D2DCE010196F7019F
:100E60000995C356DF4F0FB6F894DEBF0FBECDBF56
:100E7000DF91CF911F910F91FF90EF90DF90089538
:100E8000F09017058F2D0F2C000C990B08171907E0
:100E9000C9F4E09022051092220500911E051091E0
:100EA0001F0501151105E9F260912D0570912E05C0
:100EB000CE0101960E947C064E2D6F2DCE0101962B
:100EC000F801CECF0E943E04882359F2E09020051D
:100ED000F0902105E114F10421F260912D0570914B
:100EE0002E05CE0101960E947C06602FCE01019650
:100EF000F7010995B6CF089590E080E008958091BC
:100F000068038111FCCF413208F040E281E0809318
:100F10006803809367039FEF9093660310926503C5
:100F2000940F909364038093430380914303660F6F
:100F3000682B6093430380914203813019F510922E
:100F40004203809143038093BB008091BC0083FDEA
:100F5000F8CF85EC8093BC00809168038130E1F389
:100F600080916503841710F440916503E4E4F3E095
:100F7000A0EDB2E080E0841307C01092410380939B
:100F80004003089585EEE6CF91919D938F5FF3CF57
:100F9000CF92DF92EF92FF920F931F93CF93DF9345
:100FA00000D000D000D0CDB7DEB780E094E20E9440
:100FB000970164E170E080E090E00E94FF0346E06A
:100FC0006091AD038091A3039091A4030E947F07D9
:100FD0008091A3039091A403DC01ED91FC91008426
:100FE000F185E02D0995069709F07AC08E010F5F13
:100FF0001F4F6E01B7E0CB0ED11C78018091A30387
:101000009091A403DC01ED91FC910284F385E02D25
:101010000995F80181938F01EC15FD0579F71B8186
:10102000C7010E94C10118135BC01E81CE01049646
:101030000E94C101181354C029813A813227232705
:101040003227A7E1B1E10E94A81A2EE09595879575
:10105000779567952A95D1F764597141810991096E
:101060000E94541920E030E048EC52E40E94241B16
:101070006093A9037093AA038093AB039093AC038E
:101080002C813D81322723273227A1E7B2E00E943D
:10109000A81A3CE096958795779567953A95D1F78C
:1010A0000E94521920E030E048EC52E40E94241BD8
:1010B0006093A5037093A6038093A7039093A8035E
:1010C00081E026960FB6F894DEBF0FBECDBFDF914C
:1010D000CF911F910F91FF90EF90DF90CF900895E7
:1010E00080E0EFCFCF93DF93EC0188819981009767
:1010F00011F00E94EC1D198218821D821C821B8235
:101100001A82DF91CF910895FC018081918100972F
:1011100011F00C94EC1D08956F927F928F929F9224
:10112000AF92BF92CF92DF92EF92FF920F931F93F5
:10113000CF93DF93CDB7DEB7162F6A013901ADB675
:10114000BEB62091BF0331E03093690320938B0337
:1011500010926A0310928C03982E7C018091BD033B
:101160009091BE03D7016D917D01DC01ED91FC9161
:101170000190F081E02D09958E2D8919811770F36A
:1011800081E00E943801B60190E080E00E94FF03F8
:10119000002309F45FC0102F110F100F412F609131
:1011A000BF038091BD039091BE030E947F07181773
:1011B000A9F080E00FB6F894BEBE0FBEADBEDF91C1
:1011C000CF911F910F91FF90EF90DF90CF90BF9044
:1011D000AF909F908F907F906F900895EDB7FEB77E
:1011E000E11BF1090FB6F894FEBF0FBEEDBF8DB73E
:1011F0009EB701966C017C014C018091BD039091DA
:10120000BE03DC01ED91FC910284F385E02D09958C
:10121000F40181934F018E2F8C19811770F36301B4
:1012200010E0C7010E941E01D70112969C911297EF
:101230008913BFCF8C9111969C9189279827892774
:10124000F601819391936F011F5FF3E0EF0EF11CA4
:101250000113E7CF81E0AECF0F93CF93DF9300D0A0
:10126000CDB7DEB780E2898383E08A8300E030E097
:1012700020E04AE050E062E0CE0101960E948C0836
:101280000F900F90DF91CF910F910895FB01019086
:101290000020E9F73197AF01461B570BDC01ED91B8
:1012A000FC910280F381E02D09940F931F93CF935B
:1012B000DF938C010E943E048823C9F0C0912D0564
:1012C000D0912E05F8014481558160817181E881BA
:1012D000F9810280F381E02DCE0109956EE371E082
:1012E000CE01DF91CF911F910F910C944609DF91B0
:1012F000CF911F910F9108950F931F93CF93DF9379
:10130000EC010E947F028C016EE371E0CE010E942D
:101310004609800F911FDF91CF911F910F91089582
:10132000CF93C42F0E947C09CC2351F08091AE034F
:1013300081111092AE038091C00381111092C003FD
:10134000CF910895EC01009739F00E9446096EE3B1
:1013500071E0CE010E9446090E94D010AF92BF9268
:10136000CF92DF92EF92FF920F931F93CF93DF9371
:101370008C0161E471E01816190664F50E94501D95
:10138000EC01009729F1A0900004B0900104E090D6
:10139000FC03F090FD032091020430910304C090FF
:1013A000FE03D090FF03FC01281B390BCF018C1BDF
:1013B0009D0B8A159B05A4F4C9018E0F9F1FB601D2
:1013C0000E94AF1CD701A80FB91F8C918193EECF5B
:1013D00066E771E08091FA039091FB030E94A209F5
:1013E000C7010E94EC1DD093FD03C093FC03109233
:1013F00003041092020480910004909101049093E0
:101400000504809304041093FF030093FE03DF910F
:10141000CF911F910F91FF90EF90DF90CF90BF90F1
:10142000AF900895CF93C82F80910004909101044C
:101430002091FE033091FF038217930721F4880F58
:10144000991F0E94AE09E091FC03F091FD03809189
:101450000404909105049C012F5F3F4F30930504D5
:1014600020930404E80FF91FC083209104043091F5
:1014700005048091FE039091FF032817390721F49A
:1014800010920504109204048091000490910104CC
:1014900001969093010480930004CF9108950E94D7
:1014A000321F0F931F93CF93DF93EC0188819981B3
:1014B000009759F02A813B812617370730F081E0E9
:1014C000DF91CF911F910F9108958B016F5F7F4F37
:1014D0000E94751E009759F0998388831B830A83A5
:1014E0002C813D81232B59F7FC011082E8CF80E04D
:1014F000E7CF0F931F93CF93DF93EC010C811D81F6
:101500000F5F1F4FB8010E94510A882391F0288174
:1015100039818C819D8169E372E0820F931F0E9463
:10152000401F1D830C83CE01DF91CF911F910F913E
:101530000895CE010E947208F6CFEF92FF920F93AA
:101540001F93CF93DF93EC01FB01E080F180E11466
:10155000F10411F10481158101151105A9F08C81A7
:101560009D81080F191FB801CE010E94510A8823DE
:1015700099F0288139818C819D81B701820F931F59
:101580000E94401F1D830C83CE01DF91CF911F91DC
:101590000F91FF90EF900895CE010E947208F4CF52
:1015A000EF92FF920F931F93CF93DF93EC017B0198
:1015B0008A01BA010E94510A81110BC0CE010E941A
:1015C0007208CE01DF91CF911F910F91FF90EF90A4
:1015D00008951D830C83B701888199810E94401F63
:1015E000F0CFEF92FF920F931F93CF93DF93CDB77E
:1015F000DEB7A1970FB6F894DEBF0FBECDBF7C015A
:10160000CB01BA01F7011182108213821282158276
:1016100014828E010F5F1F4F22E044E00E94D31618
:101620000097C9F0FC0101900020E9F73197AF0164
:10163000481B590BBC01C7010E94D00AA1960FB6E6
:10164000F894DEBF0FBECDBFDF91CF911F910F91F8
:10165000FF90EF900895C7010E947208EFCFEF92BC
:10166000FF920F931F93CF93DF93CDB7DEB76197B0
:101670000FB6F894DEBF0FBECDBF8C01CB01F801D1
:101680001182108213821282158214824AE09E0116
:101690002F5F3F4F7901B9010E94F116F7010190C8
:1016A0000020E9F73197AF014E195F09B701C80172
:1016B0000E94D00A61960FB6F894DEBF0FBECDBF70
:1016C000DF91CF911F910F91FF90EF900895CF93ED
:1016D000DF93EC01FB018617970749F06081718168
:1016E0006115710541F0448155810E94D00ACE01F7
:1016F000DF91CF9108950E947208F9CFFC01118209
:10170000108213821282158214826115710551F0C4
:10171000FB0101900020E9F73197AF01461B570B01
:101720000C94D00A08950F931F93CF93DF93CDB7F6
:10173000DEB728970FB6F894DEBF0FBECDBF88E5A1
:101740008093BF0381E993E09093BE038093BD0330
:101750000E946C0386E38F8382E8888703E027EB8F
:1017600033E04AE050E062E0CE0107960E948C0828
:1017700081111DC00091A1031091A20360EB71E0E3
:10178000CE0101960E947E0BCE010196F8010995CB
:10179000CE0101960E94840828960FB6F894DEBF09
:1017A0000FBECDBFDF91CF911F910F91089580E2C1
:1017B0008F838FE2888701E09E012F5F3F4F4AE0D1
:1017C00050E062E0CE0107960E948C08882391F2D7
:1017D00089819A81807F9927809761F60E942C09E0
:1017E000882341F20091A1031091A20367EC71E0FC
:1017F000CE0101960E947E0BCE010196F80109955B
:10180000CE0101960E9484080E942C09882321F2AF
:1018100081E08093C0030091A1031091A2036AEDBF
:1018200071E0AECF0F931F93CF93DF9300D000D022
:1018300000D0CDB7DEB70E946C0384E48093AD0383
:1018400082EA90E30E9497016AE070E080E090E015
:101850000E94FF038DE293EF0E94970143E06091A5
:10186000AD038091A3039091A4030E947F07809110
:10187000A3039091A403DC01ED91FC910284F38514
:10188000E02D099500E0182F8091A3039091A40307
:10189000DC01ED91FC910284F385E02D0995802B0C
:1018A000912B0091A1031091A2030196E1F060EF4A
:1018B00071E0CE0101960E947E0BCE010196F801E7
:1018C0000995CE0101960E94840881E08093AE03C1
:1018D00026960FB6F894DEBF0FBECDBFDF91CF9135
:1018E0001F910F91089563E072E0CE0101960E946E
:1018F0007E0BCE010196F8010995CE0101960E945A
:101900008408E6CFCF93C42F0E947C09CC2329F012
:101910000E94120CCF910C94930BCF9108950F93CA
:101920001F93CF93DF93CDB7DEB767970FB6F894C9
:10193000DEBF0FBECDBF85E0EFE1F2E0DE015396E2
:1019400001900D928A95E1F720913D0430913E047B
:1019500090E080E04EE2B901082E02C075956795CF
:101960000A94E2F760FD07C0E3E1F0E0EC0FFD1F31
:10197000E80FF91F408301968430910561F70091CB
:10198000F8031091F903BE016D5E7F4FCE010796FB
:101990000E947E0B6AE172E0CE010D960E947E0BE2
:1019A000BE01695F7F4FCE010D960E949D0A1A828B
:1019B00019821C821B821E821D82BC01CE010196EF
:1019C0000E94670BCE010196F8010995CE010196A0
:1019D0000E948408CE010D960E948408CE010796CD
:1019E0000E94840867960FB6F894DEBF0FBECDBF85
:1019F000DF91CF911F910F9108950F931F93CF9374
:101A0000DF93CDB7DEB76F970FB6F894DEBF0FBE8A
:101A1000CDBF8DE0E9E2F2E0DE01119601900D927A
:101A20008A95E1F720913F043091400490E080E0F6
:101A30004EE2B901082E02C0759567950A94E2F747
:101A400060FD07C0E1E0F0E0EC0FFD1FE80FF91FBB
:101A5000408301968C30910561F70091F803109155
:101A6000F903BE016F5F7F4FCE0144960E947E0B4B
:101A700064E272E0CE014A960E947E0BBE016C5E6B
:101A80007F4FCE014A960E949D0A1F861E86198AA4
:101A9000188A1B8A1A8ABC01CE010E960E94670B17
:101AA000CE010E96F8010995CE010E960E9484088B
:101AB000CE014A960E948408CE0144960E94840872
:101AC0006F960FB6F894DEBF0FBECDBFDF91CF91FA
:101AD0001F910F9108950F931F93CF93DF93CDB76D
:101AE000DEB762970FB6F894DEBF0FBECDBF009190
:101AF000F8031091F90361E474E0CE0107960E94A7
:101B00007E0B66E372E0CE010D960E947E0BBE0155
:101B1000695F7F4FCE010D960E949D0A1A8219823D
:101B20001C821B821E821D82BC01CE0101960E9476
:101B3000670BCE010196F8010995CE0101960E942E
:101B40008408CE010D960E948408CE0107960E945B
:101B5000840862960FB6F894DEBF0FBECDBFDF914A
:101B6000CF911F910F910895EF92FF920F931F93C2
:101B7000CF93DF93CDB7DEB7A4970FB6F894DEBF4F
:101B80000FBECDBF0DE913E0F801E480F58066A932
:101B900077A9CE0107960E942F0BF80164A975A9B9
:101BA000CE010D960E942F0BF80144A555A566A500
:101BB00077A5CE0143960E94F10AF80140A551A5F0
:101BC00062A573A5CE0149960E94F10A6BE372E00B
:101BD000CE014F960E947E0BBE01675E7F4FCE0105
:101BE0004F960E949D0A0E94790ABE016D5E7F4F4A
:101BF0000E949D0A0E94790ABE01635F7F4F0E9486
:101C00009D0A0E94790ABE01695F7F4F0E949D0A6A
:101C10001A8219821C821B821E821D82BC01CE0187
:101C200001960E94670BCE010196F7010995CE013E
:101C300001960E948408CE014F960E948408CE012E
:101C400049960E948408CE0143960E948408CE01E2
:101C50000D960E948408CE0107960E948408A496DF
:101C60000FB6F894DEBF0FBECDBFDF91CF911F91AD
:101C70000F91FF90EF9008956F3341F40E948F0C05
:101C80000E94FD0C0E946B0D0C94B40D6733C1F1E2
:101C90009CF4623369F13CF4603329F13CF58AEA43
:101CA000613211F10895643339F124F1653331F172
:101CB00086E36633C9F008956F3641F13CF4693329
:101CC00019F104F18AE3633679F00895633711F16D
:101CD00024F48DE3603741F008956637C9F08CE352
:101CE000683711F0089580E30C94120A81E3FCCF69
:101CF00082E3FACF83E3F8CF84E3F6CF85E3F4CF32
:101D000087E3F2CF88E3F0CF89E3EECF8BE3ECCF2C
:101D10008EE3EACF8FE3E8CF1F920F920FB60F92B8
:101D200011242F933F934F935F936F937F938F93E0
:101D30009F93AF93BF93EF93FF9383E794E00E9449
:101D40005D02FF91EF91BF91AF919F918F917F9134
:101D50006F915F914F913F912F910F900FBE0F9018
:101D60001F9018951F920F920FB60F9211242F9368
:101D70008F939F93EF93FF93E0918304F0918404FA
:101D80008081E0918904F0918A0482FD1BC09081DA
:101D900080918C048F5F8F7320918D04821741F0A6
:101DA000E0918C04F0E0ED58FB4F958F80938C040C
:101DB000FF91EF919F918F912F910F900FBE0F90F8
:101DC0001F9018958081F4CF1F920F920FB60F923B
:101DD00011242F933F938F939F93AF93BF93809141
:101DE000340390913503A0913603B09137033091BD
:101DF000330323E0230F2D3758F50196A11DB11DA4
:101E0000209333038093340390933503A0933603D8
:101E1000B09337038091380390913903A0913A032E
:101E2000B0913B030196A11DB11D8093380390939F
:101E30003903A0933A03B0933B03BF91AF919F91B5
:101E40008F913F912F910F900FBE0F901F9018957B
:101E500026E8230F0296A11DB11DD2CF1F920F922B
:101E60000FB60F9211242F933F934F935F936F936D
:101E70007F938F939F93AF93BF93EF93FF93809143
:101E8000B900887F803609F44AC0F0F5883209F439
:101E9000A7C018F5803109F49BC0B8F4882309F471
:101EA000F9C0883009F494C0FF91EF91BF91AF91D0
:101EB0009F918F917F916F915F914F913F912F9162
:101EC0000F900FBE0F901F901895883109F488C0AD
:101ED000803251F78093660314C0803409F49DC0AA
:101EE00040F48033B9F38833F9F68093660385ECC8
:101EF000B0C0803509F485C0883509F496C08834AF
:101F000099F60E947404D0CF883909F48CC038F552
:101F1000883729F050F4883611F0803729F683E0AD
:101F2000809368031092320357C0883809F47BC04D
:101F3000803919F0803809F0B7CF809132038032B0
:101F400008F071C0E091320381E08E0F809332037C
:101F50008091BB00F0E0EE5EFC4F80833DC0803B93
:101F600039F0E0F4803A09F479C0883A09F09CCF5E
:101F700084E0809368031092110310921003E091A3
:101F80003E03F0913F0309958091100381110FC02A
:101F900081E0809310031092F00209C0803C09F4A4
:101FA000A6CF883C09F4A3CF883B09F07DCFE09110
:101FB000110381E08E0F80931103F0E0E051FD4F9B
:101FC00080818093BB00909111038091100329C000
:101FD000809143038093BB0085EC8093BC0064CF69
:101FE0009091650380916403981758F5E09165031B
:101FF00081E08E0F80936503F0E0EC5BFC4F808105
:10200000E9CFE091650381E08E0F809365038091B5
:10201000BB00F0E0EC5BFC4F808390916503809106
:1020200064039817C8F285E8D8CFE091650381E092
:102030008E0F809365038091BB00F0E0EC5BFC4F5A
:1020400080838091670381115CCF81E0809342039C
:1020500084EA8093BC001092680326CF85EC8093BD
:10206000BC001092680380913203803230F4E0911A
:102070003203F0E0EE5EFC4F10826091320370E0BC
:10208000E0913C03F0913D0382E193E009951092C9
:1020900032030ACF1092660334CF1F920F920FB60D
:1020A0000F9211242F933F934F935F936F938F93CE
:1020B0009F93AF93BF93CF93DF93EF93FF93E09101
:1020C0008F03F0919003309749F0A685B7859585E9
:1020D000868D81FF15C08C918923A9F4FF91EF9122
:1020E000DF91CF91BF91AF919F918F916F915F9150
:1020F0004F913F912F910F900FBE0F901F90189509
:102100008C91892359F7A389B4899C9185898095FD
:1021100089238C93868997890197F1F7408D518D9A
:10212000C685D785658529E090E080E0DA011197C2
:10213000F1F7969587953881362309F090682150FC
:10214000A9F79C01220F232F221F330B3195868D77
:1021500081FF02C02095309580918E0390E001961A
:102160008F73992740918D034817B1F0A0918E038A
:10217000B0E0AA0FBB1FA05BBD4F2D933C93809393
:102180008E03828D938D0197F1F7A389B4898C9189
:102190009589892B8C93A2CF868D8160868FF1CF14
:1021A00061E08DE00E949E0361E08DE00E943E03AD
:1021B0006AEF70E080E090E00E94FF0360E08DE055
:1021C0000E943E036AEF70E080E090E00E94FF030F
:1021D000EBCFCF93DF93109276041092750488EEC4
:1021E00093E0A0E0B0E08093770490937804A0930C
:1021F0007904B0937A042AE031E030937404209398
:10220000730425EC30E03093800420937F0424ECA9
:1022100030E0309382042093810420EC30E030934E
:1022200084042093830421EC30E0309386042093CF
:10223000850422EC30E0309388042093870426EC58
:1022400030E030938A042093890410928C04109219
:102250008D0410928E0410928F04109294031092A9
:1022600093038093950390939603A0939703B09361
:1022700098032CE131E03093920320939103109264
:102280002205109228051092270510922905109218
:102290002A0510922B0510922C0523E734E0309389
:1022A0002E0520932D0540E052EC61E070E0409354
:1022B00010055093110560931205709313052DE0DE
:1022C00030E030931505209314052BE2209316057A
:1022D0002DE2209317054CED55E060E070E040934F
:1022E00018055093190560931A0570931B0522E891
:1022F0003CE030931D0520931C0520E939E0309324
:102300001F0520931E052CE33EE03093210520930A
:1023100020051092D8031092D7038093D90390938D
:10232000DA03A093DB03B093DC038EE291E0909399
:10233000D6038093D5031092EC031092EB03109216
:10234000EE031092ED031092F0031092EF0310923F
:10235000F2031092F1036091F3036E7F6D7F60933F
:10236000F3036695617081E068278BE00E943E036D
:1023700061E08BE00E949E03EBEDF1E0E491E093DD
:10238000E503E7ECF1E0E491F0E0EE0FFF1FEE541F
:10239000FE4F859194919093E7038093E60360E06C
:1023A0008AE00E949E038091F30381FD04C061E0F6
:1023B0008AE00E943E038AE08093E103EAEDF1E0C7
:1023C000E491E093E203E6ECF1E0E491F0E0EE0F5B
:1023D000FF1FE855FE4F859194919093E4038093FD
:1023E000E3031092FF031092FE0310920104109277
:1023F000000410920304109202041092050410923B
:1024000004041092FB031092FA0382E090E00E9411
:10241000501D9093FD038093FC03892B11F40E94BF
:10242000D01082E090E09093FF038093FE0383E05E
:102430008093F40382E08093F50384E08093F603B5
:1024400085E08093F703C5E5D9E0D093F903C09305
:10245000F80362E083E00E949E0362E082E00E9453
:102460009E0362E084E00E949E0362E085E00E9499
:102470009E0381E993E09093A4038093A3031092B9
:10248000AD0380E090E0A0ECBFE78093A5039093BC
:10249000A603A093A703B093A8038093A9039093E6
:1024A000AA03A093AB03B093AC031092C1031092A4
:1024B000C2031092C3031092C40388E893E1A0E022
:1024C000B0E080939D0390939E03A0939F03B093ED
:1024D000A003D093A203C093A103DF91CF910895ED
:1024E000CF93DF93CDB7DEB7C154D1090FB6F894BF
:1024F000DEBF0FBECDBF789484B5826084BD84B545
:10250000816084BD85B5826085BD85B5816085BDEE
:1025100080916E00816080936E00109281008091A6
:10252000810082608093810080918100816080932E
:102530008100809180008160809380008091B10053
:1025400084608093B1008091B00081608093B0007E
:1025500080917A00846080937A0080917A00826012
:1025600080937A0080917A00816080937A008091D4
:102570007A00806880937A001092C10061E08091B7
:1025800014050E949E0361E0809114050E943E03A1
:1025900064EC79E080E090E00E94FF03E0902D057C
:1025A000F0902E058090100590901105A0901205D6
:1025B000B090130560E079E08DE390E0A50194010F
:1025C0000E94C31C21503109410951095695479574
:1025D00037952795D7015096ED91FC9182E0808345
:1025E0008114B1EE9B06A104B10421F02115E0E1B4
:1025F0003E07A8F0D7015096ED91FC91108260E85B
:1026000074E88EE190E0A50194010E94C31C215062
:102610003109410951095695479537952795D701B5
:102620001C96ED91FC911D9730831E96ED91FC91C7
:102630001F97208358961C9258975496ED91FC91C1
:10264000559786E080835296ED91FC915397808157
:10265000806180835296ED91FC91539780818860D0
:1026600080835296ED91FC9153978081806880839E
:102670005296ED91FC9180818F7D808360E0809106
:1026800014050E943E031092F0031092EF03109283
:10269000EE031092ED031092EC031092EB0382E034
:1026A0009DE09093F2038093F1039091E1039631C2
:1026B00008F047C02FE636E03093EC032093EB039D
:1026C00020E03DE03093EE032093ED0327EB39E06B
:1026D0003093F0032093EF032091680084E098305A
:1026E00048F031E09E3008F430E081E001C0880F0E
:1026F0003A95EAF7822B809368002DE630E0983017
:1027000050F02BE630E09E3030F02CE630E0963191
:1027100010F030E020E03093E9032093E803292F04
:1027200030E0983008F0ADC081E001C0880F9A9584
:10273000EAF78093EA038091F1039091F203019705
:10274000F1F70E944E060E943204609306047093D3
:10275000070480930804909309040E948F0C0E9440
:10276000FD0C0E946B0D0E94120C0E94930B312CE9
:10277000212CF101EE7F2296FFAFEEAF22976894F5
:1027800020F811E00E94D0060E9432046B017C0107
:102790008091270590912805019731F580912905B1
:1027A00090912A05A0912B05B0912C05A7019601C7
:1027B000281B390B4A0B5B0BDA01C90185369105E1
:1027C000A105B10588F0109228051092270560E058
:1027D000809114050E943E03C0922905D0922A05DB
:1027E000E0922B05F0922C058091F403882329F0C8
:1027F0000E9415037101892B21F02296EEACFFACEB
:1028000022978091F503882309F448C00E9415039C
:10281000892B09F043C06894E1F88091F60388237E
:1028200009F43FC00E941503892BD9F56894E2F89A
:102830008091F7038823C1F10E941503892BA1F52C
:102840006894E3F880913D0490913E04E816F906FF
:1028500031F0F0923E04E0923D040E948F0C85ED31
:1028600093E00E94FD05892B09F497C085ED93E064
:102870000E94150690FF1BC080930A0410933C042D
:10288000EECF9E3040F42850310981E001C0880F1E
:102890002A95EAF74ECF2E503109F7CFE894E1F8A8
:1028A000BCCFE894E2F8C4CFE894E3F8CBCFE09152
:1028B0003C04E233A0F620910A042C3441F1203587
:1028C00071F6E33048F491E09E0F90933C04F0E001
:1028D000EB52FC4F85ABC3CFE33009F690910B046C
:1028E00030910C0420E5290F230F28130AC0892FEB
:1028F000990F990B932B9093400480933F040E946F
:10290000FD0C80913C048F5F80933C04A8CF4E2F38
:1029100050E0E13059F020910B04022E000C330BF3
:10292000B9016F5F7F4F641775074CF0EF5FE0935D
:102930003C044B525C4FDA01D5968C9390CF2E5FBE
:102940003F4F4217530709F08ACFE5EDF3E090E0DF
:102950009F01255D33402417350724F425A9920FE4
:102960003196F6CF8913CDCFFA01EB52FC4F15AA61
:1029700083E3EAE0F4E0DE01119601900D928A957E
:10298000E1F741505109BE016D5F7F4F81E494E052
:102990000E94471F0E946B0DB4CF0E9432044B016E
:1029A0005C0120910004309101042115310509F4E6
:1029B00073C08091060490910704A0910804B0911F
:1029C000090475016401C81AD90AEA0AFB0AD70189
:1029D000C60186399105A105B10508F45DC0E091F5
:1029E000FC03F091FD038091020490910304AC017B
:1029F0004F5F5F4F5093030440930204E80FF91FA9
:102A0000E08021503109309301042093000480912B
:102A1000FE039091FF034817590721F41092030415
:102A2000109202042115310591F0AC0197FF02C00C
:102A30004D5F5F4F559547955595479542175307FD
:102A400034F097FD0196959587950E94AE0985ED26
:102A500093E00E9438066BE471E085ED93E00E94FC
:102A600045050E2C000CFF08B701772785ED93E094
:102A70000E944505B701655B7F4F772785ED93E0A1
:102A80000E9445050E944E0680920604909207041B
:102A9000A0920804B09209040E9432046CAF7DAF8A
:102AA0008EAF9FAF8091AE03811105C09091C0039E
:102AB000992309F435C14091C1035091C20360913B
:102AC000C3037091C403CCACDDACEEACFFAC4C15D1
:102AD0005D056E057F0508F023C1882309F49BC0BE
:102AE0000E94C807882309F42AC18091A903909104
:102AF000AA03A091AB03B091AC038093C50390935C
:102B0000C603A093C703B093C8030E94C807812CD3
:102B1000912C90ECA92E9FE7B92E882341F080904C
:102B2000A5039090A603A090A703B090A80380925D
:102B3000C9039092CA03A092CB03B092CC03C09079
:102B4000C503D090C603E090C703F090C803A70167
:102B50009601C701B6010E949C1C8111F5C0A50118
:102B60009401C501B4010E949C1C8111EDC023ECAD
:102B700035EF4CE851E4C701B6010E94B3192B01AF
:102B80003C0128EB3EE143E753E4C701B6010E9454
:102B9000B81A9B01AC01C301B2010E94241B0E9420
:102BA0009E1B2B013C0120E030E048EC52E4C501C3
:102BB000B4010E94241B21E835E943EC50E40E9453
:102BC000B319A30192010E94B3194B015C0123E3E5
:102BD00033E948E853E4C701B6010E94B81A9B01E3
:102BE000AC01C501B4010E94241B23E333EB48E58B
:102BF00053E40E94B31920E030E04AE754E40E9415
:102C0000B3190E94D01B6093CD037093CE038093C1
:102C1000CF039093D0038091C003882309F466C04A
:102C2000C090CD03D090CE03E090CF03F090D003BE
:102C3000C701B6010E9452199B01AC010E949C1C65
:102C4000811129C021E0C21628EED20623E0E20657
:102C5000F10408F5C701B60120E039E841E450E08D
:102C60000E94E51C08E10E94121DC90120E22CAB64
:102C700021E62DAB9EAB8FABCE01C6960E941E0106
:102C800088AF00E030E020E04AE050E065E0CE01AF
:102C9000C4960E948C0880E28AAF88E08BAF02E085
:102CA0009E012C5C3F4F4CE050E062E0CE01CA96A2
:102CB0000E948C08811151C0E090A103F090A20302
:102CC00060E472E0CE01C4960E947E0BCE01C496F1
:102CD000F7010995CE01C4960E9484081092D20390
:102CE0001092D1031092D4031092D3030E94B40D1A
:102CF00080919D0390919E03A0919F03B091A003AA
:102D0000CCACDDACEEACFFAC8C0D9D1DAE1DBF1D83
:102D10008093C1039093C203A093C303B093C403F1
:102D200080E0E82E80E0F82EEF2809F42BCD0E94F9
:102D30004902882309F425CD0E94000022CD80E0BD
:102D400090E0A0ECBFE7D9CE1092CD031092CE0355
:102D50001092CF031092D0035ECF2EA93FA93093DB
:102D6000B0032093AF038CA99DA99093B2038093E5
:102D7000B1033093D2032093D1039093D403809373
:102D8000D303B4CFCF93DF93C5EDD3E08FA198A544
:102D90000E94EC1D8EE291E099838883CE01DF9141
:102DA000CF910C943806EF920F931F93CF93DF933C
:102DB000E80134E047FD34E1042E000C550B57FFC9
:102DC00003C0519541955109E32E022F242FAE01E6
:102DD0000E940B17CE01DF91CF911F910F91EF90C1
:102DE0000895BB27FB015527AA27880F991FAA1F03
:102DF000A41710F0A41B83955051B9F7A05DAA3316
:102E000008F0A95DA193009779F7B111B1931192E0
:102E1000CB010C944219A9E0B0E0E1E1F7E10C9498
:102E2000771A6A01F22EB02E102FFBE3AF2EA016F8
:102E300008F41BE31F5F012F27E0AE014F5F5F4FD8
:102E40000E946A18BC018981982F9970913009F409
:102E50003FC09BE2E1FC04C09E2D9170E0FC3AC0B3
:102E60005E2D5071E82FE87083FF46C084E0911119
:102E700001C083E0EF2DE81B8F1508F0E0E0D601DC
:102E80008E2F20E2552351F1992329F0D6019C93EE
:102E9000C60101966C0196012D5F3F4FE2FE24C0F2
:102EA0008EE4D6018C9391E411969C93119712961F
:102EB0008C93D9018E2F90E281111BC0E20FF32F6A
:102EC000F11D10828EEF9FEF2996ECE00C94931A7F
:102ED0009DE2C6CF90E2C4CF2D9381508111FCCFEB
:102EE000CE0ED11CE0E0D0CF8EE6D6018C9391E6D9
:102EF000DBCF9D938150E0CF482F447082FF3DC0CF
:102F000084E0911101C083E08F1510F4EF2DE81BD0
:102F1000D6018E2F20E2552309F1992329F0D601FD
:102F20009C93C60101966C0196012D5F3F4FE2FE16
:102F30001BC089E4D6018C938EE411968C93119773
:102F400086E412968C93D9018E2F90E2882309F49F
:102F5000B5CF9D938150FACF2D9381508111FCCF35
:102F6000CE0ED11CE0E0D9CF89E6D6018C938EE657
:102F700011968C93119786E6E4CF9B0177FF02C0F0
:102F800030E020E0A1E0B0E0911102C0B0E0A0E0AC
:102F9000F9013196AE0FBF1F8B2C912CBB2009F489
:102FA00061C05401EFEFAE1ABE0AAA0DBB1DFA169E
:102FB0001B0619F014F04F2D4A1B511188C0E3FC79
:102FC00059C07601A42FB0E2A1114FC0C40ED11C8C
:102FD000992309F45BC040E0D6011196F601908375
:102FE0006D01552309F448C0012F060F9A81582F0F
:102FF000507184FF03C0913309F4015010160CF096
:1030000047C0093008F008E0EEE2FE2E5B01A01A8E
:10301000B10885019194819491082F3F320729F4DA
:10302000D601FC92F60131966F016217730794F195
:10303000021713077CF5DB01A21BB30BAA24A39490
:10304000B12CAC0EBD1EAA0DBB1D11968C9121504A
:103050003109D601119628153905F4F0F60180835F
:103060006D01DBCFB12CA12CA0CFF701B1937F0173
:10307000A150AACF9111B0CFD601942F50E302C036
:103080005D9391509111FCCFC40ED11C40E0ACCFA8
:1030900001E0BACF80E3DBCF6217730731F49633D8
:1030A00088F4953311F4552369F0F6018083FD010E
:1030B000842F90E2811108C0A40FB11D1C9290E0F2
:1030C00080E002CF81E3F1CF91938150F3CF911152
:1030D00083CF8ACF283008F027E03327DA01990F11
:1030E000311D87FD916000966105710539F43260EC
:1030F0002E5F3D9330E32A95E1F708959F3F30F02E
:1031000080387105610509F03C5F3C5F3D9391306B
:1031100008F08068911DDF93CF931F930F93FF9268
:10312000EF92192F987F9695E92F96959695E90F2E
:10313000FF27E651FF4F99273327EE24FF24A701ED
:10314000E70105900894079428F4360FE71EF81E4F
:10315000491F511D660F771F881F991F0694A1F7FD
:103160000590079428F4E70EF81E491F561FC11D4D
:10317000770F881F991F661F0694A1F70590079483
:1031800028F4F80E491F561FC71FD11D880F991F1D
:10319000661F771F0694A1F70590079420F4490F46
:1031A000561FC71FD81F990F661F771F881F0694C9
:1031B000A9F784911095177041F0D695C79557954A
:1031C0004795F794E7941A95C1F7E0E9F0E0689421
:1031D0001590159135916591959105907FE27395C4
:1031E000E118F10A430B560BC90BD009C0F7E10CEB
:1031F000F11E431F561FC91FD01D7EF4703311F4FA
:103200008A95E6CFE894015030F0080F0AF40027C1
:10321000021708F4202F2395022F7A3328F079E340
:103220007D932A95E9F710C07D932A9589F6069437
:1032300097956795379517951794E118F10A430B01
:10324000560BC90BD00998F023957E9173957A336C
:1032500008F070E37C932013B8F77E9170617D9342
:1032600030F0839571E37D9370E32A95E1F71124A3
:10327000EF90FF900F911F91CF91DF91992787FDDC
:1032800090950895DC01FC01672F71917723E1F798
:10329000329704C07C916D9370836291AE17BF0723
:1032A000C8F30895E89409C097FB3EF49095809583
:1032B000709561957F4F8F4F9F4F9923A9F0F92FFC
:1032C00096E9BB279395F695879577956795B7957A
:1032D000F111F8CFFAF4BB0F11F460FF1BC06F5F60
:1032E0007F4F8F4F9F4F16C0882311F096E911C072
:1032F000772321F09EE8872F762F05C0662371F093
:1033000096E8862F70E060E02AF09A95660F771FA6
:10331000881FDAF7880F9695879597F90895990F82
:103320000008550FAA0BE0E8FEEF16161706E8078F
:10333000F907C0F012161306E407F50798F0621BB0
:10334000730B840B950B39F40A2661F0232B242B85
:10335000252B21F408950A2609F4A140A6958FEFA4
:10336000811D811D08950E94C6190C94371A0E9470
:10337000291A38F00E94301A20F0952311F00C948D
:10338000201A0C94261A11240C946B1A0E94481AC5
:1033900070F3959FC1F3950F50E0551F629FF001A8
:1033A000729FBB27F00DB11D639FAA27F00DB11DC1
:1033B000AA1F649F6627B00DA11D661F829F22274A
:1033C000B00DA11D621F739FB00DA11D621F839FD1
:1033D000A00D611D221F749F3327A00D611D231FA7
:1033E000849F600D211D822F762F6A2F11249F57F5
:1033F00050409AF0F1F088234AF0EE0FFF1FBB1FF8
:10340000661F771F881F91505040A9F79E3F5105B6
:1034100080F00C94201A0C946B1A5F3FE4F3983EF2
:10342000D4F3869577956795B795F795E7959F5F60
:10343000C1F7FE2B880F911D9695879597F90895F2
:1034400097F99F6780E870E060E008959FEF80EC57
:10345000089500240A9416161706180609060895FA
:1034600000240A9412161306140605060895092E60
:103470000394000C11F4882352F0BB0F40F4BF2BCF
:1034800011F460FF04C06F5F7F4F8F4F9F4F08950F
:1034900057FD9058440F551F59F05F3F71F0479505
:1034A000880F97FB991F61F09F3F79F087950895EA
:1034B000121613061406551FF2CF4695F1DF08C009
:1034C000161617061806991FF1CF86957105610526
:1034D00008940895E894BB2766277727CB0197F9CE
:1034E00008952F923F924F925F926F927F928F92A8
:1034F0009F92AF92BF92CF92DF92EF92FF920F9383
:103500001F93CF93DF93CDB7DEB7CA1BDB0B0FB68C
:10351000F894DEBF0FBECDBF09942A883988488849
:103520005F846E847D848C849B84AA84B984C884DF
:10353000DF80EE80FD800C811B81AA81B981CE0FD6
:10354000D11D0FB6F894DEBF0FBECDBFED010895BB
:10355000A29FB001B39FC001A39F700D811D1124D4
:10356000911DB29F700D811D1124911D0895505819
:10357000BB27AA270E94CF1A0C94371A0E94291A37
:1035800038F00E94301A20F039F49F3F19F426F4E5
:103590000C94261A0EF4E095E7FB0C94201AE92F00
:1035A0000E94481A58F3BA176207730784079507F1
:1035B00020F079F4A6F50C946A1A0EF4E0950B2E1F
:1035C000BA2FA02D0B01B90190010C01CA01A00175
:1035D0001124FF27591B99F0593F50F4503E68F1D0
:1035E0001A16F040A22F232F342F4427585FF3CF11
:1035F000469537952795A795F0405395C9F77EF4E2
:103600001F16BA0B620B730B840BBAF09150A1F02A
:10361000FF0FBB1F661F771F881FC2F70EC0BA0FB0
:10362000621F731F841F48F4879577956795B79538
:10363000F7959E3F08F0B0CF9395880F08F0992733
:10364000EE0F9795879508950E94381B0C94371AB2
:103650000E94301A58F00E94291A40F029F45F3F66
:1036600029F00C94201A51110C946B1A0C94261A00
:103670000E94481A68F39923B1F3552391F3951BDF
:10368000550BBB27AA2762177307840738F09F5F83
:103690005F4F220F331F441FAA1FA9F335D00E2EF0
:1036A0003AF0E0E832D091505040E695001CCAF75D
:1036B0002BD0FE2F29D0660F771F881FBB1F261720
:1036C00037074807AB07B0E809F0BB0B802DBF01F7
:1036D000FF2793585F4F3AF09E3F510578F00C94C6
:1036E000201A0C946B1A5F3FE4F3983ED4F386954E
:1036F00077956795B795F7959F5FC9F7880F911DE7
:103700009695879597F90895E1E0660F771F881FD2
:10371000BB1F621773078407BA0720F0621B730B85
:10372000840BBA0BEE1F88F7E095089529F416F084
:103730000C94201A0C946A1A0C94261A0E94501A9F
:10374000A8F39638A0F707F80F92E8942BE33AEA2B
:1037500048EB5FE70E94C9190F920F920F924DB785
:103760005EB70F920E94681CE8E6F0E00E94FF1B23
:103770004F915F91EF91FF91E595EE1FFF1F49F08B
:10378000FE57E0684427EE0F441FFA95E1F7419594
:10379000550B0E94321C0F9007FE0C94261C0895B6
:1037A0000E94501A88F09F5798F0B92F9927B75167
:1037B000B0F0E1F0660F771F881F991F1AF0BA95D5
:1037C000C9F714C0B13091F00E946A1AB1E00895AF
:1037D0000C946A1A672F782F8827B85F39F0B93FA1
:1037E000CCF3869577956795B395D9F73EF4909588
:1037F0008095709561957F4F8F4F9F4F0895DF9310
:10380000CF931F930F93FF92EF92DF927B018C0176
:10381000689406C0DA2EEF010E94C619FE01E894F2
:10382000A5912591359145915591A6F3EF010E94FF
:10383000CF1AFE019701A801DA9469F7DF90EF90A3
:10384000FF900F911F91CF91DF9108959B01AC01E3
:1038500060E070E080E89FE30C94241B0C94201A35
:103860000C94A11C0E94501AD8F39923C9F3940F09
:10387000511DA3F39150504094F059F0882332F039
:10388000660F771F881F91505040C1F79E3F51052A
:103890002CF7880F911D9695879597F908955F3FAE
:1038A000ACF0983E9CF0BB27869577956795B795C9
:1038B00008F4B1609395C1F7BB0F58F711F460FF9E
:1038C000E8CF6F5F7F4F8F4F9F4FE3CF0C946B1A02
:1038D000FA01DC01AA0FBB1F9B01AC01BF5728F402
:1038E000222733274427507820C0B75190F4AB2FBC
:1038F0000024469537952795011CA395D2F3002007
:1039000071F0220F331F441FB395DAF30ED00C94DD
:10391000B71A61307105A0E88A07B94630F49B01F7
:10392000AC016627772788279078309621F020838E
:1039300031834283538308950E948F19880B990B1A
:1039400008959F3F31F0915020F4879577956795C2
:10395000B795880F911D9695879597F9089597FBD0
:10396000072E16F4009407D077FD09D00E942D1D74
:1039700007FC05D03EF4909581959F4F0895709572
:1039800061957F4F0895A1E21A2EAA1BBB1BFD0172
:103990000DC0AA1FBB1FEE1FFF1FA217B307E4072E
:1039A000F50720F0A21BB30BE40BF50B661F771F86
:1039B000881F991F1A9469F7609570958095909566
:1039C0009B01AC01BD01CF010895E894DF93CF9333
:1039D000FC01DB010E94A81A7F936F93E9019A0111
:1039E000AC01BF93AF933F932F93DF010E94A81ABE
:1039F00026F46C1B7D0B820B930B9E01EB01FC01EB
:103A00000E94471DAF91BF912F913F910E94471D8A
:103A1000BE01CF01F9012F913F91CF91DF91089520
:103A200097FD1094002E083098F00850232F342F63
:103A3000452F562F672F782F892F912DF4CF15946E
:103A400097958795779567955795479537952795D6
:103A50000A95AAF71124002D0895AA1BBB1B51E15A
:103A600007C0AA1FBB1FA617B70710F0A61BB70BEE
:103A7000881F991F5A95A9F780959095BC01CD0193
:103A80000895EE0FFF1F0590F491E02D09940E9418
:103A9000A81A460F571FC81FD91F08F4319608955A
:103AA0000F931F93CF93DF938230910510F482E040
:103AB00090E0E0913105F091320530E020E0B0E097
:103AC000A0E0309799F42115310509F44AC0281B6C
:103AD000390B24303105D8F58A819B816115710538
:103AE00089F1FB0193838283FE0111C040815181E2
:103AF0000281138148175907E0F04817590799F4D4
:103B0000109761F012960C93129713961C933296AD
:103B1000CF01DF91CF911F910F910895009331054F
:103B200010933205F4CF2115310551F04217530798
:103B300038F0A901DB019A01BD01DF01F801C1CF15
:103B4000EF01F9CF9093320580933105CDCFFE017F
:103B5000E20FF31F81939193225031093983288317
:103B6000D7CF20912F0530913005232B41F42091A0
:103B70000201309103013093300520932F052091ED
:103B80000001309101012115310541F42DB73EB7F7
:103B90004091040150910501241B350BE0912F0544
:103BA000F0913005E217F307A0F42E1B3F0B281706
:103BB000390778F0AC014E5F5F4F2417350748F0A6
:103BC0004E0F5F1F5093300540932F0581939193C3
:103BD0009FCFF0E0E0E09CCFCF93DF930097E9F038
:103BE000FC01329713821282A0913105B091320507
:103BF000ED0130E020E01097A1F420813181820FA7
:103C0000931F20912F05309130052817390709F0AF
:103C100061C0F0933005E0932F05DF91CF910895B7
:103C2000EA01CE17DF07E8F54A815B819E01411565
:103C30005105B1F7E901FB83EA8349915991C40F1A
:103C4000D51FEC17FD0761F4808191810296840FE6
:103C5000951FE90199838883828193819B838A835D
:103C6000F0E0E0E012968D919C9113970097B9F5E2
:103C70002D913C911197CD010296820F931F2091B7
:103C80002F05309130052817390739F6309751F54F
:103C90001092320510923105B0933005A0932F0594
:103CA000BCCFD383C28340815181840F951FC81735
:103CB000D90761F44E5F5F4F88819981480F591F82
:103CC000518340838A819B819383828321153105AF
:103CD00009F0B0CFF0933205E09331059ECFFD019E
:103CE000DC01C0CF13821282D7CFB0E0A0E0EBE7B7
:103CF000FEE10C94731A8C01009751F4CB010E94E1
:103D0000501D8C01C801CDB7DEB7E0E10C948F1ACD
:103D1000FC01E60FF71F9C0122503109E217F3075F
:103D200008F49DC0D901CD91DC911197C617D70732
:103D300098F0C530D10530F3CE0104978617970768
:103D400008F3C61BD70B2297C193D1936D937C9335
:103D5000CF010E94EC1DD6CF5B01AC1ABD0A4C010D
:103D60008C0E9D1EA0913105B0913205512C412C35
:103D7000F12CE12C109731F580912F0590913005B1
:103D80008815990509F05CC04616570608F058C01A
:103D90008091000190910101009741F48DB79EB789
:103DA0004091040150910501841B950BE817F90718
:103DB00008F055C0F0933005E0932F05F9017183A9
:103DC0006083A0CF8D919C91119712966C90129761
:103DD00013967C901397A815B90559F56C0142E02C
:103DE000C40ED11CCA14DB0420F1AC014A195B09D2
:103DF000DA011296159780F06282738251834083B4
:103E0000D9016D937C93E114F10471F0D7011396FD
:103E1000FC93EE93129776CF22968C0F9D1FF9019B
:103E200091838083F301EFCFF0933205E093310566
:103E300069CF4816590608F42C017D01D3019ACFA9
:103E4000CB010E94501D7C01009749F0AE01B801E2
:103E50000E94371FC8010E94EC1D870153CF10E05C
:103E600000E050CF81E090E0F8940C94561FFB01E5
:103E7000DC0102C001900D9241505040D8F70895E6
:103E8000FB01DC0101900D920020E1F70895FB0198
:103E9000DC014150504048F001900D920020C9F7DC
:103EA00001C01D9241505040E0F7089510E0C3EF6B
:103EB000D0E004C0FE010E94411D2196C43FD107FD
:063EC000C9F7F894FFCFE2
:103EC600000033058000000000007F02DF010C02C5
:103ED600CC023D021B022F0200000000FC04CF04AE
:103EE6007C07A504C804B504A60400000000A105CB
:103EF600DF017C07A504FD0515062B0545050D0A02
:103F06000051554555453A206572726F72206475A9
:103F16006520746F20756E646573697261626C6585
:103F26002073697A6520666F7220717565756520E4
:103F360073697A652E0051554555453A20696E7369
:103F4600756666696369656E74206D656D6F7279F5
:103F560020746F20696E697469616C697A65207472
:103F6600656D706F726172792071756575652E0069
:103F760053454E3A5347503330206E6F7420646574
:103F86007465637465640053454E3A534750333045
:103F96002064657465637465640053454E3A5347FF
:103FA60050333020696E697469616C697A656400A2
:103FB60053454E3A534854333120646574656374EF
:103FC60065640053454E3A5348543331206E6F743E
:103FD600206465746563746564005349473A005309
:103FE600414950004C45443A003132333435363776
:103FF6003855545350004C43443A004149523A0014
:1040060053454E3A5347503330206572726F7200F3
:107E0000112484B714BE81FFF0D085E080938100F7
:107E100082E08093C00088E18093C10086E0809377
:107E2000C20080E18093C4008EE0C9D0259A86E02C
:107E300020E33CEF91E0309385002093840096BBD3
:107E4000B09BFECF1D9AA8958150A9F7CC24DD24C4
:107E500088248394B5E0AB2EA1E19A2EF3E0BF2EE7
:107E6000A2D0813461F49FD0082FAFD0023811F036
:107E7000013811F484E001C083E08DD089C08234E0
:107E800011F484E103C0853419F485E0A6D080C0E4
:107E9000853579F488D0E82EFF2485D0082F10E0AE
:107EA000102F00270E291F29000F111F8ED06801E7
:107EB0006FC0863521F484E090D080E0DECF843638
:107EC00009F040C070D06FD0082F6DD080E0C81688
:107ED00080E7D80618F4F601B7BEE895C0E0D1E017
:107EE00062D089930C17E1F7F0E0CF16F0E7DF06D8
:107EF00018F0F601B7BEE89568D007B600FCFDCFD4
:107F0000A601A0E0B1E02C9130E011968C91119780
:107F100090E0982F8827822B932B1296FA010C0160
:107F200087BEE89511244E5F5F4FF1E0A038BF0790
:107F300051F7F601A7BEE89507B600FCFDCF97BE46
:107F4000E89526C08437B1F42ED02DD0F82E2BD052
:107F50003CD0F601EF2C8F010F5F1F4F84911BD097
:107F6000EA94F801C1F70894C11CD11CFA94CF0C13
:107F7000D11C0EC0853739F428D08EE10CD085E9AC
:107F80000AD08FE07ACF813511F488E018D01DD067
:107F900080E101D065CF982F8091C00085FFFCCF94
:107FA0009093C60008958091C00087FFFCCF809118
:107FB000C00084FD01C0A8958091C6000895E0E648
:107FC000F0E098E1908380830895EDDF803219F02E
:107FD00088E0F5DFFFCF84E1DECF1F93182FE3DFCA
:107FE0001150E9F7F2DF1F91089580E0E8DFEE27F6
:047FF000FF270994CA
:027FFE00040479
:0400000300007E007B
:00000001FF
