:100000000C94E3000C940B010C940B010C940B0169
:100010000C940B010C940B010C940B010C940B0130
:100020000C940B010C94FF060C94CE070C94400822
:100030000C940B010C940B010C940B010C940B0110
:100040000C940B010C940B010C940B010C940B0100
:100050000C940B010C940B010C940B010C94B50641
:100060000C940B010C9423050C94FD040C940B01CF
:100070000C940B010C940B010C940B010C940B01D0
:100080000C940B010C940B010C940B010C940B01C0
:100090000C940B010C940B010C940B010C940B01B0
:1000A0000C940B010C940B010C940B01940297021D
:1000B00086028A029002B802B802B8029B029F022E
:1000C000A302A902AD02B802B3020000000024009E
:1000D00027002A002D0030000000000200090F0058
:1000E00000030401000C00000000000000000000FC
:1000F00000000000000000080B00020202010009DD
:100100000400000102020000052400100105240182
:1001100001010424020605240600010705810310DD
:10012000004009040100020A000000070502024025
:1001300000000705830240000004030904120100C7
:1001400002EF02014041234180000101020301410D
:10015000726475696E6F204C4C430041726475691E
:100160006E6F2059756E0000000000250028002BDE
:10017000002E003100000000002300260029002C82
:10018000002F000404040404030405020202020414
:100190000302020202060606060606040402020222
:1001A0000404040802011040804010204080408078
:1001B00008020401804020100201108010204040FD
:1001C00020006010970C11241FBECFEFDAE0DEBFD5
:1001D000CDBF12E0A0E0B1E0E0ECFBE202C0059090
:1001E0000D92A433B107D9F724E0A4E3B2E001C033
:1001F0001D92AE36B207E1F710E0C2EED0E004C0C7
:100200002197FE010E94A011C13ED107C9F70E94AB
:10021000C70C0C94D3150C9400004091BF02509170
:10022000C0022091BD023091BE0242175307B4F4C0
:100230009091E8009570E1F39091E80092FD19C06B
:100240008093F1008091BF029091C00201968F735C
:100250009927892B19F48EEF8093E8008091BF02D3
:100260009091C00201969093C0028093BF0281E0FA
:10027000089580E00895CF92DF92EF92FF920F935E
:100280001F93CF93DF936C017A018B01C0E0D0E024
:10029000CE15DF0589F0D8016D918D01D601ED9164
:1002A000FC910190F081E02DC6010995892B11F494
:1002B0007E0102C02196ECCFC701DF91CF911F9143
:1002C0000F91FF90EF90DF90CF900895FC01538D38
:1002D000448D252F30E0842F90E0821B930B541720
:1002E00010F0CF96089501970895FC01918D828DAD
:1002F000981761F0828DDF01A80FB11D5D968C917A
:10030000928D9F5F9F73928F90E008958FEF9FEF84
:100310000895FC01918D828D981731F0828DE80F40
:10032000F11D858D90E008958FEF9FEF0895FC01FA
:10033000918D228D892F90E0805C9F4F821B9109C7
:100340008F73992708958BEC92E00E94970121E02A
:10035000892B09F420E0822F0895FC01848DDF01B0
:10036000A80FB11DA35ABF4F2C91848D90E0019628
:100370008F739927848FA689B7892C93A089B18917
:100380008C9180648C93938D848D981306C0028821
:10039000F389E02D80818F7D80830895EF92FF9215
:1003A0000F931F93CF93DF93EC0181E0888F9B8D98
:1003B0008C8D981305C0E889F989808185FD24C05A
:1003C000F62E0B8D10E00F5F1F4F0F731127E02EDD
:1003D0008C8DE8120CC00FB607FCFACFE889F989BA
:1003E000808185FFF5CFCE010E94AD01F1CF8B8DCD
:1003F000FE01E80FF11DE35AFF4FF0820B8FEA89EF
:10040000FB898081806207C0EE89FF896083E8896B
:10041000F98980818064808381E090E0DF91CF91D1
:100420001F910F91FF90EF900895CF93DF93EC0110
:10043000888D8823C9F0EA89FB89808185FD05C004
:10044000A889B9898C9186FD0FC00FB607FCF5CF3E
:10045000808185FFF2CFA889B9898C9185FFEDCF86
:10046000CE010E94AD01E7CFDF91CF91089580E0EA
:1004700090E0892B29F00E94A30181110C940000C7
:100480000895CF93DF931F92CDB7DEB76983DC0168
:10049000ED91FC910280F381E02D41E050E0BE013E
:1004A0006F5F7F4F09950F90DF91CF91089583E0A3
:1004B0008093E9008091F200882319F08AE3809309
:1004C000E8000895FC018485958597FD0BC09FB7D2
:1004D000F89482E08093E9008091F2009FBF90E061
:1004E000019608959FB7F89482E08093E900809187
:1004F000F2009FBF90E0089590E0FC013197EF304B
:10050000F105B0F5EA5AFF4F0C94A01180918000DC
:100510008F7703C0809180008F7D80938000089545
:1005200080918000877FF9CF84B58F7702C084B532
:100530008F7D84BD0895809190008F7707C0809152
:1005400090008F7D03C080919000877F8093900002
:1005500008958091C0008F7703C08091C0008F7D87
:100560008093C00008958091C200877F8093C2006D
:1005700008953FB7F8948091B9029091BA02A09182
:10058000BB02B091BC0226B5A89B05C02F3F19F055
:100590000196A11DB11D3FBFBA2FA92F982F882703
:1005A000820F911DA11DB11DBC01CD0142E0660F5E
:1005B000771F881F991F4A95D1F708952091C90286
:1005C0003091CA022817390781F49091C7028091AF
:1005D000C802981751F0E091C702F0E0EE0FFF1F3C
:1005E000EC5CFD4F8081918108958FEF9FEF08951E
:1005F0000895EF92FF920F931F93CF93DF93DC0147
:100600005C962D913C915D972115310539F481E07F
:1006100090E013969C938E93129740C05196ED9163
:10062000FC91529750969C915097892F8095FFB6D8
:100630005E964C915E9741FBEE24E0F841FF02C0CC
:1006400060957095F8944081EE2011F0492B01C01F
:1006500048234083E9012197F1F749E0508160FF89
:1006600002C0592B01C058235083E9012197F1F7AB
:1006700076956795415091F7EE2021F0908189237E
:10068000808303C08081982B9083FFBE5C968D9100
:100690009C915D970197F1F721E030E0C901DF916E
:1006A000CF911F910F91FF90EF9008951F93CF93DB
:1006B000DF93DC015C962D913C915D97211531050E
:1006C00039F481E090E013969C938E9312973DC08D
:1006D0005196ED91FC91529750969C915097892F8D
:1006E00080951FB75E964C915E9741FB772770F916
:1006F00041FD6095F8944081772311F0492B01C0AA
:1007000048234083E9012197F1F748E0508160FFD9
:1007100002C0592B01C058235083E9012197F1F7FA
:100720006695415099F7772321F090818923808342
:1007300003C08081982B90831FBF5C968D919C9104
:100740005D970197F1F721E030E0C901DF91CF918A
:100750001F9108952091C9023091CA0228173907C4
:1007600071F48091C8022091C70290E0805C9F4F95
:10077000821B910960E470E00E946A11089580E094
:1007800090E008952091C9023091CA0228173907D4
:10079000C9F49091C7028091C802981799F0E0912E
:1007A000C702F0E0EE0FFF1FEC5CFD4F80819181EE
:1007B0002091C70230E02F5F3F4F2F7333272093E4
:1007C000C70208958FEF9FEF0895089580E090E0AD
:1007D00008956115710579F0FB0101900020E9F79A
:1007E0003197AF01461B570BDC01ED91FC91028064
:1007F000F381E02D099480E090E008950E94720C4E
:1008000090E008950F931F93CF93DF931F92CDB77E
:10081000DEB78C01FC018485958597FF0EC0CE0163
:1008200001960E94480C019719F4298130E002C01A
:100830002FEF3FEFF80135872487F80184859585F0
:100840000F90DF91CF911F910F910895CF93DF9378
:100850001F92CDB7DEB7FC018485958597FD05C055
:100860002FEF3FEF358724870BC0CE0101960E9402
:10087000480C019719F4898190E002C08FEF9FEF37
:100880000F90DF91CF910895CF92DF92EF92FF9278
:100890000F931F93CF93DF931F92CDB7DEB7182F1F
:1008A000062FE42E862F880F8E5F99830E940D01FC
:1008B00083E00E940D01F12EC12E9981D92E8C2D3D
:1008C0008F19801798F4F601E7FE02C0849101C0E9
:1008D00080810E940D01182F80E00E940D0181236C
:1008E000FFEFCF1ADF0A8111EACF01C081E00F903C
:1008F000DF91CF911F910F91FF90EF90DF90CF90FC
:100900000895DF92EF92FF920F931F93CF93DF939F
:10091000D82E8A017B01E40EF51EEB01CE15DF0512
:1009200071F0D7FE03C0FE01849101C088810E944E
:100930000D0121968111F2CF8FEF9FEF01C0C80109
:10094000DF91CF911F910F91FF90EF90DF9008956D
:10095000615030F02091F100FC0120830196F8CF26
:10096000289884E68093C50208950F931F93CF9330
:10097000DF93EC010E94E9038C0166E571E0CE0192
:100980000E94E903800F911FDF91CF911F910F917A
:1009900008951F93CF93DF93182FEB01E091CB02C3
:1009A000F091CC020190F081E02D682F8BEC92E069
:1009B000099569E571E08BEC92E00E94E903BE01C4
:1009C0008BEC92E00E94B504E0916803F09169031A
:1009D0000190F081E02D612F88E693E0099569E5AB
:1009E00071E088E693E00E94E903BE0188E693E0A7
:1009F000DF91CF911F910C94B5041F920F920FB607
:100A00000F9211242F933F934F935F936F937F9394
:100A10008F939F93AF93BF93EF93FF938BEC92E0F1
:100A20000E94AD01FF91EF91BF91AF919F918F9186
:100A30007F916F915F914F913F912F910F900FBEDA
:100A40000F901F9018951F920F920FB60F921124BE
:100A50002F938F939F93EF93FF93E091DB02F0919D
:100A6000DC028081E091E102F091E20282FD12C09D
:100A700090818091E4028F5F8F732091E50282174D
:100A800051F0E091E402F0E0E553FD4F958F809343
:100A9000E40201C08081FF91EF919F918F912F918E
:100AA0000F900FBE0F901F901895CF93DF93282FB4
:100AB00030E0F901E852FF4F8491F901EE55FE4F05
:100AC000D491F901ED57FE4FC491CC2391F08111DF
:100AD0000E947C02EC2FF0E0EE0FFF1FEB58FE4F60
:100AE000A591B491EC91ED2381E090E021F480E0B8
:100AF00002C080E090E0DF91CF9108951F93CF93E3
:100B0000DF93282F30E0F901E852FF4F8491F9017B
:100B1000EE55FE4FD491F901ED57FE4FC491CC2311
:100B2000C9F0162F81110E947C02EC2FF0E0EE0F2D
:100B3000FF1FE959FE4FA591B4918FB7F894111199
:100B400005C09C91ED2FE095E92302C0EC91ED2BBF
:100B5000EC938FBFDF91CF911F910895CF93DF93D7
:100B600090E0FC01EE55FE4F2491FC01ED57FE4F45
:100B70008491882361F190E0880F991FFC01E6536E
:100B8000FF4FC591D491FC01E959FE4FA591B49155
:100B9000611109C09FB7F8948881209582238883CA
:100BA000EC912E230BC0623061F49FB7F89438812A
:100BB000822F809583238883EC912E2B2C939FBFCB
:100BC00006C08FB7F894E8812E2B28838FBFDF9162
:100BD000CF9108958F929F92AF92BF92CF92DF9262
:100BE000EF92FF926B017C010E94B9024B015C0104
:100BF000C114D104E104F104F1F00E94B902DC0156
:100C0000CB0188199909AA09BB09883E9340A1051F
:100C1000B10570F321E0C21AD108E108F10888EEAD
:100C2000880E83E0981EA11CB11CC114D104E104FC
:100C3000F10419F7DDCFFF90EF90DF90CF90BF90D8
:100C4000AF909F908F9008958F929F92AF92BF9296
:100C5000CF92DF92EF92FF920F931F93CF93DF9388
:100C60005C016B017A0180910B01882309F45BC060
:100C70008091C602882309F456C08091C20280FF89
:100C800005C08091E00082608093E000E70110E001
:100C90000AEF83E0882E9AE3992E2097D9F10E94DB
:100CA000720C81110AC0015009F43DC061E070E08E
:100CB00080E090E00E94EA05F0CF282F30E0C217D4
:100CC000D3070CF48C2F4FB7F8948092E9009091E1
:100CD000E80095FF1DC0282F30E0C21BD30BF601A2
:100CE000982F915020F081918093F100FACFC20E9D
:100CF000D31E112319F09092E80009C08091E800FA
:100D000085FD06C09092E80011E0209709F010E000
:100D10004FBFC3CF1111C3CF5D9884E68093C1024A
:100D20001E141F0444F081E090E0F5019383828358
:100D300080E090E001C0C701DF91CF911F910F913A
:100D4000FF90EF90DF90CF90BF90AF909F908F90EB
:100D500008952FB7F8946091B5027091B602809112
:100D6000B7029091B8022FBF08951F920F920FB64D
:100D70000F9211242F933F938F939F93AF93BF9321
:100D80008091B5029091B602A091B702B091B802DD
:100D90003091B40223E0230F2D3720F40196A11DDA
:100DA000B11D05C026E8230F0296A11DB11D209399
:100DB000B4028093B5029093B602A093B702B093A9
:100DC000B8028091B9029091BA02A091BB02B09191
:100DD000BC020196A11DB11D8093B9029093BA0285
:100DE000A093BB02B093BC02BF91AF919F918F9132
:100DF0003F912F910F900FBE0F901F9018951F924B
:100E00000F920FB60F9211242F933F934F935F933E
:100E10006F938F939F93AF93BF93CF93DF93EF9392
:100E2000FF93E091C902F091CA02309709F45AC0C9
:100E3000968DA685B785858591FF04C09C918923F1
:100E400029F450C09C91892309F04CC0A389B4892E
:100E50009C918589809589238C93868997890197B0
:100E6000F1F7408D518DC685D785658529E080E0F5
:100E700090E0DA011197F1F796958795388136233E
:100E800009F090682150A9F79C01220F232F221FFF
:100E9000330B3195868D81FF02C02095309580916E
:100EA000C80290E001968F7399274091C7024817B6
:100EB00061F0A091C802B0E0AA0FBB1FAC5CBD4FAF
:100EC0002D933C938093C80203C0868D8160868FEA
:100ED000828D938D0197F1F7A389B4899C918589BF
:100EE000892B8C93FF91EF91DF91CF91BF91AF91BF
:100EF0009F918F916F915F914F913F912F910F90A3
:100F00000FBE0F901F901895E091C902F091CA0290
:100F1000E817F90769F4A389B4899C9185898095BC
:100F200089238C931092CA021092C90281E008951D
:100F300080E008950E94E7120F931F93CF93DF93F1
:100F40001F92CDB7DEB782E0898342E450E067EFBD
:100F500070E080E80E9481040E94830CDC011296FC
:100F60000D911C9113970115110569F0D801ED91B0
:100F7000FC910280F381E02DBE016F5F7F4FC801BD
:100F8000099597FF07C089810F90DF91CF911F913D
:100F90000F910895F80100851185E5CF1F920F92FA
:100FA0000FB60F9211248F939F938091E10090913F
:100FB000E100937F9093E10083FF0FC01092E9005E
:100FC00091E09093EB001092EC0092E39093ED008F
:100FD0001092C60298E09093F00082FF20C093E048
:100FE0009093E9009091F200992319F09AE390937D
:100FF000E8009091C102992339F09091C10291507B
:101000009093C102992389F19091C502992339F0F7
:101010009091C50291509093C502992341F184FFAC
:1010200010C08091E2008E7E81608093E20080910A
:10103000E1008F7E8093E1008091C2028E7E80610C
:1010400011C080FF16C08091E2008E7E8061809387
:10105000E2008091E1008E7E8093E1008091C202E7
:101060008E7E81608093C20204C05D9ACDCF289AA3
:10107000D6CF9F918F910F900FBE0F901F90189514
:101080001F920F920FB60F921124CF92DF92EF9220
:10109000FF920F931F932F933F934F935F936F9301
:1010A0007F938F939F93AF93BF93EF93FF93CF93D0
:1010B000DF93CDB7DEB76C97DEBFCDBF1092E900EE
:1010C0008091E80083FFEDC168E0CE0145960E9463
:1010D000A80482EF8093E8008D8987FF05C0909176
:1010E000E80090FFFCCF03C09EEF9093E800982F9C
:1010F000907609F0C6C09E892F89188D91110CC079
:10110000803829F48091C4028093F10002C01092CB
:10111000F1001092F10048C1422F50E0512B913064
:1011200051F4811141C14130510509F03DC1809117
:10113000C4028D7F0BC0933061F4811135C1413001
:10114000510509F031C18091C40282608093C402CC
:101150002BC1953041F48091E80080FFFCCF2068DE
:101160002093E30021C1963009F05FC0EB8CFC8C2A
:101170001092E9001092C0021092BF02123091F555
:101180001092BE021092BD020E949C0799E0BE011F
:101190006F5F7F4FDB01E92F1D92EA95E9F7998395
:1011A0001A8391E09E8390EA98879AEF998720911D
:1011B000BF023091C002275F3F4F3C832B838D835A
:1011C0001092E9001092C0021092BF02F092BE028B
:1011D000E092BD0249E050E080E00E9481040E945C
:1011E0009C07E2C0F092BE02E092BD020E94830C16
:1011F000DC011296ED90FC901397E114F10409F4D0
:10120000C0C0D701ED91FC910480F581E02DBE01B5
:101210006B5E7F4FC7010995009719F00CF0C4C0B1
:10122000C7C0F701E084F184E8CF973009F4C0C06B
:10123000983021F481E08093F100B6C0993009F034
:10124000B3C0837009F0B4C0E8E1F1E081E021E0CF
:1012500036E39081992361F08093E9002093EB00BD
:1012600091919093EC003093ED008F5F873089F778
:101270008EE78093EA001092EA008F898093C6027D
:1012800093C08B8D9C8D1092E9001092C002109239
:10129000BF029093BE028093BD02898D811156C01A
:1012A0008E899D89913A59F4813209F081C047E0D5
:1012B00050E064E071E080E00E94810475C09132EA
:1012C00009F076C0833289F4888D90E0982F8827C2
:1012D0002F89822BA0E0B0E0809300019093010160
:1012E000A0930201B09303015FC0803269F4809142
:1012F000E80082FFFCCF67E084E091E00E94A80450
:101300008BEF8093E80006C0823209F04DC08F89D0
:1013100080930B018091C302882319F0EEEFFAE06D
:1013200002C0E0E0F8E08091040190910501A091F5
:101330000601B0910701803B9440A105B10509F079
:101340007BC080910B0180FF93C076C00E94830C0C
:10135000DC0112960D911C9113970115110541F1B5
:10136000D801ED91FC910190F081E02DBE016B5E02
:101370007F4FC8010995811117C0F80100851185BB
:10138000ECCF113009F44EC0133091F48F898823CB
:1013900009F445C0823081F440E86BE08BE591E0D0
:1013A0000E944404882321F08EEF8093E80079C0E6
:1013B00081E28093EB0075C0813029F440E86BE056
:1013C0008FE491E0EDCF833099F70E94830CDC012C
:1013D0001296ED90FC9013978E010F5F1F4F6801DE
:1013E000E114F10479F0D701ED91FC910680F781C9
:1013F000E02DB801C7010995080F111DF701E08420
:10140000F184EECFD8011C92F60101900020E9F79B
:101410003197BF016C197D0940E0C601C1CF69E376
:1014200071E002C06DE371E06115710509F2FB0125
:10143000449150E080E840CF0FB6F894A895809191
:101440006000886180936000109260000FBEA895D4
:10145000EE3F2AE0F20739F08091FE0A9091FF0AF0
:1014600091838083A1CF1092FF0A1092FE0A9CCF35
:10147000EE3F8AE0F80731F0808191819093FF0A76
:101480008093FE0A87E797E7918380839BE088E15A
:101490000FB6F894A895809360000FBE90936000FB
:1014A00083CF6C960FB6F894DEBF0FBECDBFDF9131
:1014B000CF91FF91EF91BF91AF919F918F917F91CC
:1014C0006F915F914F913F912F911F910F91FF90DD
:1014D000EF90DF90CF900F900FBE0F901F90189558
:1014E000AF92BF92CF92DF92EF92FF920F931F9332
:1014F000CF93DF938C01181619061CF062EB71E094
:101500001BC00E94BA11EC010097A1F0C090E30348
:10151000D090E403E090DF03F090E0032091E50336
:101520003091E603A090E103B090E203FC01281B98
:10153000390B08C067EE71E08091DD039091DE0306
:101540000E94C10CCF018C1B9D0B8C159D0564F472
:10155000C9018E0F9F1FB5010E946A11D701A80F04
:10156000B91F8C918193EECFC7010E944F12D09387
:10157000E003C093DF031092E6031092E50380912D
:10158000E3039091E4039093E8038093E7031093BF
:10159000E2030093E103DF91CF911F910F91FF9040
:1015A000EF90DF90CF90BF90AF900895CF93C82F6A
:1015B0002091E3033091E4038091E1039091E203F1
:1015C0002817390729F4C901880F991F0E94700A4A
:1015D0008091DF039091E0032091E7033091E803CD
:1015E000A9014F5F5F4F5093E8034093E703FC016D
:1015F000E20FF31FC0832091E7033091E80380914D
:10160000E1039091E2032817390721F41092E803CF
:101610001092E7038091E3039091E4030196909385
:10162000E4038093E303CF9108958091D2039091D6
:10163000D303892B31F18091C9029091CA0223E032
:10164000883B9207F1F0009711F00E948407809187
:10165000D6038E7F8093D6031092C8021092C702E1
:1016600088EB93E09093CA028093C902E091CB0388
:10167000F091CC0390818091CD03892B808381E010
:10168000089580E00895E091DB03F091DC03099573
:101690000E94A90660935A0470935B0480935C04D3
:1016A00090935D040895CF93DF9300D000D01F92F4
:1016B000CDB7DEB785E0E1E2F2E0DE011196019000
:1016C0000D928A95E1F7209120043091210480E069
:1016D00090E04EE2B901082E02C0759567950A9414
:1016E000E2F760FD07C0E1E0F0E0EC0FFD1FE80F5E
:1016F000F91F408301968430910561F7BE016F5F49
:101700007F4F83E50E94430B0F900F900F900F9037
:101710000F90DF91CF910895CF93DF93CDB7DEB7D0
:101720002D970FB6F894DEBF0FBECDBF8DE0E6E279
:10173000F2E0DE01119601900D928A95E1F7209179
:1017400022043091230480E090E04EE2B901082E9B
:1017500002C0759567950A94E2F760FD07C0E1E065
:10176000F0E0EC0FFD1FE80FF91F408301968C306D
:10177000910561F7BE016F5F7F4F80E50E94430BCB
:101780002D960FB6F894DEBF0FBECDBFDF91CF917F
:1017900008958733C1F194F4823359F13CF48033D6
:1017A00019F124F5813209F440C00895843329F1F8
:1017B00014F1853321F1863321F108958F3659F1E3
:1017C00044F4893321F10CF18F3389F1833609F127
:1017D0000895833741F11CF4803709F10895863765
:1017E00001F18837D1F0089580E301C081E30C94C2
:1017F000D60A82E3FCCF83E3FACF84E3F8CF85E314
:10180000F6CF86E3F4CF87E3F2CF88E3F0CF89E326
:10181000EECF8AE3ECCF8BE3EACF8CE3E8CF8DE326
:10182000E6CF8EE3E4CF8FE3E2CF8AEAE0CF0E94F7
:10183000530B0E948C0B64E274E08CE40C94430B19
:10184000EBECF2E0A089B18982E08C93A485B585A8
:101850001C92A685B78580E18C93108EA489B589EA
:1018600086E08C93A289B3898C9180618C93A28944
:10187000B3898C9188608C93A289B3898C9180689C
:101880008C930288F389E02D80818F7D8083089579
:10189000FC018091C602811103C08FEF9FEF089574
:1018A0009FB7F89482E08093E9002091F20030E045
:1018B0001216130614F421E030E02115310559F019
:1018C000289884E68093C5028091F10080838091FE
:1018D000F200882319F09FBFC90108958BE6809319
:1018E000E800F9CF2FB7F89483E08093E900909156
:1018F000E800892F807295FF04C09091F20080E487
:10190000891B2FBF08958091620481110DC082E070
:1019100080935E0484E080935F04109261041092CF
:10192000600481E0809362048EE594E00895CF9393
:10193000DF93C8EBD3E08FA198A50E944F1286E4F5
:1019400091E099838883CE01DF91CF910C94840735
:1019500061E08DE00E94AE0561E08DE00E947E05B1
:101960006AEF70E080E090E00E94EA0560E08DE0C0
:101970000E947E056AEF70E080E090E00E94EA0538
:10198000EBCF009711F00E94B5040E94A80CCF93F2
:10199000DF93CDB7DEB7EA970FB6F894DEBF0FBE80
:1019A000CDBF789484B5826084BD84B5816084BDE8
:1019B00085B5826085BD85B5816085BD80916E00ED
:1019C000816080936E00109281008091810082601E
:1019D000809381008091810081608093810080915B
:1019E000800081608093800080919100826080936C
:1019F000910080919100816080939100809190008E
:101A00008160809390008091C10084608093C100C8
:101A10008091C10082608093C1008091C10081608B
:101A20008093C1008091C30081608093C300809146
:101A3000C00082608093C0008091C200816080936A
:101A4000C20080917A00846080937A0080917A004D
:101A5000826080937A0080917A00816080937A001E
:101A600080917A00806880937A001092C60210926A
:101A7000C4021092C2028091D70081608093D70087
:101A800080EA8093D80089B5806189BD89B582607C
:101A900089BD09B400FEFDCF61E070E080E090E018
:101AA0000E94EA058091D8008F7C80618093D800E5
:101AB0008091E000807F8093E0008091E1008E7E45
:101AC0008093E1008DE08093E200559A209AEEEF3A
:101AD000FFE7859194918B3F9C4D19F481E08093B1
:101AE000C30262E087E00E94AE0561E08DE00E94E3
:101AF000AE0561E08DE00E947E0564EC79E080E057
:101B000090E00E94EA058FEF9FEF9093750380931A
:101B100074030E94200C1092D3031092D2031092EF
:101B2000D1031092D0031092CF031092CE0382E023
:101B30009DE09093D5038093D4038091C40398EFE4
:101B4000980F943048F022EF280F243028F026EE2A
:101B5000280F233008F060C02FE636E03093CF0323
:101B60002093CE0320E03DE03093D1032093D003B7
:101B700027EB39E03093D3032093D203943058F00D
:101B800092EF980F943038F08A51833008F490C265
:101B9000A0E0B0E08FC2A8E6B0E0E8E6F0E0808127
:101BA00081608C938091C40398EF980F943058F023
:101BB00022EF280F243038F026EE280F233018F0BB
:101BC00020E030E002C02BE630E03093CC032093DD
:101BD000CB03943010F49CEF09C08E3071F08F303D
:101BE00071F0803171F0813171F09AEE980F81E0DF
:101BF00001C0880F9A95EAF707C088E005C082E027
:101C000003C084E001C081E08093CD038091D403C0
:101C10009091D5030197F1F70E94150B0E94A90638
:101C20006093E9037093EA038093EB039093EC03D2
:101C30006BE571E088E693E00E94B504E12CF12C9D
:101C40004701E89480F86894E0F8E3E37E2EF8EE2C
:101C50002F2EF3E03F2E412C512CA2E1AA2EA1E021
:101C6000BA2E6E0184E3C80ED11C87E00E94550590
:101C7000892B09F44DC061E671E088E693E00E948B
:101C8000B5048BEC92E00E941502E091DD02F09128
:101C9000DE0280818F7E8083E091DD02F091DE02A2
:101CA0008081877F8083E091DD02F091DE02808178
:101CB0008F778083E091DD02F091DE0280818F7D5D
:101CC00080838091E5028093E40287E00E945505BD
:101CD000892BA9F061E08DE00E947E0564E670E04A
:101CE00080E090E00E94EA0560E08DE00E947E05C1
:101CF00064E670E080E090E00E94EA05E6CF0E9492
:101D0000200C61E771E088E693E00E94B50404C00E
:101D100060E08DE00E947E0588E693E00E9462020A
:101D2000892B31F088E693E00E9426040E94C90BBB
:101D30008BEC92E00E949701892B31F08BEC92E0C2
:101D40000E9475010E94C90B8091D703882331F04E
:101D50000E945505892B11F4870101C084018091EF
:101D6000D803882331F00E945505892B11F40260B5
:101D700001C00D7F8091D903882331F00E94550561
:101D8000892B11F4046001C00B7F8091DA03882352
:101D900031F00E945505892B11F4086001C0077FBE
:101DA00080912004909121040817190781F0109365
:101DB0002104009320040E94A906609356047093A6
:101DC000570480935804909359040E94530B11E0D8
:101DD00088EB93E00E94AA03892B09F49BC088EB4F
:101DE00093E00E94C20390FF05C08093ED0310931F
:101DF0001F04EECFE0911F04E23350F72091ED0372
:101E00002C3481F1203521F7E33030F491E09E0F3E
:101E100090931F04F0E039C0E330D1F62091EE0337
:101E200030E5320F9091EF03390F38136DC0892FD1
:101E3000990F990B982F8827022E000C330B822BB9
:101E4000932B90932304809322040E94A90660930D
:101E500056047093570480935804909359040E9439
:101E60008C0B52C04E2F50E0E13059F02091EE0320
:101E7000022E000C330BB9016F5F7F4F641775079B
:101E800044F0EF5FE0931F04FA01E854FC4F85AB88
:101E90009FCF2E5F3F4F4217530709F099CF20E0A5
:101EA00030E090E02417350744F4F901E854FC4F82
:101EB00065A9960F2F5F3F4FF5CF981325C0FA0104
:101EC000E854FC4F15AAEDEEF3E0DE011196872DE4
:101ED00001900D928A95E1F741505109BE016D5F65
:101EE0007F4F84E294E00E94EC120E94A906609366
:101EF000560470935704809358049093590464E2F5
:101F000074E08CE40E94430B80911F048F5F8093E8
:101F10001F045ECF8091E3039091E403892B09F4C1
:101F200066C00E94A9060091E9031091EA0320917E
:101F3000EB033091EC03DC01CB01801B910BA20B76
:101F4000B30B87399105A105B10508F08DC04FC0CD
:101F50006091DF037091E0038091E5039091E603C7
:101F6000AC014F5F5F4F5093E6034093E503FB01E5
:101F7000E80FF91F1081215031093093E4032093B9
:101F8000E3038091E1039091E2034817590721F49C
:101F90001092E6031092E5032115310509F074C093
:101FA00088EB93E00E9484076BE471E088EB93E098
:101FB0000E94F902012F110F110BB801772788EB4E
:101FC00093E00E94F902B801655B7F4F772788EBA9
:101FD00093E00E94F9020E94150B0E94A9066093EB
:101FE000E9037093EA038093EB039093EC030E9460
:101FF000A90600915A0410915B0420915C04309171
:102000005D04DC01CB01801B910BA20BB30B813D66
:102010009740A105B10528F10E94A9060091560438
:10202000109157042091580430915904601B710B92
:10203000820B930BA20191010E947E115F934F933B
:102040003F932F93BF92AF92DF92CF920E94FB12E9
:10205000B60188E40E94430B0FB6F894DEBF0FBEB2
:10206000CDBF0E94370201CE2091E3033091E403FB
:102070002115310509F06CCF60E871E08091DD0336
:102080009091DE030E94C10CAC0197FF02C04D5F2E
:102090005F4F5595479555954795421753070CF453
:1020A0007FCF97FD0196959587950E94700A78CF0E
:1020B000A8E6B0E0833008F470CDE0E0F0E06FCD4A
:1020C0001092CE021092CD0288EE93E0A0E0B0E034
:1020D0008093CF029093D002A093D102B093D2020A
:1020E00022E231E03093CC022093CB022DEC30E0A1
:1020F0003093D8022093D7022CEC30E03093DA02F0
:102100002093D90228EC30E03093DC022093DB02EC
:1021100029EC30E03093DE022093DD022AEC30E03F
:102120003093E0022093DF022EEC30E03093E202A5
:102130002093E1021092E4021092E5021092E6026E
:102140001092E70210926B0310926A0380936C0363
:1021500090936D03A0936E03B0936F0324E331E07B
:1021600030936903209368032FEF3FEF309375039B
:10217000209374031092BB031092BA038093BC03A4
:102180009093BD03A093BE03B093BF0386E491E098
:102190009093B9038093B8031092CF031092CE03AB
:1021A0001092D1031092D0031092D3031092D20355
:1021B0001092D5031092D4036091D6036E7F6D7F89
:1021C0006093D6036695617081E068278BE00E947A
:1021D0007E0561E08BE00E94AE05EDEAF1E0E4915E
:1021E000E093C803EEE8F1E0E491F0E0EE0FFF1FAA
:1021F000E959FE4F859194919093CA038093C90346
:1022000060E08AE00E94AE058091D60381FD04C0A3
:1022100061E08AE00E947E058AE08093C403ECEAD4
:10222000F1E0E491E093C503EDE8F1E0E491F0E042
:10223000EE0FFF1FEB58FE4F859194919093C703CB
:102240008093C6031092E2031092E1031092E4031C
:102250001092E3031092E6031092E5031092E80354
:102260001092E7031092DE031092DD0382E090E00B
:102270000E94BA119093E0038093DF03892B11F43D
:102280000E94A80C82E090E09093E2038093E10327
:1022900083E08093D70382E08093D80384E0809327
:1022A000D90385E08093DA0389EC94E09093DC0312
:1022B0008093DB0362E083E00E94AE0562E082E08F
:1022C0000E94AE0562E084E00E94AE0562E085E017
:1022D0000C94AE0597FB072E16F4009407D077FDFB
:1022E00009D00E94A61107FC05D03EF49095819577
:1022F0009F4F0895709561957F4F0895A1E21A2E22
:10230000AA1BBB1BFD010DC0AA1FBB1FEE1FFF1F99
:10231000A217B307E407F50720F0A21BB30BE40BE9
:10232000F50B661F771F881F991F1A9469F7609530
:102330007095809590959B01AC01BD01CF010895EA
:10234000EE0FFF1F0590F491E02D0994AA1BBB1B13
:1023500051E107C0AA1FBB1FA617B70710F0A61BA5
:10236000B70B881F991F5A95A9F780959095BC01C6
:10237000CD010895CF93DF938230910510F482E070
:1023800090E0E0916C04F0916D0420E030E0C0E05A
:10239000D0E0309711F14081518148175907C0F0C2
:1023A0004817590761F482819381209719F09B8324
:1023B0008A832BC090936D0480936C0426C02115F2
:1023C000310519F04217530718F49A01BE01DF01D5
:1023D000EF010280F381E02DDCCF2115310509F1F9
:1023E000281B390B2430310590F412968D919C9165
:1023F00013976115710521F0FB019383828304C05B
:1024000090936D0480936C04FD01329644C0FD01ED
:10241000E20FF31F81939193225031092D933C9346
:102420003AC020916A0430916B04232B41F420912F
:102430000E0130910F0130936B0420936A042091B8
:102440000C0130910D012115310541F42DB73EB736
:102450004091100150911101241B350BE0916A0449
:10246000F0916B04E217F307A0F42E1B3F0B281723
:10247000390778F0AC014E5F5F4F2417350748F0FD
:102480004E0F5F1F50936B0440936A0481939193A6
:1024900002C0E0E0F0E0CF01DF91CF9108950F930B
:1024A0001F93CF93DF93009709F48CC0FC01329700
:1024B0001382128200916C0410916D0401151105B4
:1024C00081F420813181820F931F20916A04309121
:1024D0006B042817390779F5F0936B04E0936A04CD
:1024E00071C0D80140E050E0AE17BF0750F412961B
:1024F0002D913C911397AD012115310509F1D901B9
:10250000F3CF9D01DA013383228360817181860FCD
:10251000971F8217930769F4EC0128813981260FF0
:10252000371F2E5F3F4F318320838A819B819383A6
:102530008283452B29F4F0936D04E0936C0442C030
:102540001396FC93EE931297ED01499159919E01D8
:10255000240F351FE217F30771F480819181840FF6
:10256000951F029611969C938E9382819381139668
:102570009C938E931297E0E0F0E0D80112968D9133
:102580009C911397009719F0F8018C01F6CF8D916B
:102590009C9198012E5F3F4F820F931F20916A04F8
:1025A00030916B042817390769F4309729F4109299
:1025B0006D0410926C0402C01382128210936B049B
:1025C00000936A04DF91CF911F910F91089581E0EC
:1025D00090E0F8940C94D315FB01DC01415050407D
:1025E00048F001900D920020C9F701C01D924150A2
:1025F0005040E0F70895AEE0B0E0E1E0F3E10C9484
:10260000AA150D891E8986E08C831A8309838FEFB2
:102610009FE79E838D83AE01475E5F4F6F89788D04
:10262000CE0101960E941E132F813885F801E20F1A
:10263000F31F10822E96E4E00C94C615ACE0B0E0D7
:10264000E4E2F3E10C949C157C016B018A01FC012E
:1026500017821682838181FFBDC1CE0101964C0194
:10266000F7019381F60193FD859193FF81916F01AD
:10267000882309F4ABC1853239F493FD859193FF2A
:1026800081916F01853229F4B70190E00E9406150F
:10269000E7CF512C312C20E02032A0F48B3269F0AE
:1026A00030F4803259F0833269F420612CC08D32CD
:1026B00039F0803339F4216026C02260246023C0C1
:1026C000286021C027FD27C030ED380F3A3078F45C
:1026D00026FF06C0FAE05F9E300D1124532E13C072
:1026E0008AE0389E300D1124332E20620CC08E32C9
:1026F00021F426FD6BC1206406C08C3611F42068DD
:1027000002C0883641F4F60193FD859193FF8191D3
:102710006F018111C1CF982F9F7D9554933028F47C
:102720000C5F1F4FFFE3F9830DC0833631F0833711
:1027300071F0833509F05BC022C0F8018081898384
:102740000E5F1F4F44244394512C540115C038018F
:10275000F2E06F0E711CF801A080B18026FF03C06B
:10276000652D70E002C06FEF7FEFC5012C870E94DE
:10277000FB142C0183012C852F77222E17C03801E2
:10278000F2E06F0E711CF801A080B18026FF03C03B
:10279000652D70E002C06FEF7FEFC5012C870E94AE
:1027A000F0142C012C852068222E830123FC1BC0F1
:1027B000832D90E048165906B0F4B70180E290E00E
:1027C0000E9406153A94F4CFF50127FC859127FE67
:1027D00081915F01B70190E00E94061531103A9493
:1027E000F1E04F1A51084114510471F7E5C08436E5
:1027F00011F0893639F5F80127FF07C06081718132
:10280000828193810C5F1F4F08C060817181072E08
:10281000000C880B990B0E5F1F4F2F76722E97FFBF
:1028200009C090958095709561957F4F8F4F9F4F10
:102830002068722E2AE030E0A4010E943E15A82EE6
:10284000A81844C0853729F42F7EB22E2AE030E044
:1028500025C0F22FF97FBF2E8F36C1F018F48835CE
:1028600079F0B4C0803719F0883721F0AFC02F2F2E
:102870002061B22EB4FE0DC08B2D8460B82E09C02D
:1028800024FF0AC09F2F9660B92E06C028E030E0D2
:1028900005C020E130E002C020E132E0F801B7FEDF
:1028A00007C060817181828193810C5F1F4F06C0D8
:1028B0006081718180E090E00E5F1F4FA4010E9453
:1028C0003E15A82EA818FB2DFF777F2E76FE0BC095
:1028D000372D3E7FA51450F474FE0AC072FC08C068
:1028E000372D3E7E05C0BA2C372D03C0BA2C01C04F
:1028F000B52C34FF0DC0FE01EA0DF11D808180333F
:1029000011F4397E09C032FF06C0B394B39404C0F9
:10291000832F867809F0B39433FD13C030FF06C0CF
:102920005A2CB31418F4530C5B18B32CB31468F47A
:10293000B70180E290E03C870E940615B3943C8585
:10294000F5CFB31410F43B1801C0312C34FF12C082
:10295000B70180E390E03C870E9406153C8532FF7A
:1029600017C031FD03C088E790E002C088E590E021
:10297000B7010CC0832F867859F031FF02C08BE27B
:1029800001C080E237FD8DE2B70190E00E9406159C
:10299000A51438F4B70180E390E00E9406155A941C
:1029A000F7CFAA94F401EA0DF11D8081B70190E000
:1029B0000E940615A110F5CF332009F451CEB701BE
:1029C00080E290E00E9406153A94F6CFF7018681E6
:1029D000978102C08FEF9FEF2C96E2E10C94B8151F
:1029E000FC010590615070400110D8F780959095DA
:1029F0008E0F9F1F0895FC016150704001900110DF
:102A0000D8F7809590958E0F9F1F08950F931F9371
:102A1000CF93DF93FB01238121FD03C08FEF9FEF55
:102A200028C022FF16C04681578124813581421774
:102A3000530744F4A081B1819D012F5F3F4F318343
:102A400020838C93268137812F5F3F4F37832683E6
:102A500010C0EB01092F182F0084F185E02D099596
:102A6000892BE1F68E819F8101969F838E83812F32
:102A7000902FDF91CF911F910F910895FA01AA270E
:102A8000283051F1203181F1E8946F936E7F6E5FB1
:102A90007F4F8F4F9F4FAF4FB1E03ED0B4E03CD05F
:102AA000670F781F891F9A1FA11D680F791F8A1F42
:102AB000911DA11D6A0F711D811D911DA11D20D0A9
:102AC00009F468943F912AE0269F11243019305D63
:102AD0003193DEF6CF010895462F4770405D419354
:102AE000B3E00FD0C9F7F6CF462F4F70405D4A33A1
:102AF00018F0495D31FD4052419302D0A9F7EACF69
:102B0000B4E0A6959795879577956795BA95C9F797
:102B100000976105710508959B01AC010A2E06948A
:102B20005795479537952795BA95C9F7620F731F43
:102B3000841F951FA01D08952F923F924F925F9280
:102B40006F927F928F929F92AF92BF92CF92DF92BD
:102B5000EF92FF920F931F93CF93DF93CDB7DEB722
:102B6000CA1BDB0B0FB6F894DEBF0FBECDBF0994B6
:102B70002A88398848885F846E847D848C849B840D
:102B8000AA84B984C884DF80EE80FD800C811B811B
:102B9000AA81B981CE0FD11D0FB6F894DEBF0FBE4A
:102BA000CDBFED01089510E0C2EED0E004C0FE01FB
:102BB0000E94A0112196C33ED107C9F7F894FFCF18
:102BC000FFFFFFFF00E100000000000000006E04B6
:102BD0008000256C75000000C180810000000000AD
:102BE0000000CE013B0166011502970175018901C4
:102BF0000000000041022406FE0357026202260480
:102C000002040000000056033B01E603F802AA0399
:102C1000C203DE02F9020D0A003A005265616479CE
:102C2000004272696467652064697361626C6564FF
:102C30000042726964676520656E61626C6564005C
:102C400051554555453A2063616E277420706F7069
:102C5000206974656D2066726F6D2071756575658C
:102C60003A20717565756520697320656D7074799A
:102C70002E0051554555453A206572726F72206499
:102C8000756520746F20756E646573697261626C1E
:102C9000652073697A6520666F7220717565756548
:102CA0002073697A652E0051554555453A20696E65
:102CB00073756666696369656E74206D656D6F72A4
:102CC0007920746F20696E697469616C697A652016
:102CD00074656D706F726172792071756575652E9E
:102CE000005341495000313233343536373855546A
:042CF000535000003D
:1070000055C000006EC000006CC000006AC00000E7
:1070100068C0000066C0000064C0000062C00000DC
:1070200060C000005EC00000FCC400005AC0000048
:1070300058C0000056C0000054C0000052C00000FC
:1070400050C000005DC000004CC000004AC00000FD
:1070500048C0000046C0000044C0000042C000001C
:1070600040C000003EC000003CC000003AC000002C
:1070700038C0000036C0000034C0000032C000003C
:1070800030C000002EC000002CC000002AC000004C
:1070900028C0000026C0000024C0000022C000005C
:1070A00020C000001EC000001CC0000011241FBE34
:1070B000CFEFDAE0DEBFCDBF11E0A0E0B1E0E6E463
:1070C000FFE702C005900D92A63AB107D9F711E08B
:1070D000A6EAB1E001C01D92AF3BB107E1F74FD383
:1070E00030C78ECFF89410926F001092810081E02B
:1070F00085BF15BE47985D9A289A0C9400000895A4
:107100001F920F920FB60F9211242F938F939F937C
:10711000EF93FF9310928500109284008091A60156
:107120009091A701009741F001979093A701809358
:10713000A601892B09F45D9A8091A8019091A9017B
:10714000009741F001979093A9018093A801892BA2
:1071500009F4289A8091AC019091AD010196909329
:10716000AD018093AC01E0E0F0E0859194918F5FF8
:107170009F4F49F08091AA019091AB0101969093A5
:10718000AB018093AA01FF91EF919F918F912F9175
:107190000F900FBE0F901F90189584E08093E90028
:1071A0000DC08091E8008B778093E80003C08EB318
:1071B000882351F08091E80082FFF9CF8091E800A8
:1071C00085FFEFCF8091F1000895982F83E08093A1
:1071D000E9008091E80085FD0DC08091E8008E7780
:1071E0008093E80003C08EB3882369F08091E800A3
:1071F00080FFF9CF9093F1005D9884E690E0909342
:10720000A7018093A60108954F925F926F927F929B
:107210008F929F92AF92BF92CF92DF92EF92FF92A6
:107220000F931F93CF93DF9384E08093E9008091C5
:10723000E80082FF57C2289884E690E09093A90165
:107240008093A801AADF182F853481F48CE49DE196
:107250009093AB018093AA0107B600FCFDCFF9998A
:10726000FECF81E180935700E89503C0843519F47F
:1072700094DF8DE00DC28C34E1F38035D1F3843797
:1072800021F484E4A2DF80E003C2813611F489E5B1
:10729000FFC18134B1F481DF182F7FDF90E0880FC8
:1072A000991FAA2797FDA095BA2F312F330F20E001
:1072B000442737FD4095542F822B932BA42BB52BBD
:1072C000B8C1803711F483E5E3C1833549F4C0E0E8
:1072D000D1E089917ADF21E0C730D207D1F7D9C157
:1072E000863521F481E371DF80E3D2C1833731F445
:1072F00087E86BDF85E969DF8EE1CAC18536B9F4BD
:10730000E0E0F0E093E085E090935700E89507B661
:1073100000FCFDCF80935700E89507B600FCFDCF39
:10732000E058FF4FA0E7E030FA0771F7A2CF8237AD
:1073300039F4E1E0F0E089E0809357008491A8C13E
:10734000863439F4E0E0F0E089E0809357008491DE
:107350009FC18E3439F4E3E0F0E089E08093570078
:10736000849196C1813539F4E2E0F0E089E08093C0
:10737000570084918DC1823631F489E526DF80E0A3
:1073800024DF80E885C1823419F0873609F0E5C032
:107390001092AB011092AA0100DF082FFEDEF82E3A
:1073A000FCDE682E8554823008F071C1902F80E099
:1073B000CF2DD0E0C82BD92B10926F00173609F0D3
:1073C0004BC081E180935700E895DD24CC24C39421
:1073D0003FC0E090AF01F090B0010091B101109179
:1073E000B201B6E46B16D9F4ED2DF0E0EE29FF29D9
:1073F000E4918E2FEADEDD2081F082E090E0A0E0D3
:10740000B0E0E80EF91E0A1F1B1FE092AF01F092D8
:10741000B0010093B1011093B201DC2418C0D8016F
:10742000C701B695A7959795879575D5CEDE82E06D
:1074300090E0A0E0B0E0E80EF91E0A1F1B1FE092EA
:10744000AF01F092B0010093B1011093B201219706
:10745000209709F0BECF7DC08090AF019090B00121
:10746000A090B101B090B20196E4691609F05DC038
:1074700083E0F40180935700E89507B600FCFDCF48
:1074800054C0F6E46F1661F5772031F1E090AF015A
:10749000F090B0010091B1011091B2017EDED82EC2
:1074A000CC24852D90E08C299D29F7010C01409278
:1074B0005700E895112482E090E0A0E0B0E0E80EEB
:1074C000F91E0A1F1B1FE092AF01F092B00100935A
:1074D000B1011093B20102C060DE582E742423C0A3
:1074E000E090AF01F090B0010091B1011091B201B4
:1074F00016950795F794E79450DE682FC70113D5CA
:107500008091AF019091B001A091B101B091B20111
:107510000296A11DB11D8093AF019093B001A0937D
:10752000B101B093B201219704C0552477244424BB
:107530004394209709F0A5CF96E4691641F485E0BD
:10754000F40180935700E89507B600FCFDCF8DE06D
:107550003CDE82E080936F009CC0833471F4009124
:10756000AF011091B00119DE90E021E0F8010C01AB
:1075700020935700E89511247CCE833619F5E090CE
:10758000AF01F090B0010091B1011091B20105DEA0
:10759000F701E16090E021E00C0120935700E895AD
:1075A000112482E090E0A0E0B0E0E80EF91E0A1F8E
:1075B0001B1FE092AF01F092B0010093B101109354
:1075C000B20157CE8D3661F4E091AF01F091B00178
:1075D00085E080935700E89507B600FCFDCF49CEC3
:1075E000823551F4E091AF01F091B0010591149111
:1075F000812FEBDD802F4CC0843421F5E090AF016A
:10760000F090B0010091B1011091B201169507956B
:10761000F794E794C2DD682FC70185D48091AF014C
:107620009091B001A091B101B091B2010296A11D5B
:10763000B11D8093AF019093B001A093B101B093BD
:10764000B20117CE843609F5E090AF01F090B00199
:107650000091B1011091B201D801C701B695A7956B
:107660009795879558D4B1DD82E090E0A0E0B0E036
:10767000E80EF91E0A1F1B1FE092AF01F092B00145
:107680000093B1011093B20104C08B3111F08FE36C
:107690009CDD83E08093E9009091E8008091E80010
:1076A0008E778093E80095FF04C010C08EB38823C6
:1076B000C9F08091E80080FFF9CF8091E8008E77D3
:1076C0008093E80003C08EB3882361F08091E800C6
:1076D00080FFF9CF84E08093E9008091E8008B7708
:1076E0008093E800DF91CF911F910F91FF90EF9071
:1076F000DF90CF90BF90AF909F908F907F906F90D2
:107700005F904F9008959091B701892F8F778132C4
:1077100049F58091B8018032A1F0813219F5913A92
:1077200009F58091E800877F8093E8008CE091E084
:1077300067E070E027D28091E8008B778093E800C3
:107740000895913279F48091E800877F8093E80072
:107750008CE091E067E070E079D28091E8008E776C
:107760008093E800089582E061EC42E0D1D083E0AC
:1077700061E842E1CDD084E060E842E1C9C01F93F6
:10778000209100081092000844B714BE88E10FB69B
:10779000F89480936000109260000FBE80E8E0E0F3
:1077A000F0E00FB6F89480936100E09361000FBEA3
:1077B00031E035BF92E095BF3F9A209A559A809369
:1077C00061001092610047985D9A289A1092890092
:1077D0008AEF8093880090936F0083E0809381000C
:1077E000859194918F5F9F4F11F03093AE01942F4C
:1077F00041FF19C0809109012817A9F08093000862
:10780000789480911301882339F08091AC01909194
:10781000AD018F5E9240C8F310920008F89481E0A9
:10782000809313010CC090FF04C08091AE018823A7
:1078300051F493FF09C080910901281729F0809124
:10784000AE01882309F04EDCD4D078941092AB01BD
:107850001092AA011EEF20C0D7DC4BD38091AA0161
:107860009091AB0181549F4110F0109213018091CF
:10787000B3019091B40101969093B4018093B30148
:10788000292F97FF03C0512F591B252F220F28178F
:1078900010F4479801C0479A809113018823E1F6BC
:1078A0008091E00081608093E0001CDC80E090E04B
:1078B0001F910895FA01923049F0933061F09130B0
:1078C000F9F484E191E022E130E01EC086E291E02B
:1078D0002EE330E019C0882329F484E691E024E007
:1078E00030E012C0813029F488E691E022E230E0F5
:1078F0000BC0823029F48CE891E028E130E004C02C
:1079000080E090E020E030E091838083C901089519
:107910008093E9008091EB0081608093EB001092EE
:10792000ED006093EC004093ED008091EE00881F25
:107930008827881F08958091B70188238CF403C09D
:107940008EB38823B1F08091E80082FFF9CF809157
:10795000E8008B778093E80008958EB3882349F080
:107960008091E80080FFF9CF8091E8008E778093C6
:10797000E8000895EF92FF920F931F9345D04CD0EB
:1079800008ED10E0F80180818F7780838081806826
:10799000808380818F7D808319BC1EBA1092B501CF
:1079A00080EEE82EF12CF70180818B7F8083F80137
:1079B00080818160808380E060E042E0A9DFE1EEC9
:1079C000F0E080818E7F8083E2EEF0E08081816054
:1079D0008083808188608083F70180818E7F8083AF
:1079E000F8018081806180831F910F91FF90EF905B
:1079F0000895E7EDF0E08081816080838AE482BFB2
:107A000081E08093B601B6CFE8EDF0E080818E7F13
:107A100080831092E20008951092DA001092E10043
:107A200008951F920F920FB60F9211242F933F9338
:107A30004F935F936F937F938F939F93AF93BF9376
:107A4000EF93FF938091DA0080FF1BC08091D800F4
:107A500080FF17C08091DA008E7F8093DA008091DA
:107A6000D90080FF0BC080E189BD82E189BD09B4E6
:107A700000FEFDCF81E08EBB3BD203C019BC1EBA15
:107A800037D28091E10080FF17C08091E20080FF33
:107A900013C08091E2008E7F8093E2008091E2002B
:107AA00080618093E2008091D80080628093D8004A
:107AB00019BC85E08EBB1CD28091E10084FF2CC0F4
:107AC0008091E20084FF28C080E189BD82E189BD08
:107AD00009B400FEFDCF8091D8008F7D8093D8003F
:107AE0008091E1008F7E8093E1008091E2008F7EA3
:107AF0008093E2008091E20081608093E2008091B7
:107B0000B501882331F48091E30087FD02C081E054
:107B100001C084E08EBBECD18091E10083FF21C0E5
:107B20008091E20083FF1DC08091E100877F8093F8
:107B3000E10082E08EBB1092B5018091E1008E7F62
:107B40008093E1008091E2008E7F8093E20080913B
:107B5000E20080618093E20080E060E042E0D8DEF5
:107B6000C7D1FF91EF91BF91AF919F918F917F917D
:107B70006F915F914F913F912F910F900FBE0F909A
:107B80001F9018959C014091BD015091BE01461770
:107B9000570718F4F90190E044C06115710511F020
:107BA000AB01F8CF8091E8008E778093E80040E049
:107BB00050E0F0CF8EB3882309F444C0853009F437
:107BC00043C08091E80083FF02C081E00895809166
:107BD000E80082FD31C08091E80080FF22C08091E2
:107BE000F3009091F200782F60E0292F30E0262BEF
:107BF000372B07C081918093F100415050402F5F97
:107C00003F4F4115510519F02830310598F390E0A8
:107C10002830310509F491E08091E8008E77809357
:107C2000E8004115510531F6992321F605C08EB3C0
:107C3000882341F0853041F08091E80082FFF7CF42
:107C400080E0089582E0089583E008959C01611525
:107C5000710529F48091E8008B778093E800F901A1
:107C600026C08EB3882391F1853091F18091E80090
:107C700083FF02C081E008958091E80082FFF1CF88
:107C800006C08091F10081936150704059F02091BD
:107C9000F3008091F200322F20E090E0822B932BB2
:107CA000892B79F78091E8008B778093E800611544
:107CB0007105B9F605C08EB3882341F0853041F0D7
:107CC0008091E80080FFF7CF80E0089582E008957A
:107CD00083E008950F931F93DF93CF9300D0CDB728
:107CE000DEB7E7EBF1E08091F100819381E0EF3BBB
:107CF000F807C9F708DD8091E80083FFE4C08091B0
:107D0000B7019091B801953009F46DC0963040F4F8
:107D1000913081F1913070F0933009F0D4C02AC0D5
:107D2000983009F4A3C0993009F4B2C0963009F034
:107D3000CAC07CC0803809F4C6C0823809F0C3C00C
:107D40008091BB0187708093E9008091EB001092D5
:107D5000E9002091E800277F2093E80090E025E0EB
:107D6000969587952A95E1F781708093F10010929E
:107D7000F10087C0882319F0823009F0A4C08F7108
:107D8000823009F0A0C08091B901882331F520919B
:107D9000BB01277009F497C02093E9008091EB00A4
:107DA00080FF1BC0933021F48091EB00806213C0F0
:107DB0008091EB0080618093EB0081E090E002C055
:107DC000880F991F2A95E2F78093EA001092EA0043
:107DD0008091EB0088608093EB001092E900809125
:107DE000E800877F51C0882309F06DC01091B90168
:107DF0001F770FB7F8948091E800877F8093E800A1
:107E00009ADD8091E80080FFFCCF8091E3008078CC
:107E1000812B8093E30080688093E300112311F4A9
:107E200082E001C083E08EBB0FBF4DC0805882301E
:107E300008F049C08091B9019091BA016091BB01ED
:107E4000AE014F5F5F4F36DDBC01009709F43BC0C8
:107E50008091E800877F8093E80089819A8192DE93
:107E60008091E8008B778093E8002DC0803859F529
:107E70008091E800877F8093E8008091B50180932E
:107E8000F1008091E8008E778093E80054DD1BC0FC
:107E90008823C9F49091B9019230A8F48091E80048
:107EA000877F8093E8009093B50145DD8091B5010F
:107EB000882331F48091E30087FD02C081E001C096
:107EC00084E08EBB50DC8091E80083FF0AC0809183
:107ED000EB0080628093EB008091E800877F8093C5
:107EE000E8000F900F90CF91DF911F910F910895AF
:107EF00008951F938EB3882361F01091E9001092CA
:107F0000E9008091E80083FF01C0E4DE1770109360
:107F1000E9001F910895F999FECF92BD81BDF89AAD
:107F2000992780B50895262FF999FECF1FBA92BDE3
:107F300081BD20BD0FB6F894FA9AF99A0FBE01964A
:067F40000895F894FFCF44
:107F46004341544552494E41007700080000000065
:107F5600000008011201100102000008412341003F
:107F660001000201000109023E00020100803209FF
:107F7600040000010202010005240010010424028D
:107F8600040524060001070582030800FF09040111
:107F960000020A000000070504021000010705831D
:107FA6000210000104030904220341007200640068
:107FB600750069006E006F002000590075006E00A4
:107FC60020002000200020002000000018034100AF
:107FD60072006400750069006E006F0020004C009E
:067FE6004C004300000006
:040000030000700089
:00000001FF
