:100000000C94F4000C941C010C941C010C94A50E8F
:100010000C94A50E0C94A50E0C941C010C941C01C0
:100020000C941C010C941C010C941C010C941C01DC
:100030000C941C010C941C010C941C010C941C01CC
:100040000C943C0D0C941C010C940A0D0C94E40CC3
:100050000C941C010C941C010C941C010C941C01AC
:100060000C94860D0C941C0107634236B79BD8A7ED
:100070001A39685618AEBAAB558C1D3CB7CC5763CD
:10008000BD6DEDFD753EF6177231BF000000803F7B
:1000900000407A10F35A00A0724E18090010A5D43F
:1000A000E80000E87648170000E40B54020000CA9C
:1000B0009A3B000000E1F5050000809698000000E2
:1000C00040420F000000A086010000001027000041
:1000D0000000E803000000006400000000000A00C7
:1000E000000000000100000000002C76D888DC67CA
:1000F0004F0823DFC1DFAE59E1B1B796E5E3E45322
:10010000C63AE651997696E8E6C28426EB898C9B3E
:1001100062ED407C6FFCEFBC9C9F40F2BAA56FA5DE
:10012000F490055A2AF75C936B6CF9676DC11BFC60
:10013000E0E40D47FEF520E6B500D0ED902E03007B
:10014000943577050080841E080000204E0A0000C8
:1001500000C80C333333330F986E12831141EF8D87
:100160002114893BE65516CFFEE6DB18D1844B38C7
:100170001BF77C1D901DA4BBE424203284725E22F8
:100180008100C9F124ECA1E53D2700000000240016
:1001900027002A00000000080002010000030407F5
:1001A0000000000000000000000000002300260006
:1001B000290000000000250028002B00040404048E
:1001C0000404040402020202020203030303030301
:1001D00001020408102040800102040810200102DE
:1001E000040810203B0F821611241FBECFEFD8E069
:1001F000DEBFCDBF25E0A6EAB2E001C01D92A13866
:10020000B207E1F712E0A0E0B1E0E6E9FEE302C0E8
:1002100005900D92A63AB107D9F710E0C3EFD0E0F0
:1002200004C02197FE010E942E1DC23FD107C9F7CD
:100230000E94A6100C943E1F0C940000FC019081BB
:10024000909528E081E397FF03C0990F982701C09C
:10025000990F2150C1F78181892798E021E387FF19
:1002600003C0880F822701C0880F9150C1F70895FD
:100270009091E2039111FCCF91E09093E20390936F
:10028000E1032FEF2093E0031092DF03260F20936A
:10029000DE039093DD039091DD03880F892B80931B
:1002A000DD038091DC038130F9F41092DC0380914E
:1002B000DD038093BB008091BC0083FDF8CF85EC0B
:1002C0008093BC008091E2038130E1F38091DF03F1
:1002D000861710F46091DF03ACEBB3E0ECE9F3E0D8
:1002E00080E0861303C0089585EEEACF9D91919337
:1002F0008F5FF7CF982F20919B0381E0213208F088
:1003000043C08091E2038111FCCF80919A0332E0D7
:100310003093E2039093E1039FEF9093E0031092F8
:10032000DF032093DE03AAE7B3E0ECEBF3E090E019
:10033000291331C01092DD039091DD03880F892BC2
:100340008093DD038091DC03813049F51092DC035A
:100350008091DD038093BB008091BC0083FDF8CFCA
:1003600085EC8093BC008091E2038230E1F38091C0
:10037000E0038F3FB1F08091E0038032A1F08091E3
:10038000E003803391F084E01092790310929B0394
:100390001092780308953D9131939F5FC9CF85EE08
:1003A000E0CF80E0F1CF82E0EFCF83E0EDCF0895A2
:1003B0000895AF92BF92CF92DF92EF92FF920F9388
:1003C0001F93CF93DF936C017B018B01040F151FEB
:1003D000EB015E01AE18BF08C017D10759F0699153
:1003E000D601ED91FC910190F081E02DC6010995B7
:1003F000892B79F7C501DF91CF911F910F91FF9064
:10040000EF90DF90CF90BF90AF900895FC01538D97
:10041000448D252F30E0842F90E0821B930B5417DE
:1004200010F0CF96089501970895FC01918D828D6B
:10043000981761F0A28DAE0FBF2FB11D5D968C9104
:10044000928D9F5F9F73928F90E008958FEF9FEF43
:100450000895FC01918D828D981731F0828DE80FFF
:10046000F11D858D90E008958FEF9FEF0895FC01B9
:10047000918D228D892F90E0805C9F4F821B910986
:100480008F739927089581EC94E00E94370221E050
:10049000892B09F420E0822F089580E090E0892BD9
:1004A00029F00E94430281110C9400000895FC0180
:1004B000A48DA80FB92FB11DA35ABF4F2C91848DC5
:1004C00090E001968F739927848FA689B7892C9322
:1004D000A089B1898C91837080648C93938D848D75
:1004E000981306C00288F389E02D80818F7D808378
:1004F0000895EF92FF920F931F93CF93DF93EC0138
:1005000081E0888F9B8D8C8D98131AC0E889F989BA
:10051000808185FF15C09FB7F894EE89FF896083BD
:10052000E889F98980818370806480839FBF81E03E
:1005300090E0DF91CF911F910F91FF90EF90089580
:10054000F62E0B8D10E00F5F1F4F0F731127E02E5B
:100550008C8D8E110CC00FB607FCFACFE889F98993
:10056000808185FFF5CFCE010E945702F1CFEB8D40
:10057000EC0FFD2FF11DE35AFF4FF0829FB7F89467
:100580000B8FEA89FB8980818062CFCFCF93DF9385
:10059000EC01888D8823B9F0AA89BB89E889F9899B
:1005A0008C9185FD03C0808186FD0DC00FB607FCD0
:1005B000F7CF8C9185FFF2CF808185FFEDCFCE0103
:1005C0000E945702E9CFDF91CF910895833081F0E7
:1005D00028F4813099F08230A9F008958730A9F08D
:1005E0008830C9F08430B1F4809180008F7D03C0E1
:1005F000809180008F7780938000089584B58F77F5
:1006000084BD089584B58F7DFBCF8091B0008F7736
:100610008093B00008958091B0008F7DF9CFCF9383
:10062000DF93282F30E0F901EC56FE4F8491F90159
:10063000E053FE4FD491F901E454FE4FC491CC2312
:10064000A1F081110E94E602EC2FF0E0EE0FFF1FF7
:10065000E855FE4FA591B491EC91ED2381E090E037
:1006600009F480E0DF91CF91089580E090E0FACF27
:100670001F93CF93DF93282F30E0F901EC56FE4F04
:100680008491F901E053FE4FD491F901E454FE4FF7
:10069000C491CC23A9F0162F81110E94E602EC2F01
:1006A000F0E0EE0FFF1FEE54FE4FA591B4918FB70F
:1006B000F894EC91111108C0D095DE23DC938FBF24
:1006C000DF91CF911F910895DE2BF8CFCF93DF9369
:1006D00090E0FC01E053FE4F249184549E4FFC01B6
:1006E00084918823C9F090E0880F991FFC01E65798
:1006F000FE4FA591B491FC01EE54FE4FC591D491EB
:1007000061110DC09FB7F8948C91209582238C9332
:100710008881282328839FBFDF91CF91089562307D
:1007200051F49FB7F8943C91822F809583238C934A
:10073000E8812E2BEFCF8FB7F894EC912E2B2C93D2
:100740008FBFEACF3FB7F89480916E0390916F030B
:10075000A0917003B091710326B5A89B05C02F3FEF
:1007600019F00196A11DB11D3FBFBA2FA92F982FD7
:100770008827BC01CD01620F711D811D911D42E0D2
:10078000660F771F881F991F4A95D1F708958F929A
:100790009F92AF92BF92CF92DF92EF92FF926B0146
:1007A0007C010E94A2034B015C01C114D104E1044D
:1007B000F104B9F00E94A203681979098A099B091A
:1007C000683E73408105910580F321E0C21AD1088B
:1007D000E108F10888EE880E83E0981EA11CB11C88
:1007E000E4CFFF90EF90DF90CF90BF90AF909F90BD
:1007F0008F9008952FB7F89460916A0370916B03FE
:1008000080916C0390916D032FBF08950F931F93F8
:100810008091660590916705A0916805B091690582
:10082000892B8A2B8B2B31F10E94FA0300917105E1
:10083000109172052091730530917405AB01BC01D4
:10084000401B510B620B730B91E0009166051091F8
:1008500067052091680530916905401751076207C7
:10086000730708F090E0809170058111892F1F9126
:100870000F91089591E0F7CF85ED8093BC008091B2
:10088000BC0084FDFCCF1092E20308952091460342
:10089000260F3327331F21323105ECF42091E20378
:1008A000FC0190E080E0243069F082E00895A0919E
:1008B00046032191AC014A5D5C4FA40FB52FB11DD9
:1008C0002C930196861798F380914603680F6093E6
:1008D000460380E0089581E008950895E09177034C
:1008E00080917603E81730F4F0E0E456FC4F808105
:1008F00090E008958FEF9FEF089590917703809196
:1009000076032FEF3FEF981748F4E92FF0E0E45615
:10091000FC4F208130E09F5F90937703C9010895D9
:100920008091760390917703891B990B0895CF925C
:10093000DF92EF92FF920F931F93CF93DF937C018F
:10094000CB018A0120917803222389F0EB016B010E
:10095000C40ED51ECC15DD0569F06991D701ED9166
:10096000FC910190F081E02DC7010995F3CF642F30
:100970000E944604C801DF91CF911F910F91FF9013
:10098000EF90DF90CF900895CF93DF931F92CDB774
:10099000DEB76983209178032223F9F020919B032D
:1009A000203258F021E030E0FC013383228390E0D4
:1009B00080E00F90DF91CF91089580917903E82F27
:1009C000F0E0E658FC4F998190838F5F8093790324
:1009D00080939B0381E090E0ECCF61E0CE01019633
:1009E0000E944604F7CFCF93C82F8091F90321E0EE
:1009F0002093780380939A031092790310929B03BB
:100A0000692F87EE93E00E94C4046C2F87EE93E079
:100A10000E94C40481E00E947A01282F36EF32033D
:100A2000C0011124CF9108952091E5033091E60390
:100A30002817390781F49091E3038091E403981714
:100A400051F0E091E303F0E0EE0FFF1FEA55FD4F98
:100A50008081918108958FEF9FEF0895EF92FF922B
:100A60000F931F93CF93DF93DC015C964D915C91C4
:100A70005D974115510579F481E090E013969C93C0
:100A80008E93129790E080E0DF91CF911F910F91AC
:100A9000FF90EF9008955196ED91FC9152975096EA
:100AA0008C915097982F9095EFB65E962C915E970B
:100AB000322F3270F32E21FF02C060957095F894AA
:100AC0002081FF2001F1282B2083EA012197F1F7F3
:100AD00029E0308160FF19C0382B3083EA0121976B
:100AE000F1F7769567952150A1F7FF2081F080817D
:100AF00089238083EFBE5C968D919C910197F1F7DD
:100B000081E090E0C1CF2923DFCF3923E6CF908168
:100B1000892BEFCFEF92FF920F931F93CF93DF9329
:100B2000DC015C96ED90FC905D97E114F10479F4A2
:100B300081E090E013969C938E93129790E080E072
:100B4000DF91CF911F910F91FF90EF9008955196F3
:100B5000ED91FC91529750968C915097982F9095CB
:100B60000FB75E962C915E97122F127021FD609543
:100B7000F8942081112319F1282B2083E701219774
:100B8000F1F728E0462F50E0308160FF1AC0382B83
:100B90003083E7012197F1F7BA01759567952150E8
:100BA00089F7112381F08081892380830FBF5C96B0
:100BB0008D919C910197F1F781E090E0C1CF2923BD
:100BC000DCCF3923E5CF9081892BEFCF2091E5034E
:100BD0003091E6032817390771F48091E4032091DE
:100BE000E30390E0805C9F4F821B910960E470E01A
:100BF0000E949C1C089590E080E008952091E503F8
:100C00003091E60328173907C9F49091E3038091E6
:100C1000E403981799F0E091E303F0E0EE0FFF1F73
:100C2000EA55FD4F808191812091E30330E02F5FF1
:100C30003F4F2F7333272093E30308958FEF9FEFE8
:100C40000895E091E503F091E603E817F90769F4E8
:100C5000A389B4899C918589809589238C9310926E
:100C6000E6031092E50381E0089580E00895809105
:100C70003D0490913E04892B31F18091E5039091E0
:100C8000E60324E083329207F1F0009711F00E940E
:100C90002106809141048E7F809341041092E403E9
:100CA0001092E30383E294E09093E6038093E503DC
:100CB000E0913604F0913704808190913804892BBB
:100CC000808381E0089580E0089590E080E00895B9
:100CD0004F925F926F927F929F92AF92BF92CF920C
:100CE000DF92EF92FF920F931F93CF93DF9300D089
:100CF000CDB7DEB77C0166E08091F9030E94380130
:100D000010927703809376038701670184E0C80E11
:100D1000D11C7E0193E0E90EF11C81E3982EFE01C7
:100D200031965F010E94FA036093EF037093F00322
:100D30008093F1039093F20387EE93E00E947D0489
:100D400097FF5BC00E94FA034090EF035090F003BE
:100D50006090F1037090F203641975098609970990
:100D60004090EB035090EC036090ED037090EE0325
:100D70006415750586059705F8F287EE93E00E94E5
:100D80007D049981909528E097FF03C0990F9925DC
:100D900001C0990F2150C1F729813A8132272327B9
:100DA00032274A81942748E097FF03C0990F99257D
:100DB00001C0990F4150C1F798131CC0F80121934D
:100DC00031938F01EC15FD0509F0A9CF90E080E08B
:100DD0000F900F90DF91CF911F910F91FF90EF90A7
:100DE000DF90CF90BF90AF909F907F906F905F907B
:100DF0004F9008958BE99FEFEBCFF50181935F0151
:100E0000EE15FF0509F08ECFB8CFCF93DF93EC013D
:100E100088819981009711F00E94D91D198218824A
:100E20001D821C821B821A82DF91CF910895FC01E2
:100E3000808191810C94D91D6F927F928F929F92A5
:100E4000AF92BF92CF92DF92EF92FF920F931F93D8
:100E5000CF93DF93CDB7DEB7162F6A013901ADB658
:100E6000BEB620910D0431E03093780320939A03AD
:100E70001092790310929B03982E7C0180910B04B1
:100E800090910C04D7016D917D01DC01ED91FC91F5
:100E90000190F081E02D09958E2D8919811770F34D
:100EA00081E00E947A01B60190E080E00E94C703D1
:100EB000002309F45FC0102F110F100F612F8091D4
:100EC0000D040E943801109277038093760318175F
:100ED000A9F080E00FB6F894BEBE0FBEADBEDF91A4
:100EE000CF911F910F91FF90EF90DF90CF90BF9027
:100EF000AF909F908F907F906F900895EDB7FEB761
:100F0000E11BF1090FB6F894FEBF0FBEEDBF8DB720
:100F10009EB701966C017C014C0180910B0490916D
:100F20000C04DC01ED91FC910284F385E02D099520
:100F3000F40181934F018E2F8C19811770F3630197
:100F400010E0C7010E941E01D70112969C911297D2
:100F50008913BFCF8C9111969C9189279827892757
:100F6000F601819391936F011F5FF3E0EF0EF11C87
:100F70000113E7CF81E0AECF0F93CF93DF9300D083
:100F8000CDB7DEB780E2898383E08A8300E030E07A
:100F900020E04AE050E062E0CE0101960E941C078A
:100FA0000F900F90DF91CF910F910895FB01019069
:100FB0000020E9F73197AF01461B570BDC01ED919B
:100FC000FC910280F381E02D09940F931F93CF933E
:100FD000DF93EC010E9479028C016EE371E0CE0197
:100FE0000E94D607800F911FDF91CF911F910F9123
:100FF0000895CF93C42F0E94E507CC2351F0809130
:10100000FC0381111092FC0380910E048111109257
:101010000E04CF9108950F931F93CF93DF938C010C
:101020000E9406048823C9F0C0917B05D0917C05FD
:10103000F8014481558160817181E881F9810280E4
:10104000F381E02DCE0109956EE371E0CE01DF91D1
:10105000CF911F910F910C94D607DF91CF911F91E3
:101060000F910895EC01009739F00E94D6076EE3C6
:1010700071E0CE010E94D6070E94220FAF92BF926C
:10108000CF92DF92EF92FF920F931F93CF93DF9354
:101090008C0161E471E01816190664F50E943D1D8B
:1010A000EC01009729F1A0904E04B0904F04E0901D
:1010B0004A04F0904B042091500430915104C090A8
:1010C0004C04D0904D04FC01281B390BCF018C1B24
:1010D0009D0B8A159B05A4F4C9018E0F9F1FB601B5
:1010E0000E949C1CD701A80FB91F8C918193EECF51
:1010F00066E771E080914804909149040E943208AB
:10110000C7010E94D91DD0934B04C0934A0410928A
:1011100051041092500480914E0490914F0490938A
:1011200053048093520410934D0400934C04DF91B8
:10113000CF911F910F91FF90EF90DF90CF90BF90D4
:10114000AF900895CF93C82F80914E0490914F0493
:1011500020914C0430914D048217930721F4880F9D
:10116000991F0E943E08E0914A04F0914B0480913F
:101170005204909153049C012F5F3F4F30935304CE
:1011800020935204E80FF91FC0832091520430913C
:10119000530480914C0490914D042817390721F491
:1011A000109253041092520480914E0490914F0477
:1011B000019690934F0480934E04CF9108950F931E
:1011C0001F93CF93DF93EC0188819981009759F0A9
:1011D0002A813B812617370730F081E0DF91CF91DC
:1011E0001F910F9108958B016F5F7F4F0E94621EC8
:1011F000009759F0998388831B830A832C813D8152
:10120000232B59F7FC011082E8CF80E0E7CF0F9342
:101210001F93CF93DF93EC010C811D810F5F1F4F54
:10122000B8010E94DF08882391F0288139818C81E0
:101230009D816FE072E0820F931F0E94281F1D8323
:101240000C83CE01DF91CF911F910F910895CE01B4
:101250000E940507F6CFEF92FF920F931F93CF9353
:10126000DF93EC01FB01E080F180E114F10411F166
:101270000481158101151105A9F08C819D81080F4C
:10128000191FB801CE010E94DF08882399F0288138
:1012900039818C819D81B701820F931F0E94281F85
:1012A0001D830C83CE01DF91CF911F910F91FF9091
:1012B000EF900895CE010E940507F4CFEF92FF92C0
:1012C0000F931F93CF93DF93EC017B018A01BA0147
:1012D0000E94DF0881110BC0CE010E940507CE01DC
:1012E000DF91CF911F910F91FF90EF9008951D8393
:1012F0000C83B701888199810E94281FF0CFFB01E0
:1013000001900020E9F73197AF01461B570B0C9471
:101310005E090F931F93CF93DF93CDB7DEB7A197ED
:101320000FB6F894DEBF0FBECDBF8C01CB01BA0162
:10133000F8011182108213821282158214822AE02F
:10134000AE014F5F5F4F0E94BC16BE016F5F7F4FC3
:10135000C8010E947F09A1960FB6F894DEBF0FBEA8
:10136000CDBFDF91CF911F910F910895EF92FF9222
:101370000F931F93CF93DF93CDB7DEB7A1970FB62F
:10138000F894DEBF0FBECDBF7C01CB01BA01F701DF
:101390001182108213821282158214828E010F5FD5
:1013A0001F4F22E044E00E949316009789F0BC0191
:1013B000C7010E947F09A1960FB6F894DEBF0FBE49
:1013C000CDBFDF91CF911F910F91FF90EF900895C6
:1013D000C7010E940507EFCF0F931F93CF93DF93B1
:1013E000CDB7DEB761970FB6F894DEBF0FBECDBFA5
:1013F0008C01CB01F80111821082138212821582B6
:1014000014824AE0BE016F5F7F4F0E94DE16BE016C
:101410006F5F7F4FC8010E947F0961960FB6F894F5
:10142000DEBF0FBECDBFDF91CF911F910F91089509
:10143000FB01DC0111961C921E9213961C921E92C7
:10144000129715961C921E9214978617970749F0CB
:10145000608171816115710521F0448155810C9481
:101460005E090895FC011182108213821282158296
:1014700014826115710551F0FB0101900020E9F71C
:101480003197AF01461B570B0C945E090895EF92FC
:10149000FF920F931F93CF93DF93CDB7DEB72897BB
:1014A0000FB6F894DEBF0FBECDBF88E580930D0464
:1014B00087EE93E090930C0480930B0410927703D3
:1014C000109276031092790310929B031092E2031C
:1014D00011E01093E1031092DC0361E082E10E94CD
:1014E000380361E083E10E9438038091B9008E7F68
:1014F0008093B9008091B9008D7F8093B90088E412
:101500008093B80085E48093BC0087ED91E09093D0
:1015100075038093740388ED91E090937303809337
:10152000720386E38F8382E8888703E025E034E056
:101530004AE050E062E0CE0107960E941C0781114C
:101540001FC00091F7031091F80360EB71E0CE012A
:1015500001960E94320ACE010196F8010995CE014A
:1015600001960E94170728960FB6F894DEBF0FBEAB
:10157000CDBFDF91CF911F910F91FF90EF90089514
:1015800080E28F838FE2888701E09E012F5F3F4FCB
:101590004AE050E062E0CE0107960E941C078823D3
:1015A00081F289819A81807F9927809751F60E94E4
:1015B000BC07882331F2E090F703F090F80367EC62
:1015C00071E0CE0101960E94320ACE010196F70128
:1015D0000995CE0101960E9417070E94BC07882337
:1015E00011F210930E040091F7031091F8036AEDC5
:1015F00071E0ADCF0F931F93CF93DF93CDB7DEB7DD
:1016000067970FB6F894DEBF0FBECDBF85E0E5EF5C
:10161000F1E0DE01539601900D928A95E1F7209159
:101620008B0430918C0490E080E04EE2B901082EEA
:1016300002C0759567950A94E2F760FD07C0E3E183
:10164000F0E0EC0FFD1FE80FF91F40830196843096
:10165000910561F70091460410914704BE016D5E4B
:101660007F4FCE0107960E94320A60EF71E0CE01F3
:101670000D960E94320ABE01695F7F4FCE010D9622
:101680000E942B09BC01CE0101960E94180ACE01CE
:101690000196F8010995CE0101960E941707CE0127
:1016A0000D960E941707CE0107960E9417076796AE
:1016B0000FB6F894DEBF0FBECDBFDF91CF911F9163
:1016C0000F9108950F931F93CF93DF93CDB7DEB79C
:1016D0006F970FB6F894DEBF0FBECDBF8DE0EFEF72
:1016E000F1E0DE01119601900D928A95E1F72091CB
:1016F0008D0430918E0490E080E04EE2B901082E16
:1017000002C0759567950A94E2F760FD07C0E1E0B5
:10171000F0E0EC0FFD1FE80FF91F408301968C30BD
:10172000910561F70091460410914704BE016F5F77
:101730007F4FCE0144960E94320A6AEF71E0CE01DB
:101740004A960E94320ABE016C5E7F4FCE014A96D5
:101750000E942B09BC01CE010E960E94180ACE01F0
:101760000E96F8010995CE010E960E941707CE013C
:101770004A960E941707CE0144960E9417076F965B
:101780000FB6F894DEBF0FBECDBFDF91CF911F9192
:101790000F9108950F931F93CF93DF93CDB7DEB7CB
:1017A00062970FB6F894DEBF0FBECDBF009146041E
:1017B000109147046FE874E0CE0107960E94320A48
:1017C0006CE072E0CE010D960E94320ABE01695FA4
:1017D0007F4FCE010D960E942B09BC01CE010196D0
:1017E0000E94180ACE010196F8010995CE010196D2
:1017F0000E941707CE010D960E941707CE0107968B
:101800000E94170762960FB6F894DEBF0FBECDBFD9
:10181000DF91CF911F910F9108956733D1F19CF41F
:10182000623379F13CF4603339F14CF58AEA613284
:1018300021F10895643349F134F1653341F186E3D0
:101840006633D9F008956F3651F14CF4693329F1BC
:1018500014F16F3351F18AE3633679F008956337F9
:1018600011F124F48DE3603741F008956637C9F033
:101870008CE3683711F0089580E30C94A20881E3AB
:10188000FCCF82E3FACF83E3F8CF84E3F6CF85E39E
:10189000F4CF87E3F2CF88E3F0CF89E3EECF8BE399
:1018A000ECCF8EE3EACF8FE3E8CF0E94FA0A0E94E2
:1018B000620B0C94CA0B0F931F93CF93DF93CDB79A
:1018C000DEB762970FB6F894DEBF0FBECDBF84E4DB
:1018D0008093F9030091F7031091F80380E897E3F0
:1018E0000E94F304892B09F05EC0CE0101960E948C
:1018F0006806892B09F057C04B815C8170E060E07D
:10190000CE0107960E94890961E172E0CE010D9631
:101910000E94320ABE01695F7F4FCE010D960E9480
:101920002B09BC01CE0101960E94180ACE01019636
:10193000F8010995CE0101960E941707CE010D9678
:101940000E941707CE0107960E94170780E391E2D5
:101950000E94F3048C0164E670E080E090E00E9455
:10196000C703012BA9F40091F7031091F80365E276
:1019700072E0CE0101960E94320ACE010196F80172
:101980000995CE0101960E94170781E08093FC0320
:1019900062960FB6F894DEBF0FBECDBFDF91CF9138
:1019A0001F910F91089540E050E0BA01A9CFCF9365
:1019B000C42F0E94E507CC2329F00E945B0CCF9135
:1019C0000C94470ACF9108951F920F920FB60F9271
:1019D00011242F933F934F935F936F937F938F9334
:1019E0009F93AF93BF93EF93FF9381EC94E00E949A
:1019F0005702FF91EF91BF91AF919F918F917F918E
:101A00006F915F914F913F912F910F900FBE0F906B
:101A10001F9018951F920F920FB60F9211242F93BB
:101A20008F939F93EF93FF93E091D104F091D204B1
:101A30008081E091D704F091D80482FD1BC0908191
:101A40008091DA048F5F8F732091DB04821741F05D
:101A5000E091DA04F0E0EF53FB4F958F8093DA04C6
:101A6000FF91EF919F918F912F910F900FBE0F904B
:101A70001F9018958081F4CF1F920F920FB60F928E
:101A800011242F933F938F939F93AF93BF93809194
:101A90006A0390916B03A0916C03B0916D03309138
:101AA000690323E0230F2D3758F50196A11DB11DC1
:101AB0002093690380936A0390936B03A0936C0354
:101AC000B0936D0380916E0390916F03A0917003AA
:101AD000B09171030196A11DB11D80936E03909387
:101AE0006F03A0937003B0937103BF91AF919F9167
:101AF0008F913F912F910F900FBE0F901F901895CF
:101B000026E8230F0296A11DB11DD2CF1F920F927E
:101B10000FB60F9211242F933F934F935F936F93C0
:101B20007F938F939F93AF93BF93EF93FF93809196
:101B3000B900887F803609F44AC0F0F5883209F48C
:101B4000A7C018F5803109F49BC0B8F4882309F4C4
:101B5000F9C0883009F494C0FF91EF91BF91AF9123
:101B60009F918F917F916F915F914F913F912F91B5
:101B70000F900FBE0F901F901895883109F488C000
:101B8000803251F78093E00314C0803409F49DC083
:101B900040F48033B9F38833F9F68093E00385ECA1
:101BA000B0C0803509F485C0883509F496C0883402
:101BB00099F60E943C04D0CF883909F48CC038F5DE
:101BC000883729F050F4883611F0803729F683E001
:101BD0008093E2031092680357C0883809F47BC0F1
:101BE000803919F0803809F0B7CF809168038032CE
:101BF00008F071C0E091680381E08E0F8093680364
:101C00008091BB00F0E0E85BFC4F80833DC0803BEF
:101C100039F0E0F4803A09F479C0883A09F09CCFB1
:101C200084E08093E2031092470310924603E09110
:101C30007403F091750309958091460381110FC0DB
:101C400081E0809346031092260309C0803C09F48A
:101C5000A6CF883C09F4A3CF883B09F07DCFE09163
:101C6000470381E08E0F80934703F0E0EA5DFC4F6D
:101C700080818093BB00909147038091460329C0E7
:101C80008091DD038093BB0085EC8093BC0064CF22
:101C90009091DF038091DE03981758F5E091DF0300
:101CA00081E08E0F8093DF03F0E0E454FC4F8081ED
:101CB000E9CFE091DF0381E08E0F8093DF03809115
:101CC000BB00F0E0E454FC4F80839091DF038091EF
:101CD000DE039817C8F285E8D8CFE091DF0381E0F2
:101CE0008E0F8093DF038091BB00F0E0E454FC4F43
:101CF00080838091E10381115CCF81E08093DC03DC
:101D000084EA8093BC001092E20326CF85EC809396
:101D1000BC001092E20380916803803230F4E091BD
:101D20006803F0E0E85BFC4F10826091680370E0AC
:101D3000E0917203F091730388E493E009951092A7
:101D400068030ACF1092E00334CF1F920F920FB6B0
:101D50000F9211242F933F934F935F936F938F9321
:101D60009F93AF93BF93CF93DF93EF93FF93E09154
:101D7000E503F091E603309749F0A685B785958590
:101D8000868D81FF15C08C918923A9F4FF91EF9175
:101D9000DF91CF91BF91AF919F918F916F915F91A3
:101DA0004F913F912F910F900FBE0F901F9018955C
:101DB0008C91892359F7A389B4899C918589809551
:101DC00089238C93868997890197F1F7408D518DEE
:101DD000C685D785658589E030E020E0DA01119776
:101DE000F1F7369527959881962309F03160815057
:101DF000A9F7868D81FF02C0209530958091E4037C
:101E000090E001968F7399274091E3034817B1F052
:101E1000A091E403B0E0AA0FBB1FAA55BD4F2D93BC
:101E20003C938093E403828D938D0197F1F7A3890E
:101E3000B4898C919589892B8C93A8CF868D8160EC
:101E4000868FF1CF61E08DE00E94660361E08DE056
:101E50000E9438036AEF70E080E090E00E94C703C0
:101E600060E08DE00E9438036AEF70E080E090E06F
:101E70000E94C703EBCFCF93DF931092C40410925C
:101E8000C30488EE93E0A0E0B0E08093C504909393
:101E9000C604A093C704B093C8042AE031E030938D
:101EA000C2042093C10425EC30E03093CE0420938B
:101EB000CD0424EC30E03093D0042093CF0420EC08
:101EC00030E03093D2042093D10421EC30E0309301
:101ED000D4042093D30422EC30E03093D604209332
:101EE000D50426EC30E03093D8042093D704109228
:101EF000DA041092DB041092DC041092DD041092DC
:101F0000EA031092E9038093EB039093EC03A09310
:101F1000ED03B093EE032CE131E03093E80320931E
:101F2000E7031092700510927605109275051092D5
:101F30007705109278051092790510927A0521ECB8
:101F400034E030937C0520937B0540E052EC61E067
:101F500070E040935E0550935F0560936005709359
:101F600061052DE030E030936305209362052BE29C
:101F7000209364052DE2209365054CED55E060E06B
:101F800070E0409366055093670560936805709311
:101F9000690527ED3CE030936B0520936A0529EF36
:101FA00037E030936D0520936C052DE03CE03093D5
:101FB0006F0520936E0510922604109225048093DD
:101FC000270490932804A0932904B0932A048EE256
:101FD00091E0909324048093230410923A04109289
:101FE000390410923C0410923B0410923E0410926B
:101FF0003D041092400410923F04609141046E7FB2
:102000006D7F609341046695617081E068278BE085
:102010000E94380361E08BE00E946603EBEDF1E083
:10202000E491E0933304E7ECF1E0E491F0E0EE0FAB
:10203000FF1FEE54FE4F8591949190933504809349
:10204000340460E08AE00E9466038091410481FDCF
:1020500004C061E08AE00E9438038AE080932F0484
:10206000EAEDF1E0E491E0933004E6ECF1E0E49194
:10207000F0E0EE0FFF1FE855FE4F8591949190938D
:1020800032048093310410924D0410924C0410924B
:102090004F0410924E04109251041092500410926A
:1020A000530410925204109249041092480482E0A2
:1020B00090E00E943D1D90934B0480934A04892B2D
:1020C00011F40E94220F82E090E090934D048093DF
:1020D0004C0483E08093420482E08093430484E0D4
:1020E0008093440485E080934504CBE0D8E0D0930E
:1020F0004704C093460462E083E00E94660362E006
:1021000082E00E94660362E084E00E94660362E06F
:1021100085E00E94660310920F0410921004109242
:1021200011041092120488E893E1A0E0B0E08093DB
:10213000F3039093F403A093F503B093F603D093C5
:10214000F803C093F703DF91CF910895CF93DF9306
:10215000CDB7DEB7C157D1090FB6F894DEBF0FBEB9
:10216000CDBF789484B5826084BD84B5816084BD20
:1021700085B5826085BD85B5816085BD80916E0025
:10218000816080936E001092810080918100826056
:102190008093810080918100816080938100809193
:1021A00080008160809380008091B1008460809382
:1021B000B1008091B00081608093B00080917A007E
:1021C000846080937A0080917A00826080937A00A4
:1021D00080917A00816080937A0080917A00806893
:1021E00080937A001092C10061E0809162050E94A4
:1021F000660361E0809162050E94380364EC79E037
:1022000080E090E00E94C70300917B0510917C055F
:1022100040905E0550905F0560906005709061058C
:1022200060E079E08DE390E0A30192010E94B01C90
:102230002150310941095109569547953795279500
:10224000D8015096ED91FC9182E080834114B1EE6B
:102250005B066104710421F02115E0E13E07A8F05E
:10226000D8015096ED91FC91108260E874E88EE1FF
:1022700090E0A30192010E94B01C21503109410954
:1022800051095695479537952795D8011C96ED919C
:10229000FC911D9730831E96ED91FC911F97208332
:1022A00058961C9258975496ED91FC91559786E05C
:1022B00080835296ED91FC91539780818061808359
:1022C0005296ED91FC91539780818860808352965D
:1022D000ED91FC9153978081806880835296ED91B7
:1022E000FC9180818F7D808360E0809162050E94F7
:1022F000380310923E0410923D0410923C04109258
:102300003B0410923A041092390482E09DE09093CD
:10231000400480933F0490912F04963108F047C009
:102320002FE636E030933A042093390420E03DE074
:1023300030933C0420933B0427EB39E030933E0478
:1023400020933D042091680084E0983048F031E00B
:102350009E3008F430E081E001C0880F3A95EAF73A
:10236000822B809368002DE630E0983050F02BE609
:1023700030E09E3030F02CE630E0963110F030E066
:1023800020E03093370420933604292F30E0983032
:1023900008F0F1C081E001C0880F9A95EAF78093B8
:1023A000380480913F04909140040197F1F70E9416
:1023B00037060E94FA036093540470935504809387
:1023C0005604909357040E94FA0A0E94620B0E94DE
:1023D000CA0B0E945B0C0E94470A90E080E0FC015F
:1023E000EE7FE096FFAFEEAFE0978C010160E296E2
:1023F0001FAF0EAFE29780917B0590917C05DC01C9
:10240000ED91FC910284F385E02D09958C0180917A
:102410006405082E000C990B0817190709F0B8C0BD
:102420001091700501E0009370050E94FA0360931B
:1024300071057093720580937305909374050E94E3
:10244000FA036093770570937805809379059093EC
:102450007A051092760510927505E0916A05F09163
:102460006B05412F402760916405309709F0A4C0A7
:102470000E94FA0300917705109178052091790563
:1024800030917A05601771078207930718F16C5035
:102490007E4F8F4F9F4F60937705709378058093A1
:1024A000790590937A050E940604882341F081E023
:1024B0002091750530917605232B09F080E0282FB7
:1024C00030E03093760520937505682F8091620582
:1024D0000E94380380914204882341F00E940F0338
:1024E000E2960EAD1FADE297892B21F0E0960EAD7E
:1024F0001FADE09780914304882309F476C00E94C1
:102500000F03892B09F071C0026080914404882375
:1025100009F46DC00E940F03892B09F068C00460A4
:1025200080914504882309F464C00E940F03892B1D
:1025300009F05FC0086080918B0490918C040817AB
:10254000190731F010938C0400938B040E94FA0A4F
:1025500011E083E294E00E94E605892B09F4C1C0F2
:1025600083E294E00E94FE0590FF45C080935804EA
:1025700010938A04EECF9E3040F42850310981E058
:1025800001C0880F2A95EAF70ACF2E503109F7CFFC
:1025900060916505862F062E000C990B0817190708
:1025A00089F44091700510927005E0916C05F091EE
:1025B0006D05309709F45CCF80917B0590917C0587
:1025C000099556CF0E940604882309F451CFE09163
:1025D0006E05F0916F05309709F44ACF602F809116
:1025E0007B0590917C05099543CF0D7F8ECF0B7FA6
:1025F00097CF077FA0CFE0918A04E23308F0A9CFFC
:10260000209158042C3451F1203509F0A2CFE33049
:1026100048F491E09E0F90938A04F0E0ED5DFB4F4B
:1026200085AB97CFE33009F094CF90915904309166
:102630005A0420E5290F230F28130AC0892F990F68
:10264000990B932B90938E0480938D040E94620BC0
:1026500080918A048F5F80938A047BCF6E2F70E015
:10266000E13059F020915904022E000C330BA901DE
:102670004F5F5F4F461757073CF0EF5FE0938A04C8
:102680006D5D7B4FFB01CCCF2E5F3F4F2617370789
:1026900009F05FCFE3E2F4E090E0BF0163527440E1
:1026A0006217730724F465A9960F3196F6CF891344
:1026B000CFCF2D5D3B4FD901D5961C9283E3E8E542
:1026C000F4E0DE01119601900D928A95E1F7BE01CA
:1026D0006D5F7F4F8FE894E00E942F1F0E94CA0B0E
:1026E000B7CF80914E0490914F04892B09F482C09A
:1026F0000E94FA030091540410915504209156044D
:1027000030915704061717072807390708F072C0D9
:1027100020914E0430914F042115310541F46CE4B1
:1027200072E080914804909149040E943208E0913F
:102730004A04F0914B048091500490915104AC01F3
:102740004F5F5F4F5093510440935004E80FF91FBF
:1027500000812150310930934F0420934E04809121
:102760004C0490914D044817590721F410925104DC
:10277000109250042115310591F0AC0197FF02C071
:102780004D5F5F4F559547955595479542175307B0
:1027900034F097FD0196959587950E943E0883E257
:1027A00094E00E9421066BE471E083E294E00E94D1
:1027B0002E05002E000C110BB801772783E294E060
:1027C0000E942E05B801655B7F4F772783E294E076
:1027D0000E942E050E9437060E94FA036A567F4F18
:1027E0008F4F9F4F60935404709355048093560409
:1027F000909357040E94FA03AE966CAF7DAF8EAFF4
:102800009FAFAE978091FC03811105C090910E049B
:10281000992309F4ECC140910F0450911004609188
:10282000110470911204AE960CAD1DAD2EAD3FADEE
:10283000AE97401751076207730708F0D8C1882385
:1028400009F4B8C080E090EE0E94F304892BD1F522
:102850002114310409F0D8C1CE01C4960E94680643
:102860001C01892B09F0D0C16CA97DA990E080E002
:102870000E943F1920E030E04FE253E40E94A0198B
:1028800020E03FEF4FE757E40E94111B20E030E0CB
:1028900044E352E40E94A41A6B017C016EA97FA953
:1028A00090E080E00E943F1920E030E048EC52E4E4
:1028B0000E94A01920E03FEF4FE757E40E94111B50
:1028C0004B015C012114310409F0ADC1C092130425
:1028D000D0921404E0921504F0921604809217042A
:1028E00090921804A0921904B0921A04A7019601BC
:1028F000C701B6010E94891C81118CC1A5019401F8
:10290000C501B4010E94891C811184C123EC35EFFB
:102910004CE851E4C701B6010E94A0192B013C010B
:1029200028EB3EE143E753E4C701B6010E94A51A34
:102930009B01AC01C301B2010E94111B0E948B1BC1
:102940002B013C0120E030E048EC52E4C501B40129
:102950000E94111B21E835E943EC50E40E94A019C4
:10296000A30192010E94A0192B013C0123E333E94A
:1029700048E853E4C701B6010E94A51A9B01AC01C7
:10298000C301B2010E94111B23E333EB48E553E47A
:102990000E94A01920E030E04AE754E40E94A01908
:1029A0000E94BD1B60931B0470931C0480931D0444
:1029B00090931E0480910E04882309F46BC040900C
:1029C0001B0450901C0460901D0470901E04C301F1
:1029D000B2010E943F199B01AC010E94891C811128
:1029E00029C011E0411618EE510613E0610671048A
:1029F00008F5C301B20120E039E841E450E00E944B
:102A0000D21C08E10E94FF1CC90120E22CAB21E688
:102A10002DAB9EAB8FABCE01C6960E941E0188AF38
:102A200000E030E020E04AE050E065E0CE01C496EE
:102A30000E941C0780E227968FAF279788E0289690
:102A40008FAF289702E09E012C5C3F4F4CE050E096
:102A500062E0CE018A5B9F4F0E941C0781113DC13D
:102A60000091F7031091F80360E972E0CE01C4967B
:102A70000E94320ACE01C496F8010995CE01C4968F
:102A80000E9417071092200410921F041092220433
:102A9000109221040091F7031091F8036091210432
:102AA00070912204CE01825A9F4F0E94EC096091DE
:102AB0001F0470912004CE01885A9F4F0E94EC0998
:102AC00040911B0450911C0460911D0470911E04E0
:102AD000CE018E5A9F4F0E94890940911704509150
:102AE00018046091190470911A04CE01845B9F4F01
:102AF0000E94B6094091130450911404609115048A
:102B000070911604CE018A5B9F4F0E94B60961EA5C
:102B100072E0CE01C4960E94320ABE016A5B7F4F0A
:102B2000CE01C4960E942B090E940709BE01645B76
:102B30007F4F0E942B090E940709BE016E5A7F4FEA
:102B40000E942B090E940709BE01685A7F4F0E940C
:102B50002B090E940709BE01625A7F4F0E942B0970
:102B6000BC01CE018C599F4F0E94180ACE018C598E
:102B70009F4FF8010995CE018C599F4F0E9417076E
:102B8000CE01C4960E941707CE018A5B9F4F0E9418
:102B90001707CE01845B9F4F0E941707CE018E5A04
:102BA0009F4F0E941707CE01885A9F4F0E94170718
:102BB000CE01825A9F4F0E9417078091F303909194
:102BC000F403A091F503B091F603AE960CAD1DADE4
:102BD0002EAD3FADAE97800F911FA21FB31F809304
:102BE0000F0490931004A0931104B093120480E09A
:102BF00090E0892B09F4FFCB0E944302882309F45B
:102C0000FACB0E940000F7CB812C912C5401750166
:102C1000640158CE10921B0410921C0410921D04E3
:102C200010921E04C7CE0091F7031091F803289666
:102C30001FAE1EAE28972A961FAE1EAE2A972C9660
:102C40001FAE1EAE2C974AE0BE016C5C7F4FC101E7
:102C50000E94B116BE016C5C7F4FCE018A5B9F4F14
:102C60000E947F096EE772E0CE01845B9F4F0E9455
:102C7000320ABE016A5B7F4FCE01845B9F4F0E9488
:102C80002B09BC01CE01C4960E94180ACE01C4963D
:102C9000F8010995CE01C4960E941707CE01845B06
:102CA0009F4F0E941707CE018A5B9F4F0E94170714
:102CB00000E010E020EC3FE70093130410931404AD
:102CC00020931504309316040093170410931804EE
:102CD0002093190430931A046DCE2EA93FA9309386
:102CE000FE032093FD038CA99DA99093000480937B
:102CF000FF033093200420931F04909322048093B9
:102D00002104C8CECF93DF93C3E2D4E08FA198A56E
:102D10000E94D91D8EE291E099838883CE01DF91D4
:102D2000CF910C942106EF920F931F93CF93DF93D3
:102D3000E80134E047FD34E1042E000C550B57FF49
:102D400003C0519541955109E32E022F242FAE0166
:102D50000E94F816CE01DF91CF911F910F91EF9055
:102D60000895BB274A3031F4992322F4BDE29095AF
:102D700081959F4F0C94DF16BB27FA01A62F62178F
:102D8000710581059105330B30FB66F0AA27660FAC
:102D9000771F881F991FAA1FA21710F0A21B639507
:102DA0003850A9F7A05DAA3308F0A95DA19336F7C2
:102DB000B111B1931082CA010C942F19BB27FB01EA
:102DC0005527AA27880F991FAA1FA41710F0A41B24
:102DD00083955051B9F7A05DAA3308F0A95DA1937E
:102DE000009779F7B111B1931192CB010C942F197F
:102DF000A9E0B0E0EEEFF6E10C94641A6A01F22E5D
:102E0000B02E102FFBE3AF2EA01608F41BE31F5FBC
:102E1000012F27E0AE014F5F5F4F0E945718BC01A2
:102E20008981982F9970913009F43FC09BE2E1FCB1
:102E300004C09E2D9170E0FC3AC05E2D5071E82FC9
:102E4000E87083FF46C084E0911101C083E0EF2D5C
:102E5000E81B8F1508F0E0E0D6018E2F20E2552305
:102E600051F1992329F0D6019C93C60101966C017A
:102E700096012D5F3F4FE2FE24C08EE4D6018C9375
:102E800091E411969C93119712968C93D9018E2FF1
:102E900090E281111BC0E20FF32FF11D10828EEF23
:102EA0009FEF2996ECE00C94801A9DE2C6CF90E249
:102EB000C4CF2D9381508111FCCFCE0ED11CE0E008
:102EC000D0CF8EE6D6018C9391E6DBCF9D938150D7
:102ED000E0CF482F447082FF3DC084E0911101C0D3
:102EE00083E08F1510F4EF2DE81BD6018E2F20E222
:102EF000552309F1992329F0D6019C93C601019627
:102F00006C0196012D5F3F4FE2FE1BC089E4D601A4
:102F10008C938EE411968C93119786E412968C9381
:102F2000D9018E2F90E2882309F4B5CF9D9381506B
:102F3000FACF2D9381508111FCCFCE0ED11CE0E051
:102F4000D9CF89E6D6018C938EE611968C93119792
:102F500086E6E4CF9B0177FF02C030E020E0A1E0ED
:102F6000B0E0911102C0B0E0A0E0F9013196AE0FDF
:102F7000BF1F8B2C912CBB2009F461C05401EFEFD3
:102F8000AE1ABE0AAA0DBB1DFA161B0619F014F0E4
:102F90004F2D4A1B511188C0E3FC59C07601A42F64
:102FA000B0E2A1114FC0C40ED11C992309F45BC03B
:102FB00040E0D6011196F60190836D01552309F486
:102FC00048C0012F060F9A81582F507184FF03C00B
:102FD000913309F4015010160CF047C0093008F085
:102FE00008E0EEE2FE2E5B01A01AB1088501919483
:102FF000819491082F3F320729F4D601FC92F60103
:1030000031966F016217730794F1021713077CF56D
:10301000DB01A21BB30BAA24A394B12CAC0EBD1EE2
:10302000AA0DBB1D11968C9121503109D601119624
:1030300028153905F4F0F60180836D01DBCFB12C42
:10304000A12CA0CFF701B1937F01A150AACF91117C
:10305000B0CFD601942F50E302C05D9391509111EF
:10306000FCCFC40ED11C40E0ACCF01E0BACF80E36E
:10307000DBCF6217730731F4963388F4953311F47C
:10308000552369F0F6018083FD01842F90E28111C0
:1030900008C0A40FB11D1C9290E080E002CF81E334
:1030A000F1CF91938150F3CF911183CF8ACF283004
:1030B00008F027E03327DA01990F311D87FD916071
:1030C00000966105710539F432602E5F3D9330E35F
:1030D0002A95E1F708959F3F30F08038710561052A
:1030E00009F03C5F3C5F3D93913008F08068911D92
:1030F000DF93CF931F930F93FF92EF92192F987F37
:103100009695E92F96959695E90FFF27E651FF4F83
:1031100099273327EE24FF24A701E701059008949F
:10312000079428F4360FE71EF81E491F511D660F3D
:10313000771F881F991F0694A1F70590079428F41C
:10314000E70EF81E491F561FC11D770F881F991FD4
:10315000661F0694A1F70590079428F4F80E491FFE
:10316000561FC71FD11D880F991F661F771F069412
:10317000A1F70590079420F4490F561FC71FD81FC9
:10318000990F661F771F881F0694A9F784911095E1
:10319000177041F0D695C79557954795F794E794E2
:1031A0001A95C1F7E0E9F0E0689415901591359112
:1031B0006591959105907FE27395E118F10A430BB3
:1031C000560BC90BD009C0F7E10CF11E431F561F67
:1031D000C91FD01D7EF4703311F48A95E6CFE894B0
:1031E000015030F0080F0AF40027021708F4202FCE
:1031F0002395022F7A3328F079E37D932A95E9F716
:1032000010C07D932A9589F6069497956795379512
:1032100017951794E118F10A430B560BC90BD00907
:1032200098F023957E9173957A3308F070E37C9340
:103230002013B8F77E9170617D9330F0839571E330
:103240007D9370E32A95E1F71124EF90FF900F91A1
:103250001F91CF91DF91992787FD90950895DC010B
:10326000FC01672F71917723E1F7329704C07C91BD
:103270006D9370836291AE17BF07C8F30895E89409
:1032800009C097FB3EF490958095709561957F4FAE
:103290008F4F9F4F9923A9F0F92F96E9BB2793955C
:1032A000F695879577956795B795F111F8CFFAF46C
:1032B000BB0F11F460FF1BC06F5F7F4F8F4F9F4F9D
:1032C00016C0882311F096E911C0772321F09EE8FB
:1032D000872F762F05C0662371F096E8862F70E061
:1032E00060E02AF09A95660F771F881FDAF7880F3B
:1032F0009695879597F90895990F0008550FAA0B91
:10330000E0E8FEEF16161706E807F907C0F01216F8
:103310001306E407F50798F0621B730B840B950BFB
:1033200039F40A2661F0232B242B252B21F4089550
:103330000A2609F4A140A6958FEF811D811D0895ED
:103340000E94B3190C94241A0E94161A38F00E9495
:103350001D1A20F0952311F00C940D1A0C94131AD9
:1033600011240C94581A0E94351A70F3959FC1F3DA
:10337000950F50E0551F629FF001729FBB27F00D23
:10338000B11D639FAA27F00DB11DAA1F649F662778
:10339000B00DA11D661F829F2227B00DA11D621FC7
:1033A000739FB00DA11D621F839FA00D611D221F81
:1033B000749F3327A00D611D231F849F600D211D65
:1033C000822F762F6A2F11249F5750409AF0F1F0E8
:1033D00088234AF0EE0FFF1FBB1F661F771F881F51
:1033E00091505040A9F79E3F510580F00C940D1A62
:1033F0000C94581A5F3FE4F3983ED4F38695779582
:103400006795B795F795E7959F5FC1F7FE2B880FF6
:10341000911D9695879597F9089597F99F6780E88C
:1034200070E060E008959FEF80EC089500240A9416
:103430001616170618060906089500240A9412168F
:103440001306140605060895092E0394000C11F4C2
:10345000882352F0BB0F40F4BF2B11F460FF04C06F
:103460006F5F7F4F8F4F9F4F089557FD9058440FC8
:10347000551F59F05F3F71F04795880F97FB991FD3
:1034800061F09F3F79F08795089512161306140690
:10349000551FF2CF4695F1DF08C01616170618061D
:1034A000991FF1CF86957105610508940895E894F8
:1034B000BB2766277727CB0197F908952F923F9274
:1034C0004F925F926F927F928F929F92AF92BF9234
:1034D000CF92DF92EF92FF920F931F93CF93DF93E0
:1034E000CDB7DEB7CA1BDB0B0FB6F894DEBF0FBE3D
:1034F000CDBF09942A88398848885F846E847D848A
:103500008C849B84AA84B984C884DF80EE80FD808B
:103510000C811B81AA81B981CE0FD11D0FB6F89401
:10352000DEBF0FBECDBFED010895A29FB001B39FD6
:10353000C001A39F700D811D1124911DB29F700DBC
:10354000811D1124911D08955058BB27AA270E9460
:10355000BC1A0C94241A0E94161A38F00E941D1AE4
:1035600020F039F49F3F19F426F40C94131A0EF44A
:10357000E095E7FB0C940D1AE92F0E94351A58F3D9
:10358000BA17620773078407950720F079F4A6F548
:103590000C94571A0EF4E0950B2EBA2FA02D0B01A8
:1035A000B90190010C01CA01A0011124FF27591B88
:1035B00099F0593F50F4503E68F11A16F040A22F8E
:1035C000232F342F4427585FF3CF469537952795FF
:1035D000A795F0405395C9F77EF41F16BA0B620BFE
:1035E000730B840BBAF09150A1F0FF0FBB1F661F45
:1035F000771F881FC2F70EC0BA0F621F731F841F88
:1036000048F4879577956795B795F7959E3F08F0AD
:10361000B0CF9395880F08F09927EE0F979587956F
:1036200008950E94251B0C94241A0E941D1A58F01C
:103630000E94161A40F029F45F3F29F00C940D1AED
:1036400051110C94581A0C94131A0E94351A68F3ED
:103650009923B1F3552391F3951B550BBB27AA274B
:1036600062177307840738F09F5F5F4F220F331F85
:10367000441FAA1FA9F335D00E2E3AF0E0E832D04D
:1036800091505040E695001CCAF72BD0FE2F29D050
:10369000660F771F881FBB1F261737074807AB0722
:1036A000B0E809F0BB0B802DBF01FF2793585F4F97
:1036B0003AF09E3F510578F00C940D1A0C94581A6C
:1036C0005F3FE4F3983ED4F3869577956795B79579
:1036D000F7959F5FC9F7880F911D9695879597F984
:1036E0000895E1E0660F771F881FBB1F62177307FD
:1036F0008407BA0720F0621B730B840BBA0BEE1F12
:1037000088F7E095089529F416F00C940D1A0C949E
:10371000571A0C94131A0E943D1AA8F39638A0F772
:1037200007F80F92E8942BE33AEA48EB5FE70E9430
:10373000B6190F920F920F924DB75EB70F920E947B
:10374000551CE8E6F0E00E94EC1B4F915F91EF9171
:10375000FF91E595EE1FFF1F49F0FE57E0684427F3
:10376000EE0F441FFA95E1F74195550B0E941F1C7F
:103770000F9007FE0C94131C08950E943D1A88F0C8
:103780009F5798F0B92F9927B751B0F0E1F0660F25
:10379000771F881F991F1AF0BA95C9F714C0B13066
:1037A00091F00E94571AB1E008950C94571A672FB0
:1037B000782F8827B85F39F0B93FCCF38695779595
:1037C0006795B395D9F73EF490958095709561957E
:1037D0007F4F8F4F9F4F0895DF93CF931F930F938A
:1037E000FF92EF92DF927B018C01689406C0DA2E83
:1037F000EF010E94B319FE01E894A591259135913E
:1038000045915591A6F3EF010E94BC1AFE01970164
:10381000A801DA9469F7DF90EF90FF900F911F9164
:10382000CF91DF9108959B01AC0160E070E080E8EA
:103830009FE30C94111B0C940D1A0C948E1C0E9487
:103840003D1AD8F39923C9F3940F511DA3F3915056
:10385000504094F059F0882332F0660F771F881F8C
:1038600091505040C1F79E3F51052CF7880F911D94
:103870009695879597F908955F3FACF0983E9CF038
:10388000BB27869577956795B79508F4B1609395B2
:10389000C1F7BB0F58F711F460FFE8CF6F5F7F4FA0
:1038A0008F4F9F4FE3CF0C94581AFA01DC01AA0FF7
:1038B000BB1F9B01AC01BF5728F4222733274427A5
:1038C000507820C0B75190F4AB2F0024469537951F
:1038D0002795011CA395D2F3002071F0220F331F0E
:1038E000441FB395DAF30ED00C94A41A613071051D
:1038F000A0E88A07B94630F49B01AC016627772718
:1039000088279078309621F0208331834283538337
:1039100008950E947C19880B990B08959F3F31F000
:10392000915020F4879577956795B795880F911DED
:103930009695879597F9089597FB072E16F40094AE
:1039400007D077FD09D00E941A1D07FC05D03EF470
:10395000909581959F4F0895709561957F4F08953B
:10396000A1E21A2EAA1BBB1BFD010DC0AA1FBB1F83
:10397000EE1FFF1FA217B307E407F50720F0A21BF5
:10398000B30BE40BF50B661F771F881F991F1A9462
:1039900069F760957095809590959B01AC01BD018C
:1039A000CF010895E894DF93CF93FC01DB010E94DF
:1039B000951A7F936F93E9019A01AC01BF93AF937E
:1039C0003F932F93DF010E94951A26F46C1B7D0B09
:1039D000820B930B9E01EB01FC010E94341DAF9101
:1039E000BF912F913F910E94341DBE01CF01F9017B
:1039F0002F913F91CF91DF91089597FD1094002E64
:103A0000083098F00850232F342F452F562F672F5A
:103A1000782F892F912DF4CF1594979587957795C9
:103A2000679557954795379527950A95AAF71124D5
:103A3000002D0895AA1BBB1B51E107C0AA1FBB1F85
:103A4000A617B70710F0A61BB70B881F991F5A952A
:103A5000A9F780959095BC01CD010895EE0FFF1F49
:103A60000590F491E02D09940E94951A460F571F76
:103A7000C81FD91F08F4319608950F931F93CF9351
:103A8000DF938230910510F482E090E0E0917F05B1
:103A9000F091800530E020E0B0E0A0E0309799F4AC
:103AA0002115310509F44AC0281B390B2430310592
:103AB000D8F58A819B816115710589F1FB0193839A
:103AC0008283FE0111C04081518102811381481718
:103AD0005907E0F04817590799F4109761F01296CA
:103AE0000C93129713961C933296CF01DF91CF91CE
:103AF0001F910F91089500937F0510938005F4CFD7
:103B00002115310551F04217530738F0A901DB01A7
:103B10009A01BD01DF01F801C1CFEF01F9CF909308
:103B2000800580937F05CDCFFE01E20FF31F8193C7
:103B300091932250310939832883D7CF20917D0575
:103B400030917E05232B41F4209102013091030135
:103B500030937E0520937D05209100013091010175
:103B60002115310541F42DB73EB740910401509124
:103B70000501241B350BE0917D05F0917E05E217D0
:103B8000F307A0F42E1B3F0B2817390778F0AC0180
:103B90004E5F5F4F2417350748F04E0F5F1F50935D
:103BA0007E0540937D05819391939FCFF0E0E0E007
:103BB0009CCFCF93DF930097E9F0FC0132971382FB
:103BC0001282A0917F05B0918005ED0130E020E0E8
:103BD0001097A1F420813181820F931F20917D05E0
:103BE00030917E052817390709F061C0F0937E05F2
:103BF000E0937D05DF91CF910895EA01CE17DF07AD
:103C0000E8F54A815B819E0141155105B1F7E90153
:103C1000FB83EA8349915991C40FD51FEC17FD0727
:103C200061F4808191810296840F951FE901998347
:103C30008883828193819B838A83F0E0E0E01296FF
:103C40008D919C9113970097B9F52D913C91119707
:103C5000CD010296820F931F20917D0530917E0544
:103C60002817390739F6309751F5109280051092D0
:103C70007F05B0937E05A0937D05BCCFD383C2831F
:103C800040815181840F951FC817D90761F44E5F99
:103C90005F4F88819981480F591F518340838A81E2
:103CA0009B81938382832115310509F0B0CFF09376
:103CB0008005E0937F059ECFFD01DC01C0CF13821C
:103CC0001282D7CFB0E0A0E0E8E6FEE10C94601AE3
:103CD0008C01009751F4CB010E943D1D8C01C8015D
:103CE000CDB7DEB7E0E10C947C1AFC01E60FF71FBC
:103CF0009C0122503109E217F30708F49DC0D90155
:103D0000CD91DC911197C617D70798F0C530D10532
:103D100030F3CE0104978617970708F3C61BD70B1D
:103D20002297C193D1936D937C93CF010E94D91DAB
:103D3000D6CF5B01AC1ABD0A4C018C0E9D1EA09122
:103D40007F05B0918005512C412CF12CE12C10976E
:103D500031F580917D0590917E058815990509F0D2
:103D60005CC04616570608F058C08091000190913B
:103D70000101009741F48DB79EB740910401509125
:103D80000501841B950BE817F90708F055C0F0935F
:103D90007E05E0937D05F90171836083A0CF8D914D
:103DA0009C91119712966C90129713967C90139792
:103DB000A815B90559F56C0142E0C40ED11CCA140E
:103DC000DB0420F1AC014A195B09DA011296159760
:103DD00080F06282738251834083D9016D937C931A
:103DE000E114F10471F0D7011396FC93EE9312974E
:103DF00076CF22968C0F9D1FF90191838083F3016A
:103E0000EFCFF0938005E0937F0569CF4816590600
:103E100008F42C017D01D3019ACFCB010E943D1DF6
:103E20007C01009749F0AE01B8010E941F1FC80134
:103E30000E94D91D870153CF10E000E050CFFB0155
:103E4000DC0102C001900D9241505040D8F7089516
:103E5000FB01DC0101900D920020E1F70895FB01C8
:103E6000DC014150504048F001900D920020C9F70C
:103E700001C01D9241505040E0F7089510E0C3EF9B
:103E8000D0E004C0FE010E942E1D2196C43FD10740
:063E9000C9F7F894FFCF12
:103E9600000081058000000000007902D9010602B9
:103EA600C60237021502290200000000C404970466
:103EB60065066D0490047D046E04000000008A050A
:103EC600D90165066D04E605FE0514052E050D0AE5
:103ED6000051554555453A206572726F72206475DA
:103EE6006520746F20756E646573697261626C65B6
:103EF6002073697A6520666F722071756575652015
:103F060073697A652E0051554555453A20696E7399
:103F1600756666696369656E74206D656D6F727925
:103F260020746F20696E697469616C697A652074A2
:103F3600656D706F726172792071756575652E0099
:103F460053454E3A5347503330206E6F74206465A4
:103F56007465637465640053454E3A534750333075
:103F66002064657465637465640053454E3A53472F
:103F760050333020696E697469616C697A656400D2
:103F86005349473A0053414950004C45443A0031A1
:103F96003233343536373855545350004C43443A4F
:103FA6000053454E3A534854333120646574656373
:103FB600746564200053454E3A5348543331207398
:103FC600657420746F20706572696F64696320720E
:103FD600656164696E67206D6F646500515545556E
:103FE600453A2063616E277420706F70206974658E
:103FF6006D2066726F6D2071756575653A207175F5
:1040060065756520697320656D7074792E0053455A
:104016004E3A205348543331206572726F72200035
:1040260053454E3A205347503330206572726F72B3
:06403600004149523A006E
:00000001FF
