:100000000C94F4000C941C010C941C010C94450FEE
:100010000C94450F0C94450F0C941C010C941C017E
:100020000C941C010C941C010C941C010C941C01DC
:100030000C941C010C941C010C941C010C941C01CC
:100040000C94DC0D0C941C010C94AA0D0C94840DE2
:100050000C941C010C941C010C941C010C941C01AC
:100060000C94260E0C941C0107634236B79BD8A74C
:100070001A39685618AEBAAB558C1D3CB7CC5763CD
:10008000BD6DEDFD753EF6177231BF000000803F7B
:1000900000407A10F35A00A0724E18090010A5D43F
:1000A000E80000E87648170000E40B54020000CA9C
:1000B0009A3B000000E1F5050000809698000000E2
:1000C00040420F000000A086010000001027000041
:1000D0000000E803000000006400000000000A00C7
:1000E000000000000100000000002C76D888DC67CA
:1000F0004F0823DFC1DFAE59E1B1B796E5E3E45322
:10010000C63AE651997696E8E6C28426EB898C9B3E
:1001100062ED407C6FFCEFBC9C9F40F2BAA56FA5DE
:10012000F490055A2AF75C936B6CF9676DC11BFC60
:10013000E0E40D47FEF520E6B500D0ED902E03007B
:10014000943577050080841E080000204E0A0000C8
:1001500000C80C333333330F986E12831141EF8D87
:100160002114893BE65516CFFEE6DB18D1844B38C7
:100170001BF77C1D901DA4BBE424203284725E22F8
:100180008100C9F124ECA1E53D2700000000240016
:1001900027002A00000000080002010000030407F5
:1001A0000000000000000000000000002300260006
:1001B000290000000000250028002B00040404048E
:1001C0000404040402020202020203030303030301
:1001D00001020408102040800102040810200102DE
:1001E00004081020E10F2D1611241FBECFEFD8E018
:1001F000DEBFCDBF25E0A2E8B2E001C01D92A5366A
:10020000B207E1F712E0A0E0B1E0E2E9FDE302C0ED
:1002100005900D92A238B107D9F710E0C3EFD0E0F6
:1002200004C02197FE010E94AC1CC23FD107C9F750
:100230000E9464110C94BC1E0C940000FC0190817F
:10024000909528E081E397FF03C0990F982701C09C
:10025000990F2150C1F78181892798E021E387FF19
:1002600003C0880F822701C0880F9150C1F70895FD
:10027000982F2091BE0381E0213208F043C0809185
:100280009A038111FCCF8091BD0332E030939A0331
:10029000909399039FEF9093980310929703209364
:1002A0009603ADE9B3E0E6E7F3E090E0291331C04F
:1002B0001092750390917503880F892B80937503B5
:1002C00080917403813049F5109274038091750315
:1002D0008093BB008091BC0083FDF8CF85EC8093B8
:1002E000BC0080919A038230E1F3809198038F3FA4
:1002F000B1F0809198038032A1F08091980380330F
:1003000091F084E010929C031092BE0310929B0324
:1003100008953D9131939F5FC9CF85EEE0CF80E096
:10032000F1CF82E0EFCF83E0EDCF089508951F93E2
:10033000CF93DF93182F692FCFECD3E08E819F816D
:10034000288531E030939B032093BD0310929C03DA
:100350001092BE03DC01ED91FC910190F081E02D43
:1003600009958E819F81DC01ED91FC910190F081D6
:10037000E02D612F099581E0DF91CF911F910C94C1
:100380003801FC019081909528E030E081E397FFEF
:1003900003C0990F982701C0990F21503109B9F76F
:1003A0008181892728E030E091E387FF03C0880F2F
:1003B000892701C0880F21503109B9F70895AF92FC
:1003C000BF92CF92DF92EF92FF920F931F93CF9342
:1003D000DF936C017B018B01040F151FEB015E01A4
:1003E000AE18BF08C017D10759F06991D601ED9139
:1003F000FC910190F081E02DC6010995892B79F7D8
:10040000C501DF91CF911F910F91FF90EF90DF9089
:10041000CF90BF90AF900895FC01538D448D252F50
:1004200030E0842F90E0821B930B541710F0CF968E
:10043000089501970895FC01918D828D981761F0C0
:10044000A28DAE0FBF2FB11D5D968C91928D9F5FD7
:100450009F73928F90E008958FEF9FEF0895FC01B6
:10046000918D828D981731F0828DE80FF11D858D69
:1004700090E008958FEF9FEF0895FC01918D228DFC
:10048000892F90E0805C9F4F821B91098F73992781
:10049000089585EA94E00E943D0221E0892B09F449
:1004A00020E0822F089580E090E0892B29F00E94BF
:1004B000490281110C9400000895FC01A48DA80F3D
:1004C000B92FB11DA35ABF4F2C91848D90E0019696
:1004D0008F739927848FA689B7892C93A089B189B6
:1004E0008C91837080648C93938D848D981306C057
:1004F0000288F389E02D80818F7D80830895EF92BB
:10050000FF920F931F93CF93DF93EC0181E0888FCD
:100510009B8D8C8D98131AC0E889F989808185FF9D
:1005200015C09FB7F894EE89FF896083E889F9893F
:1005300080818370806480839FBF81E090E0DF9141
:10054000CF911F910F91FF90EF900895F62E0B8D94
:1005500010E00F5F1F4F0F731127E02E8C8D8E114F
:100560000CC00FB607FCFACFE889F989808185FFB6
:10057000F5CFCE010E945D02F1CFEB8DEC0FFD2F88
:10058000F11DE35AFF4FF0829FB7F8940B8FEA8971
:10059000FB8980818062CFCFCF93DF93EC01888D80
:1005A0008823B9F0AA89BB89E889F9898C9185FDEE
:1005B00003C0808186FD0DC00FB607FCF7CF8C917C
:1005C00085FFF2CF808185FFEDCFCE010E945D02D5
:1005D000E9CFDF91CF910895833081F028F4813005
:1005E00099F08230A9F008958730A9F08830C9F0D9
:1005F0008430B1F4809180008F7D03C080918000B1
:100600008F7780938000089584B58F7784BD089597
:1006100084B58F7DFBCF8091B0008F778093B00041
:1006200008958091B0008F7DF9CFCF93DF93282F6D
:1006300030E0F901EC56FE4F8491F901E053FE4F92
:10064000D491F901E454FE4FC491CC23A1F081115F
:100650000E94EC02EC2FF0E0EE0FFF1FE855FE4F7A
:10066000A591B491EC91ED2381E090E009F480E054
:10067000DF91CF91089580E090E0FACF1F93CF9360
:10068000DF93282F30E0F901EC56FE4F8491F901F9
:10069000E053FE4FD491F901E454FE4FC491CC23B2
:1006A000A9F0162F81110E94EC02EC2FF0E0EE0F62
:1006B000FF1FEE54FE4FA591B4918FB7F894EC91C3
:1006C000111108C0D095DE23DC938FBFDF91CF914D
:1006D0001F910895DE2BF8CF1092730310927203CE
:1006E00010929C031092BE0310929A0381E08093B3
:1006F00099031092740361E082E10E943E0361E07D
:1007000083E10E943E03E9EBF0E080818E7F8083ED
:1007100080818D7F808388E48093B80085E4809316
:10072000BC0085E991E0909371038093700386E9A2
:1007300091E090936F0380936E030895CF93DF93BE
:1007400090E0FC01E053FE4F249184549E4FFC0145
:1007500084918823C9F090E0880F991FFC01E65727
:10076000FE4FA591B491FC01EE54FE4FC591D4917A
:1007700061110DC09FB7F8948C91209582238C93C2
:100780008881282328839FBFDF91CF91089562300D
:1007900051F49FB7F8943C91822F809583238C93DA
:1007A000E8812E2BEFCF8FB7F894EC912E2B2C9362
:1007B0008FBFEACF3FB7F89480916A0390916B03A3
:1007C000A0916C03B0916D0326B5A89B05C02F3F87
:1007D00019F00196A11DB11D3FBFBA2FA92F982F67
:1007E0008827BC01CD01620F711D811D911D42E062
:1007F000660F771F881F991F4A95D1F708958F922A
:100800009F92AF92BF92CF92DF92EF92FF926B01D5
:100810007C010E94DA034B015C01C114D104E104A4
:10082000F104B9F00E94DA03681979098A099B0971
:10083000683E73408105910580F321E0C21AD1081A
:10084000E108F10888EE880E83E0981EA11CB11C17
:10085000E4CFFF90EF90DF90CF90BF90AF909F904C
:100860008F9008952FB7F894609166037091670395
:1008700080916803909169032FBF08950F931F9390
:1008800080914A0590914B05A0914C05B0914D0582
:10089000892B8A2B8B2B31F10E9432040091550554
:1008A000109156052091570530915805AB01BC01B8
:1008B000401B510B620B730B91E000914A051091A4
:1008C0004B0520914C0530914D05401751076207AB
:1008D000730708F090E0809154058111892F1F91D2
:1008E0000F91089591E0F7CF85ED8093BC00809142
:1008F000BC0084FDFCCF10929A030895209142031E
:10090000260F3327331F21323105ECF420919A034F
:10091000FC0190E080E0243069F082E00895A0912D
:1009200042032191AC014E5D5C4FA40FB52FB11D68
:100930002C930196861798F380914203680F609379
:10094000420380E0089581E008950895E0917303E3
:1009500080917203E81730F4F0E0EE5FFC4F808185
:1009600090E008958FEF9FEF089590917303809129
:1009700072032FEF3FEF981748F4E92FF0E0EE5F96
:10098000FC4F208130E09F5F90937303C90108956D
:100990008091720390917303891B990B0895CF92F4
:1009A000DF92EF92FF920F931F93CF93DF937C011F
:1009B000CB018A0120919B03222389F0EB016B017B
:1009C000C40ED51ECC15DD0569F06991D701ED91F6
:1009D000FC910190F081E02DC7010995F3CF642FC0
:1009E0000E947E04C801DF91CF911F910F91FF906B
:1009F000EF90DF90CF900895CF93DF931F92CDB704
:100A0000DEB7698320919B032223F9F02091BE0376
:100A1000203258F021E030E0FC013383228390E063
:100A200080E00F90DF91CF91089580919C03E82F93
:100A3000F0E0E356FC4F998190838F5F80939C0395
:100A40008093BE0381E090E0ECCF61E0CE0101969F
:100A50000E947E04F7CF2091C1033091C203281772
:100A6000390781F49091BF038091C003981751F02A
:100A7000E091BF03F0E0EE0FFF1FEE57FD4F8081C6
:100A8000918108958FEF9FEF0895EF92FF920F935A
:100A90001F93CF93DF93DC015C964D915C915D9742
:100AA0004115510579F481E090E013969C938E9363
:100AB000129790E080E0DF91CF911F910F91FF900E
:100AC000EF9008955196ED91FC91529750968C912C
:100AD0005097982F9095EFB65E962C915E97322F97
:100AE0003270F32E21FF02C060957095F89420813A
:100AF000FF2001F1282B2083EA012197F1F729E05B
:100B0000308160FF19C0382B3083EA012197F1F75B
:100B1000769567952150A1F7FF2081F08081892388
:100B20008083EFBE5C968D919C910197F1F781E0F7
:100B300090E0C1CF2923DFCF3923E6CF9081892BE5
:100B4000EFCFEF92FF920F931F93CF93DF93DC01D0
:100B50005C96ED90FC905D97E114F10479F481E0EE
:100B600090E013969C938E93129790E080E0DF9133
:100B7000CF911F910F91FF90EF9008955196ED91B5
:100B8000FC91529750968C915097982F90950FB753
:100B90005E962C915E97122F127021FD6095F8944D
:100BA0002081112319F1282B2083E7012197F1F7E8
:100BB00028E0462F50E0308160FF1AC0382B308388
:100BC000E7012197F1F7BA0175956795215089F7EB
:100BD000112381F08081892380830FBF5C968D91E2
:100BE0009C910197F1F781E090E0C1CF2923DCCF00
:100BF0003923E5CF9081892BEFCF2091C10330912C
:100C0000C2032817390771F48091C0032091BF03F4
:100C100090E0805C9F4F821B910960E470E00E942D
:100C20001A1C089590E080E008952091C10330914E
:100C3000C20328173907C9F49091BF038091C003FC
:100C4000981799F0E091BF03F0E0EE0FFF1FEE5709
:100C5000FD4F808191812091BF0330E02F5F3F4F96
:100C60002F7333272093BF0308958FEF9FEF0895CD
:100C7000E091C103F091C203E817F90769F4A38971
:100C8000B4899C918589809589238C931092C203A5
:100C90001092C10381E0089580E0089580912104BD
:100CA00090912204892B31F18091C1039091C2036C
:100CB00024E087309207F1F0009711F00E94380687
:100CC000809125048E7F809325041092C00310929A
:100CD000BF0387E094E09093C2038093C103E09147
:100CE0001A04F0911B04808190911C04892B80834D
:100CF00081E0089580E0089590E080E0089580917B
:100D00009A038111FCCF413208F040E281E08093E8
:100D10009A03809399039FEF9093980310929703FF
:100D2000940F909396038093750380917503660FDB
:100D3000682B6093750380917403813019F51092CC
:100D40007403809175038093BB008091BC0083FD88
:100D5000F8CF85EC8093BC0080919A038130E1F359
:100D600080919703841710F440919703E6E7F3E02E
:100D7000A2E0B3E080E0841307C010927303809375
:100D80007203089585EEE6CF91919D938F5FF3CF27
:100D9000CF92DF92EF92FF920F931F93CF93DF9347
:100DA00000D000D000D0CDB7DEB780E094E20E9442
:100DB000970164E170E080E090E00E94FF0346E06C
:100DC0006091D7038091D5039091D6030E947F064E
:100DD0008091D5039091D603DC01ED91FC910084C4
:100DE000F185E02D0995069709F077C08E010F5F18
:100DF0001F4F6E01B7E0CB0ED11C78018091D50357
:100E00009091D603DC01ED91FC910284F385E02DF5
:100E10000995F80181938F01EC15FD0579F71B8188
:100E2000C7010E94C101181358C01E81CE0104964B
:100E30000E94C101181351C00C811D8169817A8102
:100E400076276727762790E080E00E94BD1820E093
:100E500030E04FE253E40E941E1920E03FEF4FE7DD
:100E600057E40E948F1A20E030E044E352E40E94ED
:100E7000221A6093DC037093DD038093DE0390936A
:100E8000DF03102701271027B80190E080E00E94BF
:100E9000BD1820E030E048EC52E40E941E1920E02A
:100EA0003FEF4FE757E40E948F1A6093D803709387
:100EB000D9038093DA039093DB0381E026960FB683
:100EC000F894DEBF0FBECDBFDF91CF911F910F9180
:100ED000FF90EF90DF90CF90089580E0EFCFCF9319
:100EE000DF93EC0188819981009711F00E94571DD2
:100EF000198218821D821C821B821A82DF91CF9177
:100F00000895FC01808191810C94571D6F927F920E
:100F10008F929F92AF92BF92CF92DF92EF92FF9209
:100F20000F931F93CF93DF93CDB7DEB7162F6A01D0
:100F30003901ADB6BEB62091F10331E030939B0389
:100F40002093BD0310929C031092BE03982E7C0147
:100F50008091EF039091F003D7016D917D01DC0149
:100F6000ED91FC910190F081E02D09958E2D89196C
:100F7000811770F381E00E943801B60190E080E0B3
:100F80000E94FF03002309F45FC0102F110F100F00
:100F9000412F6091F1038091EF039091F0030E9443
:100FA0007F061817A9F080E00FB6F894BEBE0FBEFA
:100FB000ADBEDF91CF911F910F91FF90EF90DF9029
:100FC000CF90BF90AF909F908F907F906F9008953B
:100FD000EDB7FEB7E11BF1090FB6F894FEBF0FBEE7
:100FE000EDBF8DB79EB701966C017C014C018091DD
:100FF000EF039091F003DC01ED91FC910284F38505
:10100000E02D0995F40181934F018E2F8C198117E2
:1010100070F3630110E0C7010E941E01D701129610
:101020009C9112978913BFCF8C9111969C9189271F
:1010300098278927F601819391936F011F5FF3E051
:10104000EF0EF11C0113E7CF81E0AECF0F93CF93EA
:10105000DF9300D0CDB7DEB780E2898383E08A8357
:1010600000E030E020E04AE050E062E0CE0101968E
:101070000E9486070F900F90DF91CF910F910895F6
:10108000FB0101900020E9F73197AF01461B570B98
:10109000DC01ED91FC910280F381E02D09940F9326
:1010A0001F93CF93DF938C010E943E048823C9F0E5
:1010B000C0915F05D0916005F80144815581608140
:1010C0007181E881F9810280F381E02DCE010995DB
:1010D0006EE371E0CE01DF91CF911F910F910C94DF
:1010E0004008DF91CF911F910F9108950F931F93A7
:1010F000CF93DF93EC010E947F028C016EE371E0DD
:10110000CE010E944008800F911FDF91CF911F9167
:101110000F910895CF93C42F0E947608CC2351F0ED
:101120008091E00381111092E0038091F20381111C
:101130001092F203CF910895EC01009739F00E94CC
:1011400040086EE371E0CE010E9440080E94C80F83
:10115000AF92BF92CF92DF92EF92FF920F931F93C5
:10116000CF93DF938C0161E471E01816190664F5E2
:101170000E94BB1CEC01009729F1A0903204B090B2
:101180003304E0902E04F0902F0420913404309129
:101190003504C0903004D0903104FC01281B390B79
:1011A000CF018C1B9D0B8A159B05A4F4C9018E0FE2
:1011B0009F1FB6010E941A1CD701A80FB91F8C915E
:1011C0008193EECF66E771E080912C0490912D041D
:1011D0000E949C08C7010E94571DD0932F04C09302
:1011E0002E041092350410923404809132049091B0
:1011F00033049093370480933604109331040093A2
:101200003004DF91CF911F910F91FF90EF90DF900D
:10121000CF90BF90AF900895CF93C82F80913204A4
:101220009091330420913004309131048217930758
:1012300021F4880F991F0E94A808E0912E04F091D4
:101240002F0480913604909137049C012F5F3F4F0B
:101250003093370420933604E80FF91FC0832091A0
:10126000360430913704809130049091310428176E
:10127000390721F410923704109236048091320419
:101280009091330401969093330480933204CF916C
:1012900008950F931F93CF93DF93EC018881998179
:1012A000009759F02A813B812617370730F081E0FB
:1012B000DF91CF911F910F9108958B016F5F7F4F49
:1012C0000E94E01D009759F0998388831B830A834D
:1012D0002C813D81232B59F7FC011082E8CF80E05F
:1012E000E7CF0F931F93CF93DF93EC010C811D8108
:1012F0000F5F1F4FB8010E944909882391F0288190
:1013000039818C819D8169E372E0820F931F0E9475
:10131000A61E1D830C83CE01DF91CF911F910F91EB
:101320000895CE010E946F07F6CFEF92FF920F93C0
:101330001F93CF93DF93EC01FB01E080F180E11478
:10134000F10411F10481158101151105A9F08C81B9
:101350009D81080F191FB801CE010E9449098823F9
:1013600099F0288139818C819D81B701820F931F6B
:101370000E94A61E1D830C83CE01DF91CF911F9189
:101380000F91FF90EF900895CE010E946F07F4CF68
:10139000EF92FF920F931F93CF93DF93EC017B01AA
:1013A0008A01BA010E94490981110BC0CE010E9435
:1013B0006F07CE01DF91CF911F910F91FF90EF90BA
:1013C00008951D830C83B701888199810E94A61E10
:1013D000F0CFEF92FF920F931F93CF93DF93CDB790
:1013E000DEB7A1970FB6F894DEBF0FBECDBF7C016C
:1013F000CB01BA01F7011182108213821282158289
:1014000014828E010F5F1F4F22E044E00E943E16BF
:101410000097C9F0FC0101900020E9F73197AF0176
:10142000481B590BBC01C7010E94C809A1960FB601
:10143000F894DEBF0FBECDBFDF91CF911F910F910A
:10144000FF90EF900895C7010E946F07EFCFEF92D2
:10145000FF920F931F93CF93DF93CDB7DEB76197C2
:101460000FB6F894DEBF0FBECDBF8C01CB01F801E3
:101470001182108213821282158214824AE09E0128
:101480002F5F3F4F7901B9010E945C16F70101906F
:101490000020E9F73197AF014E195F09B701C80184
:1014A0000E94C80961960FB6F894DEBF0FBECDBF8B
:1014B000DF91CF911F910F91FF90EF900895CF93FF
:1014C000DF93EC01FB018617970749F0608171817A
:1014D0006115710541F0448155810E94C809CE0112
:1014E000DF91CF9108950E946F07F9CFFC0111821F
:1014F000108213821282158214826115710551F0D7
:10150000FB0101900020E9F73197AF01461B570B13
:101510000C94C80908950F931F93CF93DF93CDB711
:10152000DEB728970FB6F894DEBF0FBECDBF88E5B3
:101530008093F10383EC93E09093F0038093EF03A7
:101540000E946C0386E38F8382E8888703E029EE9C
:1015500033E04AE050E062E0CE0107960E94860741
:1015600081111DC00091D3031091D40360EB71E091
:10157000CE0101960E94760ACE010196F8010995E6
:10158000CE0101960E94810728960FB6F894DEBF1F
:101590000FBECDBFDF91CF911F910F91089580E2D3
:1015A0008F838FE2888701E09E012F5F3F4F4AE0E3
:1015B00050E062E0CE0107960E948607882391F2F0
:1015C00089819A81807F9927809761F60E942608F9
:1015D000882341F20091D3031091D40367EC71E0AA
:1015E000CE0101960E94760ACE010196F801099576
:1015F000CE0101960E9481070E942608882321F2CD
:1016000081E08093F2030091D3031091D4036AED3B
:1016100071E0AECF0F931F93CF93DF9300D000D034
:1016200000D0CDB7DEB70E946C0384E48093D7036B
:1016300082EA90E30E9497016AE070E080E090E027
:101640000E94FF038DE293EF0E94970143E06091B7
:10165000D7038091D5039091D6030E947F06809195
:10166000D5039091D603DC01ED91FC910284F385C2
:10167000E02D099500E0182F8091D5039091D603B5
:10168000DC01ED91FC910284F385E02D0995802B1E
:10169000912B0091D3031091D4030196E1F060EFF8
:1016A00071E0CE0101960E94760ACE010196F80102
:1016B0000995CE0101960E94810781E08093E003A5
:1016C00026960FB6F894DEBF0FBECDBFDF91CF9147
:1016D0001F910F91089563E072E0CE0101960E9480
:1016E000760ACE010196F8010995CE0101960E9475
:1016F0008107E6CFCF93C42F0E947608CC2329F030
:101700000E940A0BCF910C948B0ACF9108950F93EE
:101710001F93CF93DF93CDB7DEB767970FB6F894DB
:10172000DEBF0FBECDBF85E0EFE1F2E0DE015396F4
:1017300001900D928A95E1F720916F043091700429
:1017400090E080E04EE2B901082E02C075956795E1
:101750000A94E2F760FD07C0E3E1F0E0EC0FFD1F43
:10176000E80FF91F408301968430910561F70091DD
:101770002A0410912B04BE016D5E7F4FCE010796A7
:101780000E94760A6AE172E0CE010D960E94760A06
:10179000BE01695F7F4FCE010D960E9495091A82A6
:1017A00019821C821B821E821D82BC01CE01019601
:1017B0000E945F0ACE010196F8010995CE010196BB
:1017C0000E948107CE010D960E948107CE010796E7
:1017D0000E94810767960FB6F894DEBF0FBECDBF9B
:1017E000DF91CF911F910F9108950F931F93CF9386
:1017F000DF93CDB7DEB76F970FB6F894DEBF0FBE9D
:10180000CDBF8DE0E9E2F2E0DE01119601900D928C
:101810008A95E1F7209171043091720490E080E0A4
:101820004EE2B901082E02C0759567950A94E2F759
:1018300060FD07C0E1E0F0E0EC0FFD1FE80FF91FCD
:10184000408301968C30910561F700912A04109134
:101850002B04BE016F5F7F4FCE0144960E94760A33
:1018600064E272E0CE014A960E94760ABE016C5E86
:101870007F4FCE014A960E9495091F861E86198ABF
:10188000188A1B8A1A8ABC01CE010E960E945F0A32
:10189000CE010E96F8010995CE010E960E948107A1
:1018A000CE014A960E948107CE0144960E9481078C
:1018B0006F960FB6F894DEBF0FBECDBFDF91CF910C
:1018C0001F910F9108950F931F93CF93DF93CDB77F
:1018D000DEB762970FB6F894DEBF0FBECDBF0091A2
:1018E0002A0410912B0463E774E0CE0107960E944E
:1018F000760A66E372E0CE010D960E94760ABE017A
:10190000695F7F4FCE010D960E9495091A82198258
:101910001C821B821E821D82BC01CE0101960E9488
:101920005F0ACE010196F8010995CE0101960E9449
:101930008107CE010D960E948107CE0107960E9475
:10194000810762960FB6F894DEBF0FBECDBFDF9160
:10195000CF911F910F910895EF92FF920F931F93D4
:10196000CF93DF93CDB7DEB7A4970FB6F894DEBF61
:101970000FBECDBF0FEC13E0F801E480F58066A93F
:1019800077A9CE0107960E94270AF80164A975A9D4
:10199000CE010D960E94270AF80144A555A566A51B
:1019A00077A5CE0143960E94E909F80140A551A50B
:1019B00062A573A5CE0149960E94E9096BE372E026
:1019C000CE014F960E94760ABE01675E7F4FCE0120
:1019D0004F960E9495090E947109BE016D5E7F4F6E
:1019E0000E9495090E947109BE01635F7F4F0E94AA
:1019F00095090E947109BE01695F7F4F0E94950998
:101A00001A8219821C821B821E821D82BC01CE0199
:101A100001960E945F0ACE010196F7010995CE0159
:101A200001960E948107CE014F960E948107CE0148
:101A300049960E948107CE0143960E948107CE01FC
:101A40000D960E948107CE0107960E948107A496F9
:101A50000FB6F894DEBF0FBECDBFDF91CF911F91BF
:101A60000F91FF90EF9008956F3341F40E94870B20
:101A70000E94F50B0E94630C0C94AC0C6733C1F10F
:101A80009CF4623369F13CF4603329F13CF58AEA55
:101A9000613211F10895643339F124F1653331F184
:101AA00086E36633C9F008956F3641F13CF469333B
:101AB00019F104F18AE3633679F00895633711F17F
:101AC00024F48DE3603741F008956637C9F08CE364
:101AD000683711F0089580E30C940C0981E3FCCF82
:101AE00082E3FACF83E3F8CF84E3F6CF85E3F4CF44
:101AF00087E3F2CF88E3F0CF89E3EECF8BE3ECCF3F
:101B00008EE3EACF8FE3E8CF1F920F920FB60F92CA
:101B100011242F933F934F935F936F937F938F93F2
:101B20009F93AF93BF93EF93FF9385EA94E00E9456
:101B30005D02FF91EF91BF91AF919F918F917F9146
:101B40006F915F914F913F912F910F900FBE0F902A
:101B50001F9018951F920F920FB60F9211242F937A
:101B60008F939F93EF93FF93E091B504F091B604A8
:101B70008081E091BB04F091BC0482FD1BC0908188
:101B80008091BE048F5F8F732091BF04821741F054
:101B9000E091BE04F0E0EB55FB4F958F8093BE04BF
:101BA000FF91EF919F918F912F910F900FBE0F900A
:101BB0001F9018958081F4CF1F920F920FB60F924D
:101BC00011242F933F938F939F93AF93BF93809153
:101BD000660390916703A0916803B0916903309107
:101BE000650323E0230F2D3758F50196A11DB11D84
:101BF000209365038093660390936703A093680323
:101C0000B093690380916A0390916B03A0916C0378
:101C1000B0916D030196A11DB11D80936A0390934D
:101C20006B03A0936C03B0936D03BF91AF919F9131
:101C30008F913F912F910F900FBE0F901F9018958D
:101C400026E8230F0296A11DB11DD2CF1F920F923D
:101C50000FB60F9211242F933F934F935F936F937F
:101C60007F938F939F93AF93BF93EF93FF93809155
:101C7000B900887F803609F44AC0F0F5883209F44B
:101C8000A7C018F5803109F49BC0B8F4882309F483
:101C9000F9C0883009F494C0FF91EF91BF91AF91E2
:101CA0009F918F917F916F915F914F913F912F9174
:101CB0000F900FBE0F901F901895883109F488C0BF
:101CC000803251F78093980314C0803409F49DC08A
:101CD00040F48033B9F38833F9F68093980385ECA8
:101CE000B0C0803509F485C0883509F496C08834C1
:101CF00099F60E947404D0CF883909F48CC038F565
:101D0000883729F050F4883611F0803729F683E0BF
:101D100080939A031092640357C0883809F47BC0FB
:101D2000803919F0803809F0B7CF80916403803290
:101D300008F071C0E091640381E08E0F809364032A
:101D40008091BB00F0E0EC5BFC4F80833DC0803BAA
:101D500039F0E0F4803A09F479C0883A09F09CCF70
:101D600084E080939A031092430310924203E0911F
:101D70007003F091710309958091420381110FC0A6
:101D800081E0809342031092220309C0803C09F451
:101D9000A6CF883C09F4A3CF883B09F07DCFE09122
:101DA000430381E08E0F80934303F0E0EE5DFC4F30
:101DB00080818093BB00909143038091420329C0AE
:101DC000809175038093BB0085EC8093BC0064CF49
:101DD0009091970380919603981758F5E091970397
:101DE00081E08E0F80939703F0E0EA58FC4F8081EA
:101DF000E9CFE091970381E08E0F80939703809164
:101E0000BB00F0E0EA58FC4F8083909197038091EB
:101E100096039817C8F285E8D8CFE091970381E040
:101E20008E0F809397038091BB00F0E0EA58FC4F3F
:101E300080838091990381115CCF81E0809374034A
:101E400084EA8093BC0010929A0326CF85EC80939D
:101E5000BC0010929A0380916403803230F4E091C8
:101E60006403F0E0EC5BFC4F10826091640370E06F
:101E7000E0916E03F0916F0384E493E00995109272
:101E800064030ACF1092980334CF1F920F920FB6BB
:101E90000F9211242F933F934F935F936F938F93E0
:101EA0009F93AF93BF93CF93DF93EF93FF93E09113
:101EB000C103F091C203309749F0A685B785958597
:101EC000868D81FF15C08C918923A9F4FF91EF9134
:101ED000DF91CF91BF91AF919F918F916F915F9162
:101EE0004F913F912F910F900FBE0F901F9018951B
:101EF0008C91892359F7A389B4899C918589809510
:101F000089238C93868997890197F1F7408D518DAC
:101F1000C685D785658529E090E080E0DA011197D4
:101F2000F1F7969587953881362309F0906821500E
:101F3000A9F79C01220F232F221F330B3195868D89
:101F400081FF02C0209530958091C00390E00196FA
:101F50008F7399274091BF034817B1F0A091C00338
:101F6000B0E0AA0FBB1FAE57BD4F2D933C9380939B
:101F7000C003828D938D0197F1F7A389B4898C9169
:101F80009589892B8C93A2CF868D8160868FF1CF26
:101F900061E08DE00E949E0361E08DE00E943E03BF
:101FA0006AEF70E080E090E00E94FF0360E08DE067
:101FB0000E943E036AEF70E080E090E00E94FF0321
:101FC000EBCFCF93DF931092A8041092A70488EE72
:101FD00093E0A0E0B0E08093A9049093AA04A093BA
:101FE000AB04B093AC042AE031E03093A604209314
:101FF000A50425EC30E03093B2042093B10424EC26
:1020000030E03093B4042093B30420EC30E03093FC
:10201000B6042093B50421EC30E03093B80420934B
:10202000B70422EC30E03093BA042093B90426ECD4
:1020300030E03093BC042093BB041092BE04109295
:10204000BF041092C0041092C1041092C6031092F3
:10205000C5038093C7039093C803A093C903B093AB
:10206000CA032CE131E03093C4032093C3031092E0
:10207000540510925A051092590510925B05109262
:102080005C0510925D0510925E0525EA34E0309300
:10209000600520935F0540E052EC61E070E0409302
:1020A00042055093430560934405709345052DE028
:1020B00030E030934705209346052BE220934805F6
:1020C0002DE2209349054CED55E060E070E040932F
:1020D0004A0550934B0560934C0570934D052AE7D4
:1020E0003BE030934F0520934E052AE838E03093CB
:1020F00051052093500524E33DE030935305209390
:10210000520510920A041092090480930B049093D4
:102110000C04A0930D04B0930E048EE291E0909312
:1021200008048093070410921E0410921D0410925C
:10213000200410921F041092220410922104109285
:10214000240410922304609125046E7F6D7F6093B8
:1021500025046695617081E068278BE00E943E034C
:1021600061E08BE00E949E03EBEDF1E0E491E093EF
:102170001704E7ECF1E0E491F0E0EE0FFF1FEE54FE
:10218000FE4F85919491909319048093180460E018
:102190008AE00E949E038091250481FD04C061E0D5
:1021A0008AE00E943E038AE080931304EAEDF1E0A6
:1021B000E491E0931404E6ECF1E0E491F0E0EE0F3A
:1021C000FF1FE855FE4F85919491909316048093DC
:1021D00015041092310410923004109233041092BE
:1021E0003204109235041092340410923704109285
:1021F000360410922D0410922C0482E090E00E948C
:10220000BB1C90932F0480932E04892B11F40E9401
:10221000C80F82E090E0909331048093300483E013
:102220008093260482E08093270484E0809328042E
:1022300085E080932904CFE4D8E0D0932B04C093A9
:102240002A0462E083E00E949E0362E082E00E9432
:102250009E0362E084E00E949E0362E085E00E94AB
:102260009E0383EC93E09093D6038093D503109262
:10227000D7031092D8031092D9031092DA03109268
:10228000DB031092DC031092DD031092DE03109248
:10229000DF031092F3031092F4031092F5031092EF
:1022A000F60388E893E1A0E0B0E08093CF03909339
:1022B000D003A093D103B093D203D093D403C0939F
:1022C000D303DF91CF910895CF93DF93CDB7DEB7DE
:1022D000C154D1090FB6F894DEBF0FBECDBF7894BC
:1022E00084B5826084BD84B5816084BD85B582601B
:1022F00085BD85B5816085BD80916E0081608093CC
:102300006E00109281008091810082608093810034
:102310008091810081608093810080918000816044
:10232000809380008091B10084608093B10080919F
:10233000B00081608093B00080917A0084608093C7
:102340007A0080917A00826080937A0080917A008E
:10235000816080937A0080917A00806880937A000F
:102360001092C10061E0809146050E949E0361E0E9
:10237000809146050E943E0364EC79E080E090E0A5
:102380000E94FF03E0905F05F09060058090420599
:1023900090904305A0904405B090450560E079E039
:1023A0008DE390E0A50194010E942E1C215031097B
:1023B000410951095695479537952795D70150966C
:1023C000ED91FC9182E080838114B1EE9B06A10423
:1023D000B10421F02115E0E13E07A8F0D7015096A5
:1023E000ED91FC91108260E874E88EE190E0A50127
:1023F00094010E942E1C2150310941095109569522
:10240000479537952795D7011C96ED91FC911D971F
:1024100030831E96ED91FC911F97208358961C9255
:1024200058975496ED91FC91559786E0808352968B
:10243000ED91FC9153978081806180835296ED915C
:10244000FC9153978081886080835296ED91FC9136
:1024500053978081806880835296ED91FC918081B2
:102460008F7D808360E0809146050E943E0310923C
:102470002204109221041092200410921F04109242
:102480001E0410921D0482E09DE09093240480932A
:10249000230490911304963108F047C02FE636E0EC
:1024A00030931E0420931D0420E03DE0309320046F
:1024B00020931F0427EB39E030932204209321045A
:1024C0002091680084E0983048F031E09E3008F4B4
:1024D00030E081E001C0880F3A95EAF7822B8093C3
:1024E00068002DE630E0983050F02BE630E09E306A
:1024F00030F02CE630E0963110F030E020E0309300
:102500001B0420931A04292F30E0983008F0EDC006
:1025100081E001C0880F9A95EAF780931C048091AE
:102520002304909124040197F1F70E944E060E9423
:102530003204609338047093390480933A04909382
:102540003B040E94870B0E94F50B0E94630C0E94C3
:102550000A0B0E948B0A90E080E01C01E89420F8AE
:10256000FC01E1602296FFAFEEAF229711E080916F
:102570005F0590916005DC01ED91FC910284F3858B
:10258000E02D09957C0180914805082E000C990BDF
:10259000E816F90609F0B6C0F090540510935405FA
:1025A0000E94320460935505709356058093570539
:1025B000909358050E94320460935B0570935C050C
:1025C00080935D0590935E0510925A05109259050F
:1025D000E0914E05F0914F054F2D41276091480540
:1025E000309709F0A3C00E943204C0905B05D090E0
:1025F0005C05E0905D05F0905E056C157D058E052F
:102600009F0518F16C507E4F8F4F9F4F60935B0575
:1026100070935C0580935D0590935E050E943E0477
:10262000882341F081E02091590530915A05232BF0
:1026300009F080E0282F30E030935A0520935905A7
:10264000682F809146050E943E03809126048823CE
:1026500041F00E9415032296EEACFFAC2297892B25
:1026600009F0710180912704882309F478C00E9441
:102670001503892B09F073C06894E1F88091280450
:10268000882309F46FC00E941503892B09F06AC0E2
:102690006894E2F880912904882309F466C00E94B6
:1026A0001503892B09F061C06894E3F880916F04E9
:1026B00090917004E816F90631F0F0927004E092FF
:1026C0006F040E94870B87E094E00E94FD05892B30
:1026D00009F4C4C087E094E00E94150690FF48C04A
:1026E00080933C0410936E04EECF9E3040F428504B
:1026F000310981E001C0880F2A95EAF70ECF2E50EC
:102700003109F7CF60914905862F062E000C990BF1
:10271000E816F90689F44091540510925405E091A9
:102720005005F0915105309709F45DCF80915F0518
:1027300090916005099557CF0E943E04882309F4C3
:1027400052CFE0915205F0915305309709F44BCFE9
:102750006E2D80915F0590916005099544CFE894B6
:10276000E1F88CCFE894E2F895CFE894E3F89ECFB7
:10277000E0916E04E23308F0A6CF20913C042C34A3
:1027800051F1203509F09FCFE33048F491E09E0FDE
:1027900090936E04F0E0E95FFB4F85AB94CFE3309C
:1027A00009F091CF90913D0430913E0420E5290F2E
:1027B000230F28130AC0892F990F990B932B9093FD
:1027C0007204809371040E94F50B80916E048F5FF8
:1027D00080936E0478CF6E2F70E0E13059F0209135
:1027E0003D04022E000C330BA9014F5F5F4F4617CB
:1027F00057073CF0EF5FE0936E04695F7B4FFB018E
:10280000CCCF2E5F3F4F2617370709F05CCFE7E0AC
:10281000F4E090E0BF01675074406217730724F43E
:1028200065A9960F3196F6CF8913CFCF295F3B4F1D
:10283000D901D5961C9283E3ECE3F4E0DE01119616
:1028400001900D928A95E1F7BE016D5F7F4F83E79E
:1028500094E00E94AD1E0E94630CB7CF80913204B9
:1028600090913304892B09F482C00E943204C090F5
:102870003804D0903904E0903A04F0903B04C61636
:10288000D706E806F90608F072C0209132043091AC
:1028900033042115310541F460E472E080912C0489
:1028A00090912D040E949C08E0912E04F0912F0439
:1028B0008091340490913504AC014F5F5F4F509389
:1028C000350440933404E80FF91FE08021503109AA
:1028D000309333042093320480913004909131047A
:1028E0004817590721F41092350410923404211529
:1028F000310591F0AC0197FF02C04D5F5F4F5595D8
:102900004795559547954217530734F097FD019623
:10291000959587950E94A80887E094E00E94380664
:102920006BE471E087E094E00E9445050E2C000CFA
:10293000FF08B701772787E094E00E944505B701BB
:10294000655B7F4F772787E094E00E9445050E94F2
:102950004E060E9432046A567F4F8F4F9F4F6093FE
:1029600038047093390480933A0490933B040E9496
:1029700032046CAF7DAF8EAF9FAF8091E0038111C9
:1029800005C09091F203992309F435C14091F303F6
:102990005091F4036091F5037091F603CCACDDAC7B
:1029A000EEACFFAC4C155D056E057F0508F023C14C
:1029B000882309F49BC00E94C806882309F42AC111
:1029C0008091DC039091DD03A091DE03B091DF03E1
:1029D0008093F7039093F803A093F903B093FA035D
:1029E0000E94C806812C912C90ECA92E9FE7B92E4D
:1029F000882341F08090D8039090D903A090DA0307
:102A0000B090DB038092FB039092FC03A092FD0345
:102A1000B092FE03C090F703D090F803E090F90362
:102A2000F090FA03A7019601C701B6010E94071CA6
:102A30008111F5C0A5019401C501B4010E94071CD4
:102A40008111EDC023EC35EF4CE851E4C701B6012C
:102A50000E941E192B013C0128EB3EE143E753E4A1
:102A6000C701B6010E94231A9B01AC01C301B20148
:102A70000E948F1A0E94091B2B013C0120E030E0CC
:102A800048EC52E4C501B4010E948F1A21E835E9EF
:102A900043EC50E40E941E19A30192010E941E19EA
:102AA0004B015C0123E333E948E853E4C701B60175
:102AB0000E94231A9B01AC01C501B4010E948F1A28
:102AC00023E333EB48E553E40E941E1920E030E095
:102AD0004AE754E40E941E190E943B1B6093FF03C7
:102AE0007093000480930104909302048091F20398
:102AF000882309F466C0C090FF03D0900004E090E2
:102B00000104F0900204C701B6010E94BD189B01A8
:102B1000AC010E94071C811129C021E0C21628EED9
:102B2000D20623E0E206F10408F5C701B60120E071
:102B300039E841E450E00E94501C08E10E947D1CED
:102B4000C90130E23CAB21E62DAB9EAB8FABCE0191
:102B5000C6960E941E0188AF00E030E020E04AE007
:102B600050E065E0CE01C4960E94860740E24AAF7D
:102B700088E08BAF02E09E012C5C3F4F4CE050E0C0
:102B800062E0CE01CA960E948607811151C0E09092
:102B9000D303F090D40362E772E0CE01C4960E94A2
:102BA000760ACE01C496F7010995CE01C4960E941B
:102BB00081071092040410920304109206041092EC
:102BC00005040E94AC0C8091CF039091D003A0919A
:102BD000D103B091D203CCACDDACEEACFFAC8C0D2C
:102BE0009D1DAE1DBF1D8093F3039093F403A0932E
:102BF000F503B093F60380E0E82E80E0F82EEF288E
:102C000009F4B5CC0E944902882309F4AFCC0E9494
:102C10000000ACCC80E090E0A0ECBFE7D9CE1092F1
:102C2000FF031092000410920104109202045ECF80
:102C30002EA93FA93093E2032093E1038CA99DA91B
:102C40009093E4038093E3033093040420930304FC
:102C50009093060480930504B4CFCF93DF93C7E02D
:102C6000D4E08FA198A50E94571D8EE291E0998330
:102C70008883CE01DF91CF910C943806EF920F93A9
:102C80001F93CF93DF93E80134E047FD34E1042E36
:102C9000000C550B57FF03C0519541955109E32E88
:102CA000022F242FAE010E947616CE01DF91CF9124
:102CB0001F910F91EF900895BB27FB015527AA277D
:102CC000880F991FAA1FA41710F0A41B83955051B9
:102CD000B9F7A05DAA3308F0A95DA193009779F731
:102CE000B111B1931192CB010C94AD18A9E0B0E0F1
:102CF000ECE7F6E10C94E2196A01F22EB02E102FE7
:102D0000FBE3AF2EA01608F41BE31F5F012F27E0A3
:102D1000AE014F5F5F4F0E94D517BC018981982F8C
:102D20009970913009F43FC09BE2E1FC04C09E2DF4
:102D30009170E0FC3AC05E2D5071E82FE87083FF7F
:102D400046C084E0911101C083E0EF2DE81B8F1590
:102D500008F0E0E0D6018E2F20E2552351F19923AF
:102D600029F0D6019C93C60101966C0196012D5F56
:102D70003F4FE2FE24C08EE4D6018C9391E411967D
:102D80009C93119712968C93D9018E2F90E281110A
:102D90001BC0E20FF32FF11D10828EEF9FEF2996DB
:102DA000ECE00C94FE199DE2C6CF90E2C4CF2D93C7
:102DB00081508111FCCFCE0ED11CE0E0D0CF8EE649
:102DC000D6018C9391E6DBCF9D938150E0CF482FC5
:102DD000447082FF3DC084E0911101C083E08F15F3
:102DE00010F4EF2DE81BD6018E2F20E2552309F1B8
:102DF000992329F0D6019C93C60101966C01960196
:102E00002D5F3F4FE2FE1BC089E4D6018C938EE418
:102E100011968C93119786E412968C93D9018E2F7C
:102E200090E2882309F4B5CF9D938150FACF2D937A
:102E300081508111FCCFCE0ED11CE0E0D9CF89E6C4
:102E4000D6018C938EE611968C93119786E6E4CF8B
:102E50009B0177FF02C030E020E0A1E0B0E09111DB
:102E600002C0B0E0A0E0F9013196AE0FBF1F8B2C7D
:102E7000912CBB2009F461C05401EFEFAE1ABE0AD9
:102E8000AA0DBB1DFA161B0619F014F04F2D4A1B94
:102E9000511188C0E3FC59C07601A42FB0E2A11102
:102EA0004FC0C40ED11C992309F45BC040E0D60189
:102EB0001196F60190836D01552309F448C0012F46
:102EC000060F9A81582F507184FF03C0913309F483
:102ED000015010160CF047C0093008F008E0EEE28F
:102EE000FE2E5B01A01AB10885019194819491088E
:102EF0002F3F320729F4D601FC92F60131966F017B
:102F00006217730794F1021713077CF5DB01A21B0C
:102F1000B30BAA24A394B12CAC0EBD1EAA0DBB1DED
:102F200011968C9121503109D60111962815390539
:102F3000F4F0F60180836D01DBCFB12CA12CA0CF82
:102F4000F701B1937F01A150AACF9111B0CFD60163
:102F5000942F50E302C05D9391509111FCCFC40EA9
:102F6000D11C40E0ACCF01E0BACF80E3DBCF6217E9
:102F7000730731F4963388F4953311F4552369F0CF
:102F8000F6018083FD01842F90E2811108C0A40F17
:102F9000B11D1C9290E080E002CF81E3F1CF9193CC
:102FA0008150F3CF911183CF8ACF283008F027E0EA
:102FB0003327DA01990F311D87FD91600096610575
:102FC000710539F432602E5F3D9330E32A95E1F7C5
:102FD00008959F3F30F080387105610509F03C5F2E
:102FE0003C5F3D93913008F08068911DDF93CF9353
:102FF0001F930F93FF92EF92192F987F9695E92FC9
:1030000096959695E90FFF27E651FF4F99273327AD
:10301000EE24FF24A701E70105900894079428F403
:10302000360FE71EF81E491F511D660F771F881FB8
:10303000991F0694A1F70590079428F4E70EF81E4F
:10304000491F561FC11D770F881F991F661F0694C1
:10305000A1F70590079428F4F80E491F561FC71FC3
:10306000D11D880F991F661F771F0694A1F7059041
:10307000079420F4490F561FC71FD81F990F661FCA
:10308000771F881F0694A9F784911095177041F057
:10309000D695C79557954795F794E7941A95C1F734
:1030A000E0E9F0E06894159015913591659195915E
:1030B00005907FE27395E118F10A430B560BC90B9B
:1030C000D009C0F7E10CF11E431F561FC91FD01DC8
:1030D0007EF4703311F48A95E6CFE894015030F015
:1030E000080F0AF40027021708F4202F2395022F57
:1030F0007A3328F079E37D932A95E9F710C07D9320
:103100002A9589F60694979567953795179517949C
:10311000E118F10A430B560BC90BD00998F023951F
:103120007E9173957A3308F070E37C932013B8F79F
:103130007E9170617D9330F0839571E37D9370E3B0
:103140002A95E1F71124EF90FF900F911F91CF91F5
:10315000DF91992787FD90950895DC01FC01672F89
:1031600071917723E1F7329704C07C916D9370835E
:103170006291AE17BF07C8F30895E89409C097FBA2
:103180003EF490958095709561957F4F8F4F9F4F3E
:103190009923A9F0F92F96E9BB279395F695879582
:1031A00077956795B795F111F8CFFAF4BB0F11F445
:1031B00060FF1BC06F5F7F4F8F4F9F4F16C08823EC
:1031C00011F096E911C0772321F09EE8872F762F22
:1031D00005C0662371F096E8862F70E060E02AF063
:1031E0009A95660F771F881FDAF7880F969587954F
:1031F00097F90895990F0008550FAA0BE0E8FEEF24
:1032000016161706E807F907C0F012161306E407AA
:10321000F50798F0621B730B840B950B39F40A26A3
:1032200061F0232B242B252B21F408950A2609F481
:10323000A140A6958FEF811D811D08950E9431192F
:103240000C94A2190E94941938F00E949B1920F046
:10325000952311F00C948B190C94911911240C9452
:10326000D6190E94B31970F3959FC1F3950F50E0E2
:10327000551F629FF001729FBB27F00DB11D639F28
:10328000AA27F00DB11DAA1F649F6627B00DA11DCE
:10329000661F829F2227B00DA11D621F739FB00D74
:1032A000A11D621F839FA00D611D221F749F3327E4
:1032B000A00D611D231F849F600D211D822F762F7D
:1032C0006A2F11249F5750409AF0F1F088234AF05A
:1032D000EE0FFF1FBB1F661F771F881F91505040C6
:1032E000A9F79E3F510580F00C948B190C94D619C8
:1032F0005F3FE4F3983ED4F3869577956795B7954D
:10330000F795E7959F5FC1F7FE2B880F911D969566
:10331000879597F9089597F99F6780E870E060E0D6
:1033200008959FEF80EC089500240A94161617065E
:1033300018060906089500240A94121613061406A6
:1033400005060895092E0394000C11F4882352F009
:10335000BB0F40F4BF2B11F460FF04C06F5F7F4FC1
:103360008F4F9F4F089557FD9058440F551F59F0A8
:103370005F3F71F04795880F97FB991F61F09F3F62
:1033800079F087950895121613061406551FF2CF8B
:103390004695F1DF08C0161617061806991FF1CFDB
:1033A00086957105610508940895E894BB27662702
:1033B0007727CB0197F908952F923F924F925F9212
:1033C0006F927F928F929F92AF92BF92CF92DF9235
:1033D000EF92FF920F931F93CF93DF93CDB7DEB79A
:1033E000CA1BDB0B0FB6F894DEBF0FBECDBF09942E
:1033F0002A88398848885F846E847D848C849B8485
:10340000AA84B984C884DF80EE80FD800C811B8192
:10341000AA81B981CE0FD11D0FB6F894DEBF0FBEC1
:10342000CDBFED010895A29FB001B39FC001A39F3E
:10343000700D811D1124911DB29F700D811D1124ED
:10344000911D08955058BB27AA270E943A1A0C9440
:10345000A2190E94941938F00E949B1920F039F4A7
:103460009F3F19F426F40C9491190EF4E095E7FBB4
:103470000C948B19E92F0E94B31958F3BA176207FD
:1034800073078407950720F079F4A6F50C94D519F5
:103490000EF4E0950B2EBA2FA02D0B01B90190016F
:1034A0000C01CA01A0011124FF27591B99F0593FB3
:1034B00050F4503E68F11A16F040A22F232F342FFB
:1034C0004427585FF3CF469537952795A795F04049
:1034D0005395C9F77EF41F16BA0B620B730B840B5E
:1034E000BAF09150A1F0FF0FBB1F661F771F881F16
:1034F000C2F70EC0BA0F621F731F841F48F487956E
:1035000077956795B795F7959E3F08F0B0CF93955F
:10351000880F08F09927EE0F9795879508950E94D8
:10352000A31A0C94A2190E949B1958F00E94941996
:1035300040F029F45F3F29F00C948B1951110C9441
:10354000D6190C9491190E94B31968F39923B1F319
:10355000552391F3951B550BBB27AA2762177307B9
:10356000840738F09F5F5F4F220F331F441FAA1F4D
:10357000A9F335D00E2E3AF0E0E832D09150504009
:10358000E695001CCAF72BD0FE2F29D0660F771FB7
:10359000881FBB1F261737074807AB07B0E809F09D
:1035A000BB0B802DBF01FF2793585F4F3AF09E3F22
:1035B000510578F00C948B190C94D6195F3FE4F305
:1035C000983ED4F3869577956795B795F7959F5F65
:1035D000C9F7880F911D9695879597F90895E1E0B1
:1035E000660F771F881FBB1F621773078407BA0710
:1035F00020F0621B730B840BBA0BEE1F88F7E0956B
:10360000089529F416F00C948B190C94D5190C9488
:1036100091190E94BB19A8F39638A0F707F80F92EA
:10362000E8942BE33AEA48EB5FE70E9434190F92E3
:103630000F920F924DB75EB70F920E94D31BE8E630
:10364000F0E00E946A1B4F915F91EF91FF91E59529
:10365000EE1FFF1F49F0FE57E0684427EE0F441F9E
:10366000FA95E1F74195550B0E949D1B0F9007FEBF
:103670000C94911B08950E94BB1988F09F5798F0F5
:10368000B92F9927B751B0F0E1F0660F771F881F67
:10369000991F1AF0BA95C9F714C0B13091F00E9481
:1036A000D519B1E008950C94D519672F782F882784
:1036B000B85F39F0B93FCCF3869577956795B395A8
:1036C000D9F73EF490958095709561957F4F8F4F17
:1036D0009F4F0895DF93CF931F930F93FF92EF9225
:1036E000DF927B018C01689406C0DA2EEF010E9404
:1036F0003119FE01E894A591259135914591559197
:10370000A6F3EF010E943A1AFE019701A801DA948C
:1037100069F7DF90EF90FF900F911F91CF91DF91AC
:1037200008959B01AC0160E070E080E89FE30C9499
:103730008F1A0C948B190C940C1C0E94BB19D8F393
:103740009923C9F3940F511DA3F39150504094F065
:1037500059F0882332F0660F771F881F9150504030
:10376000C1F79E3F51052CF7880F911D96958795BF
:1037700097F908955F3FACF0983E9CF0BB27869583
:1037800077956795B79508F4B1609395C1F7BB0F2E
:1037900058F711F460FFE8CF6F5F7F4F8F4F9F4F57
:1037A000E3CF0C94D619FA01DC01AA0FBB1F9B01D1
:1037B000AC01BF5728F4222733274427507820C074
:1037C000B75190F4AB2F0024469537952795011CEF
:1037D000A395D2F3002071F0220F331F441FB3953D
:1037E000DAF30ED00C94221A61307105A0E88A0732
:1037F000B94630F49B01AC0166277727882790787B
:10380000309621F0208331834283538308950E94B0
:10381000FA18880B990B08959F3F31F0915020F4CE
:10382000879577956795B795880F911D969587959C
:1038300097F9089597FB072E16F4009407D077FDAB
:1038400009D00E94981C07FC05D03EF49095819504
:103850009F4F0895709561957F4F0895A1E21A2EAC
:10386000AA1BBB1BFD010DC0AA1FBB1FEE1FFF1F24
:10387000A217B307E407F50720F0A21BB30BE40B74
:10388000F50B661F771F881F991F1A9469F76095BB
:103890007095809590959B01AC01BD01CF01089575
:1038A000E894DF93CF93FC01DB010E94131A7F930E
:1038B0006F93E9019A01AC01BF93AF933F932F93AC
:1038C000DF010E94131A26F46C1B7D0B820B930BF5
:1038D0009E01EB01FC010E94B21CAF91BF912F91A0
:1038E0003F910E94B21CBE01CF01F9012F913F917F
:1038F000CF91DF91089597FD1094002E083098F035
:103900000850232F342F452F562F672F782F892FBC
:10391000912DF4CF15949795879577956795579541
:103920004795379527950A95AAF71124002D0895F4
:10393000AA1BBB1B51E107C0AA1FBB1FA617B707D5
:1039400010F0A61BB70B881F991F5A95A9F78095F1
:103950009095BC01CD010895EE0FFF1F0590F491E5
:10396000E02D09940E94131A460F571FC81FD91F34
:1039700008F4319608950F931F93CF93DF9382300D
:10398000910510F482E090E0E0916305F091640508
:1039900030E020E0B0E0A0E0309799F42115310547
:1039A00009F44AC0281B390B24303105D8F58A8127
:1039B0009B816115710589F1FB0193838283FE016F
:1039C00011C0408151810281138148175907E0F0ED
:1039D0004817590799F4109761F012960C931297B3
:1039E00013961C933296CF01DF91CF911F910F91C7
:1039F00008950093630510936405F4CF21153105F4
:103A000051F04217530738F0A901DB019A01BD01BB
:103A1000DF01F801C1CFEF01F9CF909364058093E6
:103A20006305CDCFFE01E20FF31F819391932250E6
:103A3000310939832883D7CF209161053091620500
:103A4000232B41F420910201309103013093620550
:103A5000209361052091000130910101211531056C
:103A600041F42DB73EB74091040150910501241B4C
:103A7000350BE0916105F0916205E217F307A0F4C0
:103A80002E1B3F0B2817390778F0AC014E5F5F4FB4
:103A90002417350748F04E0F5F1F5093620540937F
:103AA0006105819391939FCFF0E0E0E09CCFCF93AD
:103AB000DF930097E9F0FC01329713821282A09104
:103AC0006305B0916405ED0130E020E01097A1F4AA
:103AD00020813181820F931F209161053091620511
:103AE0002817390709F061C0F0936205E09361057A
:103AF000DF91CF910895EA01CE17DF07E8F54A81FB
:103B00005B819E0141155105B1F7E901FB83EA8311
:103B100049915991C40FD51FEC17FD0761F48081BD
:103B200091810296840F951FE90199838883828190
:103B300093819B838A83F0E0E0E012968D919C91C3
:103B400013970097B9F52D913C911197CD010296ED
:103B5000820F931F20916105309162052817390764
:103B600039F6309751F51092640510926305B093C1
:103B70006205A0936105BCCFD383C283408151818C
:103B8000840F951FC817D90761F44E5F5F4F888176
:103B90009981480F591F518340838A819B81938368
:103BA00082832115310509F0B0CFF0936405E093CD
:103BB00063059ECFFD01DC01C0CF13821282D7CFF7
:103BC000B0E0A0E0E6EEFDE10C94DE198C01009778
:103BD00051F4CB010E94BB1C8C01C801CDB7DEB7EC
:103BE000E0E10C94FA19FC01E60FF71F9C0122504A
:103BF0003109E217F30708F49DC0D901CD91DC919A
:103C00001197C617D70798F0C530D10530F3CE010C
:103C100004978617970708F3C61BD70B2297C19303
:103C2000D1936D937C93CF010E94571DD6CF5B013A
:103C3000AC1ABD0A4C018C0E9D1EA0916305B0917B
:103C40006405512C412CF12CE12C109731F5809119
:103C50006105909162058815990509F05CC04616CA
:103C6000570608F058C0809100019091010100971B
:103C700041F48DB79EB74091040150910501841B1A
:103C8000950BE817F90708F055C0F0936205E0932B
:103C90006105F90171836083A0CF8D919C9111978B
:103CA00012966C90129713967C901397A815B905ED
:103CB00059F56C0142E0C40ED11CCA14DB0420F19A
:103CC000AC014A195B09DA011296159780F06282FD
:103CD000738251834083D9016D937C93E114F10485
:103CE00071F0D7011396FC93EE93129776CF22963C
:103CF0008C0F9D1FF90191838083F301EFCFF09327
:103D00006405E093630569CF4816590608F42C0151
:103D10007D01D3019ACFCB010E94BB1C7C0100978F
:103D200049F0AE01B8010E949D1EC8010E94571DB6
:103D3000870153CF10E000E050CFFB01DC0102C04F
:103D400001900D9241505040D8F70895FB01DC01DD
:103D500001900D920020E1F70895FB01DC01415034
:103D6000504048F001900D920020C9F701C01D920B
:103D700041505040E0F7089510E0C3EFD0E004C098
:103D8000FE010E94AC1C2196C43FD107C9F7F894EC
:023D9000FFCF63
:103D9200000065058000000000007F02DF010C02C8
:103DA200CC023D021B022F0200000000FC04CF04E3
:103DB2007C06A504C804B504A60400000000A10501
:103DC200DF017C06A504FD0515062B0545050D0A38
:103DD2000051554555453A206572726F72206475DF
:103DE2006520746F20756E646573697261626C65BB
:103DF2002073697A6520666F72207175657565201A
:103E020073697A652E0051554555453A20696E739E
:103E1200756666696369656E74206D656D6F72792A
:103E220020746F20696E697469616C697A652074A7
:103E3200656D706F726172792071756575652E009E
:103E420053454E3A5347503330206E6F74206465A9
:103E52007465637465640053454E3A53475033307A
:103E62002064657465637465640053454E3A534734
:103E720050333020696E697469616C697A656400D7
:103E820053454E3A53485433312064657465637424
:103E920065640053454E3A5348543331206E6F7473
:103EA200206465746563746564005349473A00533E
:103EB200414950004C45443A0031323334353637AB
:103EC2003855545350004C43443A004149523A0049
:103ED20051554555453A2063616E277420706F70C5
:103EE200206974656D2066726F6D207175657565E8
:103EF2003A20717565756520697320656D707479F6
:103F02002E0053454E3A5347503330206572726F3C
:023F120072003B
:00000001FF
