:100000000C94F4000C941C010C941C010C94840EB0
:100010000C94840E0C94840E0C941C010C941C0102
:100020000C941C010C941C010C941C010C941C01DC
:100030000C941C010C941C010C941C010C941C01CC
:100040000C941B0D0C941C010C94E90C0C94C30C27
:100050000C941C010C941C010C941C010C941C01AC
:100060000C94650D0C941C0107634236B79BD8A70E
:100070001A39685618AEBAAB558C1D3CB7CC5763CD
:10008000BD6DEDFD753EF6177231BF000000803F7B
:1000900000407A10F35A00A0724E18090010A5D43F
:1000A000E80000E87648170000E40B54020000CA9C
:1000B0009A3B000000E1F5050000809698000000E2
:1000C00040420F000000A086010000001027000041
:1000D0000000E803000000006400000000000A00C7
:1000E000000000000100000000002C76D888DC67CA
:1000F0004F0823DFC1DFAE59E1B1B796E5E3E45322
:10010000C63AE651997696E8E6C28426EB898C9B3E
:1001100062ED407C6FFCEFBC9C9F40F2BAA56FA5DE
:10012000F490055A2AF75C936B6CF9676DC11BFC60
:10013000E0E40D47FEF520E6B500D0ED902E03007B
:10014000943577050080841E080000204E0A0000C8
:1001500000C80C333333330F986E12831141EF8D87
:100160002114893BE65516CFFEE6DB18D1844B38C7
:100170001BF77C1D901DA4BBE424203284725E22F8
:100180008100C9F124ECA1E53D2700000000240016
:1001900027002A00000000080002010000030407F5
:1001A0000000000000000000000000002300260006
:1001B000290000000000250028002B00040404048E
:1001C0000404040402020202020203030303030301
:1001D00001020408102040800102040810200102DE
:1001E00004081020200F611611241FBECFEFD8E0A5
:1001F000DEBFCDBF25E0AAE7B2E001C01D92A53564
:10020000B207E1F712E0A0E0B1E0E4E5FEE302C0EE
:1002100005900D92AA37B107D9F710E0C3EFD0E0EF
:1002200004C02197FE010E940D1DC23FD107C9F7EE
:100230000E948B100C941D1F0C940000FC019081F7
:10024000909528E081E397FF03C0990F982701C09C
:10025000990F2150C1F78181892798E021E387FF19
:1002600003C0880F822701C0880F9150C1F70895FD
:100270009091B6039111FCCF91E09093B6039093C7
:10028000B5032FEF2093B4031092B303260F2093EE
:10029000B2039093B1039091B103880F892B80939F
:1002A000B1038091B0038130F9F41092B0038091D2
:1002B000B1038093BB008091BC0083FDF8CF85EC37
:1002C0008093BC008091B6038130E1F38091B30349
:1002D000861710F46091B303A0E9B3E0E0E7F3E020
:1002E00080E0861303C0089585EEEACF9D91919337
:1002F0008F5FF7CF982F20916F0381E0213208F0B4
:1003000043C08091B6038111FCCF80916E0332E02F
:100310003093B6039093B5039FEF9093B40310927C
:10032000B3032093B203AEE4B3E0E0E9F3E090E07E
:10033000291331C01092B1039091B103880F892B1A
:100340008093B1038091B003813049F51092B003DE
:100350008091B1038093BB008091BC0083FDF8CFF6
:1003600085EC8093BC008091B6038230E1F38091EC
:10037000B4038F3FB1F08091B4038032A1F080913B
:10038000B403803391F084E010924D0310926F0318
:1003900010924C0308953D9131939F5FC9CF85EE34
:1003A000E0CF80E0F1CF82E0EFCF83E0EDCF0895A2
:1003B0000895AF92BF92CF92DF92EF92FF920F9388
:1003C0001F93CF93DF936C017B018B01040F151FEB
:1003D000EB015E01AE18BF08C017D10759F0699153
:1003E000D601ED91FC910190F081E02DC6010995B7
:1003F000892B79F7C501DF91CF911F910F91FF9064
:10040000EF90DF90CF90BF90AF900895FC01538D97
:10041000448D252F30E0842F90E0821B930B5417DE
:1004200010F0CF96089501970895FC01918D828D6B
:10043000981761F0A28DAE0FBF2FB11D5D968C9104
:10044000928D9F5F9F73928F90E008958FEF9FEF43
:100450000895FC01918D828D981731F0828DE80FFF
:10046000F11D858D90E008958FEF9FEF0895FC01B9
:10047000918D228D892F90E0805C9F4F821B910986
:100480008F739927089585E994E00E94370221E04F
:10049000892B09F420E0822F089580E090E0892BD9
:1004A00029F00E94430281110C9400000895FC0180
:1004B000A48DA80FB92FB11DA35ABF4F2C91848DC5
:1004C00090E001968F739927848FA689B7892C9322
:1004D000A089B1898C91837080648C93938D848D75
:1004E000981306C00288F389E02D80818F7D808378
:1004F0000895EF92FF920F931F93CF93DF93EC0138
:1005000081E0888F9B8D8C8D98131AC0E889F989BA
:10051000808185FF15C09FB7F894EE89FF896083BD
:10052000E889F98980818370806480839FBF81E03E
:1005300090E0DF91CF911F910F91FF90EF90089580
:10054000F62E0B8D10E00F5F1F4F0F731127E02E5B
:100550008C8D8E110CC00FB607FCFACFE889F98993
:10056000808185FFF5CFCE010E945702F1CFEB8D40
:10057000EC0FFD2FF11DE35AFF4FF0829FB7F89467
:100580000B8FEA89FB8980818062CFCFCF93DF9385
:10059000EC01888D8823B9F0AA89BB89E889F9899B
:1005A0008C9185FD03C0808186FD0DC00FB607FCD0
:1005B000F7CF8C9185FFF2CF808185FFEDCFCE0103
:1005C0000E945702E9CFDF91CF910895833081F0E7
:1005D00028F4813099F08230A9F008958730A9F08D
:1005E0008830C9F08430B1F4809180008F7D03C0E1
:1005F000809180008F7780938000089584B58F77F5
:1006000084BD089584B58F7DFBCF8091B0008F7736
:100610008093B00008958091B0008F7DF9CFCF9383
:10062000DF93282F30E0F901EC56FE4F8491F90159
:10063000E053FE4FD491F901E454FE4FC491CC2312
:10064000A1F081110E94E602EC2FF0E0EE0FFF1FF7
:10065000E855FE4FA591B491EC91ED2381E090E037
:1006600009F480E0DF91CF91089580E090E0FACF27
:100670001F93CF93DF93282F30E0F901EC56FE4F04
:100680008491F901E053FE4FD491F901E454FE4FF7
:10069000C491CC23A9F0162F81110E94E602EC2F01
:1006A000F0E0EE0FFF1FEE54FE4FA591B4918FB70F
:1006B000F894EC91111108C0D095DE23DC938FBF24
:1006C000DF91CF911F910895DE2BF8CFCF93DF9369
:1006D00090E0FC01E053FE4F249184549E4FFC01B6
:1006E00084918823C9F090E0880F991FFC01E65798
:1006F000FE4FA591B491FC01EE54FE4FC591D491EB
:1007000061110DC09FB7F8948C91209582238C9332
:100710008881282328839FBFDF91CF91089562307D
:1007200051F49FB7F8943C91822F809583238C934A
:10073000E8812E2BEFCF8FB7F894EC912E2B2C93D2
:100740008FBFEACF3FB7F894809142039091430363
:10075000A0914403B091450326B5A89B05C02F3F47
:1007600019F00196A11DB11D3FBFBA2FA92F982FD7
:100770008827BC01CD01620F711D811D911D42E0D2
:10078000660F771F881F991F4A95D1F708958F929A
:100790009F92AF92BF92CF92DF92EF92FF926B0146
:1007A0007C010E94A2034B015C01C114D104E1044D
:1007B000F104B9F00E94A203681979098A099B091A
:1007C000683E73408105910580F321E0C21AD1088B
:1007D000E108F10888EE880E83E0981EA11CB11C88
:1007E000E4CFFF90EF90DF90CF90BF90AF909F90BD
:1007F0008F9008952FB7F89460913E0370913F0356
:1008000080914003909141032FBF08950F931F9350
:1008100080913A0590913B05A0913C05B0913D0532
:10082000892B8A2B8B2B31F10E94FA03009145050D
:10083000109146052091470530914805AB01BC0158
:10084000401B510B620B730B91E000913A05109124
:100850003B0520913C0530913D054017510762074B
:10086000730708F090E0809144058111892F1F9152
:100870000F91089591E0F7CF85ED8093BC008091B2
:10088000BC0084FDFCCF1092B603089520911A039A
:10089000260F3327331F21323105ECF42091B603A4
:1008A000FC0190E080E0243069F082E00895A0919E
:1008B0001A032191AC0146505D4FA40FB52FB11D15
:1008C0002C930196861798F380911A03680F609312
:1008D0001A0380E0089581E008950895E0914B03A4
:1008E00080914A03E81730F4F0E0E059FC4F808132
:1008F00090E008958FEF9FEF089590914B038091C2
:100900004A032FEF3FEF981748F4E92FF0E0E05942
:10091000FC4F208130E09F5F90934B03C901089505
:1009200080914A0390914B03891B990B0895CF92B4
:10093000DF92EF92FF920F931F93CF93DF937C018F
:10094000CB018A0120914C03222389F0EB016B013A
:10095000C40ED51ECC15DD0569F06991D701ED9166
:10096000FC910190F081E02DC7010995F3CF642F30
:100970000E944604C801DF91CF911F910F91FF9013
:10098000EF90DF90CF900895CF93DF931F92CDB774
:10099000DEB7698320914C032223F9F020916F0385
:1009A000203258F021E030E0FC013383228390E0D4
:1009B00080E00F90DF91CF91089580914D03E82F53
:1009C000F0E0E25BFC4F998190838F5F80934D0351
:1009D00080936F0381E090E0ECCF61E0CE0101965F
:1009E0000E944604F7CFCF93C82F8091CD0321E01A
:1009F00020934C0380936E0310924D0310926F036B
:100A0000692F8BEB93E00E94C4046C2F8BEB93E077
:100A10000E94C40481E00E947A01282F36EF32033D
:100A2000C0011124CF9108952091B9033091BA03E8
:100A30002817390781F49091B7038091B80398176C
:100A400051F0E091B703F0E0EE0FFF1FE658FD4FC5
:100A50008081918108958FEF9FEF0895EF92FF922B
:100A60000F931F93CF93DF93DC015C964D915C91C4
:100A70005D974115510579F481E090E013969C93C0
:100A80008E93129790E080E0DF91CF911F910F91AC
:100A9000FF90EF9008955196ED91FC9152975096EA
:100AA0008C915097982F9095EFB65E962C915E970B
:100AB000322F3270F32E21FF02C060957095F894AA
:100AC0002081FF2001F1282B2083EA012197F1F7F3
:100AD00029E0308160FF19C0382B3083EA0121976B
:100AE000F1F7769567952150A1F7FF2081F080817D
:100AF00089238083EFBE5C968D919C910197F1F7DD
:100B000081E090E0C1CF2923DFCF3923E6CF908168
:100B1000892BEFCFEF92FF920F931F93CF93DF9329
:100B2000DC015C96ED90FC905D97E114F10479F4A2
:100B300081E090E013969C938E93129790E080E072
:100B4000DF91CF911F910F91FF90EF9008955196F3
:100B5000ED91FC91529750968C915097982F9095CB
:100B60000FB75E962C915E97122F127021FD609543
:100B7000F8942081112319F1282B2083E701219774
:100B8000F1F728E0462F50E0308160FF1AC0382B83
:100B90003083E7012197F1F7BA01759567952150E8
:100BA00089F7112381F08081892380830FBF5C96B0
:100BB0008D919C910197F1F781E090E0C1CF2923BD
:100BC000DCCF3923E5CF9081892BEFCF2091B9037A
:100BD0003091BA032817390771F48091B803209136
:100BE000B70390E0805C9F4F821B910960E470E046
:100BF0000E947B1C089590E080E008952091B90345
:100C00003091BA0328173907C9F49091B70380913E
:100C1000B803981799F0E091B703F0E0EE0FFF1FCB
:100C2000E658FD4F808191812091B70330E02F5F1E
:100C30003F4F2F7333272093B70308958FEF9FEF14
:100C40000895E091B903F091BA03E817F90769F440
:100C5000A389B4899C918589809589238C9310926E
:100C6000BA031092B90381E0089580E0089580915D
:100C7000110490911204892B31F18091B903909164
:100C8000BA0323E0873F9207F1F0009711F00E942A
:100C90002106809115048E7F809315041092B8036D
:100CA0001092B70387EF93E09093BA038093B90350
:100CB000E0910A04F0910B04808190910C04892B3F
:100CC000808381E0089580E0089590E080E00895B9
:100CD0004F925F926F927F929F92AF92BF92CF920C
:100CE000DF92EF92FF920F931F93CF93DF9300D089
:100CF000CDB7DEB77C0166E08091CD030E9438015C
:100D000010924B0380934A038701670184E0C80E69
:100D1000D11C7E0193E0E90EF11C81E3982EFE01C7
:100D200031965F010E94FA036093C3037093C4037A
:100D30008093C5039093C6038BEB93E00E947D04E0
:100D400097FF5BC00E94FA034090C3035090C40316
:100D50006090C5037090C6036419750986099709E8
:100D60004090BF035090C0036090C1037090C203D5
:100D70006415750586059705F8F28BEB93E00E94E4
:100D80007D049981909528E097FF03C0990F9925DC
:100D900001C0990F2150C1F729813A8132272327B9
:100DA00032274A81942748E097FF03C0990F99257D
:100DB00001C0990F4150C1F798131CC0F80121934D
:100DC00031938F01EC15FD0509F0A9CF90E080E08B
:100DD0000F900F90DF91CF911F910F91FF90EF90A7
:100DE000DF90CF90BF90AF909F907F906F905F907B
:100DF0004F9008958BE99FEFEBCFF50181935F0151
:100E0000EE15FF0509F08ECFB8CFCF93DF93EC013D
:100E100088819981009711F00E94B81D198218826B
:100E20001D821C821B821A82DF91CF910895FC01E2
:100E3000808191810C94B81D6F927F928F929F92C6
:100E4000AF92BF92CF92DF92EF92FF920F931F93D8
:100E5000CF93DF93CDB7DEB7162F6A013901ADB658
:100E6000BEB62091E10331E030934C0320936E0332
:100E700010924D0310926F03982E7C018091DF0336
:100E80009091E003D7016D917D01DC01ED91FC9122
:100E90000190F081E02D09958E2D8919811770F34D
:100EA00081E00E947A01B60190E080E00E94C703D1
:100EB000002309F45FC0102F110F100F612F8091D4
:100EC000E1030E94380110924B0380934A031817E4
:100ED000A9F080E00FB6F894BEBE0FBEADBEDF91A4
:100EE000CF911F910F91FF90EF90DF90CF90BF9027
:100EF000AF909F908F907F906F900895EDB7FEB761
:100F0000E11BF1090FB6F894FEBF0FBEEDBF8DB720
:100F10009EB701966C017C014C018091DF0390919A
:100F2000E003DC01ED91FC910284F385E02D09954D
:100F3000F40181934F018E2F8C19811770F3630197
:100F400010E0C7010E941E01D70112969C911297D2
:100F50008913BFCF8C9111969C9189279827892757
:100F6000F601819391936F011F5FF3E0EF0EF11C87
:100F70000113E7CF81E0AECF0F93CF93DF9300D083
:100F8000CDB7DEB780E2898383E08A8300E030E07A
:100F900020E04AE050E062E0CE0101960E941C078A
:100FA0000F900F90DF91CF910F910895FB01019069
:100FB0000020E9F73197AF01461B570BDC01ED919B
:100FC000FC910280F381E02D09940F931F93CF933E
:100FD000DF938C010E9406048823C9F0C0914F055D
:100FE000D0915005F8014481558160817181E8817B
:100FF000F9810280F381E02DCE0109956EE371E065
:10100000CE01DF91CF911F910F910C94D607DF9104
:10101000CF911F910F9108950F931F93CF93DF935B
:10102000EC010E9479028C016EE371E0CE010E9416
:10103000D607800F911FDF91CF911F910F910895D7
:10104000CF93C42F0E940C08CC2351F08091D00381
:1010500081111092D0038091E20381111092E2037A
:10106000CF910895EC01009739F00E94D6076EE306
:1010700071E0CE010E94D6070E94070FAF92BF9287
:10108000CF92DF92EF92FF920F931F93CF93DF9354
:101090008C0161E471E01816190664F50E941C1DAC
:1010A000EC01009729F1A0902204B0902304E09075
:1010B0001E04F0901F042091240430912504C09058
:1010C0002004D0902104FC01281B390BCF018C1B7C
:1010D0009D0B8A159B05A4F4C9018E0F9F1FB601B5
:1010E0000E947B1CD701A80FB91F8C918193EECF72
:1010F00066E771E080911C0490911D040E94320803
:10110000C7010E94B81DD0931F04C0931E04109203
:10111000250410922404809122049091230490933A
:101120002704809326041093210400932004DF9168
:10113000CF911F910F91FF90EF90DF90CF90BF90D4
:10114000AF900895CF93C82F8091220490912304EB
:1011500020912004309121048217930721F4880FF5
:10116000991F0E943E08E0911E04F0911F04809197
:101170002604909127049C012F5F3F4F3093270452
:1011800020932604E80FF91FC08320912604309194
:10119000270480912004909121042817390721F415
:1011A0001092270410922604809122049091230427
:1011B00001969093230480932204CF9108950F9376
:1011C0001F93CF93DF93EC0188819981009759F0A9
:1011D0002A813B812617370730F081E0DF91CF91DC
:1011E0001F910F9108958B016F5F7F4F0E94411EE9
:1011F000009759F0998388831B830A832C813D8152
:10120000232B59F7FC011082E8CF80E0E7CF0F9342
:101210001F93CF93DF93EC010C811D810F5F1F4F54
:10122000B8010E94DF08882391F0288139818C81E0
:101230009D816FE072E0820F931F0E94071F1D8344
:101240000C83CE01DF91CF911F910F910895CE01B4
:101250000E940507F6CFEF92FF920F931F93CF9353
:10126000DF93EC01FB01E080F180E114F10411F166
:101270000481158101151105A9F08C819D81080F4C
:10128000191FB801CE010E94DF08882399F0288138
:1012900039818C819D81B701820F931F0E94071FA6
:1012A0001D830C83CE01DF91CF911F910F91FF9091
:1012B000EF900895CE010E940507F4CFEF92FF92C0
:1012C0000F931F93CF93DF93EC017B018A01BA0147
:1012D0000E94DF0881110BC0CE010E940507CE01DC
:1012E000DF91CF911F910F91FF90EF9008951D8393
:1012F0000C83B701888199810E94071FF0CFFB0101
:1013000001900020E9F73197AF01461B570B0C9471
:101310005E090F931F93CF93DF93CDB7DEB7A197ED
:101320000FB6F894DEBF0FBECDBF8C01CB01BA0162
:10133000F8011182108213821282158214822AE02F
:10134000AE014F5F5F4F0E949B16BE016F5F7F4FE4
:10135000C8010E947F09A1960FB6F894DEBF0FBEA8
:10136000CDBFDF91CF911F910F910895EF92FF9222
:101370000F931F93CF93DF93CDB7DEB7A1970FB62F
:10138000F894DEBF0FBECDBF7C01CB01BA01F701DF
:101390001182108213821282158214828E010F5FD5
:1013A0001F4F22E044E00E947216009789F0BC01B2
:1013B000C7010E947F09A1960FB6F894DEBF0FBE49
:1013C000CDBFDF91CF911F910F91FF90EF900895C6
:1013D000C7010E940507EFCF0F931F93CF93DF93B1
:1013E000CDB7DEB761970FB6F894DEBF0FBECDBFA5
:1013F0008C01CB01F80111821082138212821582B6
:1014000014824AE0BE016F5F7F4F0E94BD16BE018D
:101410006F5F7F4FC8010E947F0961960FB6F894F5
:10142000DEBF0FBECDBFDF91CF911F910F91089509
:10143000FB01DC0111961C921E9213961C921E92C7
:10144000129715961C921E9214978617970749F0CB
:10145000608171816115710521F0448155810C9481
:101460005E090895FC011182108213821282158296
:1014700014826115710551F0FB0101900020E9F71C
:101480003197AF01461B570B0C945E090895EF92FC
:10149000FF920F931F93CF93DF93CDB7DEB72897BB
:1014A0000FB6F894DEBF0FBECDBF88E58093E10391
:1014B0008BEB93E09093E0038093DF0310924B0358
:1014C00010924A0310924D0310926F031092B603CC
:1014D00011E01093B5031092B00361E082E10E9425
:1014E000380361E083E10E9438038091B9008E7F68
:1014F0008093B9008091B9008D7F8093B90088E412
:101500008093B80085E48093BC0087ED91E09093D0
:1015100049038093480388ED91E0909347038093BB
:10152000460386E38F8382E8888703E029ED33E072
:101530004AE050E062E0CE0107960E941C0781114C
:101540001FC00091CB031091CC0360EB71E0CE0182
:1015500001960E94320ACE010196F8010995CE014A
:1015600001960E94170728960FB6F894DEBF0FBEAB
:10157000CDBFDF91CF911F910F91FF90EF90089514
:1015800080E28F838FE2888701E09E012F5F3F4FCB
:101590004AE050E062E0CE0107960E941C078823D3
:1015A00081F289819A81807F9927809751F60E94E4
:1015B000BC07882331F2E090CB03F090CC0367ECBA
:1015C00071E0CE0101960E94320ACE010196F70128
:1015D0000995CE0101960E9417070E94BC07882337
:1015E00011F21093E2030091CB031091CC036AED4A
:1015F00071E0ADCF0F931F93CF93DF93CDB7DEB7DD
:1016000067970FB6F894DEBF0FBECDBF85E0E5EF5C
:10161000F1E0DE01539601900D928A95E1F7209159
:101620005F043091600490E080E04EE2B901082E42
:1016300002C0759567950A94E2F760FD07C0E3E183
:10164000F0E0EC0FFD1FE80FF91F40830196843096
:10165000910561F700911A0410911B04BE016D5EA3
:101660007F4FCE0107960E94320A60EF71E0CE01F3
:101670000D960E94320ABE01695F7F4FCE010D9622
:101680000E942B09BC01CE0101960E94180ACE01CE
:101690000196F8010995CE0101960E941707CE0127
:1016A0000D960E941707CE0107960E9417076796AE
:1016B0000FB6F894DEBF0FBECDBFDF91CF911F9163
:1016C0000F9108950F931F93CF93DF93CDB7DEB79C
:1016D0006F970FB6F894DEBF0FBECDBF8DE0EFEF72
:1016E000F1E0DE01119601900D928A95E1F72091CB
:1016F00061043091620490E080E04EE2B901082E6E
:1017000002C0759567950A94E2F760FD07C0E1E0B5
:10171000F0E0EC0FFD1FE80FF91F408301968C30BD
:10172000910561F700911A0410911B04BE016F5FCF
:101730007F4FCE0144960E94320A6AEF71E0CE01DB
:101740004A960E94320ABE016C5E7F4FCE014A96D5
:101750000E942B09BC01CE010E960E94180ACE01F0
:101760000E96F8010995CE010E960E941707CE013C
:101770004A960E941707CE0144960E9417076F965B
:101780000FB6F894DEBF0FBECDBFDF91CF911F9192
:101790000F9108950F931F93CF93DF93CDB7DEB7CB
:1017A00062970FB6F894DEBF0FBECDBF00911A044A
:1017B00010911B0463E674E0CE0107960E94320A82
:1017C0006CE072E0CE010D960E94320ABE01695FA4
:1017D0007F4FCE010D960E942B09BC01CE010196D0
:1017E0000E94180ACE010196F8010995CE010196D2
:1017F0000E941707CE010D960E941707CE0107968B
:101800000E94170762960FB6F894DEBF0FBECDBFD9
:10181000DF91CF911F910F9108956733D1F19CF41F
:10182000623379F13CF4603339F14CF58AEA613284
:1018300021F10895643349F134F1653341F186E3D0
:101840006633D9F008956F3651F14CF4693329F1BC
:1018500014F16F3351F18AE3633679F008956337F9
:1018600011F124F48DE3603741F008956637C9F033
:101870008CE3683711F0089580E30C94A20881E3AB
:10188000FCCF82E3FACF83E3F8CF84E3F6CF85E39E
:10189000F4CF87E3F2CF88E3F0CF89E3EECF8BE399
:1018A000ECCF8EE3EACF8FE3E8CF0E94FA0A0E94E2
:1018B000620B0C94CA0B0F931F93CF93DF93CDB79A
:1018C000DEB762970FB6F894DEBF0FBECDBF84E4DB
:1018D0008093CD0381E08093D0030091CB031091DE
:1018E000CC0380E897E30E94F304892BD9F5CE015D
:1018F00001960E946806892BA9F54B815C8170E0F6
:1019000060E0CE0107960E94890961E172E0CE0194
:101910000D960E94320ABE01695F7F4FCE010D967F
:101920000E942B09BC01CE0101960E94180ACE012B
:101930000196F8010995CE0101960E941707CE0184
:101940000D960E941707CE0107960E941707629610
:101950000FB6F894DEBF0FBECDBFDF91CF911F91C0
:101960000F91089540E050E0BA01CBCFCF93C42F40
:101970000E940C08CC2329F00E945B0CCF910C94A0
:10198000470ACF9108951F920F920FB60F9211241C
:101990002F933F934F935F936F937F938F939F9377
:1019A000AF93BF93EF93FF9385E994E00E945702B2
:1019B000FF91EF91BF91AF919F918F917F916F9127
:1019C0005F914F913F912F910F900FBE0F901F90FD
:1019D00018951F920F920FB60F9211242F938F9389
:1019E0009F93EF93FF93E091A504F091A60480816B
:1019F000E091AB04F091AC0482FD1BC0908180911A
:101A0000AE048F5F8F732091AF04821741F0E09195
:101A1000AE04F0E0EB56FB4F958F8093AE04FF9140
:101A2000EF919F918F912F910F900FBE0F901F906C
:101A300018958081F4CF1F920F920FB60F92112448
:101A40002F933F938F939F93AF93BF9380913E03C8
:101A500090913F03A0914003B091410330913D0329
:101A600023E0230F2D3758F50196A11DB11D2093BA
:101A70003D0380933E0390933F03A0934003B093B4
:101A800041038091420390914303A0914403B0919C
:101A900045030196A11DB11D80934203909343031A
:101AA000A0934403B0934503BF91AF919F918F9151
:101AB0003F912F910F900FBE0F901F90189526E821
:101AC000230F0296A11DB11DD2CF1F920F920FB608
:101AD0000F9211242F933F934F935F936F937F93B4
:101AE0008F939F93AF93BF93EF93FF938091B90030
:101AF000887F803609F44AC0F0F5883209F4A7C01F
:101B000018F5803109F49BC0B8F4882309F4F9C0B2
:101B1000883009F494C0FF91EF91BF91AF919F91EC
:101B20008F917F916F915F914F913F912F910F9086
:101B30000FBE0F901F901895883109F488C080322D
:101B400051F78093B40314C0803409F49DC040F46D
:101B50008033B9F38833F9F68093B40385ECB0C0D1
:101B6000803509F485C0883509F496C0883499F623
:101B70000E943C04D0CF883909F48CC038F58837EE
:101B800029F050F4883611F0803729F683E08093ED
:101B9000B60310923C0357C0883809F47BC08039E3
:101BA00019F0803809F0B7CF80913C03803208F0FB
:101BB00071C0E0913C0381E08E0F80933C038091E3
:101BC000BB00F0E0E45EFC4F80833DC0803B39F019
:101BD000E0F4803A09F479C0883A09F09CCF84E0B7
:101BE0008093B60310921B0310921A03E0914803EE
:101BF000F0914903099580911A0381110FC081E08A
:101C000080931A031092FA0209C0803C09F4A6CF0F
:101C1000883C09F4A3CF883B09F07DCFE0911B03FA
:101C200081E08E0F80931B03F0E0E650FD4F808132
:101C30008093BB0090911B0380911A0329C080916F
:101C4000B1038093BB0085EC8093BC0064CF90917E
:101C5000B3038091B203981758F5E091B30381E084
:101C60008E0F8093B303F0E0E057FC4F8081E9CF03
:101C7000E091B30381E08E0F8093B3038091BB00AA
:101C8000F0E0E057FC4F80839091B3038091B20362
:101C90009817C8F285E8D8CFE091B30381E08E0FA2
:101CA0008093B3038091BB00F0E0E057FC4F80834A
:101CB0008091B50381115CCF81E08093B00384EA09
:101CC0008093BC001092B60326CF85EC8093BC00B5
:101CD0001092B60380913C03803230F4E0913C03D3
:101CE000F0E0E45EFC4F108260913C0370E0E09114
:101CF0004603F09147038CE193E0099510923C0371
:101D00000ACF1092B40334CF1F920F920FB60F92E6
:101D100011242F933F934F935F936F938F939F93D0
:101D2000AF93BF93CF93DF93EF93FF93E091B9030A
:101D3000F091BA03309749F0A685B7859585868DD1
:101D400081FF15C08C918923A9F4FF91EF91DF9158
:101D5000CF91BF91AF919F918F916F915F914F9173
:101D60003F912F910F900FBE0F901F9018958C915F
:101D7000892359F7A389B4899C9185898095892302
:101D80008C93868997890197F1F7408D518DC6858F
:101D9000D785658529E090E080E0DA011197F1F7B9
:101DA000969587953881362309F090682150A9F7D8
:101DB0009C01220F232F221F330B3195868D81FF2B
:101DC00002C0209530958091B80390E001968F7302
:101DD00099274091B7034817B1F0A091B803B0E03C
:101DE000AA0FBB1FA658BD4F2D933C938093B803F9
:101DF000828D938D0197F1F7A389B4898C91958990
:101E0000892B8C93A2CF868D8160868FF1CF61E084
:101E10008DE00E94660361E08DE00E9438036AEF66
:101E200070E080E090E00E94C70360E08DE00E94D7
:101E300038036AEF70E080E090E00E94C703EBCFC8
:101E4000CF93DF93109298041092970488EE93E05A
:101E5000A0E0B0E08093990490939A04A0939B042F
:101E6000B0939C042AE031E03093960420939504CB
:101E700025EC30E03093A2042093A10424EC30E060
:101E80003093A4042093A30420EC30E03093A60404
:101E90002093A50421EC30E03093A8042093A704FC
:101EA00022EC30E03093AA042093A90426EC30E021
:101EB0003093AC042093AB041092AE041092AF04A4
:101EC0001092B0041092B1041092BE031092BD03A0
:101ED0008093BF039093C003A093C103B093C20348
:101EE0002CE131E03093BC032093BB0310924405F6
:101EF00010924A051092490510924B0510924C051C
:101F000010924D0510924E0525E934E030935005AE
:101F100020934F0540E052EC61E070E040933205C1
:101F20005093330560933405709335052DE030E010
:101F300030933705209336052BE2209338052DE2A8
:101F4000209339054CED55E060E070E040933A0590
:101F500050933B0560933C0570933D0526EB3CE0B8
:101F600030933F0520933E0520E238E03093410551
:101F7000209340052DE03CE030934305209342053B
:101F80001092FA031092F9038093FB039093FC03E1
:101F9000A093FD03B093FE038EE291E09093F803CB
:101FA0008093F70310920E0410920D041092100407
:101FB00010920F0410921204109211041092140443
:101FC00010921304609115046E7F6D7F6093150469
:101FD0006695617081E068278BE00E94380361E0BC
:101FE0008BE00E946603EBEDF1E0E491E0930704DF
:101FF000E7ECF1E0E491F0E0EE0FFF1FEE54FE4F4E
:1020000085919491909309048093080460E08AE09C
:102010000E9466038091150481FD04C061E08AE09E
:102020000E9438038AE080930304EAEDF1E0E49132
:10203000E0930404E6ECF1E0E491F0E0EE0FFF1F22
:10204000E855FE4F85919491909306048093050482
:102050001092210410922004109223041092220462
:102060001092250410922404109227041092260442
:1020700010921D0410921C0482E090E00E941C1D2E
:1020800090931F0480931E04892B11F40E94070F64
:1020900082E090E0909321048093200483E0809379
:1020A000160482E08093170484E08093180485E08E
:1020B00080931904C5EED7E0D0931B04C0931A0493
:1020C00062E083E00E94660362E082E00E946603B1
:1020D00062E084E00E94660362E085E00E9466039D
:1020E0001092E3031092E4031092E5031092E603CA
:1020F00088E893E1A0E0B0E08093C7039093C80321
:10210000A093C903B093CA03D093CC03C093CB036D
:10211000DF91CF910895CF93DF93CDB7DEB7CF5640
:10212000D1090FB6F894DEBF0FBECDBF789484B549
:10213000826084BD84B5816084BD85B5826085BDC3
:1021400085B5816085BD80916E00816080936E0051
:102150001092810080918100826080938100809143
:1021600081008160809381008091800081608093F4
:1021700080008091B10084608093B1008091B000B4
:1021800081608093B00080917A00846080937A00AF
:1021900080917A00826080937A0080917A008160D9
:1021A00080937A0080917A00806880937A00109200
:1021B000C10061E0809136050E94660361E0809174
:1021C00036050E94380364EC79E080E090E00E94DC
:1021D000C703E0904F05F090500580903205909035
:1021E0003305A0903405B090350560E079E08DE3CB
:1021F00090E0A50194010E948F1C215031094109F2
:1022000051095695479537952795D7015096ED91E9
:10221000FC9182E080838114B1EE9B06A104B1049D
:1022200021F02115E0E13E07A8F0D7015096ED918D
:10223000FC91108260E874E88EE190E0A5019401C1
:102240000E948F1C2150310941095109569547952B
:1022500037952795D7011C96ED91FC911D973083FA
:102260001E96ED91FC911F97208358961C925897CB
:102270005496ED91FC91559786E080835296ED91AE
:10228000FC9153978081806180835296ED91FC91FF
:1022900053978081886080835296ED91FC9153978B
:1022A0008081806880835296ED91FC9180818F7D42
:1022B000808360E0809136050E94380310921204FA
:1022C000109211041092100410920F0410920E0438
:1022D00010920D0482E09DE0909314048093130407
:1022E00090910304963108F047C02FE636E0309312
:1022F0000E0420930D0420E03DE030931004209361
:102300000F0427EB39E0309312042093110420913D
:10231000680084E0983048F031E09E3008F430E006
:1023200081E001C0880F3A95EAF7822B809368001C
:102330002DE630E0983050F02BE630E09E3030F063
:102340002CE630E0963110F030E020E030930B04C2
:1023500020930A04292F30E0983008F0EDC081E086
:1023600001C0880F9A95EAF780930C0480911304BA
:10237000909114040197F1F70E9437060E94FA0326
:10238000609328047093290480932A0490932B046B
:102390000E94FA0A0E94620B0E94CA0B0E945B0C08
:1023A0000E94470A312C212CF101EE7FE096FFAF0D
:1023B000EEAFE097689420F880914F05909150051A
:1023C000DC01ED91FC910284F385E02D09957C01FF
:1023D00080913805082E000C990BE816F90609F0D3
:1023E000B8C01091440501E0009344050E94FA032F
:1023F0006093450570934605809347059093480583
:102400000E94FA0360934B0570934C0580934D0531
:1024100090934E0510924A0510924905E0913E05B1
:10242000F0913F05412F402760913805309709F022
:10243000A4C00E94FA0300914B0510914C05209115
:102440004D0530914E05601771078207930718F10B
:102450006C507E4F8F4F9F4F60934B0570934C0590
:1024600080934D0590934E050E940604882341F009
:1024700081E02091490530914A05232B09F080E045
:10248000282F30E030934A0520934905682F80912A
:1024900036050E94380380911604882329F00E9493
:1024A0000F037101892B21F0E096EEACFFACE097B1
:1024B00080911704882309F479C00E940F03892BA7
:1024C00009F074C06894E1F880911804882309F435
:1024D00070C00E940F03892B09F06BC06894E2F86A
:1024E00080911904882309F467C00E940F03892B87
:1024F00009F062C06894E3F880915F0490916004F1
:10250000E816F90631F0F0926004E0925F040E9450
:10251000FA0A11E087EF93E00E94E605892B09F49F
:10252000C4C087EF93E00E94FE0590FF48C08093EF
:102530002C0410935E04EECF9E3040F428503109F5
:1025400081E001C0880F2A95EAF70ECF2E5031099D
:10255000F7CF60913905862F062E000C990BE816EF
:10256000F90689F44091440510924405E091400534
:10257000F0914105309709F45CCF80914F0590911F
:102580005005099556CF0E940604882309F451CFBF
:10259000E0914205F0914305309709F44ACF6E2D42
:1025A00080914F0590915005099543CFE894E1F84B
:1025B0008BCFE894E2F894CFE894E3F89DCFE091D4
:1025C0005E04E23308F0A6CF20912C042C3451F1A4
:1025D000203509F09FCFE33048F491E09E0F9093AF
:1025E0005E04F0E0E950FC4F85AB94CFE33009F096
:1025F00091CF90912D0430912E0420E5290F230FC7
:1026000028130AC0892F990F990B932B909362047A
:10261000809361040E94620B80915E048F5F8093BF
:102620005E0478CF6E2F70E0E13059F020912D04D8
:10263000022E000C330BA9014F5F5F4F461757075F
:102640003CF0EF5FE0935E0469507C4FFB01CCCF20
:102650002E5F3F4F2617370709F05CCFE7EFF3E017
:1026600090E0BF01675F73406217730724F465A9A8
:10267000960F3196F6CF8913CFCF29503C4FD90111
:10268000D5961C9283E3ECE2F4E0DE011196019012
:102690000D928A95E1F7BE016D5F7F4F83E694E06E
:1026A0000E940E1F0E94CA0BB7CF80912204909106
:1026B0002304892B09F482C00E94FA0300912804A4
:1026C0001091290420912A0430912B040617170732
:1026D0002807390708F072C02091220430912304A2
:1026E0002115310541F465E272E080911C0490915E
:1026F0001D040E943208E0911E04F0911F04809195
:10270000240490912504AC014F5F5F4F5093250442
:1027100040932404E80FF91FE080215031093093E1
:1027200023042093220480912004909121044817CF
:10273000590721F410922504109224042115310523
:1027400091F0AC0197FF02C04D5F5F4F55954795E3
:10275000559547954217530734F097FD0196959587
:1027600087950E943E0887EF93E00E9421066BE464
:1027700071E087EF93E00E942E050E2C000CFF08FD
:10278000B701772787EF93E00E942E05B701655BBD
:102790007F4F772787EF93E00E942E050E94370630
:1027A0000E94FA036A567F4F8F4F9F4F6093280411
:1027B0007093290480932A0490932B040E94FA03B7
:1027C000AE966CAF7DAF8EAF9FAFAE978091D003CA
:1027D000811105C09091E203992309F4EDC1409164
:1027E000E3035091E4036091E5037091E603AE9634
:1027F0000CAD1DAD2EAD3FADAE9740175107620732
:10280000730708F0D9C1882309F4B9C086E194E2BE
:102810000E94F3047C0162E370E080E090E00E949B
:10282000C703E114F10409F0DDC1CE01C4960E9492
:1028300068067C01892B09F0D5C16CA97DA990E0BF
:1028400080E00E941E1920E030E04FE253E40E9435
:102850007F1920E03FEF4FE757E40E94F01A20E095
:1028600030E044E352E40E94831A6B017C016EA9BC
:102870007FA990E080E00E941E1920E030E048EC43
:1028800052E40E947F1920E03FEF4FE757E40E9497
:10289000F01A4B015C01C092E703D092E803E0928A
:1028A000E903F092EA038092EB039092EC03A0928A
:1028B000ED03B092EE03A7019601C701B6010E9495
:1028C000681C811186C1A5019401C501B4010E9453
:1028D000681C81117EC123EC35EF4CE851E4C7013F
:1028E000B6010E947F192B013C0128EB3EE143E732
:1028F00053E4C701B6010E94841A9B01AC01C301D5
:10290000B2010E94F01A0E946A1B2B013C0120E0D8
:1029100030E048EC52E4C501B4010E94F01A21E80D
:1029200035E943EC50E40E947F19A30192010E9413
:102930007F194B015C0123E333E948E853E4C70105
:10294000B6010E94841A9B01AC01C501B4010E942A
:10295000F01A23E333EB48E553E40E947F1920E0AB
:1029600030E04AE754E40E947F190E949C1B609368
:10297000EF037093F0038093F1039093F20380913F
:10298000E203882309F46BC0C090EF03D090F003FA
:10299000E090F103F090F203C701B6010E941E1906
:1029A0009B01AC010E94681C811129C011E0C11675
:1029B00018EED10613E0E106F10408F5C701B601EF
:1029C00020E039E841E450E00E94B11C08E10E9497
:1029D000DE1CC90120E22CAB21E62DAB9EAB8FABF8
:1029E000CE01C6960E941E0188AF00E030E020E0D4
:1029F0004AE050E065E0CE01C4960E941C0780E2E8
:102A000027968FAF279788E028968FAF289702E008
:102A10009E012C5C3F4F4CE050E062E0CE018A5BAF
:102A20009F4F0E941C07811137C1E090CB03F090AB
:102A3000CC0363E672E0CE01C4960E94320ACE0156
:102A4000C496F7010995CE01C4960E94170710920B
:102A5000F4031092F3031092F6031092F503E09042
:102A6000CB03F090CC036091F5037091F603CE0197
:102A7000825A9F4F0E94EC096091F3037091F40316
:102A8000CE01885A9F4F0E94EC094091EF0350916C
:102A9000F0036091F1037091F203CE018E5A9F4FC3
:102AA0000E9489094091EB035091EC036091ED0382
:102AB0007091EE03CE01845B9F4F0E94B609409156
:102AC000E7035091E8036091E9037091EA03CE01B6
:102AD0008A5B9F4F0E94B60964E772E0CE01C496FC
:102AE0000E94320ABE016A5B7F4FCE01C4960E94EB
:102AF0002B090E940709BE01645B7F4F0E942B09CE
:102B00000E940709BE016E5A7F4F0E942B090E9446
:102B10000709BE01685A7F4F0E942B090E940709CE
:102B2000BE01625A7F4F0E942B09BC01CE018C5915
:102B30009F4F0E94180ACE018C599F4FF7010995AB
:102B4000CE018C599F4F0E941707CE01C4960E9458
:102B50001707CE018A5B9F4F0E941707CE01845B47
:102B60009F4F0E941707CE018E5A9F4F0E94170752
:102B7000CE01885A9F4F0E941707CE01825A9F4F5D
:102B80000E9417078091C7039091C803A091C903C1
:102B9000B091CA03AE960CAD1DAD2EAD3FADAE9754
:102BA000800F911FA21FB31F8093E3039093E40350
:102BB000A093E503B093E60380E090E0892B09F44D
:102BC000FBCB0E944302882309F4F6CB0E9400004D
:102BD000F3CB1092EF031092F0031092F1031092D6
:102BE000F203CDCEC090CB03D090CC0328961FAE7D
:102BF0001EAE28972A961FAE1EAE2A972C961FAEA1
:102C00001EAE2C974AE0BE016C5C7F4FC7010E944C
:102C10009016BE016C5C7F4FCE018A5B9F4F0E9475
:102C20007F0967E572E0CE01845B9F4F0E94320A04
:102C3000BE016A5B7F4FCE01845B9F4F0E942B09D0
:102C4000BC01CE01C4960E94180ACE01C496F601BA
:102C50000995CE01C4960E941707CE01845B9F4F51
:102C60000E941707CE018A5B9F4F0E94170700E062
:102C700010E020EC3FE70093E7031093E803209374
:102C8000E9033093EA030093EB031093EC032093E2
:102C9000ED033093EE0373CE2EA93FA93093D203F8
:102CA0002093D1038CA99DA99093D4038093D3033F
:102CB0003093F4032093F3039093F6038093F5038A
:102CC000CECECF93DF93C7EFD3E08FA198A50E941C
:102CD000B81D8EE291E099838883CE01DF91CF9178
:102CE0000C942106EF920F931F93CF93DF93E8018B
:102CF00034E047FD34E1042E000C550B57FF03C0B0
:102D0000519541955109E32E022F242FAE010E94C7
:102D1000D716CE01DF91CF911F910F91EF900895BB
:102D2000BB274A3031F4992322F4BDE29095819576
:102D30009F4F0C94BE16BB27FA01A62F6217710590
:102D400081059105330B30FB66F0AA27660F771FCC
:102D5000881F991FAA1FA21710F0A21B6395385055
:102D6000A9F7A05DAA3308F0A95DA19336F7B111C8
:102D7000B1931082CA010C940E19BB27FB01552791
:102D8000AA27880F991FAA1FA41710F0A41B8395C8
:102D90005051B9F7A05DAA3308F0A95DA19300973F
:102DA00079F7B111B1931192CB010C940E19A9E0EE
:102DB000B0E0EDEDF6E10C94431A6A01F22EB02E6C
:102DC000102FFBE3AF2EA01608F41BE31F5F012FAB
:102DD00027E0AE014F5F5F4F0E943618BC0189812A
:102DE000982F9970913009F43FC09BE2E1FC04C038
:102DF0009E2D9170E0FC3AC05E2D5071E82FE87076
:102E000083FF46C084E0911101C083E0EF2DE81BF1
:102E10008F1508F0E0E0D6018E2F20E2552351F106
:102E2000992329F0D6019C93C60101966C01960165
:102E30002D5F3F4FE2FE24C08EE4D6018C9391E4D7
:102E400011969C93119712968C93D9018E2F90E234
:102E500081111BC0E20FF32FF11D10828EEF9FEF47
:102E60002996ECE00C945F1A9DE2C6CF90E2C4CFA5
:102E70002D9381508111FCCFCE0ED11CE0E0D0CF3C
:102E80008EE6D6018C9391E6DBCF9D938150E0CF07
:102E9000482F447082FF3DC084E0911101C083E05F
:102EA0008F1510F4EF2DE81BD6018E2F20E255234D
:102EB00009F1992329F0D6019C93C60101966C0172
:102EC00096012D5F3F4FE2FE1BC089E4D6018C9333
:102ED0008EE411968C93119786E412968C93D90107
:102EE0008E2F90E2882309F4B5CF9D938150FACFBD
:102EF0002D9381508111FCCFCE0ED11CE0E0D9CFB3
:102F000089E6D6018C938EE611968C93119786E60E
:102F1000E4CF9B0177FF02C030E020E0A1E0B0E009
:102F2000911102C0B0E0A0E0F9013196AE0FBF1FD1
:102F30008B2C912CBB2009F461C05401EFEFAE1A29
:102F4000BE0AAA0DBB1DFA161B0619F014F04F2D70
:102F50004A1B511188C0E3FC59C07601A42FB0E28E
:102F6000A1114FC0C40ED11C992309F45BC040E0ED
:102F7000D6011196F60190836D01552309F448C0DE
:102F8000012F060F9A81582F507184FF03C091338F
:102F900009F4015010160CF047C0093008F008E0A1
:102FA000EEE2FE2E5B01A01AB10885019194819496
:102FB00091082F3F320729F4D601FC92F601319691
:102FC0006F016217730794F1021713077CF5DB0199
:102FD000A21BB30BAA24A394B12CAC0EBD1EAA0D48
:102FE000BB1D11968C9121503109D60111962815DF
:102FF0003905F4F0F60180836D01DBCFB12CA12CF3
:10300000A0CFF701B1937F01A150AACF9111B0CF0A
:10301000D601942F50E302C05D9391509111FCCFE3
:10302000C40ED11C40E0ACCF01E0BACF80E3DBCFCF
:103030006217730731F4963388F4953311F45523EE
:1030400069F0F6018083FD01842F90E2811108C0B0
:10305000A40FB11D1C9290E080E002CF81E3F1CF7C
:1030600091938150F3CF911183CF8ACF283008F00C
:1030700027E03327DA01990F311D87FD9160009613
:103080006105710539F432602E5F3D9330E32A9576
:10309000E1F708959F3F30F080387105610509F030
:1030A0003C5F3C5F3D93913008F08068911DDF9359
:1030B000CF931F930F93FF92EF92192F987F9695BE
:1030C000E92F96959695E90FFF27E651FF4F99272F
:1030D0003327EE24FF24A701E70105900894079405
:1030E00028F4360FE71EF81E491F511D660F771F83
:1030F000881F991F0694A1F70590079428F4E70EFE
:10310000F81E491F561FC11D770F881F991F661F84
:103110000694A1F70590079428F4F80E491F561F4E
:10312000C71FD11D880F991F661F771F0694A1F72F
:103130000590079420F4490F561FC71FD81F990FF9
:10314000661F771F881F0694A9F784911095177042
:1031500041F0D695C79557954795F794E7941A95FA
:10316000C1F7E0E9F0E0689415901591359165910B
:10317000959105907FE27395E118F10A430B560B88
:10318000C90BD009C0F7E10CF11E431F561FC91F20
:10319000D01D7EF4703311F48A95E6CFE894015087
:1031A00030F0080F0AF40027021708F4202F2395A7
:1031B000022F7A3328F079E37D932A95E9F710C03E
:1031C0007D932A9589F60694979567953795179577
:1031D0001794E118F10A430B560BC90BD00998F06C
:1031E00023957E9173957A3308F070E37C932013D6
:1031F000B8F77E9170617D9330F0839571E37D9394
:1032000070E32A95E1F71124EF90FF900F911F9141
:10321000CF91DF91992787FD90950895DC01FC01FE
:10322000672F71917723E1F7329704C07C916D93FA
:1032300070836291AE17BF07C8F30895E89409C080
:1032400097FB3EF490958095709561957F4F8F4FD9
:103250009F4F9923A9F0F92F96E9BB279395F695EF
:10326000879577956795B795F111F8CFFAF4BB0F6D
:1032700011F460FF1BC06F5F7F4F8F4F9F4F16C0D1
:10328000882311F096E911C0772321F09EE8872F5B
:10329000762F05C0662371F096E8862F70E060E017
:1032A0002AF09A95660F771F881FDAF7880F969590
:1032B000879597F90895990F0008550FAA0BE0E834
:1032C000FEEF16161706E807F907C0F012161306E8
:1032D000E407F50798F0621B730B840B950B39F428
:1032E0000A2661F0232B242B252B21F408950A268E
:1032F00009F4A140A6958FEF811D811D08950E94BC
:1033000092190C94031A0E94F51938F00E94FC19C6
:1033100020F0952311F00C94EC190C94F21911245F
:103320000C94371A0E94141A70F3959FC1F3950FED
:1033300050E0551F629FF001729FBB27F00DB11D39
:10334000639FAA27F00DB11DAA1F649F6627B00DC9
:10335000A11D661F829F2227B00DA11D621F739FB2
:10336000B00DA11D621F839FA00D611D221F749FC0
:103370003327A00D611D231F849F600D211D822F07
:10338000762F6A2F11249F5750409AF0F1F088232E
:103390004AF0EE0FFF1FBB1F661F771F881F91505B
:1033A0005040A9F79E3F510580F00C94EC190C9405
:1033B000371A5F3FE4F3983ED4F386957795679587
:1033C000B795F795E7959F5FC1F7FE2B880F911D85
:1033D0009695879597F9089597F99F6780E870E02B
:1033E00060E008959FEF80EC089500240A9416167B
:1033F000170618060906089500240A9412161306E3
:10340000140605060895092E0394000C11F4882370
:1034100052F0BB0F40F4BF2B11F460FF04C06F5F8C
:103420007F4F8F4F9F4F089557FD9058440F551F62
:1034300059F05F3F71F04795880F97FB991F61F036
:103440009F3F79F087950895121613061406551FAD
:10345000F2CF4695F1DF08C0161617061806991F19
:10346000F1CF86957105610508940895E894BB270E
:1034700066277727CB0197F908952F923F924F92B5
:103480005F926F927F928F929F92AF92BF92CF92F4
:10349000DF92EF92FF920F931F93CF93DF93CDB7FD
:1034A000DEB7CA1BDB0B0FB6F894DEBF0FBECDBF75
:1034B00009942A88398848885F846E847D848C8446
:1034C0009B84AA84B984C884DF80EE80FD800C814F
:1034D0001B81AA81B981CE0FD11D0FB6F894DEBF32
:1034E0000FBECDBFED010895A29FB001B39FC001F3
:1034F000A39F700D811D1124911DB29F700D811D20
:103500001124911D08955058BB27AA270E949B1A89
:103510000C94031A0E94F51938F00E94FC1920F04F
:1035200039F49F3F19F426F40C94F2190EF4E09547
:10353000E7FB0C94EC19E92F0E94141A58F3BA1700
:10354000620773078407950720F079F4A6F50C94B9
:10355000361A0EF4E0950B2EBA2FA02D0B01B901EF
:1035600090010C01CA01A0011124FF27591B99F0F9
:10357000593F50F4503E68F11A16F040A22F232F05
:10358000342F4427585FF3CF469537952795A79555
:10359000F0405395C9F77EF41F16BA0B620B730BFC
:1035A000840BBAF09150A1F0FF0FBB1F661F771F6D
:1035B000881FC2F70EC0BA0F621F731F841F48F422
:1035C000879577956795B795F7959E3F08F0B0CFAB
:1035D0009395880F08F09927EE0F97958795089592
:1035E0000E94041B0C94031A0E94FC1958F00E94BC
:1035F000F51940F029F45F3F29F00C94EC195111B2
:103600000C94371A0C94F2190E94141A68F3992337
:10361000B1F3552391F3951B550BBB27AA276217CE
:103620007307840738F09F5F5F4F220F331F441FDB
:10363000AA1FA9F335D00E2E3AF0E0E832D091500F
:103640005040E695001CCAF72BD0FE2F29D0660FFC
:10365000771F881FBB1F261737074807AB07B0E83F
:1036600009F0BB0B802DBF01FF2793585F4F3AF045
:103670009E3F510578F00C94EC190C94371A5F3F7B
:10368000E4F3983ED4F3869577956795B795F795CB
:103690009F5FC9F7880F911D9695879597F90895B3
:1036A000E1E0660F771F881FBB1F6217730784074F
:1036B000BA0720F0621B730B840BBA0BEE1F88F75E
:1036C000E095089529F416F00C94EC190C94361A30
:1036D0000C94F2190E941C1AA8F39638A0F707F868
:1036E0000F92E8942BE33AEA48EB5FE70E949519C2
:1036F0000F920F920F924DB75EB70F920E94341C3B
:10370000E8E6F0E00E94CB1B4F915F91EF91FF91B3
:10371000E595EE1FFF1F49F0FE57E0684427EE0FC6
:10372000441FFA95E1F74195550B0E94FE1B0F903F
:1037300007FE0C94F21B08950E941C1A88F09F57F4
:1037400098F0B92F9927B751B0F0E1F0660F771FC5
:10375000881F991F1AF0BA95C9F714C0B13091F0BB
:103760000E94361AB1E008950C94361A672F782F0C
:103770008827B85F39F0B93FCCF386957795679580
:10378000B395D9F73EF490958095709561957F4FEC
:103790008F4F9F4F0895DF93CF931F930F93FF9207
:1037A000EF92DF927B018C01689406C0DA2EEF0164
:1037B0000E949219FE01E894A591259135914591B9
:1037C0005591A6F3EF010E949B1AFE019701A801F3
:1037D000DA9469F7DF90EF90FF900F911F91CF91EE
:1037E000DF9108959B01AC0160E070E080E89FE309
:1037F0000C94F01A0C94EC190C946D1C0E941C1A79
:10380000D8F39923C9F3940F511DA3F3915050405D
:1038100094F059F0882332F0660F771F881F91507B
:103820005040C1F79E3F51052CF7880F911D96958A
:10383000879597F908955F3FACF0983E9CF0BB27C1
:10384000869577956795B79508F4B1609395C1F71C
:10385000BB0F58F711F460FFE8CF6F5F7F4F8F4FBA
:103860009F4FE3CF0C94371AFA01DC01AA0FBB1F5C
:103870009B01AC01BF5728F42227332744275078F7
:1038800020C0B75190F4AB2F00244695379527956B
:10389000011CA395D2F3002071F0220F331F441FA7
:1038A000B395DAF30ED00C94831A61307105A0E859
:1038B0008A07B94630F49B01AC0166277727882731
:1038C0009078309621F0208331834283538308958A
:1038D0000E945B19880B990B08959F3F31F091501E
:1038E00020F4879577956795B795880F911D9695E4
:1038F000879597F9089597FB072E16F4009407D043
:1039000077FD09D00E94F91C07FC05D03EF4909584
:1039100081959F4F0895709561957F4F0895A1E21D
:103920001A2EAA1BBB1BFD010DC0AA1FBB1FEE1F39
:10393000FF1FA217B307E407F50720F0A21BB30B84
:10394000E40BF50B661F771F881F991F1A9469F700
:1039500060957095809590959B01AC01BD01CF015C
:103960000895E894DF93CF93FC01DB010E94741A61
:103970007F936F93E9019A01AC01BF93AF933F939B
:103980002F93DF010E94741A26F46C1B7D0B820BAF
:10399000930B9E01EB01FC010E94131DAF91BF919F
:1039A0002F913F910E94131DBE01CF01F9012F916C
:1039B0003F91CF91DF91089597FD1094002E08302C
:1039C00098F00850232F342F452F562F672F782F2C
:1039D000892F912DF4CF15949795879577956795B5
:1039E00057954795379527950A95AAF71124002DE5
:1039F0000895AA1BBB1B51E107C0AA1FBB1FA61736
:103A0000B70710F0A61BB70B881F991F5A95A9F787
:103A100080959095BC01CD010895EE0FFF1F059094
:103A2000F491E02D09940E94741A460F571FC81F85
:103A3000D91F08F4319608950F931F93CF93DF9306
:103A40008230910510F482E090E0E0915305F0910E
:103A5000540530E020E0B0E0A0E0309799F4211563
:103A6000310509F44AC0281B390B24303105D8F53B
:103A70008A819B816115710589F1FB0193838283A2
:103A8000FE0111C0408151810281138148175907FD
:103A9000E0F04817590799F4109761F012960C93CB
:103AA000129713961C933296CF01DF91CF911F91FD
:103AB0000F9108950093530510935405F4CF2115E9
:103AC000310551F04217530738F0A901DB019A0183
:103AD000BD01DF01F801C1CFEF01F9CF909354058B
:103AE00080935305CDCFFE01E20FF31F8193919395
:103AF0002250310939832883D7CF20915105309145
:103B00005205232B41F4209102013091030130939F
:103B1000520520935105209100013091010121159A
:103B2000310541F42DB73EB7409104015091050194
:103B3000241B350BE0915105F0915205E217F30774
:103B4000A0F42E1B3F0B2817390778F0AC014E5F0D
:103B50005F4F2417350748F04E0F5F1F50935205F3
:103B600040935105819391939FCFF0E0E0E09CCF8B
:103B7000CF93DF930097E9F0FC0132971382128212
:103B8000A0915305B0915405ED0130E020E010976D
:103B9000A1F420813181820F931F20915105309132
:103BA00052052817390709F061C0F0935205E093D8
:103BB0005105DF91CF910895EA01CE17DF07E8F5AF
:103BC0004A815B819E0141155105B1F7E901FB83F3
:103BD000EA8349915991C40FD51FEC17FD0761F491
:103BE000808191810296840F951FE90199838883D2
:103BF000828193819B838A83F0E0E0E012968D912D
:103C00009C9113970097B9F52D913C911197CD0197
:103C10000296820F931F209151053091520528176B
:103C2000390739F6309751F5109254051092530523
:103C3000B0935205A0935105BCCFD383C28340817A
:103C40005181840F951FC817D90761F44E5F5F4FEC
:103C500088819981480F591F518340838A819B81B4
:103C6000938382832115310509F0B0CFF093540579
:103C7000E09353059ECFFD01DC01C0CF1382128279
:103C8000D7CFB0E0A0E0E7E4FEE10C943F1A8C014E
:103C9000009751F4CB010E941C1D8C01C801CDB7C7
:103CA000DEB7E0E10C945B1AFC01E60FF71F9C0104
:103CB00022503109E217F30708F49DC0D901CD91D4
:103CC000DC911197C617D70798F0C530D10530F3AE
:103CD000CE0104978617970708F3C61BD70B2297C8
:103CE000C193D1936D937C93CF010E94B81DD6CF21
:103CF0005B01AC1ABD0A4C018C0E9D1EA0915305B0
:103D0000B0915405512C412CF12CE12C109731F538
:103D100080915105909152058815990509F05CC074
:103D20004616570608F058C0809100019091010195
:103D3000009741F48DB79EB7409104015091050161
:103D4000841B950BE817F90708F055C0F09352054E
:103D5000E0935105F90171836083A0CF8D919C910F
:103D6000119712966C90129713967C901397A81542
:103D7000B90559F56C0142E0C40ED11CCA14DB042C
:103D800020F1AC014A195B09DA011296159780F00F
:103D90006282738251834083D9016D937C93E114D5
:103DA000F10471F0D7011396FC93EE93129776CF3E
:103DB00022968C0F9D1FF90191838083F301EFCF31
:103DC000F0935405E093530569CF4816590608F45B
:103DD0002C017D01D3019ACFCB010E941C1D7C01D7
:103DE000009749F0AE01B8010E94FE1EC8010E9472
:103DF000B81D870153CF10E000E050CFFB01DC017C
:103E000002C001900D9241505040D8F70895FB0137
:103E1000DC0101900D920020E1F70895FB01DC0127
:103E20004150504048F001900D920020C9F701C068
:103E30001D9241505040E0F7089510E0C3EFD0E0EC
:103E400004C0FE010E940D1D2196C43FD107C9F791
:043E5000F894FFCF14
:103E5400000055058000000000007902D901060227
:103E6400C60237021502290200000000C4049704A8
:103E740065066D0490047D046E04000000008A054C
:103E8400D90165066D04E605FE0514052E050D0A27
:103E94000051554555453A206572726F722064751C
:103EA4006520746F20756E646573697261626C65F8
:103EB4002073697A6520666F722071756575652057
:103EC40073697A652E0051554555453A20696E73DC
:103ED400756666696369656E74206D656D6F727968
:103EE40020746F20696E697469616C697A652074E5
:103EF400656D706F726172792071756575652E00DC
:103F040053454E3A5347503330206E6F74206465E6
:103F14007465637465640053454E3A5347503330B7
:103F24002064657465637465640053454E3A534771
:103F340050333020696E697469616C697A65640014
:103F44005349473A0053414950004C45443A0031E3
:103F54003233343536373855545350004C43443A91
:103F64000053454E3A5348543331206465746563B5
:103F7400746564200051554555453A2063616E27A8
:103F84007420706F70206974656D2066726F6D2087
:103F940071756575653A207175657565206973205D
:103FA400656D7074792E0053454E3A20534854334E
:103FB40031200053454E3A20534750333020657228
:0A3FC400726F72004149523A00008A
:107E0000112484B714BE81FFF0D085E080938100F7
:107E100082E08093C00088E18093C10086E0809377
:107E2000C20080E18093C4008EE0C9D0259A86E02C
:107E300020E33CEF91E0309385002093840096BBD3
:107E4000B09BFECF1D9AA8958150A9F7CC24DD24C4
:107E500088248394B5E0AB2EA1E19A2EF3E0BF2EE7
:107E6000A2D0813461F49FD0082FAFD0023811F036
:107E7000013811F484E001C083E08DD089C08234E0
:107E800011F484E103C0853419F485E0A6D080C0E4
:107E9000853579F488D0E82EFF2485D0082F10E0AE
:107EA000102F00270E291F29000F111F8ED06801E7
:107EB0006FC0863521F484E090D080E0DECF843638
:107EC00009F040C070D06FD0082F6DD080E0C81688
:107ED00080E7D80618F4F601B7BEE895C0E0D1E017
:107EE00062D089930C17E1F7F0E0CF16F0E7DF06D8
:107EF00018F0F601B7BEE89568D007B600FCFDCFD4
:107F0000A601A0E0B1E02C9130E011968C91119780
:107F100090E0982F8827822B932B1296FA010C0160
:107F200087BEE89511244E5F5F4FF1E0A038BF0790
:107F300051F7F601A7BEE89507B600FCFDCF97BE46
:107F4000E89526C08437B1F42ED02DD0F82E2BD052
:107F50003CD0F601EF2C8F010F5F1F4F84911BD097
:107F6000EA94F801C1F70894C11CD11CFA94CF0C13
:107F7000D11C0EC0853739F428D08EE10CD085E9AC
:107F80000AD08FE07ACF813511F488E018D01DD067
:107F900080E101D065CF982F8091C00085FFFCCF94
:107FA0009093C60008958091C00087FFFCCF809118
:107FB000C00084FD01C0A8958091C6000895E0E648
:107FC000F0E098E1908380830895EDDF803219F02E
:107FD00088E0F5DFFFCF84E1DECF1F93182FE3DFCA
:107FE0001150E9F7F2DF1F91089580E0E8DFEE27F6
:047FF000FF270994CA
:027FFE00040479
:0400000300007E007B
:00000001FF
