:100000000C94F4000C941C010C941C010C945B0DDA
:100010000C945B0D0C945B0D0C941C010C941C0156
:100020000C941C010C941C010C941C010C941C01DC
:100030000C941C010C941C010C941C010C941C01CC
:100040000C94F20B0C941C010C94C00B0C949A0BA6
:100050000C941C010C941C010C941C010C941C01AC
:100060000C943C0C0C941C0107634236B79BD8A738
:100070001A39685618AEBAAB558C1D3CB7CC5763CD
:10008000BD6DEDFD753EF6177231BF000000803F7B
:1000900000407A10F35A00A0724E18090010A5D43F
:1000A000E80000E87648170000E40B54020000CA9C
:1000B0009A3B000000E1F5050000809698000000E2
:1000C00040420F000000A086010000001027000041
:1000D0000000E803000000006400000000000A00C7
:1000E000000000000100000000002C76D888DC67CA
:1000F0004F0823DFC1DFAE59E1B1B796E5E3E45322
:10010000C63AE651997696E8E6C28426EB898C9B3E
:1001100062ED407C6FFCEFBC9C9F40F2BAA56FA5DE
:10012000F490055A2AF75C936B6CF9676DC11BFC60
:10013000E0E40D47FEF520E6B500D0ED902E03007B
:10014000943577050080841E080000204E0A0000C8
:1001500000C80C333333330F986E12831141EF8D87
:100160002114893BE65516CFFEE6DB18D1844B38C7
:100170001BF77C1D901DA4BBE424203284725E22F8
:100180008100C9F124ECA1E53D2700000000240016
:1001900027002A00000000080002010000030407F5
:1001A0000000000000000000000000002300260006
:1001B000290000000000250028002B00040404048E
:1001C0000404040402020202020203030303030301
:1001D00001020408102040800102040810200102DE
:1001E00004081020F70DDC1511241FBECFEFD8E056
:1001F000DEBFCDBF25E0ACE7B2E001C01D92A73560
:10020000B207E1F712E0A0E0B1E0EAE4FDE302C0EA
:1002100005900D92AC37B107D9F710E0C3EFD0E0ED
:1002200004C02197FE010E94881CC23FD107C9F774
:100230000E94620F0C94981E0C940000FC019081A7
:10024000909528E081E397FF03C0990F982701C09C
:10025000990F2150C1F78181892798E021E387FF19
:1002600003C0880F822701C0880F9150C1F70895FD
:100270009091B8039111FCCF91E09093B8039093C3
:10028000B7032FEF2093B6031092B503260F2093E8
:10029000B4039093B3039091B303880F892B809399
:1002A000B3038091B2038130F9F41092B2038091CC
:1002B000B3038093BB008091BC0083FDF8CF85EC35
:1002C0008093BC008091B8038130E1F38091B50345
:1002D000861710F46091B503A2E9B3E0E2E7F3E01A
:1002E00080E0861303C0089585EEEACF9D91919337
:1002F0008F5FF7CF982F2091710381E0213208F0B2
:1003000043C08091B8038111FCCF8091700332E02B
:100310003093B8039093B7039FEF9093B603109276
:10032000B5032093B403A0E5B3E0E2E9F3E090E085
:10033000291331C01092B3039091B303880F892B16
:100340008093B3038091B203813049F51092B203D8
:100350008091B3038093BB008091BC0083FDF8CFF4
:1003600085EC8093BC008091B8038230E1F38091EA
:10037000B6038F3FB1F08091B6038032A1F0809137
:10038000B603803391F084E010924F031092710312
:1003900010924E0308953D9131939F5FC9CF85EE32
:1003A000E0CF80E0F1CF82E0EFCF83E0EDCF0895A2
:1003B0000895AF92BF92CF92DF92EF92FF920F9388
:1003C0001F93CF93DF936C017B018B01040F151FEB
:1003D000EB015E01AE18BF08C017D10759F0699153
:1003E000D601ED91FC910190F081E02DC6010995B7
:1003F000892B79F7C501DF91CF911F910F91FF9064
:10040000EF90DF90CF90BF90AF900895FC01538D97
:10041000448D252F30E0842F90E0821B930B5417DE
:1004200010F0CF96089501970895FC01918D828D6B
:10043000981761F0A28DAE0FBF2FB11D5D968C9104
:10044000928D9F5F9F73928F90E008958FEF9FEF43
:100450000895FC01918D828D981731F0828DE80FFF
:10046000F11D858D90E008958FEF9FEF0895FC01B9
:10047000918D228D892F90E0805C9F4F821B910986
:100480008F739927089587E994E00E94370221E04D
:10049000892B09F420E0822F089580E090E0892BD9
:1004A00029F00E94430281110C9400000895FC0180
:1004B000A48DA80FB92FB11DA35ABF4F2C91848DC5
:1004C00090E001968F739927848FA689B7892C9322
:1004D000A089B1898C91837080648C93938D848D75
:1004E000981306C00288F389E02D80818F7D808378
:1004F0000895EF92FF920F931F93CF93DF93EC0138
:1005000081E0888F9B8D8C8D98131AC0E889F989BA
:10051000808185FF15C09FB7F894EE89FF896083BD
:10052000E889F98980818370806480839FBF81E03E
:1005300090E0DF91CF911F910F91FF90EF90089580
:10054000F62E0B8D10E00F5F1F4F0F731127E02E5B
:100550008C8D8E110CC00FB607FCFACFE889F98993
:10056000808185FFF5CFCE010E945702F1CFEB8D40
:10057000EC0FFD2FF11DE35AFF4FF0829FB7F89467
:100580000B8FEA89FB8980818062CFCFCF93DF9385
:10059000EC01888D8823B9F0AA89BB89E889F9899B
:1005A0008C9185FD03C0808186FD0DC00FB607FCD0
:1005B000F7CF8C9185FFF2CF808185FFEDCFCE0103
:1005C0000E945702E9CFDF91CF910895833081F0E7
:1005D00028F4813099F08230A9F008958730A9F08D
:1005E0008830C9F08430B1F4809180008F7D03C0E1
:1005F000809180008F7780938000089584B58F77F5
:1006000084BD089584B58F7DFBCF8091B0008F7736
:100610008093B00008958091B0008F7DF9CFCF9383
:10062000DF93282F30E0F901EC56FE4F8491F90159
:10063000E053FE4FD491F901E454FE4FC491CC2312
:10064000A1F081110E94E602EC2FF0E0EE0FFF1FF7
:10065000E855FE4FA591B491EC91ED2381E090E037
:1006600009F480E0DF91CF91089580E090E0FACF27
:100670001F93CF93DF93282F30E0F901EC56FE4F04
:100680008491F901E053FE4FD491F901E454FE4FF7
:10069000C491CC23A9F0162F81110E94E602EC2F01
:1006A000F0E0EE0FFF1FEE54FE4FA591B4918FB70F
:1006B000F894EC91111108C0D095DE23DC938FBF24
:1006C000DF91CF911F910895DE2BF8CFCF93DF9369
:1006D00090E0FC01E053FE4F249184549E4FFC01B6
:1006E00084918823C9F090E0880F991FFC01E65798
:1006F000FE4FA591B491FC01EE54FE4FC591D491EB
:1007000061110DC09FB7F8948C91209582238C9332
:100710008881282328839FBFDF91CF91089562307D
:1007200051F49FB7F8943C91822F809583238C934A
:10073000E8812E2BEFCF8FB7F894EC912E2B2C93D2
:100740008FBFEACF3FB7F89480914403909145035F
:10075000A0914603B091470326B5A89B05C02F3F43
:1007600019F00196A11DB11D3FBFBA2FA92F982FD7
:100770008827BC01CD01620F711D811D911D42E0D2
:10078000660F771F881F991F4A95D1F708958F929A
:100790009F92AF92BF92CF92DF92EF92FF926B0146
:1007A0007C010E94A2034B015C01C114D104E1044D
:1007B000F104B9F00E94A203681979098A099B091A
:1007C000683E73408105910580F321E0C21AD1088B
:1007D000E108F10888EE880E83E0981EA11CB11C88
:1007E000E4CFFF90EF90DF90CF90BF90AF909F90BD
:1007F0008F9008952FB7F894609140037091410352
:1008000080914203909143032FBF08950F931F934C
:1008100080913C0590913D05A0913E05B0913F052A
:10082000892B8A2B8B2B31F10E94FA03009147050B
:10083000109148052091490530914A05AB01BC0152
:10084000401B510B620B730B91E000913C05109122
:100850003D0520913E0530913F0540175107620745
:10086000730708F090E0809146058111892F1F9150
:100870000F91089591E0F7CF85ED8093BC008091B2
:10088000BC0084FDFCCF1092B803089520911C0396
:10089000260F3327331F21323105ECF42091B803A2
:1008A000FC0190E080E0243069F082E00895A0919E
:1008B0001C032191AC0144505D4FA40FB52FB11D15
:1008C0002C930196861798F380911C03680F609310
:1008D0001C0380E0089581E008950895E0914D03A0
:1008E00080914C03E81730F4F0E0EE58FC4F808123
:1008F00090E008958FEF9FEF089590914D038091C0
:100900004C032FEF3FEF981748F4E92FF0E0EE5833
:10091000FC4F208130E09F5F90934D03C901089503
:1009200080914C0390914D03891B990B0895CF92B0
:10093000DF92EF92FF920F931F93CF93DF937C018F
:10094000CB018A0120914E03222389F0EB016B0138
:10095000C40ED51ECC15DD0569F06991D701ED9166
:10096000FC910190F081E02DC7010995F3CF642F30
:100970000E944604C801DF91CF911F910F91FF9013
:10098000EF90DF90CF900895CF93DF931F92CDB774
:10099000DEB7698320914E032223F9F02091710381
:1009A000203258F021E030E0FC013383228390E0D4
:1009B00080E00F90DF91CF91089580914F03E82F51
:1009C000F0E0E05BFC4F998190838F5F80934F0351
:1009D0008093710381E090E0ECCF61E0CE0101965D
:1009E0000E944604F7CFCF93C82F8091CF0321E018
:1009F00020934E038093700310924F031092710363
:100A0000692F8DEB93E00E94C4046C2F8DEB93E073
:100A10000E94C40481E00E947A01282F36EF32033D
:100A2000C0011124CF9108952091BB033091BC03E4
:100A30002817390781F49091B9038091BA03981768
:100A400051F0E091B903F0E0EE0FFF1FE458FD4FC5
:100A50008081918108958FEF9FEF0895EF92FF922B
:100A60000F931F93CF93DF93DC015C964D915C91C4
:100A70005D974115510579F481E090E013969C93C0
:100A80008E93129790E080E0DF91CF911F910F91AC
:100A9000FF90EF9008955196ED91FC9152975096EA
:100AA0008C915097982F9095EFB65E962C915E970B
:100AB000322F3270F32E21FF02C060957095F894AA
:100AC0002081FF2001F1282B2083EA012197F1F7F3
:100AD00029E0308160FF19C0382B3083EA0121976B
:100AE000F1F7769567952150A1F7FF2081F080817D
:100AF00089238083EFBE5C968D919C910197F1F7DD
:100B000081E090E0C1CF2923DFCF3923E6CF908168
:100B1000892BEFCFEF92FF920F931F93CF93DF9329
:100B2000DC015C96ED90FC905D97E114F10479F4A2
:100B300081E090E013969C938E93129790E080E072
:100B4000DF91CF911F910F91FF90EF9008955196F3
:100B5000ED91FC91529750968C915097982F9095CB
:100B60000FB75E962C915E97122F127021FD609543
:100B7000F8942081112319F1282B2083E701219774
:100B8000F1F728E0462F50E0308160FF1AC0382B83
:100B90003083E7012197F1F7BA01759567952150E8
:100BA00089F7112381F08081892380830FBF5C96B0
:100BB0008D919C910197F1F781E090E0C1CF2923BD
:100BC000DCCF3923E5CF9081892BEFCF2091BB0378
:100BD0003091BC032817390771F48091BA03209132
:100BE000B90390E0805C9F4F821B910960E470E044
:100BF0000E94F61B089590E080E008952091BB03C9
:100C00003091BC0328173907C9F49091B90380913A
:100C1000BA03981799F0E091B903F0E0EE0FFF1FC7
:100C2000E458FD4F808191812091B90330E02F5F1E
:100C30003F4F2F7333272093B90308958FEF9FEF12
:100C40000895E091BB03F091BC03E817F90769F43C
:100C5000A389B4899C918589809589238C9310926E
:100C6000BC031092BB0381E0089580E00895809159
:100C7000130490911404892B31F18091BB0390915E
:100C8000BC0323E0893F9207F1F0009711F00E9426
:100C90002106809117048E7F809317041092BA0367
:100CA0001092B90389EF93E09093BC038093BB0348
:100CB000E0910C04F0910D04808190910E04892B39
:100CC000808381E0089580E0089590E080E00895B9
:100CD0004F925F926F927F929F92AF92BF92CF920C
:100CE000DF92EF92FF920F931F93CF93DF9300D089
:100CF000CDB7DEB77C0166E08091CF030E9438015A
:100D000010924D0380934C038701670184E0C80E65
:100D1000D11C7E0193E0E90EF11C81E3982EFE01C7
:100D200031965F010E94FA036093C5037093C60376
:100D30008093C7039093C8038DEB93E00E947D04DA
:100D400097FF5BC00E94FA034090C5035090C60312
:100D50006090C7037090C8036419750986099709E4
:100D60004090C1035090C2036090C3037090C403CD
:100D70006415750586059705F8F28DEB93E00E94E2
:100D80007D049981909528E097FF03C0990F9925DC
:100D900001C0990F2150C1F729813A8132272327B9
:100DA00032274A81942748E097FF03C0990F99257D
:100DB00001C0990F4150C1F798131CC0F80121934D
:100DC00031938F01EC15FD0509F0A9CF90E080E08B
:100DD0000F900F90DF91CF911F910F91FF90EF90A7
:100DE000DF90CF90BF90AF909F907F906F905F907B
:100DF0004F9008958BE99FEFEBCFF50181935F0151
:100E0000EE15FF0509F08ECFB8CFCF93DF93EC013D
:100E100088819981009711F00E94331D19821882F0
:100E20001D821C821B821A82DF91CF910895FC01E2
:100E3000808191810C94331D6F927F928F929F924B
:100E4000AF92BF92CF92DF92EF92FF920F931F93D8
:100E5000CF93DF93CDB7DEB7162F6A013901ADB658
:100E6000BEB62091E30331E030934E03209370032C
:100E700010924F0310927103982E7C018091E10330
:100E80009091E203D7016D917D01DC01ED91FC9120
:100E90000190F081E02D09958E2D8919811770F34D
:100EA00081E00E947A01B60190E080E00E94C703D1
:100EB000002309F45FC0102F110F100F612F8091D4
:100EC000E3030E94380110924D0380934C031817DE
:100ED000A9F080E00FB6F894BEBE0FBEADBEDF91A4
:100EE000CF911F910F91FF90EF90DF90CF90BF9027
:100EF000AF909F908F907F906F900895EDB7FEB761
:100F0000E11BF1090FB6F894FEBF0FBEEDBF8DB720
:100F10009EB701966C017C014C018091E103909198
:100F2000E203DC01ED91FC910284F385E02D09954B
:100F3000F40181934F018E2F8C19811770F3630197
:100F400010E0C7010E941E01D70112969C911297D2
:100F50008913BFCF8C9111969C9189279827892757
:100F6000F601819391936F011F5FF3E0EF0EF11C87
:100F70000113E7CF81E0AECF0F93CF93DF9300D083
:100F8000CDB7DEB780E2898383E08A8300E030E07A
:100F900020E04AE050E062E0CE0101960E941C078A
:100FA0000F900F90DF91CF910F910895FB01019069
:100FB0000020E9F73197AF01461B570BDC01ED919B
:100FC000FC910280F381E02D09940F931F93CF933E
:100FD000DF938C010E9406048823C9F0C09151055B
:100FE000D0915205F8014481558160817181E88179
:100FF000F9810280F381E02DCE0109956EE371E065
:10100000CE01DF91CF911F910F910C94D607DF9104
:10101000CF911F910F9108950F931F93CF93DF935B
:10102000EC010E9479028C016EE371E0CE010E9416
:10103000D607800F911FDF91CF911F910F910895D7
:101040000C940C080C940C08EC01009739F00E94E9
:10105000D6076EE371E0CE010E94D6070E94DE0D36
:10106000AF92BF92CF92DF92EF92FF920F931F93B6
:10107000CF93DF938C0161E471E01816190664F5D3
:101080000E94971CEC01009729F1A0902404B090D5
:101090002504E0902004F090210420912604309152
:1010A0002704C0902204D0902304FC01281B390B94
:1010B000CF018C1B9D0B8A159B05A4F4C9018E0FD3
:1010C0009F1FB6010E94F61BD701A80FB91F8C9174
:1010D0008193EECF66E771E080911E0490911F042A
:1010E0000E942408C7010E94331DD0932104C0939D
:1010F00020041092270410922604809124049091D9
:1011000025049093290480932804109323040093CA
:101110002204DF91CF911F910F91FF90EF90DF900C
:10112000CF90BF90AF900895CF93C82F80912404A3
:101130009091250420912204309123048217930773
:1011400021F4880F991F0E943008E0912004F0914B
:10115000210480912804909129049C012F5F3F4F26
:101160003093290420932804E80FF91FC0832091AD
:101170002804309129048091220490912304281797
:10118000390721F410922904109228048091240434
:101190009091250401969093250480932404CF9187
:1011A00008950F931F93CF93DF93EC01888199816A
:1011B000009759F02A813B812617370730F081E0EC
:1011C000DF91CF911F910F9108958B016F5F7F4F3A
:1011D0000E94BC1D009759F0998388831B830A8362
:1011E0002C813D81232B59F7FC011082E8CF80E050
:1011F000E7CF0F931F93CF93DF93EC010C811D81F9
:101200000F5F1F4FB8010E94D108882391F02881F9
:1012100039818C819D816FEC71E0820F931F0E9458
:10122000821E1D830C83CE01DF91CF911F910F9100
:101230000895CE010E940507F6CFEF92FF920F931B
:101240001F93CF93DF93EC01FB01E080F180E11469
:10125000F10411F10481158101151105A9F08C81AA
:101260009D81080F191FB801CE010E94D108882363
:1012700099F0288139818C819D81B701820F931F5C
:101280000E94821E1D830C83CE01DF91CF911F919E
:101290000F91FF90EF900895CE010E940507F4CFC3
:1012A000EF92FF920F931F93CF93DF93EC017B019B
:1012B0008A01BA010E94D10881110BC0CE010E949F
:1012C0000507CE01DF91CF911F910F91FF90EF9015
:1012D00008951D830C83B701888199810E94821E25
:1012E000F0CFFB0101900020E9F73197AF01461BD9
:1012F000570B0C9450090F931F93CF93DF93CDB7E7
:10130000DEB7A1970FB6F894DEBF0FBECDBF8C013C
:10131000CB01BA01F8011182108213821282158268
:1013200014822AE0AE014F5F5F4F0E941616BE0185
:101330006F5F7F4FC8010E947109A1960FB6F894A4
:10134000DEBF0FBECDBFDF91CF911F910F910895EA
:10135000EF92FF920F931F93CF93DF93CDB7DEB73A
:10136000A1970FB6F894DEBF0FBECDBF7C01CB01B5
:10137000BA01F7011182108213821282158214823F
:101380008E010F5F1F4F22E044E00E94ED15009791
:1013900089F0BC01C7010E947109A1960FB6F894AB
:1013A000DEBF0FBECDBFDF91CF911F910F91FF9098
:1013B000EF900895C7010E940507EFCF0F931F9389
:1013C000CF93DF93CDB7DEB761970FB6F894DEBF4A
:1013D0000FBECDBF8C01CB01F801118210821382A8
:1013E0001282158214824AE0BE016F5F7F4F0E9415
:1013F0003816BE016F5F7F4FC8010E947109619668
:101400000FB6F894DEBF0FBECDBFDF91CF911F9115
:101410000F910895FB01DC0111961C921E92139608
:101420001C921E92129715961C921E921497861764
:10143000970749F0608171816115710521F0448140
:1014400055810C9450090895FC0111821082138279
:101450001282158214826115710551F0FB01019011
:101460000020E9F73197AF01461B570B0C94500948
:1014700008950F931F93CF93DF93CDB7DEB7679790
:101480000FB6F894DEBF0FBECDBF85E0E5EBF1E00F
:10149000DE01539601900D928A95E1F72091610447
:1014A0003091620490E080E04EE2B901082E02C063
:1014B000759567950A94E2F760FD07C0E3E1F0E0F7
:1014C000EC0FFD1FE80FF91F408301968430910552
:1014D00061F700911C0410911D04BE016D5E7F4FE9
:1014E000CE0107960E94240A60EB71E0CE010D96B2
:1014F0000E94240ABE01695F7F4FCE010D960E94B3
:101500001D09BC01CE0101960E940A0ACE01019676
:10151000F8010995CE0101960E941707CE010D969C
:101520000E941707CE0107960E94170767960FB60D
:10153000F894DEBF0FBECDBFDF91CF911F910F9109
:1015400008950F931F93CF93DF93CDB7DEB76F97B7
:101550000FB6F894DEBF0FBECDBF8DE0EFEBF1E02C
:10156000DE01119601900D928A95E1F720916304B6
:101570003091640490E080E04EE2B901082E02C090
:10158000759567950A94E2F760FD07C0E1E0F0E029
:10159000EC0FFD1FE80FF91F408301968C30910579
:1015A00061F700911C0410911D04BE016F5F7F4F15
:1015B000CE0144960E94240A6AEB71E0CE014A965D
:1015C0000E94240ABE016C5E7F4FCE014A960E94A3
:1015D0001D09BC01CE010E960E940A0ACE010E968C
:1015E000F8010995CE010E960E941707CE014A9682
:1015F0000E941707CE0144960E9417076F960FB6F8
:10160000F894DEBF0FBECDBFDF91CF911F910F9138
:1016100008950F931F93CF93DF93CDB7DEB76297F3
:101620000FB6F894DEBF0FBECDBF00911C04109121
:101630001D0465E674E0CE0107960E94240A6CEC56
:1016400071E0CE010D960E94240ABE01695F7F4FB2
:10165000CE010D960E941D09BC01CE0101960E948B
:101660000A0ACE010196F8010995CE0101960E9461
:101670001707CE010D960E941707CE0107960E940C
:10168000170762960FB6F894DEBF0FBECDBFDF918D
:10169000CF911F910F9108956733D1F19CF462337C
:1016A00079F13CF4603339F14CF58AEA613221F189
:1016B0000895643349F134F1653341F186E36633CB
:1016C000D9F008956F3651F14CF4693329F114F1D2
:1016D0006F3351F18AE3633679F00895633711F17E
:1016E00024F48DE3603741F008956637C9F08CE348
:1016F000683711F0089580E30C94940881E3FCCFDF
:1017000082E3FACF83E3F8CF84E3F6CF85E3F4CF27
:1017100087E3F2CF88E3F0CF89E3EECF8BE3ECCF22
:101720008EE3EACF8FE3E8CF0E94390A0E94A10A34
:101730000C94090B1F920F920FB60F9211242F9346
:101740003F934F935F936F937F938F939F93AF9349
:10175000BF93EF93FF9387E994E00E945702FF91B4
:10176000EF91BF91AF919F918F917F916F915F9119
:101770004F913F912F910F900FBE0F901F90189592
:101780001F920F920FB60F9211242F938F939F9356
:10179000EF93FF93E091A704F091A8048081E0917A
:1017A000AD04F091AE0482FD1BC090818091B00425
:1017B0008F5F8F732091B104821741F0E091B004E4
:1017C000F0E0E956FB4F958F8093B004FF91EF91C5
:1017D0009F918F912F910F900FBE0F901F90189592
:1017E0008081F4CF1F920F920FB60F9211242F9386
:1017F0003F938F939F93AF93BF93809140039091BA
:101800004103A0914203B091430330913F0323E091
:10181000230F2D3758F50196A11DB11D20933F03CD
:101820008093400390934103A0934203B0934303FA
:101830008091440390914503A0914603B0914703E2
:101840000196A11DB11D8093440390934503A0937D
:101850004603B0934703BF91AF919F918F913F9102
:101860002F910F900FBE0F901F90189526E8230F11
:101870000296A11DB11DD2CF1F920F920FB60F92EB
:1018800011242F933F934F935F936F937F938F9385
:101890009F93AF93BF93EF93FF938091B900887F9D
:1018A000803609F44AC0F0F5883209F4A7C018F56B
:1018B000803109F49BC0B8F4882309F4F9C088305A
:1018C00009F494C0FF91EF91BF91AF919F918F91D7
:1018D0007F916F915F914F913F912F910F900FBE2C
:1018E0000F901F901895883109F488C0803251F705
:1018F0008093B60314C0803409F49DC040F4803353
:10190000B9F38833F9F68093B60385ECB0C080351F
:1019100009F485C0883509F496C0883499F60E9488
:101920003C04D0CF883909F48CC038F5883729F0C9
:1019300050F4883611F0803729F683E08093B8039D
:1019400010923E0357C0883809F47BC0803919F0E3
:10195000803809F0B7CF80913E03803208F071C023
:10196000E0913E0381E08E0F80933E038091BB00A7
:10197000F0E0E25EFC4F80833DC0803B39F0E0F454
:10198000803A09F479C0883A09F09CCF84E08093CA
:10199000B80310921D0310921C03E0914A03F091CA
:1019A0004B03099580911C0381110FC081E0809346
:1019B0001C031092FC0209C0803C09F4A6CF883CAD
:1019C00009F4A3CF883B09F07DCFE0911D0381E0AE
:1019D0008E0F80931D03F0E0E450FD4F80818093D3
:1019E000BB0090911D0380911C0329C08091B3031B
:1019F0008093BB0085EC8093BC0064CF9091B503CD
:101A00008091B403981758F5E091B50381E08E0FEB
:101A10008093B503F0E0EE56FC4F8081E9CFE09172
:101A2000B50381E08E0F8093B5038091BB00F0E099
:101A3000EE56FC4F80839091B5038091B4039817C4
:101A4000C8F285E8D8CFE091B50381E08E0F80938E
:101A5000B5038091BB00F0E0EE56FC4F808380918F
:101A6000B70381115CCF81E08093B20384EA809355
:101A7000BC001092B80326CF85EC8093BC00109276
:101A8000B80380913E03803230F4E0913E03F0E0F1
:101A9000E25EFC4F108260913E0370E0E0914803EB
:101AA000F09149038EE193E0099510923E030ACF2D
:101AB0001092B60334CF1F920F920FB60F921124DB
:101AC0002F933F934F935F936F938F939F93AF9316
:101AD000BF93CF93DF93EF93FF93E091BB03F0911C
:101AE000BC03309749F0A685B7859585868D81FF23
:101AF00015C08C918923A9F4FF91EF91DF91CF91CB
:101B0000BF91AF919F918F916F915F914F913F9155
:101B10002F910F900FBE0F901F9018958C918923D5
:101B200059F7A389B4899C918589809589238C93E1
:101B3000868997890197F1F7408D518DC685D785A4
:101B4000658529E090E080E0DA011197F1F796953C
:101B500087953881362309F090682150A9F79C01B8
:101B6000220F232F221F330B3195868D81FF02C058
:101B7000209530958091BA0390E001968F73992754
:101B80004091B9034817B1F0A091BA03B0E0AA0F91
:101B9000BB1FA458BD4F2D933C938093BA03828DF5
:101BA000938D0197F1F7A389B4898C919589892B3D
:101BB0008C93A2CF868D8160868FF1CF61E08DE01E
:101BC0000E94660361E08DE00E9438036AEF70E0D6
:101BD00080E090E00E94C70360E08DE00E9438033F
:101BE0006AEF70E080E090E00E94C703EBCFCF93F4
:101BF000DF9310929A041092990488EE93E0A0E08B
:101C0000B0E080939B0490939C04A0939D04B093B8
:101C10009E042AE031E0309398042093970425EC49
:101C200030E03093A4042093A30424EC30E03093FC
:101C3000A6042093A50420EC30E03093A804209360
:101C4000A70421EC30E03093AA042093A90422ECED
:101C500030E03093AC042093AB0426EC30E03093BA
:101C6000AE042093AD041092B0041092B10410920F
:101C7000B2041092B3041092C0031092BF03809379
:101C8000C1039093C203A093C303B093C4032CE198
:101C900031E03093BE032093BD03109246051092AD
:101CA0004C0510924B0510924D0510924E05109266
:101CB0004F051092500527E934E0309352052093E8
:101CC000510540E052EC61E070E0409334055093E0
:101CD000350560933605709337052DE030E030937D
:101CE0003905209338052BE220933A052DE2209305
:101CF0003B054CED55E060E070E040933C055093AF
:101D00003D0560933E0570933F0520E238E0309337
:101D100041052093400522E238E0309343052093AB
:101D200042052CE43BE03093450520934405109296
:101D3000FC031092FB038093FD039093FE03A0939A
:101D4000FF03B09300048EE291E09093FA03809336
:101D5000F9031092100410920F04109212041092C2
:101D6000110410921404109213041092160410928D
:101D70001504609117046E7F6D7F6093170466955C
:101D8000617081E068278BE00E94380361E08BE09E
:101D90000E946603EBEDF1E0E491E0930904E7ECC7
:101DA000F1E0E491F0E0EE0FFF1FEE54FE4F85915D
:101DB000949190930B0480930A0460E08AE00E945F
:101DC00066038091170481FD04C061E08AE00E94EF
:101DD00038038AE080930504EAEDF1E0E491E093B2
:101DE0000604E6ECF1E0E491F0E0EE0FFF1FE855A9
:101DF000FE4F85919491909308048093070410926C
:101E000023041092220410922504109224041092AC
:101E1000270410922604109229041092280410928C
:101E20001F0410921E0482E090E00E94971C909381
:101E3000210480932004892B11F40E94DE0D82E09E
:101E400090E0909323048093220483E0809318040D
:101E500082E08093190484E080931A0485E08093E3
:101E60001B04C5EED7E0D0931D04C0931C0462E0B0
:101E700083E00E94660362E082E00E94660362E003
:101E800084E00E94660362E085E00E94660310928F
:101E9000E5031092E6031092E7031092E80388E846
:101EA00093E1A0E0B0E08093C9039093CA03A093AC
:101EB000CB03B093CC03D093CE03C093CD03DF917B
:101EC000CF910895CF93DF93CDB7DEB7CF56D10929
:101ED0000FB6F894DEBF0FBECDBF789484B5826094
:101EE00084BD84B5816084BD85B5826085BD85B5BE
:101EF000816085BD80916E00816080936E0010923C
:101F000081008091810082608093810080918100B6
:101F10008160809381008091800081608093800047
:101F20008091B10084608093B1008091B0008160A5
:101F30008093B00080917A00846080937A008091D1
:101F40007A00826080937A0080917A008160809329
:101F50007A0080917A00806880937A001092C100A4
:101F600061E0809138050E94660361E08091380548
:101F70000E94380364EC79E080E090E00E94C7039F
:101F8000E0905105F0905205809034059090350511
:101F9000A0903605B090370560E079E08DE390E0E1
:101FA000A50194010E940A1C2150310941095109DF
:101FB0005695479537952795D7015096ED91FC9109
:101FC00082E080838114B1EE9B06A104B10421F06C
:101FD0002115E0E13E07A8F0D7015096ED91FC9164
:101FE000108260E874E88EE190E0A50194010E94FF
:101FF0000A1C2150310941095109569547953795D9
:102000002795D7011C96ED91FC911D9730831E9664
:10201000ED91FC911F97208358961C9258975496E7
:10202000ED91FC91559786E080835296ED91FC915D
:1020300053978081806180835296ED91FC915397F4
:102040008081886080835296ED91FC9153978081C6
:10205000806880835296ED91FC9180818F7D808392
:1020600060E0809138050E943803109214041092A9
:102070001304109212041092110410921004109282
:102080000F0482E09DE090931604809315049091D4
:102090000504963108F047C02FE636E0309310046F
:1020A00020930F0420E03DE03093120420931104AC
:1020B00027EB39E030931404209313042091680037
:1020C00084E0983048F031E09E3008F430E081E060
:1020D00001C0880F3A95EAF7822B809368002DE6BD
:1020E00030E0983050F02BE630E09E3030F02CE6B7
:1020F00030E0963110F030E020E030930D04209372
:102100000C04292F30E0983008F057C181E001C05D
:10211000880F9A95EAF780930E04809115049091A8
:1021200016040197F1F70E9437060E94FA036093A4
:102130002A0470932B0480932C0490932D040E9406
:10214000390A0E94A10A0E94090B84E48093CF03FC
:10215000E090CD03F090CE0361ED71E0CE010196E9
:102160000E94240ACE010196F7010995CE0101963D
:102170000E94170788E58093E3038DEB93E090932B
:10218000E2038093E10310924D0310924C031092EE
:102190004F03109271031092B80311E01093B7032C
:1021A0001092B20361E082E10E94380361E083E1B2
:1021B0000E9438038091B9008E7F8093B90080918E
:1021C000B9008D7F8093B90088E48093B80085E4DE
:1021D0008093BC0087ED91E090934B0380934A037A
:1021E00088ED91E0909349038093480386E38CAB9C
:1021F00082E88DAB03E02BED33E04AE050E062E093
:10220000CE01C4960E941C078111E4C0E090CD036A
:10221000F090CE0368EE71E0CE0101960E94240A90
:10222000CE010196F7010995CE0101960E9417078C
:10223000312C212C91012E7FE0963FAF2EAFE097FD
:10224000689420F811E08091510590915205DC01CD
:10225000ED91FC910284F385E02D09957C0180913C
:102260003A05082E000C990BE816F90609F0F0C0A3
:10227000109346050E94FA03609347057093480542
:102280008093490590934A050E94FA0360934D0597
:1022900070934E0580934F059093500510924C0516
:1022A00010924B05E0914005F091410560913A058F
:1022B000309709F0DFC00E94FA03C0904D05D0901E
:1022C0004E05E0904F05F09050056C157D058E058C
:1022D0009F0518F16C507E4F8F4F9F4F60934D05B7
:1022E00070934E0580934F05909350050E9406040D
:1022F000882341F081E020914B0530914C05232B40
:1023000009F080E0282F30E030934C0520934B05F6
:10231000682F809138050E94380380911804882323
:1023200029F00E940F037101892B21F0E096EEAC99
:10233000FFACE09780911904882309F4AFC00E9494
:102340000F03892B09F0AAC06894E1F880911A0460
:10235000882309F4A6C00E940F03892B09F0A1C0AD
:102360006894E2F880911B04882309F49DC00E94C0
:102370000F03892B09F098C06894E3F880916104F9
:1023800090916204E816F90631F0F0926204E0924E
:1023900061040E94390A89EF93E00E94E605892BC7
:1023A00009F4FBC089EF93E00E94FE0590FF7FC017
:1023B00080932E0410936004EECF9E3040F428509A
:1023C000310981E001C0880F2A95EAF7A4CE2E508A
:1023D0003109F7CF80E28CAB8FE28DAB01E09E013B
:1023E0002F5F3F4F4AE050E062E0CE01C4960E946A
:1023F0001C07882309F40ACF89819A81807F992755
:10240000809709F003CF0E94BC07882309F4FECE11
:10241000E090CD03F090CE036FEF71E0CE01019616
:102420000E94240ACE010196F7010995CE0101967A
:102430000E9417070E94BC07882309F4F9CE109365
:10244000E403E090CD03F090CE0362E172E0E4CECD
:1024500060913B05862F062E000C990BE816F906B5
:1024600079F410924605E0914205F09143053097CA
:1024700009F421CF809151059091520509951BCF08
:102480000E940604882309F416CFE0914405F091D8
:102490004505309709F40FCF6E2DECCFE894E1F8A5
:1024A00055CFE894E2F85ECFE894E3F867CFE09187
:1024B0006004E23308F06FCF20912E042C3451F1E8
:1024C000203509F068CFE33048F491E09E0F9093F7
:1024D0006004F0E0E750FC4F85AB5DCFE33009F0DE
:1024E0005ACF90912F043091300420E5290F230F0B
:1024F00028130AC0892F990F990B932B909364048A
:10250000809363040E94A10A809160048F5F80938E
:10251000600441CF2E2F30E0E13059F060912F045C
:10252000062E000C770BAB014F5F5F4F421753072E
:102530003CF0EF5FE093600427503C4FF901CCCFB3
:102540006E5F7F4F6217730709F025CFE9EFF3E065
:1025500090E09F01295F33402617370724F425A90F
:10256000920F3196F6CF8913CFCF67507C4FDB01A6
:10257000D5961C9283E3EEE2F4E0DE011196019021
:102580000D928A95E1F7BE016D5F7F4F85E694E07D
:102590000E94891E0E94090BB7CF8091240490915C
:1025A0002504892B09F482C00E94FA03C0902A04F2
:1025B000D0902B04E0902C04F0902D04C616D70682
:1025C000E806F90608F072C0209124043091250431
:1025D0002115310541F468E272E080911E0490916A
:1025E0001F040E942408E0912004F09121048091AE
:1025F000260490912704AC014F5F5F4F509327044E
:1026000040932604E80FF91FE080215031093093F0
:1026100025042093240480912204909123044817D8
:10262000590721F410922704109226042115310530
:1026300091F0AC0197FF02C04D5F5F4F55954795F4
:10264000559547954217530734F097FD0196959598
:1026500087950E94300889EF93E00E9421066BE481
:1026600071E089EF93E00E942E050E2C000CFF080C
:10267000B701772789EF93E00E942E05B701655BCC
:102680007F4F772789EF93E00E942E050E9437063F
:102690000E94FA036A567F4F8F4F9F4F60932A0420
:1026A00070932B0480932C0490932D040E94FA03C2
:1026B000AE966CAF7DAF8EAF9FAFAE978091D203D9
:1026C000811105C09091E403992309F4E8C1409178
:1026D000E5035091E6036091E7037091E803AE963D
:1026E000CCACDDACEEACFFACAE974C155D056E0529
:1026F0007F0508F0D4C1882309F4B9C086E194E2CB
:102700000E94F3047C0162E370E080E090E00E94AC
:10271000C703E114F10409F0D8C1CE01C4960E94A8
:1027200068067C01892B09F0D0C16CA97DA990E0D5
:1027300080E00E94991820E030E04FE253E40E94CC
:10274000FA1820E03FEF4FE757E40E946B1A20E0B1
:1027500030E044E352E40E94FE196B017C016EA953
:102760007FA990E080E00E94991820E030E048ECDA
:1027700052E40E94FA1820E03FEF4FE757E40E942E
:102780006B1A4B015C01C092E903D092EA03E0921C
:10279000EB03F092EC038092ED039092EE03A09293
:1027A000EF03B092F003A7019601C701B6010E94A2
:1027B000E31B811181C1A5019401C501B4010E94EF
:1027C000E31B811179C123EC35EF4CE851E4C701DB
:1027D000B6010E94FA182B013C0128EB3EE143E7C9
:1027E00053E4C701B6010E94FF199B01AC01C3016C
:1027F000B2010E946B1A0E94E51A2B013C0120E0F5
:1028000030E048EC52E4C501B4010E946B1A21E8A3
:1028100035E943EC50E40E94FA18A30192010E94AA
:10282000FA184B015C0123E333E948E853E4C7019C
:10283000B6010E94FF199B01AC01C501B4010E94C1
:102840006B1A23E333EB48E553E40E94FA1820E0C7
:1028500030E04AE754E40E94FA180E94171B609384
:10286000F1037093F2038093F3039093F403809148
:10287000E403882309F466C0C090F103D090F2030A
:10288000E090F303F090F403C701B6010E94991899
:102890009B01AC010E94E31B811129C021E0C216FB
:1028A00028EED20623E0E206F10408F5C701B601DE
:1028B00020E039E841E450E00E942C1C08E10E942D
:1028C000591CC90120E22CAB21E62DAB9EAB8FAB8E
:1028D000CE01C6960E941E0188AF00E030E020E0E5
:1028E0004AE050E065E0CE01C4960E941C0780E2F9
:1028F00027968FAF279788E028968FAF289702E01A
:102900009E012C5C3F4F4CE050E062E0CE018A5BC0
:102910009F4F0E941C07882309F433C12EA93FA9A9
:102920003093D4032093D3038CA99DA99093D6030D
:102930008093D5033093F6032093F5039093F80327
:102940008093F703E090CD03F090CE036091F703FE
:102950007091F803CE01825A9F4F0E94DE09609168
:10296000F5037091F603CE01885A9F4F0E94DE094D
:102970004091F1035091F2036091F3037091F403DD
:10298000CE018E5A9F4F0E947B094091ED035091DA
:10299000EE036091EF037091F003CE01845B9F4FD3
:1029A0000E94A8094091E9035091EA036091EB036A
:1029B0007091EC03CE018A5B9F4F0E94A80967E7E4
:1029C00072E0CE01C4960E94240ABE016A5B7F4F6A
:1029D000CE01C4960E941D090E94F908BE01645BE5
:1029E0007F4F0E941D090E94F908BE016E5A7F4F59
:1029F0000E941D090E94F908BE01685A7F4F0E947B
:102A00001D090E94F908BE01625A7F4F0E941D09EC
:102A1000BC01CE018C599F4F0E940A0ACE018C59ED
:102A20009F4FF7010995CE018C599F4F0E941707C0
:102A3000CE01C4960E941707CE018A5B9F4F0E9469
:102A40001707CE01845B9F4F0E941707CE018E5A55
:102A50009F4F0E941707CE01885A9F4F0E94170769
:102A6000CE01825A9F4F0E9417078091C90390910F
:102A7000CA03A091CB03B091CC03AE96CCACDDAC35
:102A8000EEACFFACAE978C0D9D1DAE1DBF1D8093AF
:102A9000E5039093E603A093E703B093E80380E097
:102AA00090E0892B09F4CFCB0E944302882309F4DC
:102AB000C9CB0E940000C6CB1092F1031092F20322
:102AC0001092F3031092F403D2CEC090CD03D090B5
:102AD000CE0328961FAE1EAE28972A961FAE1EAEB6
:102AE0002A972C961FAE1EAE2C974AE0BE016C5C56
:102AF0007F4FC7010E940B16BE016C5C7F4FCE0159
:102B00008A5B9F4F0E9471096AE572E0CE01845B87
:102B10009F4F0E94240ABE016A5B7F4FCE01845BF7
:102B20009F4F0E941D09BC01CE01C4960E940A0A53
:102B3000CE01C496F6010995CE01C4960E941707EE
:102B4000CE01845B9F4F0E941707CE018A5B9F4F87
:102B50000E941707C12CD12C80ECE82E8FE7F82EAD
:102B6000C092E903D092EA03E092EB03F092EC0307
:102B7000C092ED03D092EE03E092EF03F092F003E7
:102B800076CEE090CD03F090CE0366E672E0CE0103
:102B9000C4960E94240ACE01C496F7010995CE017D
:102BA000C4960E9417071092F6031092F503109234
:102BB000F8031092F703C6CECF93DF93C9EFD3E0AB
:102BC0008FA198A50E94331D8EE291E0998388839E
:102BD000CE01DF91CF910C942106EF920F931F93BA
:102BE000CF93DF93E80134E047FD34E1042E000C7D
:102BF000550B57FF03C0519541955109E32E022F04
:102C0000242FAE010E945216CE01DF91CF911F9169
:102C10000F91EF900895BB274A3031F4992322F4A5
:102C2000BDE2909581959F4F0C943916BB27FA0110
:102C3000A62F6217710581059105330B30FB66F0F5
:102C4000AA27660F771F881F991FAA1FA21710F0C7
:102C5000A21B63953850A9F7A05DAA3308F0A95DBF
:102C6000A19336F7B111B1931082CA010C9489185F
:102C7000BB27FB015527AA27880F991FAA1FA41756
:102C800010F0A41B83955051B9F7A05DAA3308F04A
:102C9000A95DA193009779F7B111B1931192CB017E
:102CA0000C948918A9E0B0E0E8E5F6E10C94BE19AF
:102CB0006A01F22EB02E102FFBE3AF2EA01608F4FF
:102CC0001BE31F5F012F27E0AE014F5F5F4F0E94A4
:102CD000B117BC018981982F9970913009F43FC0D8
:102CE0009BE2E1FC04C09E2D9170E0FC3AC05E2D99
:102CF0005071E82FE87083FF46C084E0911101C055
:102D000083E0EF2DE81B8F1508F0E0E0D6018E2F51
:102D100020E2552351F1992329F0D6019C93C60155
:102D200001966C0196012D5F3F4FE2FE24C08EE4B8
:102D3000D6018C9391E411969C93119712968C93E3
:102D4000D9018E2F90E281111BC0E20FF32FF11DEC
:102D500010828EEF9FEF2996ECE00C94DA199DE239
:102D6000C6CF90E2C4CF2D9381508111FCCFCE0EFF
:102D7000D11CE0E0D0CF8EE6D6018C9391E6DBCF7C
:102D80009D938150E0CF482F447082FF3DC084E086
:102D9000911101C083E08F1510F4EF2DE81BD601CF
:102DA0008E2F20E2552309F1992329F0D6019C9317
:102DB000C60101966C0196012D5F3F4FE2FE1BC0DC
:102DC00089E4D6018C938EE411968C93119786E456
:102DD00012968C93D9018E2F90E2882309F4B5CFF7
:102DE0009D938150FACF2D9381508111FCCFCE0E4F
:102DF000D11CE0E0D9CF89E6D6018C938EE61196FE
:102E00008C93119786E6E4CF9B0177FF02C030E0F8
:102E100020E0A1E0B0E0911102C0B0E0A0E0F90133
:102E20003196AE0FBF1F8B2C912CBB2009F461C0D3
:102E30005401EFEFAE1ABE0AAA0DBB1DFA161B060F
:102E400019F014F04F2D4A1B511188C0E3FC59C0F2
:102E50007601A42FB0E2A1114FC0C40ED11C99235A
:102E600009F45BC040E0D6011196F60190836D0134
:102E7000552309F448C0012F060F9A81582F50712D
:102E800084FF03C0913309F4015010160CF047C0C1
:102E9000093008F008E0EEE2FE2E5B01A01AB1084E
:102EA00085019194819491082F3F320729F4D6012E
:102EB000FC92F60131966F016217730794F10217C5
:102EC00013077CF5DB01A21BB30BAA24A394B12C3E
:102ED000AC0EBD1EAA0DBB1D11968C91215031095F
:102EE000D601119628153905F4F0F60180836D019D
:102EF000DBCFB12CA12CA0CFF701B1937F01A15062
:102F0000AACF9111B0CFD601942F50E302C05D93A8
:102F100091509111FCCFC40ED11C40E0ACCF01E028
:102F2000BACF80E3DBCF6217730731F4963388F4AE
:102F3000953311F4552369F0F6018083FD01842F48
:102F400090E2811108C0A40FB11D1C9290E080E0B6
:102F500002CF81E3F1CF91938150F3CF911183CFD1
:102F60008ACF283008F027E03327DA01990F311D86
:102F700087FD916000966105710539F432602E5F1E
:102F80003D9330E32A95E1F708959F3F30F0803874
:102F90007105610509F03C5F3C5F3D93913008F09D
:102FA0008068911DDF93CF931F930F93FF92EF9251
:102FB000192F987F9695E92F96959695E90FFF27FB
:102FC000E651FF4F99273327EE24FF24A701E7019D
:102FD00005900894079428F4360FE71EF81E491F41
:102FE000511D660F771F881F991F0694A1F7059042
:102FF000079428F4E70EF81E491F561FC11D770FCE
:10300000881F991F661F0694A1F70590079428F45E
:10301000F80E491F561FC71FD11D880F991F661F25
:10302000771F0694A1F70590079420F4490F561FC7
:10303000C71FD81F990F661F771F881F0694A9F70F
:1030400084911095177041F0D695C795579547957F
:10305000F794E7941A95C1F7E0E9F0E068941590C9
:10306000159135916591959105907FE27395E118E1
:10307000F10A430B560BC90BD009C0F7E10CF11E46
:10308000431F561FC91FD01D7EF4703311F48A955B
:10309000E6CFE894015030F0080F0AF40027021739
:1030A00008F4202F2395022F7A3328F079E37D93BB
:1030B0002A95E9F710C07D932A9589F6069497958D
:1030C0006795379517951794E118F10A430B560B3E
:1030D000C90BD00998F023957E9173957A3308F047
:1030E00070E37C932013B8F77E9170617D9330F08C
:1030F000839571E37D9370E32A95E1F71124EF90B6
:10310000FF900F911F91CF91DF91992787FD9095A7
:103110000895DC01FC01672F71917723E1F7329765
:1031200004C07C916D9370836291AE17BF07C8F3A2
:103130000895E89409C097FB3EF4909580957095AA
:1031400061957F4F8F4F9F4F9923A9F0F92F96E9F3
:10315000BB279395F695879577956795B795F11168
:10316000F8CFFAF4BB0F11F460FF1BC06F5F7F4F05
:103170008F4F9F4F16C0882311F096E911C0772317
:1031800021F09EE8872F762F05C0662371F096E820
:10319000862F70E060E02AF09A95660F771F881FEF
:1031A000DAF7880F9695879597F90895990F000893
:1031B000550FAA0BE0E8FEEF16161706E807F90709
:1031C000C0F012161306E407F50798F0621B730BA4
:1031D000840B950B39F40A2661F0232B242B252B25
:1031E00021F408950A2609F4A140A6958FEF811DC8
:1031F000811D08950E940D190C947E190E9470196A
:1032000038F00E94771920F0952311F00C9467197B
:103210000C946D1911240C94B2190E948F1970F33B
:10322000959FC1F3950F50E0551F629FF001729F6B
:10323000BB27F00DB11D639FAA27F00DB11DAA1F7A
:10324000649F6627B00DA11D661F829F2227B00DC7
:10325000A11D621F739FB00DA11D621F839FA00D52
:10326000611D221F749F3327A00D611D231F849FA2
:10327000600D211D822F762F6A2F11249F575040F9
:103280009AF0F1F088234AF0EE0FFF1FBB1F661F74
:10329000771F881F91505040A9F79E3F510580F03D
:1032A0000C9467190C94B2195F3FE4F3983ED4F381
:1032B000869577956795B795F795E7959F5FC1F7E1
:1032C000FE2B880F911D9695879597F9089597F98C
:1032D0009F6780E870E060E008959FEF80EC0895BC
:1032E00000240A94161617061806090608950024E5
:1032F0000A9412161306140605060895092E03945F
:10330000000C11F4882352F0BB0F40F4BF2B11F4D2
:1033100060FF04C06F5F7F4F8F4F9F4F089557FD31
:103320009058440F551F59F05F3F71F04795880F33
:1033300097FB991F61F09F3F79F0879508951216CA
:1033400013061406551FF2CF4695F1DF08C0161676
:1033500017061806991FF1CF869571056105089427
:103360000895E894BB2766277727CB0197F908953E
:103370002F923F924F925F926F927F928F929F9285
:10338000AF92BF92CF92DF92EF92FF920F931F9373
:10339000CF93DF93CDB7DEB7CA1BDB0B0FB6F89424
:1033A000DEBF0FBECDBF09942A88398848885F8464
:1033B0006E847D848C849B84AA84B984C884DF80D5
:1033C000EE80FD800C811B81AA81B981CE0FD11DB9
:1033D0000FB6F894DEBF0FBECDBFED010895A29FDA
:1033E000B001B39FC001A39F700D811D1124911DD9
:1033F000B29F700D811D1124911D08955058BB2757
:10340000AA270E94161A0C947E190E94701938F08F
:103410000E94771920F039F49F3F19F426F40C9498
:103420006D190EF4E095E7FB0C946719E92F0E94E3
:103430008F1958F3BA17620773078407950720F0AE
:1034400079F4A6F50C94B1190EF4E0950B2EBA2F71
:10345000A02D0B01B90190010C01CA01A00111249A
:10346000FF27591B99F0593F50F4503E68F11A1646
:10347000F040A22F232F342F4427585FF3CF4695D7
:1034800037952795A795F0405395C9F77EF41F16F9
:10349000BA0B620B730B840BBAF09150A1F0FF0FC3
:1034A000BB1F661F771F881FC2F70EC0BA0F621FAF
:1034B000731F841F48F4879577956795B795F7959F
:1034C0009E3F08F0B0CF9395880F08F09927EE0F34
:1034D0009795879508950E947F1A0C947E190E94F3
:1034E000771958F00E94701940F029F45F3F29F0D5
:1034F0000C94671951110C94B2190C946D190E9417
:103500008F1968F39923B1F3552391F3951B550B4C
:10351000BB27AA2762177307840738F09F5F5F4FA6
:10352000220F331F441FAA1FA9F335D00E2E3AF0E5
:10353000E0E832D091505040E695001CCAF72BD0FD
:10354000FE2F29D0660F771F881FBB1F261737074E
:103550004807AB07B0E809F0BB0B802DBF01FF2780
:1035600093585F4F3AF09E3F510578F00C946719DD
:103570000C94B2195F3FE4F3983ED4F386957795A7
:103580006795B795F7959F5FC9F7880F911D969539
:10359000879597F90895E1E0660F771F881FBB1F95
:1035A000621773078407BA0720F0621B730B840B42
:1035B000BA0BEE1F88F7E095089529F416F00C94E5
:1035C00067190C94B1190C946D190E949719A8F3FE
:1035D0009638A0F707F80F92E8942BE33AEA48EB05
:1035E0005FE70E9410190F920F920F924DB75EB7CE
:1035F0000F920E94AF1BE8E6F0E00E94461B4F913D
:103600005F91EF91FF91E595EE1FFF1F49F0FE5787
:10361000E0684427EE0F441FFA95E1F74195550BFA
:103620000E94791B0F9007FE0C946D1B08950E9459
:10363000971988F09F5798F0B92F9927B751B0F094
:10364000E1F0660F771F881F991F1AF0BA95C9F726
:1036500014C0B13091F00E94B119B1E008950C94FA
:10366000B119672F782F8827B85F39F0B93FCCF3AD
:10367000869577956795B395D9F73EF490958095A3
:10368000709561957F4F8F4F9F4F0895DF93CF9334
:103690001F930F93FF92EF92DF927B018C0168944E
:1036A00006C0DA2EEF010E940D19FE01E894A591E3
:1036B0002591359145915591A6F3EF010E94161A77
:1036C000FE019701A801DA9469F7DF90EF90FF906F
:1036D0000F911F91CF91DF9108959B01AC0160E0A4
:1036E00070E080E89FE30C946B1A0C9467190C94BB
:1036F000E81B0E949719D8F39923C9F3940F511D21
:10370000A3F39150504094F059F0882332F0660FA3
:10371000771F881F91505040C1F79E3F51052CF7ED
:10372000880F911D9695879597F908955F3FACF0A6
:10373000983E9CF0BB27869577956795B79508F4DA
:10374000B1609395C1F7BB0F58F711F460FFE8CF54
:103750006F5F7F4F8F4F9F4FE3CF0C94B219FA01E9
:10376000DC01AA0FBB1F9B01AC01BF5728F4222725
:1037700033274427507820C0B75190F4AB2F002452
:10378000469537952795011CA395D2F3002071F03B
:10379000220F331F441FB395DAF30ED00C94FE1999
:1037A00061307105A0E88A07B94630F49B01AC018D
:1037B0006627772788279078309621F020833183F9
:1037C0004283538308950E94D618880B990B08955D
:1037D0009F3F31F0915020F4879577956795B79585
:1037E000880F911D9695879597F9089597FB072E59
:1037F00016F4009407D077FD09D00E94741C07FCD2
:1038000005D03EF4909581959F4F089570956195F0
:103810007F4F0895A1E21A2EAA1BBB1BFD010DC00C
:10382000AA1FBB1FEE1FFF1FA217B307E407F50770
:1038300020F0A21BB30BE40BF50B661F771F881F4C
:10384000991F1A9469F760957095809590959B01E2
:10385000AC01BD01CF010895E894DF93CF93FC0143
:10386000DB010E94EF197F936F93E9019A01AC018C
:10387000BF93AF933F932F93DF010E94EF1926F47C
:103880006C1B7D0B820B930B9E01EB01FC010E94D4
:103890008E1CAF91BF912F913F910E948E1CBE0153
:1038A000CF01F9012F913F91CF91DF91089597FDBD
:1038B0001094002E083098F00850232F342F452FF5
:1038C000562F672F782F892F912DF4CF1594979528
:1038D00087957795679557954795379527950A95D5
:1038E000AAF71124002D0895AA1BBB1B51E107C0A4
:1038F000AA1FBB1FA617B70710F0A61BB70B881F80
:10390000991F5A95A9F780959095BC01CD0108950E
:10391000EE0FFF1F0590F491E02D09940E94EF191E
:10392000460F571FC81FD91F08F4319608950F93EB
:103930001F93CF93DF938230910510F482E090E0E3
:10394000E0915505F091560530E020E0B0E0A0E0B0
:10395000309799F42115310509F44AC0281B390B19
:1039600024303105D8F58A819B816115710589F173
:10397000FB0193838283FE0111C04081518102814A
:10398000138148175907E0F04817590799F4109721
:1039900061F012960C93129713961C933296CF01F6
:1039A000DF91CF911F910F910895009355051093CA
:1039B0005605F4CF2115310551F04217530738F061
:1039C000A901DB019A01BD01DF01F801C1CFEF01BF
:1039D000F9CF9093560580935505CDCFFE01E20FA8
:1039E000F31F819391932250310939832883D7CFD4
:1039F0002091530530915405232B41F4209102016D
:103A00003091030130935405209353052091000118
:103A1000309101012115310541F42DB73EB7409198
:103A2000040150910501241B350BE0915305F091E1
:103A30005405E217F307A0F42E1B3F0B2817390794
:103A400078F0AC014E5F5F4F2417350748F04E0FFA
:103A50005F1F5093540540935305819391939FCFDB
:103A6000F0E0E0E09CCFCF93DF930097E9F0FC011A
:103A7000329713821282A0915505B0915605ED013F
:103A800030E020E01097A1F420813181820F931F54
:103A900020915305309154052817390709F061C06A
:103AA000F0935405E0935305DF91CF910895EA0117
:103AB000CE17DF07E8F54A815B819E01411551056C
:103AC000B1F7E901FB83EA8349915991C40FD51FEE
:103AD000EC17FD0761F4808191810296840F951F98
:103AE000E90199838883828193819B838A83F0E0B3
:103AF000E0E012968D919C9113970097B9F52D9166
:103B00003C911197CD010296820F931F209153058E
:103B1000309154052817390739F6309751F510922E
:103B2000560510925505B0935405A0935305BCCF8C
:103B3000D383C28340815181840F951FC817D90751
:103B400061F44E5F5F4F88819981480F591F5183FF
:103B500040838A819B81938382832115310509F0FB
:103B6000B0CFF0935605E09355059ECFFD01DC01E3
:103B7000C0CF13821282D7CFB0E0A0E0E2ECFDE12B
:103B80000C94BA198C01009751F4CB010E94971C38
:103B90008C01C801CDB7DEB7E0E10C94D619FC0169
:103BA000E60FF71F9C0122503109E217F30708F4D2
:103BB0009DC0D901CD91DC911197C617D70798F018
:103BC000C530D10530F3CE0104978617970708F367
:103BD000C61BD70B2297C193D1936D937C93CF01D2
:103BE0000E94331DD6CF5B01AC1ABD0A4C018C0E6E
:103BF0009D1EA0915505B0915605512C412CF12CDC
:103C0000E12C109731F5809153059091540588155A
:103C1000990509F05CC04616570608F058C0809117
:103C2000000190910101009741F48DB79EB740913A
:103C3000040150910501841B950BE817F90708F062
:103C400055C0F0935405E0935305F90171836083E7
:103C5000A0CF8D919C91119712966C90129713960C
:103C60007C901397A815B90559F56C0142E0C40E74
:103C7000D11CCA14DB0420F1AC014A195B09DA013A
:103C80001296159780F06282738251834083D90126
:103C90006D937C93E114F10471F0D7011396FC93BA
:103CA000EE93129776CF22968C0F9D1FF901918388
:103CB0008083F301EFCFF0935605E093550569CF6C
:103CC0004816590608F42C017D01D3019ACFCB0187
:103CD0000E94971C7C01009749F0AE01B8010E9438
:103CE000791EC8010E94331D870153CF10E000E008
:103CF00050CFFB01DC0102C001900D9241505040B9
:103D0000D8F70895FB01DC0101900D920020E1F746
:103D10000895FB01DC014150504048F001900D92A4
:103D20000020C9F701C01D9241505040E0F70895AE
:103D300010E0C3EFD0E004C0FE010E94881C219671
:0A3D4000C43FD107C9F7F894FFCF84
:103D4A00000057058000000000007902D901060230
:103D5A00C60237021502290200000000C4049704B3
:103D6A0065066D0490047D046E04000000008A0557
:103D7A00D90165066D04E605FE0514052E050D0A32
:103D8A000051554555453A206572726F7220647527
:103D9A006520746F20756E646573697261626C6503
:103DAA002073697A6520666F722071756575652062
:103DBA0073697A652E0051554555453A20696E73E7
:103DCA00756666696369656E74206D656D6F727973
:103DDA0020746F20696E697469616C697A652074F0
:103DEA00656D706F726172792071756575652E00E7
:103DFA005349473A0053414950004C45443A00312F
:103E0A003233343536373855545350004C43443ADC
:103E1A000053454E3A5348543331206E6F74206430
:103E2A00657465637465640053454E3A534750336D
:103E3A0030206E6F74206465746563746564005322
:103E4A00454E3A5347503330206465746563746550
:103E5A00640053454E3A534750333020696E6974B3
:103E6A0069616C697A65640051554555453A206324
:103E7A00616E277420706F70206974656D20667298
:103E8A006F6D2071756575653A2071756575652068
:103E9A00697320656D7074792E0053454E3A20532C
:103EAA0048543331200053454E3A2053475033305B
:0C3EBA00206572726F72004149523A009C
:107E0000112484B714BE81FFF0D085E080938100F7
:107E100082E08093C00088E18093C10086E0809377
:107E2000C20080E18093C4008EE0C9D0259A86E02C
:107E300020E33CEF91E0309385002093840096BBD3
:107E4000B09BFECF1D9AA8958150A9F7CC24DD24C4
:107E500088248394B5E0AB2EA1E19A2EF3E0BF2EE7
:107E6000A2D0813461F49FD0082FAFD0023811F036
:107E7000013811F484E001C083E08DD089C08234E0
:107E800011F484E103C0853419F485E0A6D080C0E4
:107E9000853579F488D0E82EFF2485D0082F10E0AE
:107EA000102F00270E291F29000F111F8ED06801E7
:107EB0006FC0863521F484E090D080E0DECF843638
:107EC00009F040C070D06FD0082F6DD080E0C81688
:107ED00080E7D80618F4F601B7BEE895C0E0D1E017
:107EE00062D089930C17E1F7F0E0CF16F0E7DF06D8
:107EF00018F0F601B7BEE89568D007B600FCFDCFD4
:107F0000A601A0E0B1E02C9130E011968C91119780
:107F100090E0982F8827822B932B1296FA010C0160
:107F200087BEE89511244E5F5F4FF1E0A038BF0790
:107F300051F7F601A7BEE89507B600FCFDCF97BE46
:107F4000E89526C08437B1F42ED02DD0F82E2BD052
:107F50003CD0F601EF2C8F010F5F1F4F84911BD097
:107F6000EA94F801C1F70894C11CD11CFA94CF0C13
:107F7000D11C0EC0853739F428D08EE10CD085E9AC
:107F80000AD08FE07ACF813511F488E018D01DD067
:107F900080E101D065CF982F8091C00085FFFCCF94
:107FA0009093C60008958091C00087FFFCCF809118
:107FB000C00084FD01C0A8958091C6000895E0E648
:107FC000F0E098E1908380830895EDDF803219F02E
:107FD00088E0F5DFFFCF84E1DECF1F93182FE3DFCA
:107FE0001150E9F7F2DF1F91089580E0E8DFEE27F6
:047FF000FF270994CA
:027FFE00040479
:0400000300007E007B
:00000001FF
