:100000000C94F4000C941C010C941C010C94A50E8F
:100010000C94A50E0C94A50E0C941C010C941C01C0
:100020000C941C010C941C010C941C010C941C01DC
:100030000C941C010C941C010C941C010C941C01CC
:100040000C943C0D0C941C010C940A0D0C94E40CC3
:100050000C941C010C941C010C941C010C941C01AC
:100060000C94860D0C941C0107634236B79BD8A7ED
:100070001A39685618AEBAAB558C1D3CB7CC5763CD
:10008000BD6DEDFD753EF6177231BF000000803F7B
:1000900000407A10F35A00A0724E18090010A5D43F
:1000A000E80000E87648170000E40B54020000CA9C
:1000B0009A3B000000E1F5050000809698000000E2
:1000C00040420F000000A086010000001027000041
:1000D0000000E803000000006400000000000A00C7
:1000E000000000000100000000002C76D888DC67CA
:1000F0004F0823DFC1DFAE59E1B1B796E5E3E45322
:10010000C63AE651997696E8E6C28426EB898C9B3E
:1001100062ED407C6FFCEFBC9C9F40F2BAA56FA5DE
:10012000F490055A2AF75C936B6CF9676DC11BFC60
:10013000E0E40D47FEF520E6B500D0ED902E03007B
:10014000943577050080841E080000204E0A0000C8
:1001500000C80C333333330F986E12831141EF8D87
:100160002114893BE65516CFFEE6DB18D1844B38C7
:100170001BF77C1D901DA4BBE424203284725E22F8
:100180008100C9F124ECA1E53D2700000000240016
:1001900027002A00000000080002010000030407F5
:1001A0000000000000000000000000002300260006
:1001B000290000000000250028002B00040404048E
:1001C0000404040402020202020203030303030301
:1001D00001020408102040800102040810200102DE
:1001E000040810203B0F821611241FBECFEFD8E069
:1001F000DEBFCDBF25E0A0EAB2E001C01D92AB3763
:10020000B207E1F712E0A0E0B1E0E6E9FEE302C0E8
:1002100005900D92A03AB107D9F710E0C3EFD0E0F6
:1002200004C02197FE010E942E1DC23FD107C9F7CD
:100230000E94A6100C943E1F0C940000FC019081BB
:10024000909528E081E397FF03C0990F982701C09C
:10025000990F2150C1F78181892798E021E387FF19
:1002600003C0880F822701C0880F9150C1F70895FD
:100270009091DC039111FCCF91E09093DC0390937B
:10028000DB032FEF2093DA031092D903260F20937C
:10029000D8039093D7039091D703880F892B80932D
:1002A000D7038091D6038130F9F41092D603809160
:1002B000D7038093BB008091BC0083FDF8CF85EC11
:1002C0008093BC008091DC038130E1F38091D903FD
:1002D000861710F46091D903A6EBB3E0E6E9F3E0EA
:1002E00080E0861303C0089585EEEACF9D91919337
:1002F0008F5FF7CF982F2091950381E0213208F08E
:1003000043C08091DC038111FCCF8091940332E0E3
:100310003093DC039093DB039FEF9093DA0310920A
:10032000D9032093D803A4E7B3E0E6EBF3E090E031
:10033000291331C01092D7039091D703880F892BCE
:100340008093D7038091D603813049F51092D6036C
:100350008091D7038093BB008091BC0083FDF8CFD0
:1003600085EC8093BC008091DC038230E1F38091C6
:10037000DA038F3FB1F08091DA038032A1F08091EF
:10038000DA03803391F084E01092730310929503A6
:100390001092720308953D9131939F5FC9CF85EE0E
:1003A000E0CF80E0F1CF82E0EFCF83E0EDCF0895A2
:1003B0000895AF92BF92CF92DF92EF92FF920F9388
:1003C0001F93CF93DF936C017B018B01040F151FEB
:1003D000EB015E01AE18BF08C017D10759F0699153
:1003E000D601ED91FC910190F081E02DC6010995B7
:1003F000892B79F7C501DF91CF911F910F91FF9064
:10040000EF90DF90CF90BF90AF900895FC01538D97
:10041000448D252F30E0842F90E0821B930B5417DE
:1004200010F0CF96089501970895FC01918D828D6B
:10043000981761F0A28DAE0FBF2FB11D5D968C9104
:10044000928D9F5F9F73928F90E008958FEF9FEF43
:100450000895FC01918D828D981731F0828DE80FFF
:10046000F11D858D90E008958FEF9FEF0895FC01B9
:10047000918D228D892F90E0805C9F4F821B910986
:100480008F73992708958BEB94E00E94370221E047
:10049000892B09F420E0822F089580E090E0892BD9
:1004A00029F00E94430281110C9400000895FC0180
:1004B000A48DA80FB92FB11DA35ABF4F2C91848DC5
:1004C00090E001968F739927848FA689B7892C9322
:1004D000A089B1898C91837080648C93938D848D75
:1004E000981306C00288F389E02D80818F7D808378
:1004F0000895EF92FF920F931F93CF93DF93EC0138
:1005000081E0888F9B8D8C8D98131AC0E889F989BA
:10051000808185FF15C09FB7F894EE89FF896083BD
:10052000E889F98980818370806480839FBF81E03E
:1005300090E0DF91CF911F910F91FF90EF90089580
:10054000F62E0B8D10E00F5F1F4F0F731127E02E5B
:100550008C8D8E110CC00FB607FCFACFE889F98993
:10056000808185FFF5CFCE010E945702F1CFEB8D40
:10057000EC0FFD2FF11DE35AFF4FF0829FB7F89467
:100580000B8FEA89FB8980818062CFCFCF93DF9385
:10059000EC01888D8823B9F0AA89BB89E889F9899B
:1005A0008C9185FD03C0808186FD0DC00FB607FCD0
:1005B000F7CF8C9185FFF2CF808185FFEDCFCE0103
:1005C0000E945702E9CFDF91CF910895833081F0E7
:1005D00028F4813099F08230A9F008958730A9F08D
:1005E0008830C9F08430B1F4809180008F7D03C0E1
:1005F000809180008F7780938000089584B58F77F5
:1006000084BD089584B58F7DFBCF8091B0008F7736
:100610008093B00008958091B0008F7DF9CFCF9383
:10062000DF93282F30E0F901EC56FE4F8491F90159
:10063000E053FE4FD491F901E454FE4FC491CC2312
:10064000A1F081110E94E602EC2FF0E0EE0FFF1FF7
:10065000E855FE4FA591B491EC91ED2381E090E037
:1006600009F480E0DF91CF91089580E090E0FACF27
:100670001F93CF93DF93282F30E0F901EC56FE4F04
:100680008491F901E053FE4FD491F901E454FE4FF7
:10069000C491CC23A9F0162F81110E94E602EC2F01
:1006A000F0E0EE0FFF1FEE54FE4FA591B4918FB70F
:1006B000F894EC91111108C0D095DE23DC938FBF24
:1006C000DF91CF911F910895DE2BF8CFCF93DF9369
:1006D00090E0FC01E053FE4F249184549E4FFC01B6
:1006E00084918823C9F090E0880F991FFC01E65798
:1006F000FE4FA591B491FC01EE54FE4FC591D491EB
:1007000061110DC09FB7F8948C91209582238C9332
:100710008881282328839FBFDF91CF91089562307D
:1007200051F49FB7F8943C91822F809583238C934A
:10073000E8812E2BEFCF8FB7F894EC912E2B2C93D2
:100740008FBFEACF3FB7F894809168039091690317
:10075000A0916A03B0916B0326B5A89B05C02F3FFB
:1007600019F00196A11DB11D3FBFBA2FA92F982FD7
:100770008827BC01CD01620F711D811D911D42E0D2
:10078000660F771F881F991F4A95D1F708958F929A
:100790009F92AF92BF92CF92DF92EF92FF926B0146
:1007A0007C010E94A2034B015C01C114D104E1044D
:1007B000F104B9F00E94A203681979098A099B091A
:1007C000683E73408105910580F321E0C21AD1088B
:1007D000E108F10888EE880E83E0981EA11CB11C88
:1007E000E4CFFF90EF90DF90CF90BF90AF909F90BD
:1007F0008F9008952FB7F89460916403709165030A
:1008000080916603909167032FBF08950F931F9304
:100810008091600590916105A0916205B09163059A
:10082000892B8A2B8B2B31F10E94FA0300916B05E7
:1008300010916C0520916D0530916E05AB01BC01E6
:10084000401B510B620B730B91E0009160051091FE
:1008500061052091620530916305401751076207D9
:10086000730708F090E080916A058111892F1F912C
:100870000F91089591E0F7CF85ED8093BC008091B2
:10088000BC0084FDFCCF1092DC030895209140034E
:10089000260F3327331F21323105ECF42091DC037E
:1008A000FC0190E080E0243069F082E00895A0919E
:1008B00040032191AC01405E5C4FA40FB52FB11DE8
:1008C0002C930196861798F380914003680F6093EC
:1008D000400380E0089581E008950895E091710358
:1008E00080917003E81730F4F0E0EA56FC4F808105
:1008F00090E008958FEF9FEF08959091710380919C
:1009000070032FEF3FEF981748F4E92FF0E0EA5615
:10091000FC4F208130E09F5F90937103C9010895DF
:100920008091700390917103891B990B0895CF9268
:10093000DF92EF92FF920F931F93CF93DF937C018F
:10094000CB018A0120917203222389F0EB016B0114
:10095000C40ED51ECC15DD0569F06991D701ED9166
:10096000FC910190F081E02DC7010995F3CF642F30
:100970000E944604C801DF91CF911F910F91FF9013
:10098000EF90DF90CF900895CF93DF931F92CDB774
:10099000DEB76983209172032223F9F02091950339
:1009A000203258F021E030E0FC013383228390E0D4
:1009B00080E00F90DF91CF91089580917303E82F2D
:1009C000F0E0EC58FC4F998190838F5F8093730324
:1009D0008093950381E090E0ECCF61E0CE01019639
:1009E0000E944604F7CFCF93C82F8091F30321E0F4
:1009F00020937203809394031092730310929503D3
:100A0000692F81EE93E00E94C4046C2F81EE93E085
:100A10000E94C40481E00E947A01282F36EF32033D
:100A2000C0011124CF9108952091DF033091E0039C
:100A30002817390781F49091DD038091DE03981720
:100A400051F0E091DD03F0E0EE0FFF1FE056FD4FA7
:100A50008081918108958FEF9FEF0895EF92FF922B
:100A60000F931F93CF93DF93DC015C964D915C91C4
:100A70005D974115510579F481E090E013969C93C0
:100A80008E93129790E080E0DF91CF911F910F91AC
:100A9000FF90EF9008955196ED91FC9152975096EA
:100AA0008C915097982F9095EFB65E962C915E970B
:100AB000322F3270F32E21FF02C060957095F894AA
:100AC0002081FF2001F1282B2083EA012197F1F7F3
:100AD00029E0308160FF19C0382B3083EA0121976B
:100AE000F1F7769567952150A1F7FF2081F080817D
:100AF00089238083EFBE5C968D919C910197F1F7DD
:100B000081E090E0C1CF2923DFCF3923E6CF908168
:100B1000892BEFCFEF92FF920F931F93CF93DF9329
:100B2000DC015C96ED90FC905D97E114F10479F4A2
:100B300081E090E013969C938E93129790E080E072
:100B4000DF91CF911F910F91FF90EF9008955196F3
:100B5000ED91FC91529750968C915097982F9095CB
:100B60000FB75E962C915E97122F127021FD609543
:100B7000F8942081112319F1282B2083E701219774
:100B8000F1F728E0462F50E0308160FF1AC0382B83
:100B90003083E7012197F1F7BA01759567952150E8
:100BA00089F7112381F08081892380830FBF5C96B0
:100BB0008D919C910197F1F781E090E0C1CF2923BD
:100BC000DCCF3923E5CF9081892BEFCF2091DF0354
:100BD0003091E0032817390771F48091DE032091EA
:100BE000DD0390E0805C9F4F821B910960E470E020
:100BF0000E949C1C089590E080E008952091DF03FE
:100C00003091E00328173907C9F49091DD038091F2
:100C1000DE03981799F0E091DD03F0E0EE0FFF1F7F
:100C2000E056FD4F808191812091DD0330E02F5F00
:100C30003F4F2F7333272093DD0308958FEF9FEFEE
:100C40000895E091DF03F091E003E817F90769F4F4
:100C5000A389B4899C918589809589238C9310926E
:100C6000E0031092DF0381E0089580E00895809111
:100C7000370490913804892B31F18091DF039091F2
:100C8000E00324E08D319207F1F0009711F00E940B
:100C9000210680913B048E7F80933B041092DE03FB
:100CA0001092DD038DE194E09093E0038093DF03E5
:100CB000E0913004F0913104808190913204892BCD
:100CC000808381E0089580E0089590E080E00895B9
:100CD0004F925F926F927F929F92AF92BF92CF920C
:100CE000DF92EF92FF920F931F93CF93DF9300D089
:100CF000CDB7DEB77C0166E08091F3030E94380136
:100D000010927103809370038701670184E0C80E1D
:100D1000D11C7E0193E0E90EF11C81E3982EFE01C7
:100D200031965F010E94FA036093E9037093EA032E
:100D30008093EB039093EC0381EE93E00E947D049B
:100D400097FF5BC00E94FA034090E9035090EA03CA
:100D50006090EB037090EC0364197509860997099C
:100D60004090E5035090E6036090E7037090E8033D
:100D70006415750586059705F8F281EE93E00E94EB
:100D80007D049981909528E097FF03C0990F9925DC
:100D900001C0990F2150C1F729813A8132272327B9
:100DA00032274A81942748E097FF03C0990F99257D
:100DB00001C0990F4150C1F798131CC0F80121934D
:100DC00031938F01EC15FD0509F0A9CF90E080E08B
:100DD0000F900F90DF91CF911F910F91FF90EF90A7
:100DE000DF90CF90BF90AF909F907F906F905F907B
:100DF0004F9008958BE99FEFEBCFF50181935F0151
:100E0000EE15FF0509F08ECFB8CFCF93DF93EC013D
:100E100088819981009711F00E94D91D198218824A
:100E20001D821C821B821A82DF91CF910895FC01E2
:100E3000808191810C94D91D6F927F928F929F92A5
:100E4000AF92BF92CF92DF92EF92FF920F931F93D8
:100E5000CF93DF93CDB7DEB7162F6A013901ADB658
:100E6000BEB62091070431E03093720320939403BF
:100E70001092730310929503982E7C0180910504C3
:100E800090910604D7016D917D01DC01ED91FC91FB
:100E90000190F081E02D09958E2D8919811770F34D
:100EA00081E00E947A01B60190E080E00E94C703D1
:100EB000002309F45FC0102F110F100F612F8091D4
:100EC00007040E9438011092710380937003181771
:100ED000A9F080E00FB6F894BEBE0FBEADBEDF91A4
:100EE000CF911F910F91FF90EF90DF90CF90BF9027
:100EF000AF909F908F907F906F900895EDB7FEB761
:100F0000E11BF1090FB6F894FEBF0FBEEDBF8DB720
:100F10009EB701966C017C014C0180910504909173
:100F20000604DC01ED91FC910284F385E02D099526
:100F3000F40181934F018E2F8C19811770F3630197
:100F400010E0C7010E941E01D70112969C911297D2
:100F50008913BFCF8C9111969C9189279827892757
:100F6000F601819391936F011F5FF3E0EF0EF11C87
:100F70000113E7CF81E0AECF0F93CF93DF9300D083
:100F8000CDB7DEB780E2898383E08A8300E030E07A
:100F900020E04AE050E062E0CE0101960E941C078A
:100FA0000F900F90DF91CF910F910895FB01019069
:100FB0000020E9F73197AF01461B570BDC01ED919B
:100FC000FC910280F381E02D09940F931F93CF933E
:100FD000DF93EC010E9479028C016EE371E0CE0197
:100FE0000E94D607800F911FDF91CF911F910F9123
:100FF0000895CF93C42F0E94E507CC2351F0809130
:10100000F60381111092F603809108048111109269
:101010000804CF9108950F931F93CF93DF938C0112
:101020000E9406048823C9F0C0917505D091760509
:10103000F8014481558160817181E881F9810280E4
:10104000F381E02DCE0109956EE371E0CE01DF91D1
:10105000CF911F910F910C94D607DF91CF911F91E3
:101060000F910895EC01009739F00E94D6076EE3C6
:1010700071E0CE010E94D6070E94220FAF92BF926C
:10108000CF92DF92EF92FF920F931F93CF93DF9354
:101090008C0161E471E01816190664F50E943D1D8B
:1010A000EC01009729F1A0904804B0904904E09029
:1010B0004404F090450420914A0430914B04C090C0
:1010C0004604D0904704FC01281B390BCF018C1B30
:1010D0009D0B8A159B05A4F4C9018E0F9F1FB601B5
:1010E0000E949C1CD701A80FB91F8C918193EECF51
:1010F00066E771E080914204909143040E943208B7
:10110000C7010E94D91DD0934504C0934404109296
:101110004B0410924A0480914804909149049093A2
:101120004D0480934C041093470400934604DF91D0
:10113000CF911F910F91FF90EF90DF90CF90BF90D4
:10114000AF900895CF93C82F80914804909149049F
:1011500020914604309147048217930721F4880FA9
:10116000991F0E943E08E0914404F091450480914B
:101170004C0490914D049C012F5F3F4F30934D04E0
:1011800020934C04E80FF91FC08320914C04309148
:101190004D0480914604909147042817390721F4A3
:1011A00010924D0410924C0480914804909149048F
:1011B00001969093490480934804CF9108950F932A
:1011C0001F93CF93DF93EC0188819981009759F0A9
:1011D0002A813B812617370730F081E0DF91CF91DC
:1011E0001F910F9108958B016F5F7F4F0E94621EC8
:1011F000009759F0998388831B830A832C813D8152
:10120000232B59F7FC011082E8CF80E0E7CF0F9342
:101210001F93CF93DF93EC010C811D810F5F1F4F54
:10122000B8010E94DF08882391F0288139818C81E0
:101230009D816FE072E0820F931F0E94281F1D8323
:101240000C83CE01DF91CF911F910F910895CE01B4
:101250000E940507F6CFEF92FF920F931F93CF9353
:10126000DF93EC01FB01E080F180E114F10411F166
:101270000481158101151105A9F08C819D81080F4C
:10128000191FB801CE010E94DF08882399F0288138
:1012900039818C819D81B701820F931F0E94281F85
:1012A0001D830C83CE01DF91CF911F910F91FF9091
:1012B000EF900895CE010E940507F4CFEF92FF92C0
:1012C0000F931F93CF93DF93EC017B018A01BA0147
:1012D0000E94DF0881110BC0CE010E940507CE01DC
:1012E000DF91CF911F910F91FF90EF9008951D8393
:1012F0000C83B701888199810E94281FF0CFFB01E0
:1013000001900020E9F73197AF01461B570B0C9471
:101310005E090F931F93CF93DF93CDB7DEB7A197ED
:101320000FB6F894DEBF0FBECDBF8C01CB01BA0162
:10133000F8011182108213821282158214822AE02F
:10134000AE014F5F5F4F0E94BC16BE016F5F7F4FC3
:10135000C8010E947F09A1960FB6F894DEBF0FBEA8
:10136000CDBFDF91CF911F910F910895EF92FF9222
:101370000F931F93CF93DF93CDB7DEB7A1970FB62F
:10138000F894DEBF0FBECDBF7C01CB01BA01F701DF
:101390001182108213821282158214828E010F5FD5
:1013A0001F4F22E044E00E949316009789F0BC0191
:1013B000C7010E947F09A1960FB6F894DEBF0FBE49
:1013C000CDBFDF91CF911F910F91FF90EF900895C6
:1013D000C7010E940507EFCF0F931F93CF93DF93B1
:1013E000CDB7DEB761970FB6F894DEBF0FBECDBFA5
:1013F0008C01CB01F80111821082138212821582B6
:1014000014824AE0BE016F5F7F4F0E94DE16BE016C
:101410006F5F7F4FC8010E947F0961960FB6F894F5
:10142000DEBF0FBECDBFDF91CF911F910F91089509
:10143000FB01DC0111961C921E9213961C921E92C7
:10144000129715961C921E9214978617970749F0CB
:10145000608171816115710521F0448155810C9481
:101460005E090895FC011182108213821282158296
:1014700014826115710551F0FB0101900020E9F71C
:101480003197AF01461B570B0C945E090895EF92FC
:10149000FF920F931F93CF93DF93CDB7DEB72897BB
:1014A0000FB6F894DEBF0FBECDBF88E5809307046A
:1014B00081EE93E0909306048093050410927103EB
:1014C0001092700310927303109295031092DC0334
:1014D00011E01093DB031092D60361E082E10E94D9
:1014E000380361E083E10E9438038091B9008E7F68
:1014F0008093B9008091B9008D7F8093B90088E412
:101500008093B80085E48093BC0087ED91E09093D0
:101510006F0380936E0388ED91E090936D03809349
:101520006C0386E38F8382E8888703E02FEF33E044
:101530004AE050E062E0CE0107960E941C0781114C
:101540001FC00091F1031091F20360EB71E0CE0136
:1015500001960E94320ACE010196F8010995CE014A
:1015600001960E94170728960FB6F894DEBF0FBEAB
:10157000CDBFDF91CF911F910F91FF90EF90089514
:1015800080E28F838FE2888701E09E012F5F3F4FCB
:101590004AE050E062E0CE0107960E941C078823D3
:1015A00081F289819A81807F9927809751F60E94E4
:1015B000BC07882331F2E090F103F090F20367EC6E
:1015C00071E0CE0101960E94320ACE010196F70128
:1015D0000995CE0101960E9417070E94BC07882337
:1015E00011F2109308040091F1031091F2036AEDD7
:1015F00071E0ADCF0F931F93CF93DF93CDB7DEB7DD
:1016000067970FB6F894DEBF0FBECDBF85E0E5EF5C
:10161000F1E0DE01539601900D928A95E1F7209159
:1016200085043091860490E080E04EE2B901082EF6
:1016300002C0759567950A94E2F760FD07C0E3E183
:10164000F0E0EC0FFD1FE80FF91F40830196843096
:10165000910561F70091400410914104BE016D5E57
:101660007F4FCE0107960E94320A60EF71E0CE01F3
:101670000D960E94320ABE01695F7F4FCE010D9622
:101680000E942B09BC01CE0101960E94180ACE01CE
:101690000196F8010995CE0101960E941707CE0127
:1016A0000D960E941707CE0107960E9417076796AE
:1016B0000FB6F894DEBF0FBECDBFDF91CF911F9163
:1016C0000F9108950F931F93CF93DF93CDB7DEB79C
:1016D0006F970FB6F894DEBF0FBECDBF8DE0EFEF72
:1016E000F1E0DE01119601900D928A95E1F72091CB
:1016F00087043091880490E080E04EE2B901082E22
:1017000002C0759567950A94E2F760FD07C0E1E0B5
:10171000F0E0EC0FFD1FE80FF91F408301968C30BD
:10172000910561F70091400410914104BE016F5F83
:101730007F4FCE0144960E94320A6AEF71E0CE01DB
:101740004A960E94320ABE016C5E7F4FCE014A96D5
:101750000E942B09BC01CE010E960E94180ACE01F0
:101760000E96F8010995CE010E960E941707CE013C
:101770004A960E941707CE0144960E9417076F965B
:101780000FB6F894DEBF0FBECDBFDF91CF911F9192
:101790000F9108950F931F93CF93DF93CDB7DEB7CB
:1017A00062970FB6F894DEBF0FBECDBF0091400424
:1017B0001091410469E874E0CE0107960E94320A54
:1017C0006CE072E0CE010D960E94320ABE01695FA4
:1017D0007F4FCE010D960E942B09BC01CE010196D0
:1017E0000E94180ACE010196F8010995CE010196D2
:1017F0000E941707CE010D960E941707CE0107968B
:101800000E94170762960FB6F894DEBF0FBECDBFD9
:10181000DF91CF911F910F9108956733D1F19CF41F
:10182000623379F13CF4603339F14CF58AEA613284
:1018300021F10895643349F134F1653341F186E3D0
:101840006633D9F008956F3651F14CF4693329F1BC
:1018500014F16F3351F18AE3633679F008956337F9
:1018600011F124F48DE3603741F008956637C9F033
:101870008CE3683711F0089580E30C94A20881E3AB
:10188000FCCF82E3FACF83E3F8CF84E3F6CF85E39E
:10189000F4CF87E3F2CF88E3F0CF89E3EECF8BE399
:1018A000ECCF8EE3EACF8FE3E8CF0E94FA0A0E94E2
:1018B000620B0C94CA0B0F931F93CF93DF93CDB79A
:1018C000DEB762970FB6F894DEBF0FBECDBF84E4DB
:1018D0008093F3030091F1031091F20380E897E302
:1018E0000E94F304892B09F05EC0CE0101960E948C
:1018F0006806892B09F057C04B815C8170E060E07D
:10190000CE0107960E94890961E172E0CE010D9631
:101910000E94320ABE01695F7F4FCE010D960E9480
:101920002B09BC01CE0101960E94180ACE01019636
:10193000F8010995CE0101960E941707CE010D9678
:101940000E941707CE0107960E94170780E391E2D5
:101950000E94F3048C0164E670E080E090E00E9455
:10196000C703012BA9F00091F1031091F20365E286
:1019700072E0CE0101960E94320ACE010196F80172
:101980000995CE0101960E94170781E08093F60326
:1019900062960FB6F894DEBF0FBECDBFDF91CF9138
:1019A0001F910F91089540E050E0BA01A9CFCF9365
:1019B000C42F0E94E507CC2329F00E945B0CCF9135
:1019C0000C94470ACF9108951F920F920FB60F9271
:1019D00011242F933F934F935F936F937F938F9334
:1019E0009F93AF93BF93EF93FF938BEB94E00E9491
:1019F0005702FF91EF91BF91AF919F918F917F918E
:101A00006F915F914F913F912F910F900FBE0F906B
:101A10001F9018951F920F920FB60F9211242F93BB
:101A20008F939F93EF93FF93E091CB04F091CC04BD
:101A30008081E091D104F091D20482FD1BC090819D
:101A40008091D4048F5F8F732091D504821741F069
:101A5000E091D404F0E0E554FB4F958F8093D404DB
:101A6000FF91EF919F918F912F910F900FBE0F904B
:101A70001F9018958081F4CF1F920F920FB60F928E
:101A800011242F933F938F939F93AF93BF93809194
:101A9000640390916503A0916603B0916703309150
:101AA000630323E0230F2D3758F50196A11DB11DC7
:101AB000209363038093640390936503A09366036C
:101AC000B09367038091680390916903A0916A03C2
:101AD000B0916B030196A11DB11D80936803909393
:101AE0006903A0936A03B0936B03BF91AF919F9179
:101AF0008F913F912F910F900FBE0F901F901895CF
:101B000026E8230F0296A11DB11DD2CF1F920F927E
:101B10000FB60F9211242F933F934F935F936F93C0
:101B20007F938F939F93AF93BF93EF93FF93809196
:101B3000B900887F803609F44AC0F0F5883209F48C
:101B4000A7C018F5803109F49BC0B8F4882309F4C4
:101B5000F9C0883009F494C0FF91EF91BF91AF9123
:101B60009F918F917F916F915F914F913F912F91B5
:101B70000F900FBE0F901F901895883109F488C000
:101B8000803251F78093DA0314C0803409F49DC089
:101B900040F48033B9F38833F9F68093DA0385ECA7
:101BA000B0C0803509F485C0883509F496C0883402
:101BB00099F60E943C04D0CF883909F48CC038F5DE
:101BC000883729F050F4883611F0803729F683E001
:101BD0008093DC031092620357C0883809F47BC0FD
:101BE000803919F0803809F0B7CF809162038032D4
:101BF00008F071C0E091620381E08E0F8093620370
:101C00008091BB00F0E0EE5BFC4F80833DC0803BE9
:101C100039F0E0F4803A09F479C0883A09F09CCFB1
:101C200084E08093DC031092410310924003E09122
:101C30006E03F0916F0309958091400381110FC0ED
:101C400081E0809340031092200309C0803C09F496
:101C5000A6CF883C09F4A3CF883B09F07DCFE09163
:101C6000410381E08E0F80934103F0E0E05EFC4F82
:101C700080818093BB00909141038091400329C0F3
:101C80008091D7038093BB0085EC8093BC0064CF28
:101C90009091D9038091D803981758F5E091D90312
:101CA00081E08E0F8093D903F0E0EA54FC4F8081ED
:101CB000E9CFE091D90381E08E0F8093D903809121
:101CC000BB00F0E0EA54FC4F80839091D9038091EF
:101CD000D8039817C8F285E8D8CFE091D90381E0FE
:101CE0008E0F8093D9038091BB00F0E0EA54FC4F43
:101CF00080838091DB0381115CCF81E08093D603E8
:101D000084EA8093BC001092DC0326CF85EC80939C
:101D1000BC001092DC0380916203803230F4E091C9
:101D20006203F0E0EE5BFC4F10826091620370E0B2
:101D3000E0916C03F0916D0382E493E009951092B9
:101D400062030ACF1092DA0334CF1F920F920FB6BC
:101D50000F9211242F933F934F935F936F938F9321
:101D60009F93AF93BF93CF93DF93EF93FF93E09154
:101D7000DF03F091E003309749F0A685B78595859C
:101D8000868D81FF15C08C918923A9F4FF91EF9175
:101D9000DF91CF91BF91AF919F918F916F915F91A3
:101DA0004F913F912F910F900FBE0F901F9018955C
:101DB0008C91892359F7A389B4899C918589809551
:101DC00089238C93868997890197F1F7408D518DEE
:101DD000C685D785658589E030E020E0DA01119776
:101DE000F1F7369527959881962309F03160815057
:101DF000A9F7868D81FF02C0209530958091DE0382
:101E000090E001968F7399274091DD034817B1F058
:101E1000A091DE03B0E0AA0FBB1FA056BD4F2D93CB
:101E20003C938093DE03828D938D0197F1F7A38914
:101E3000B4898C919589892B8C93A8CF868D8160EC
:101E4000868FF1CF61E08DE00E94660361E08DE056
:101E50000E9438036AEF70E080E090E00E94C703C0
:101E600060E08DE00E9438036AEF70E080E090E06F
:101E70000E94C703EBCFCF93DF931092BE04109262
:101E8000BD0488EE93E0A0E0B0E08093BF0490939F
:101E9000C004A093C104B093C2042AE031E030939F
:101EA000BC042093BB0425EC30E03093C80420939D
:101EB000C70424EC30E03093CA042093C90420EC1A
:101EC00030E03093CC042093CB0421EC30E030930D
:101ED000CE042093CD0422EC30E03093D004209344
:101EE000CF0426EC30E03093D2042093D10410923A
:101EF000D4041092D5041092D6041092D7041092F4
:101F0000E4031092E3038093E5039093E603A09328
:101F1000E703B093E8032CE131E03093E203209330
:101F2000E10310926A051092700510926F051092ED
:101F300071051092720510927305109274052BEBC7
:101F400034E0309376052093750540E052EC61E073
:101F500070E0409358055093590560935A0570936B
:101F60005B052DE030E030935D0520935C052BE2AE
:101F700020935E052DE220935F054CED55E060E077
:101F800070E0409360055093610560936205709323
:101F9000630527ED3CE0309365052093640529EF48
:101FA00037E030936705209366052DE03CE03093E1
:101FB0006905209368051092200410921F048093F5
:101FC000210490932204A0932304B09324048EE26E
:101FD00091E090931E0480931D041092340410929B
:101FE0003304109236041092350410923804109283
:101FF000370410923A041092390460913B046E7FCA
:102000006D7F60933B046695617081E068278BE08B
:102010000E94380361E08BE00E946603EBEDF1E083
:10202000E491E0932D04E7ECF1E0E491F0E0EE0FB1
:10203000FF1FEE54FE4F8591949190932F0480934F
:102040002E0460E08AE00E94660380913B0481FDDB
:1020500004C061E08AE00E9438038AE0809329048A
:10206000EAEDF1E0E491E0932A04E6ECF1E0E4919A
:10207000F0E0EE0FFF1FE855FE4F8591949190938D
:102080002C0480932B041092470410924604109263
:1020900049041092480410924B0410924A04109282
:1020A0004D0410924C04109243041092420482E0BA
:1020B00090E00E943D1D9093450480934404892B39
:1020C00011F40E94220F82E090E0909347048093E5
:1020D000460483E080933C0482E080933D0484E0E6
:1020E00080933E0485E080933F04CBE0D8E0D0931A
:1020F0004104C093400462E083E00E94660362E012
:1021000082E00E94660362E084E00E94660362E06F
:1021100085E00E9466031092090410920A0410924E
:102120000B0410920C0488E893E1A0E0B0E08093E7
:10213000ED039093EE03A093EF03B093F003D093DD
:10214000F203C093F103DF91CF910895CF93DF9312
:10215000CDB7DEB7C157D1090FB6F894DEBF0FBEB9
:10216000CDBF789484B5826084BD84B5816084BD20
:1021700085B5826085BD85B5816085BD80916E0025
:10218000816080936E001092810080918100826056
:102190008093810080918100816080938100809193
:1021A00080008160809380008091B1008460809382
:1021B000B1008091B00081608093B00080917A007E
:1021C000846080937A0080917A00826080937A00A4
:1021D00080917A00816080937A0080917A00806893
:1021E00080937A001092C10061E080915C050E94AA
:1021F000660361E080915C050E94380364EC79E03D
:1022000080E090E00E94C70300917505109176056B
:10221000409058055090590560905A0570905B05A4
:1022200060E079E08DE390E0A30192010E94B01C90
:102230002150310941095109569547953795279500
:10224000D8015096ED91FC9182E080834114B1EE6B
:102250005B066104710421F02115E0E13E07A8F05E
:10226000D8015096ED91FC91108260E874E88EE1FF
:1022700090E0A30192010E94B01C21503109410954
:1022800051095695479537952795D8011C96ED919C
:10229000FC911D9730831E96ED91FC911F97208332
:1022A00058961C9258975496ED91FC91559786E05C
:1022B00080835296ED91FC91539780818061808359
:1022C0005296ED91FC91539780818860808352965D
:1022D000ED91FC9153978081806880835296ED91B7
:1022E000FC9180818F7D808360E080915C050E94FD
:1022F000380310923804109237041092360410926A
:102300003504109234041092330482E09DE09093DF
:102310003A048093390490912904963108F047C01B
:102320002FE636E0309334042093330420E03DE080
:10233000309336042093350427EB39E0309338048A
:10234000209337042091680084E0983048F031E011
:102350009E3008F430E081E001C0880F3A95EAF73A
:10236000822B809368002DE630E0983050F02BE609
:1023700030E09E3030F02CE630E0963110F030E066
:1023800020E03093310420933004292F30E098303E
:1023900008F0F1C081E001C0880F9A95EAF78093B8
:1023A00032048091390490913A040197F1F70E9428
:1023B00037060E94FA0360934E0470934F04809393
:1023C0005004909351040E94FA0A0E94620B0E94EA
:1023D000CA0B0E945B0C0E94470A90E080E0FC015F
:1023E000EE7FE096FFAFEEAFE0978C010160E296E2
:1023F0001FAF0EAFE2978091750590917605DC01D5
:10240000ED91FC910284F385E02D09958C0180917A
:102410005E05082E000C990B0817190709F0B8C0C3
:1024200010916A0501E000936A050E94FA03609327
:102430006B0570936C0580936D0590936E050E94FB
:10244000FA036093710570937205809373059093FE
:1024500074051092700510926F05E0916405F0917B
:102460006505412F402760915E05309709F0A4C0B3
:102470000E94FA0300917105109172052091730575
:1024800030917405601771078207930718F16C503B
:102490007E4F8F4F9F4F60937105709372058093AD
:1024A0007305909374050E940604882341F081E02F
:1024B00020916F0530917005232B09F080E0282FC3
:1024C00030E03093700520936F05682F80915C0594
:1024D0000E94380380913C04882341F00E940F033E
:1024E000E2960EAD1FADE297892B21F0E0960EAD7E
:1024F0001FADE09780913D04882309F476C00E94C7
:102500000F03892B09F071C0026080913E0488237B
:1025100009F46DC00E940F03892B09F068C00460A4
:1025200080913F04882309F464C00E940F03892B23
:1025300009F05FC0086080918504909186040817B7
:10254000190731F010938604009385040E94FA0A5B
:1025500011E08DE194E00E94E605892B09F4C1C0E9
:102560008DE194E00E94FE0590FF45C080935204E7
:1025700010938404EECF9E3040F42850310981E05E
:1025800001C0880F2A95EAF70ACF2E503109F7CFFC
:1025900060915F05862F062E000C990B081719070E
:1025A00089F440916A0510926A05E0916605F09100
:1025B0006705309709F45CCF809175059091760599
:1025C000099556CF0E940604882309F451CFE09163
:1025D0006805F0916905309709F44ACF602F809122
:1025E000750590917605099543CF0D7F8ECF0B7FB2
:1025F00097CF077FA0CFE0918404E23308F0A9CF02
:10260000209152042C3451F1203509F0A2CFE3304F
:1026100048F491E09E0F90938404F0E0E35EFB4F5A
:1026200085AB97CFE33009F094CF9091530430916C
:10263000540420E5290F230F28130AC0892F990F6E
:10264000990B932B90938804809387040E94620BCC
:10265000809184048F5F809384047BCF6E2F70E021
:10266000E13059F020915304022E000C330BA901E4
:102670004F5F5F4F461757073CF0EF5FE0938404CE
:10268000635E7B4FFB01CCCF2E5F3F4F2617370792
:1026900009F05FCFEDE1F4E090E0BF016D517440CF
:1026A0006217730724F465A9960F3196F6CF891344
:1026B000CFCF235E3B4FD901D5961C9283E3E2E551
:1026C000F4E0DE01119601900D928A95E1F7BE01CA
:1026D0006D5F7F4F89E894E00E942F1F0E94CA0B14
:1026E000B7CF8091480490914904892B09F482C0A6
:1026F0000E94FA0300914E0410914F04209150045F
:1027000030915104061717072807390708F072C0DF
:1027100020914804309149042115310541F46CE4BD
:1027200072E080914204909143040E943208E0914B
:102730004404F091450480914A0490914B04AC010B
:102740004F5F5F4F50934B0440934A04E80FF91FCB
:10275000008121503109309349042093480480912D
:102760004604909147044817590721F410924B04EE
:1027700010924A042115310591F0AC0197FF02C077
:102780004D5F5F4F559547955595479542175307B0
:1027900034F097FD0196959587950E943E088DE14E
:1027A00094E00E9421066BE471E08DE194E00E94C8
:1027B0002E05002E000C110BB80177278DE194E057
:1027C0000E942E05B801655B7F4F77278DE194E06D
:1027D0000E942E050E9437060E94FA036A567F4F18
:1027E0008F4F9F4F60934E0470934F04809350041B
:1027F000909351040E94FA03AE966CAF7DAF8EAFFA
:102800009FAFAE978091F603811105C090910804A7
:10281000992309F4ECC14091090450910A04609194
:102820000B0470910C04AE960CAD1DAD2EAD3FADFA
:10283000AE97401751076207730708F0D8C1882385
:1028400009F4B8C080E090EE0E94F304892BD1F522
:102850002114310409F0D8C1CE01C4960E94680643
:102860001C01892B09F0D0C16CA97DA990E080E002
:102870000E943F1920E030E04FE253E40E94A0198B
:1028800020E03FEF4FE757E40E94111B20E030E0CB
:1028900044E352E40E94A41A6B017C016EA97FA953
:1028A00090E080E00E943F1920E030E048EC52E4E4
:1028B0000E94A01920E03FEF4FE757E40E94111B50
:1028C0004B015C012114310409F0ADC1C0920D042B
:1028D000D0920E04E0920F04F09210048092110442
:1028E00090921204A0921304B0921404A7019601CE
:1028F000C701B6010E94891C81118CC1A5019401F8
:10290000C501B4010E94891C811184C123EC35EFFB
:102910004CE851E4C701B6010E94A0192B013C010B
:1029200028EB3EE143E753E4C701B6010E94A51A34
:102930009B01AC01C301B2010E94111B0E948B1BC1
:102940002B013C0120E030E048EC52E4C501B40129
:102950000E94111B21E835E943EC50E40E94A019C4
:10296000A30192010E94A0192B013C0123E333E94A
:1029700048E853E4C701B6010E94A51A9B01AC01C7
:10298000C301B2010E94111B23E333EB48E553E47A
:102990000E94A01920E030E04AE754E40E94A01908
:1029A0000E94BD1B60931504709316048093170456
:1029B0009093180480910804882309F46BC0409018
:1029C0001504509016046090170470901804C30109
:1029D000B2010E943F199B01AC010E94891C811128
:1029E00029C011E0411618EE510613E0610671048A
:1029F00008F5C301B20120E039E841E450E00E944B
:102A0000D21C08E10E94FF1CC90120E22CAB21E688
:102A10002DAB9EAB8FABCE01C6960E941E0188AF38
:102A200000E030E020E04AE050E065E0CE01C496EE
:102A30000E941C0780E227968FAF279788E0289690
:102A40008FAF289702E09E012C5C3F4F4CE050E096
:102A500062E0CE018A5B9F4F0E941C0781113DC13D
:102A60000091F1031091F2036AE872E0CE01C4967E
:102A70000E94320ACE01C496F8010995CE01C4968F
:102A80000E94170710921A041092190410921C0445
:102A900010921B040091F1031091F20360911B044A
:102AA00070911C04CE01825A9F4F0E94EC096091E4
:102AB000190470911A04CE01885A9F4F0E94EC09A4
:102AC00040911504509116046091170470911804F8
:102AD000CE018E5A9F4F0E94890940911104509156
:102AE00012046091130470911404CE01845B9F4F13
:102AF0000E94B60940910D0450910E0460910F049C
:102B000070911004CE018A5B9F4F0E94B6096BE959
:102B100072E0CE01C4960E94320ABE016A5B7F4F0A
:102B2000CE01C4960E942B090E940709BE01645B76
:102B30007F4F0E942B090E940709BE016E5A7F4FEA
:102B40000E942B090E940709BE01685A7F4F0E940C
:102B50002B090E940709BE01625A7F4F0E942B0970
:102B6000BC01CE018C599F4F0E94180ACE018C598E
:102B70009F4FF8010995CE018C599F4F0E9417076E
:102B8000CE01C4960E941707CE018A5B9F4F0E9418
:102B90001707CE01845B9F4F0E941707CE018E5A04
:102BA0009F4F0E941707CE01885A9F4F0E94170718
:102BB000CE01825A9F4F0E9417078091ED0390919A
:102BC000EE03A091EF03B091F003AE960CAD1DADF6
:102BD0002EAD3FADAE97800F911FA21FB31F809304
:102BE000090490930A04A0930B04B0930C0480E0B2
:102BF00090E0892B09F4FFCB0E944302882309F45B
:102C0000FACB0E940000F7CB812C912C5401750166
:102C1000640158CE109215041092160410921704F5
:102C200010921804C7CE0091F1031091F203289678
:102C30001FAE1EAE28972A961FAE1EAE2A972C9660
:102C40001FAE1EAE2C974AE0BE016C5C7F4FC101E7
:102C50000E94B116BE016C5C7F4FCE018A5B9F4F14
:102C60000E947F096EE772E0CE01845B9F4F0E9455
:102C7000320ABE016A5B7F4FCE01845B9F4F0E9488
:102C80002B09BC01CE01C4960E94180ACE01C4963D
:102C9000F8010995CE01C4960E941707CE01845B06
:102CA0009F4F0E941707CE018A5B9F4F0E94170714
:102CB00000E010E020EC3FE700930D0410930E04B9
:102CC00020930F0430931004009311041093120406
:102CD00020931304309314046DCE2EA93FA9309392
:102CE000F8032093F7038CA99DA99093FA0380938E
:102CF000F90330931A042093190490931C048093D1
:102D00001B04C8CECF93DF93CDE1D4E08FA198A56B
:102D10000E94D91D8EE291E099838883CE01DF91D4
:102D2000CF910C942106EF920F931F93CF93DF93D3
:102D3000E80134E047FD34E1042E000C550B57FF49
:102D400003C0519541955109E32E022F242FAE0166
:102D50000E94F816CE01DF91CF911F910F91EF9055
:102D60000895BB274A3031F4992322F4BDE29095AF
:102D700081959F4F0C94DF16BB27FA01A62F62178F
:102D8000710581059105330B30FB66F0AA27660FAC
:102D9000771F881F991FAA1FA21710F0A21B639507
:102DA0003850A9F7A05DAA3308F0A95DA19336F7C2
:102DB000B111B1931082CA010C942F19BB27FB01EA
:102DC0005527AA27880F991FAA1FA41710F0A41B24
:102DD00083955051B9F7A05DAA3308F0A95DA1937E
:102DE000009779F7B111B1931192CB010C942F197F
:102DF000A9E0B0E0EEEFF6E10C94641A6A01F22E5D
:102E0000B02E102FFBE3AF2EA01608F41BE31F5FBC
:102E1000012F27E0AE014F5F5F4F0E945718BC01A2
:102E20008981982F9970913009F43FC09BE2E1FCB1
:102E300004C09E2D9170E0FC3AC05E2D5071E82FC9
:102E4000E87083FF46C084E0911101C083E0EF2D5C
:102E5000E81B8F1508F0E0E0D6018E2F20E2552305
:102E600051F1992329F0D6019C93C60101966C017A
:102E700096012D5F3F4FE2FE24C08EE4D6018C9375
:102E800091E411969C93119712968C93D9018E2FF1
:102E900090E281111BC0E20FF32FF11D10828EEF23
:102EA0009FEF2996ECE00C94801A9DE2C6CF90E249
:102EB000C4CF2D9381508111FCCFCE0ED11CE0E008
:102EC000D0CF8EE6D6018C9391E6DBCF9D938150D7
:102ED000E0CF482F447082FF3DC084E0911101C0D3
:102EE00083E08F1510F4EF2DE81BD6018E2F20E222
:102EF000552309F1992329F0D6019C93C601019627
:102F00006C0196012D5F3F4FE2FE1BC089E4D601A4
:102F10008C938EE411968C93119786E412968C9381
:102F2000D9018E2F90E2882309F4B5CF9D9381506B
:102F3000FACF2D9381508111FCCFCE0ED11CE0E051
:102F4000D9CF89E6D6018C938EE611968C93119792
:102F500086E6E4CF9B0177FF02C030E020E0A1E0ED
:102F6000B0E0911102C0B0E0A0E0F9013196AE0FDF
:102F7000BF1F8B2C912CBB2009F461C05401EFEFD3
:102F8000AE1ABE0AAA0DBB1DFA161B0619F014F0E4
:102F90004F2D4A1B511188C0E3FC59C07601A42F64
:102FA000B0E2A1114FC0C40ED11C992309F45BC03B
:102FB00040E0D6011196F60190836D01552309F486
:102FC00048C0012F060F9A81582F507184FF03C00B
:102FD000913309F4015010160CF047C0093008F085
:102FE00008E0EEE2FE2E5B01A01AB1088501919483
:102FF000819491082F3F320729F4D601FC92F60103
:1030000031966F016217730794F1021713077CF56D
:10301000DB01A21BB30BAA24A394B12CAC0EBD1EE2
:10302000AA0DBB1D11968C9121503109D601119624
:1030300028153905F4F0F60180836D01DBCFB12C42
:10304000A12CA0CFF701B1937F01A150AACF91117C
:10305000B0CFD601942F50E302C05D9391509111EF
:10306000FCCFC40ED11C40E0ACCF01E0BACF80E36E
:10307000DBCF6217730731F4963388F4953311F47C
:10308000552369F0F6018083FD01842F90E28111C0
:1030900008C0A40FB11D1C9290E080E002CF81E334
:1030A000F1CF91938150F3CF911183CF8ACF283004
:1030B00008F027E03327DA01990F311D87FD916071
:1030C00000966105710539F432602E5F3D9330E35F
:1030D0002A95E1F708959F3F30F08038710561052A
:1030E00009F03C5F3C5F3D93913008F08068911D92
:1030F000DF93CF931F930F93FF92EF92192F987F37
:103100009695E92F96959695E90FFF27E651FF4F83
:1031100099273327EE24FF24A701E701059008949F
:10312000079428F4360FE71EF81E491F511D660F3D
:10313000771F881F991F0694A1F70590079428F41C
:10314000E70EF81E491F561FC11D770F881F991FD4
:10315000661F0694A1F70590079428F4F80E491FFE
:10316000561FC71FD11D880F991F661F771F069412
:10317000A1F70590079420F4490F561FC71FD81FC9
:10318000990F661F771F881F0694A9F784911095E1
:10319000177041F0D695C79557954795F794E794E2
:1031A0001A95C1F7E0E9F0E0689415901591359112
:1031B0006591959105907FE27395E118F10A430BB3
:1031C000560BC90BD009C0F7E10CF11E431F561F67
:1031D000C91FD01D7EF4703311F48A95E6CFE894B0
:1031E000015030F0080F0AF40027021708F4202FCE
:1031F0002395022F7A3328F079E37D932A95E9F716
:1032000010C07D932A9589F6069497956795379512
:1032100017951794E118F10A430B560BC90BD00907
:1032200098F023957E9173957A3308F070E37C9340
:103230002013B8F77E9170617D9330F0839571E330
:103240007D9370E32A95E1F71124EF90FF900F91A1
:103250001F91CF91DF91992787FD90950895DC010B
:10326000FC01672F71917723E1F7329704C07C91BD
:103270006D9370836291AE17BF07C8F30895E89409
:1032800009C097FB3EF490958095709561957F4FAE
:103290008F4F9F4F9923A9F0F92F96E9BB2793955C
:1032A000F695879577956795B795F111F8CFFAF46C
:1032B000BB0F11F460FF1BC06F5F7F4F8F4F9F4F9D
:1032C00016C0882311F096E911C0772321F09EE8FB
:1032D000872F762F05C0662371F096E8862F70E061
:1032E00060E02AF09A95660F771F881FDAF7880F3B
:1032F0009695879597F90895990F0008550FAA0B91
:10330000E0E8FEEF16161706E807F907C0F01216F8
:103310001306E407F50798F0621B730B840B950BFB
:1033200039F40A2661F0232B242B252B21F4089550
:103330000A2609F4A140A6958FEF811D811D0895ED
:103340000E94B3190C94241A0E94161A38F00E9495
:103350001D1A20F0952311F00C940D1A0C94131AD9
:1033600011240C94581A0E94351A70F3959FC1F3DA
:10337000950F50E0551F629FF001729FBB27F00D23
:10338000B11D639FAA27F00DB11DAA1F649F662778
:10339000B00DA11D661F829F2227B00DA11D621FC7
:1033A000739FB00DA11D621F839FA00D611D221F81
:1033B000749F3327A00D611D231F849F600D211D65
:1033C000822F762F6A2F11249F5750409AF0F1F0E8
:1033D00088234AF0EE0FFF1FBB1F661F771F881F51
:1033E00091505040A9F79E3F510580F00C940D1A62
:1033F0000C94581A5F3FE4F3983ED4F38695779582
:103400006795B795F795E7959F5FC1F7FE2B880FF6
:10341000911D9695879597F9089597F99F6780E88C
:1034200070E060E008959FEF80EC089500240A9416
:103430001616170618060906089500240A9412168F
:103440001306140605060895092E0394000C11F4C2
:10345000882352F0BB0F40F4BF2B11F460FF04C06F
:103460006F5F7F4F8F4F9F4F089557FD9058440FC8
:10347000551F59F05F3F71F04795880F97FB991FD3
:1034800061F09F3F79F08795089512161306140690
:10349000551FF2CF4695F1DF08C01616170618061D
:1034A000991FF1CF86957105610508940895E894F8
:1034B000BB2766277727CB0197F908952F923F9274
:1034C0004F925F926F927F928F929F92AF92BF9234
:1034D000CF92DF92EF92FF920F931F93CF93DF93E0
:1034E000CDB7DEB7CA1BDB0B0FB6F894DEBF0FBE3D
:1034F000CDBF09942A88398848885F846E847D848A
:103500008C849B84AA84B984C884DF80EE80FD808B
:103510000C811B81AA81B981CE0FD11D0FB6F89401
:10352000DEBF0FBECDBFED010895A29FB001B39FD6
:10353000C001A39F700D811D1124911DB29F700DBC
:10354000811D1124911D08955058BB27AA270E9460
:10355000BC1A0C94241A0E94161A38F00E941D1AE4
:1035600020F039F49F3F19F426F40C94131A0EF44A
:10357000E095E7FB0C940D1AE92F0E94351A58F3D9
:10358000BA17620773078407950720F079F4A6F548
:103590000C94571A0EF4E0950B2EBA2FA02D0B01A8
:1035A000B90190010C01CA01A0011124FF27591B88
:1035B00099F0593F50F4503E68F11A16F040A22F8E
:1035C000232F342F4427585FF3CF469537952795FF
:1035D000A795F0405395C9F77EF41F16BA0B620BFE
:1035E000730B840BBAF09150A1F0FF0FBB1F661F45
:1035F000771F881FC2F70EC0BA0F621F731F841F88
:1036000048F4879577956795B795F7959E3F08F0AD
:10361000B0CF9395880F08F09927EE0F979587956F
:1036200008950E94251B0C94241A0E941D1A58F01C
:103630000E94161A40F029F45F3F29F00C940D1AED
:1036400051110C94581A0C94131A0E94351A68F3ED
:103650009923B1F3552391F3951B550BBB27AA274B
:1036600062177307840738F09F5F5F4F220F331F85
:10367000441FAA1FA9F335D00E2E3AF0E0E832D04D
:1036800091505040E695001CCAF72BD0FE2F29D050
:10369000660F771F881FBB1F261737074807AB0722
:1036A000B0E809F0BB0B802DBF01FF2793585F4F97
:1036B0003AF09E3F510578F00C940D1A0C94581A6C
:1036C0005F3FE4F3983ED4F3869577956795B79579
:1036D000F7959F5FC9F7880F911D9695879597F984
:1036E0000895E1E0660F771F881FBB1F62177307FD
:1036F0008407BA0720F0621B730B840BBA0BEE1F12
:1037000088F7E095089529F416F00C940D1A0C949E
:10371000571A0C94131A0E943D1AA8F39638A0F772
:1037200007F80F92E8942BE33AEA48EB5FE70E9430
:10373000B6190F920F920F924DB75EB70F920E947B
:10374000551CE8E6F0E00E94EC1B4F915F91EF9171
:10375000FF91E595EE1FFF1F49F0FE57E0684427F3
:10376000EE0F441FFA95E1F74195550B0E941F1C7F
:103770000F9007FE0C94131C08950E943D1A88F0C8
:103780009F5798F0B92F9927B751B0F0E1F0660F25
:10379000771F881F991F1AF0BA95C9F714C0B13066
:1037A00091F00E94571AB1E008950C94571A672FB0
:1037B000782F8827B85F39F0B93FCCF38695779595
:1037C0006795B395D9F73EF490958095709561957E
:1037D0007F4F8F4F9F4F0895DF93CF931F930F938A
:1037E000FF92EF92DF927B018C01689406C0DA2E83
:1037F000EF010E94B319FE01E894A591259135913E
:1038000045915591A6F3EF010E94BC1AFE01970164
:10381000A801DA9469F7DF90EF90FF900F911F9164
:10382000CF91DF9108959B01AC0160E070E080E8EA
:103830009FE30C94111B0C940D1A0C948E1C0E9487
:103840003D1AD8F39923C9F3940F511DA3F3915056
:10385000504094F059F0882332F0660F771F881F8C
:1038600091505040C1F79E3F51052CF7880F911D94
:103870009695879597F908955F3FACF0983E9CF038
:10388000BB27869577956795B79508F4B1609395B2
:10389000C1F7BB0F58F711F460FFE8CF6F5F7F4FA0
:1038A0008F4F9F4FE3CF0C94581AFA01DC01AA0FF7
:1038B000BB1F9B01AC01BF5728F4222733274427A5
:1038C000507820C0B75190F4AB2F0024469537951F
:1038D0002795011CA395D2F3002071F0220F331F0E
:1038E000441FB395DAF30ED00C94A41A613071051D
:1038F000A0E88A07B94630F49B01AC016627772718
:1039000088279078309621F0208331834283538337
:1039100008950E947C19880B990B08959F3F31F000
:10392000915020F4879577956795B795880F911DED
:103930009695879597F9089597FB072E16F40094AE
:1039400007D077FD09D00E941A1D07FC05D03EF470
:10395000909581959F4F0895709561957F4F08953B
:10396000A1E21A2EAA1BBB1BFD010DC0AA1FBB1F83
:10397000EE1FFF1FA217B307E407F50720F0A21BF5
:10398000B30BE40BF50B661F771F881F991F1A9462
:1039900069F760957095809590959B01AC01BD018C
:1039A000CF010895E894DF93CF93FC01DB010E94DF
:1039B000951A7F936F93E9019A01AC01BF93AF937E
:1039C0003F932F93DF010E94951A26F46C1B7D0B09
:1039D000820B930B9E01EB01FC010E94341DAF9101
:1039E000BF912F913F910E94341DBE01CF01F9017B
:1039F0002F913F91CF91DF91089597FD1094002E64
:103A0000083098F00850232F342F452F562F672F5A
:103A1000782F892F912DF4CF1594979587957795C9
:103A2000679557954795379527950A95AAF71124D5
:103A3000002D0895AA1BBB1B51E107C0AA1FBB1F85
:103A4000A617B70710F0A61BB70B881F991F5A952A
:103A5000A9F780959095BC01CD010895EE0FFF1F49
:103A60000590F491E02D09940E94951A460F571F76
:103A7000C81FD91F08F4319608950F931F93CF9351
:103A8000DF938230910510F482E090E0E0917905B7
:103A9000F0917A0530E020E0B0E0A0E0309799F4B2
:103AA0002115310509F44AC0281B390B2430310592
:103AB000D8F58A819B816115710589F1FB0193839A
:103AC0008283FE0111C04081518102811381481718
:103AD0005907E0F04817590799F4109761F01296CA
:103AE0000C93129713961C933296CF01DF91CF91CE
:103AF0001F910F9108950093790510937A05F4CFE3
:103B00002115310551F04217530738F0A901DB01A7
:103B10009A01BD01DF01F801C1CFEF01F9CF909308
:103B20007A0580937905CDCFFE01E20FF31F8193D3
:103B300091932250310939832883D7CF209177057B
:103B400030917805232B41F420910201309103013B
:103B50003093780520937705209100013091010181
:103B60002115310541F42DB73EB740910401509124
:103B70000501241B350BE0917705F0917805E217DC
:103B8000F307A0F42E1B3F0B2817390778F0AC0180
:103B90004E5F5F4F2417350748F04E0F5F1F50935D
:103BA000780540937705819391939FCFF0E0E0E013
:103BB0009CCFCF93DF930097E9F0FC0132971382FB
:103BC0001282A0917905B0917A05ED0130E020E0F4
:103BD0001097A1F420813181820F931F20917705E6
:103BE000309178052817390709F061C0F0937805FE
:103BF000E0937705DF91CF910895EA01CE17DF07B3
:103C0000E8F54A815B819E0141155105B1F7E90153
:103C1000FB83EA8349915991C40FD51FEC17FD0727
:103C200061F4808191810296840F951FE901998347
:103C30008883828193819B838A83F0E0E0E01296FF
:103C40008D919C9113970097B9F52D913C91119707
:103C5000CD010296820F931F209177053091780550
:103C60002817390739F6309751F510927A051092D6
:103C70007905B0937805A0937705BCCFD383C28331
:103C800040815181840F951FC817D90761F44E5F99
:103C90005F4F88819981480F591F518340838A81E2
:103CA0009B81938382832115310509F0B0CFF09376
:103CB0007A05E09379059ECFFD01DC01C0CF138228
:103CC0001282D7CFB0E0A0E0E8E6FEE10C94601AE3
:103CD0008C01009751F4CB010E943D1D8C01C8015D
:103CE000CDB7DEB7E0E10C947C1AFC01E60FF71FBC
:103CF0009C0122503109E217F30708F49DC0D90155
:103D0000CD91DC911197C617D70798F0C530D10532
:103D100030F3CE0104978617970708F3C61BD70B1D
:103D20002297C193D1936D937C93CF010E94D91DAB
:103D3000D6CF5B01AC1ABD0A4C018C0E9D1EA09122
:103D40007905B0917A05512C412CF12CE12C10977A
:103D500031F580917705909178058815990509F0DE
:103D60005CC04616570608F058C08091000190913B
:103D70000101009741F48DB79EB740910401509125
:103D80000501841B950BE817F90708F055C0F0935F
:103D90007805E0937705F90171836083A0CF8D9159
:103DA0009C91119712966C90129713967C90139792
:103DB000A815B90559F56C0142E0C40ED11CCA140E
:103DC000DB0420F1AC014A195B09DA011296159760
:103DD00080F06282738251834083D9016D937C931A
:103DE000E114F10471F0D7011396FC93EE9312974E
:103DF00076CF22968C0F9D1FF90191838083F3016A
:103E0000EFCFF0937A05E093790569CF481659060C
:103E100008F42C017D01D3019ACFCB010E943D1DF6
:103E20007C01009749F0AE01B8010E941F1FC80134
:103E30000E94D91D870153CF10E000E050CFFB0155
:103E4000DC0102C001900D9241505040D8F7089516
:103E5000FB01DC0101900D920020E1F70895FB01C8
:103E6000DC014150504048F001900D920020C9F70C
:103E700001C01D9241505040E0F7089510E0C3EF9B
:103E8000D0E004C0FE010E942E1D2196C43FD10740
:063E9000C9F7F894FFCF12
:103E960000007B058000000000007902D9010602BF
:103EA600C60237021502290200000000C404970466
:103EB60065066D0490047D046E04000000008A050A
:103EC600D90165066D04E605FE0514052E050D0AE5
:103ED6000051554555453A206572726F72206475DA
:103EE6006520746F20756E646573697261626C65B6
:103EF6002073697A6520666F722071756575652015
:103F060073697A652E0051554555453A20696E7399
:103F1600756666696369656E74206D656D6F727925
:103F260020746F20696E697469616C697A652074A2
:103F3600656D706F726172792071756575652E0099
:103F460053454E3A5347503330206E6F74206465A4
:103F56007465637465640053454E3A534750333075
:103F66002064657465637465640053454E3A53472F
:103F760050333020696E697469616C697A656400D2
:103F86005349473A0053414950004C45443A0031A1
:103F96003233343536373855545350004C43443A4F
:103FA6000053454E3A534854333120646574656373
:103FB600746564200053454E3A5348543331207398
:103FC600657420746F20706572696F64696320720E
:103FD600656164696E67206D6F646500515545556E
:103FE600453A2063616E277420706F70206974658E
:103FF6006D2066726F6D2071756575653A207175F5
:1040060065756520697320656D7074792E0053455A
:104016004E3A205348543331200053454E3A2053EC
:1040260047503330206572726F72004149523A0030
:107E0000112484B714BE81FFF0D085E080938100F7
:107E100082E08093C00088E18093C10086E0809377
:107E2000C20080E18093C4008EE0C9D0259A86E02C
:107E300020E33CEF91E0309385002093840096BBD3
:107E4000B09BFECF1D9AA8958150A9F7CC24DD24C4
:107E500088248394B5E0AB2EA1E19A2EF3E0BF2EE7
:107E6000A2D0813461F49FD0082FAFD0023811F036
:107E7000013811F484E001C083E08DD089C08234E0
:107E800011F484E103C0853419F485E0A6D080C0E4
:107E9000853579F488D0E82EFF2485D0082F10E0AE
:107EA000102F00270E291F29000F111F8ED06801E7
:107EB0006FC0863521F484E090D080E0DECF843638
:107EC00009F040C070D06FD0082F6DD080E0C81688
:107ED00080E7D80618F4F601B7BEE895C0E0D1E017
:107EE00062D089930C17E1F7F0E0CF16F0E7DF06D8
:107EF00018F0F601B7BEE89568D007B600FCFDCFD4
:107F0000A601A0E0B1E02C9130E011968C91119780
:107F100090E0982F8827822B932B1296FA010C0160
:107F200087BEE89511244E5F5F4FF1E0A038BF0790
:107F300051F7F601A7BEE89507B600FCFDCF97BE46
:107F4000E89526C08437B1F42ED02DD0F82E2BD052
:107F50003CD0F601EF2C8F010F5F1F4F84911BD097
:107F6000EA94F801C1F70894C11CD11CFA94CF0C13
:107F7000D11C0EC0853739F428D08EE10CD085E9AC
:107F80000AD08FE07ACF813511F488E018D01DD067
:107F900080E101D065CF982F8091C00085FFFCCF94
:107FA0009093C60008958091C00087FFFCCF809118
:107FB000C00084FD01C0A8958091C6000895E0E648
:107FC000F0E098E1908380830895EDDF803219F02E
:107FD00088E0F5DFFFCF84E1DECF1F93182FE3DFCA
:107FE0001150E9F7F2DF1F91089580E0E8DFEE27F6
:047FF000FF270994CA
:027FFE00040479
:0400000300007E007B
:00000001FF
