:100000000C94F4000C941C010C941C010C94B10E83
:100010000C94B10E0C94B10E0C941C010C941C01A8
:100020000C941C010C941C010C941C010C941C01DC
:100030000C941C010C941C010C941C010C941C01CC
:100040000C94480D0C941C010C94160D0C94F00C9F
:100050000C941C010C941C010C941C010C941C01AC
:100060000C94920D0C941C0107634236B79BD8A7E1
:100070001A39685618AEBAAB558C1D3CB7CC5763CD
:10008000BD6DEDFD753EF6177231BF000000803F7B
:1000900000407A10F35A00A0724E18090010A5D43F
:1000A000E80000E87648170000E40B54020000CA9C
:1000B0009A3B000000E1F5050000809698000000E2
:1000C00040420F000000A086010000001027000041
:1000D0000000E803000000006400000000000A00C7
:1000E000000000000100000000002C76D888DC67CA
:1000F0004F0823DFC1DFAE59E1B1B796E5E3E45322
:10010000C63AE651997696E8E6C28426EB898C9B3E
:1001100062ED407C6FFCEFBC9C9F40F2BAA56FA5DE
:10012000F490055A2AF75C936B6CF9676DC11BFC60
:10013000E0E40D47FEF520E6B500D0ED902E03007B
:10014000943577050080841E080000204E0A0000C8
:1001500000C80C333333330F986E12831141EF8D87
:100160002114893BE65516CFFEE6DB18D1844B38C7
:100170001BF77C1D901DA4BBE424203284725E22F8
:100180008100C9F124ECA1E53D2700000000240016
:1001900027002A00000000080002010000030407F5
:1001A0000000000000000000000000002300260006
:1001B000290000000000250028002B00040404048E
:1001C0000404040402020202020203030303030301
:1001D00001020408102040800102040810200102DE
:1001E00004081020470F501611241FBECFEFD8E08F
:1001F000DEBFCDBF25E0A4E8B2E001C01D92A73666
:10020000B207E1F712E0A0E0B1E0ECE1FEE302C0EA
:1002100005900D92A438B107D9F710E0C3EFD0E0F4
:1002200004C02197FE010E94F11CC23FD107C9F70B
:100230000E94CA100C94011F0C940000FC019081D4
:10024000909528E081E397FF03C0990F982701C09C
:10025000990F2150C1F78181892798E021E387FF19
:1002600003C0880F822701C0880F9150C1F70895FD
:10027000982F2091C00381E0213208F043C0809183
:100280009C038111FCCF8091BF0332E030939C032B
:1002900090939B039FEF90939A031092990320935E
:1002A0009803AFE9B3E0E8E7F3E090E0291331C049
:1002B0001092770390917703880F892B80937703AF
:1002C00080917603813049F510927603809177030F
:1002D0008093BB008091BC0083FDF8CF85EC8093B8
:1002E000BC0080919C038230E1F380919A038F3FA0
:1002F000B1F080919A038032A1F080919A0380330B
:1003000091F084E010929E031092C00310929D031E
:1003100008953D9131939F5FC9CF85EEE0CF80E096
:10032000F1CF82E0EFCF83E0EDCF089508951F93E2
:10033000CF93DF93182F692FC1EDD3E08E819F817A
:10034000288531E030939D032093BF0310929E03D4
:100350001092C003DC01ED91FC910190F081E02D41
:1003600009958E819F81DC01ED91FC910190F081D6
:10037000E02D612F099581E0DF91CF911F910C94C1
:100380003801FC019081909528E030E081E397FFEF
:1003900003C0990F982701C0990F21503109B9F76F
:1003A0008181892728E030E091E387FF03C0880F2F
:1003B000892701C0880F21503109B9F70895AF92FC
:1003C000BF92CF92DF92EF92FF920F931F93CF9342
:1003D000DF936C017B018B01040F151FEB015E01A4
:1003E000AE18BF08C017D10759F06991D601ED9139
:1003F000FC910190F081E02DC6010995892B79F7D8
:10040000C501DF91CF911F910F91FF90EF90DF9089
:10041000CF90BF90AF900895FC01538D448D252F50
:1004200030E0842F90E0821B930B541710F0CF968E
:10043000089501970895FC01918D828D981761F0C0
:10044000A28DAE0FBF2FB11D5D968C91928D9F5FD7
:100450009F73928F90E008958FEF9FEF0895FC01B6
:10046000918D828D981731F0828DE80FF11D858D69
:1004700090E008958FEF9FEF0895FC01918D228DFC
:10048000892F90E0805C9F4F821B91098F73992781
:10049000089587EA94E00E943D0221E0892B09F447
:1004A00020E0822F089580E090E0892B29F00E94BF
:1004B000490281110C9400000895FC01A48DA80F3D
:1004C000B92FB11DA35ABF4F2C91848D90E0019696
:1004D0008F739927848FA689B7892C93A089B189B6
:1004E0008C91837080648C93938D848D981306C057
:1004F0000288F389E02D80818F7D80830895EF92BB
:10050000FF920F931F93CF93DF93EC0181E0888FCD
:100510009B8D8C8D98131AC0E889F989808185FF9D
:1005200015C09FB7F894EE89FF896083E889F9893F
:1005300080818370806480839FBF81E090E0DF9141
:10054000CF911F910F91FF90EF900895F62E0B8D94
:1005500010E00F5F1F4F0F731127E02E8C8D8E114F
:100560000CC00FB607FCFACFE889F989808185FFB6
:10057000F5CFCE010E945D02F1CFEB8DEC0FFD2F88
:10058000F11DE35AFF4FF0829FB7F8940B8FEA8971
:10059000FB8980818062CFCFCF93DF93EC01888D80
:1005A0008823B9F0AA89BB89E889F9898C9185FDEE
:1005B00003C0808186FD0DC00FB607FCF7CF8C917C
:1005C00085FFF2CF808185FFEDCFCE010E945D02D5
:1005D000E9CFDF91CF910895833081F028F4813005
:1005E00099F08230A9F008958730A9F08830C9F0D9
:1005F0008430B1F4809180008F7D03C080918000B1
:100600008F7780938000089584B58F7784BD089597
:1006100084B58F7DFBCF8091B0008F778093B00041
:1006200008958091B0008F7DF9CFCF93DF93282F6D
:1006300030E0F901EC56FE4F8491F901E053FE4F92
:10064000D491F901E454FE4FC491CC23A1F081115F
:100650000E94EC02EC2FF0E0EE0FFF1FE855FE4F7A
:10066000A591B491EC91ED2381E090E009F480E054
:10067000DF91CF91089580E090E0FACF1F93CF9360
:10068000DF93282F30E0F901EC56FE4F8491F901F9
:10069000E053FE4FD491F901E454FE4FC491CC23B2
:1006A000A9F0162F81110E94EC02EC2FF0E0EE0F62
:1006B000FF1FEE54FE4FA591B4918FB7F894EC91C3
:1006C000111108C0D095DE23DC938FBFDF91CF914D
:1006D0001F910895DE2BF8CF1092750310927403CA
:1006E00010929E031092C00310929C0381E08093AD
:1006F0009B031092760361E082E10E943E0361E079
:1007000083E10E943E03E9EBF0E080818E7F8083ED
:1007100080818D7F808388E48093B80085E4809316
:10072000BC0085E991E0909373038093720386E99E
:1007300091E090937103809370030895CF93DF93BA
:1007400090E0FC01E053FE4F249184549E4FFC0145
:1007500084918823C9F090E0880F991FFC01E65727
:10076000FE4FA591B491FC01EE54FE4FC591D4917A
:1007700061110DC09FB7F8948C91209582238C93C2
:100780008881282328839FBFDF91CF91089562300D
:1007900051F49FB7F8943C91822F809583238C93DA
:1007A000E8812E2BEFCF8FB7F894EC912E2B2C9362
:1007B0008FBFEACF3FB7F89480916C0390916D039F
:1007C000A0916E03B0916F0326B5A89B05C02F3F83
:1007D00019F00196A11DB11D3FBFBA2FA92F982F67
:1007E0008827BC01CD01620F711D811D911D42E062
:1007F000660F771F881F991F4A95D1F708958F922A
:100800009F92AF92BF92CF92DF92EF92FF926B01D5
:100810007C010E94DA034B015C01C114D104E104A4
:10082000F104B9F00E94DA03681979098A099B0971
:10083000683E73408105910580F321E0C21AD1081A
:10084000E108F10888EE880E83E0981EA11CB11C17
:10085000E4CFFF90EF90DF90CF90BF90AF909F904C
:100860008F9008952FB7F894609168037091690391
:1008700080916A0390916B032FBF08950F931F938C
:1008800080914C0590914D05A0914E05B0914F057A
:10089000892B8A2B8B2B31F10E9432040091570552
:1008A000109158052091590530915A05AB01BC01B2
:1008B000401B510B620B730B91E000914C051091A2
:1008C0004D0520914E0530914F05401751076207A5
:1008D000730708F090E0809156058111892F1F91D0
:1008E0000F91089591E0F7CF85ED8093BC00809142
:1008F000BC0084FDFCCF10929C030895209144031A
:10090000260F3327331F21323105ECF420919C034D
:10091000FC0190E080E0243069F082E00895A0912D
:1009200044032191AC014C5D5C4FA40FB52FB11D68
:100930002C930196861798F380914403680F609377
:10094000440380E0089581E008950895E0917503DF
:1009500080917403E81730F4F0E0EC5FFC4F808185
:1009600090E008958FEF9FEF089590917503809127
:1009700074032FEF3FEF981748F4E92FF0E0EC5F96
:10098000FC4F208130E09F5F90937503C90108956B
:100990008091740390917503891B990B0895CF92F0
:1009A000DF92EF92FF920F931F93CF93DF937C011F
:1009B000CB018A0120919D03222389F0EB016B0179
:1009C000C40ED51ECC15DD0569F06991D701ED91F6
:1009D000FC910190F081E02DC7010995F3CF642FC0
:1009E0000E947E04C801DF91CF911F910F91FF906B
:1009F000EF90DF90CF900895CF93DF931F92CDB704
:100A0000DEB7698320919D032223F9F02091C00372
:100A1000203258F021E030E0FC013383228390E063
:100A200080E00F90DF91CF91089580919E03E82F91
:100A3000F0E0E156FC4F998190838F5F80939E0395
:100A40008093C00381E090E0ECCF61E0CE0101969D
:100A50000E947E04F7CF2091C3033091C40328176E
:100A6000390781F49091C1038091C203981751F026
:100A7000E091C103F0E0EE0FFF1FEC57FD4F8081C6
:100A8000918108958FEF9FEF0895EF92FF920F935A
:100A90001F93CF93DF93DC015C964D915C915D9742
:100AA0004115510579F481E090E013969C938E9363
:100AB000129790E080E0DF91CF911F910F91FF900E
:100AC000EF9008955196ED91FC91529750968C912C
:100AD0005097982F9095EFB65E962C915E97322F97
:100AE0003270F32E21FF02C060957095F89420813A
:100AF000FF2001F1282B2083EA012197F1F729E05B
:100B0000308160FF19C0382B3083EA012197F1F75B
:100B1000769567952150A1F7FF2081F08081892388
:100B20008083EFBE5C968D919C910197F1F781E0F7
:100B300090E0C1CF2923DFCF3923E6CF9081892BE5
:100B4000EFCFEF92FF920F931F93CF93DF93DC01D0
:100B50005C96ED90FC905D97E114F10479F481E0EE
:100B600090E013969C938E93129790E080E0DF9133
:100B7000CF911F910F91FF90EF9008955196ED91B5
:100B8000FC91529750968C915097982F90950FB753
:100B90005E962C915E97122F127021FD6095F8944D
:100BA0002081112319F1282B2083E7012197F1F7E8
:100BB00028E0462F50E0308160FF1AC0382B308388
:100BC000E7012197F1F7BA0175956795215089F7EB
:100BD000112381F08081892380830FBF5C968D91E2
:100BE0009C910197F1F781E090E0C1CF2923DCCF00
:100BF0003923E5CF9081892BEFCF2091C30330912A
:100C0000C4032817390771F48091C2032091C103EE
:100C100090E0805C9F4F821B910960E470E00E942D
:100C20005F1C089590E080E008952091C303309107
:100C3000C40328173907C9F49091C1038091C203F6
:100C4000981799F0E091C103F0E0EE0FFF1FEC5709
:100C5000FD4F808191812091C10330E02F5F3F4F94
:100C60002F7333272093C10308958FEF9FEF0895CB
:100C7000E091C303F091C403E817F90769F4A3896D
:100C8000B4899C918589809589238C931092C403A3
:100C90001092C30381E0089580E0089580912304B9
:100CA00090912404892B31F18091C3039091C40366
:100CB00024E089309207F1F0009711F00E94380685
:100CC000809127048E7F809327041092C203109294
:100CD000C10389E094E09093C4038093C303E0913F
:100CE0001C04F0911D04808190911E04892B808347
:100CF00081E0089580E0089590E080E0089580917B
:100D00009C038111FCCF413208F040E281E08093E6
:100D10009C0380939B039FEF90939A0310929903F7
:100D2000940F909398038093770380917703660FD5
:100D3000682B6093770380917603813019F51092C8
:100D40007603809177038093BB008091BC0083FD84
:100D5000F8CF85EC8093BC0080919C038130E1F357
:100D600080919903841710F440919903E8E7F3E028
:100D7000A4E0B3E080E0841307C010927503809371
:100D80007403089585EEE6CF91919D938F5FF3CF25
:100D9000CF92DF92EF92FF920F931F93CF93DF9347
:100DA00000D000D000D0CDB7DEB780E094E20E9442
:100DB000970164E170E080E090E00E94FF0346E06C
:100DC0006091D9038091D7039091D8030E947F0648
:100DD0008091D7039091D803DC01ED91FC910084C0
:100DE000F185E02D0995069709F077C08E010F5F18
:100DF0001F4F6E01B7E0CB0ED11C78018091D70355
:100E00009091D803DC01ED91FC910284F385E02DF3
:100E10000995F80181938F01EC15FD0579F71B8188
:100E2000C7010E94C101181358C01E81CE0104964B
:100E30000E94C101181351C00C811D8169817A8102
:100E400076276727762790E080E00E94021920E04D
:100E500030E04FE253E40E94631920E03FEF4FE798
:100E600057E40E94D41A20E030E044E352E40E94A8
:100E7000671A6093DE037093DF038093E00390931F
:100E8000E103102701271027B80190E080E00E94BD
:100E9000021920E030E048EC52E40E94631920E09F
:100EA0003FEF4FE757E40E94D41A6093DA03709340
:100EB000DB038093DC039093DD0381E026960FB67D
:100EC000F894DEBF0FBECDBFDF91CF911F910F9180
:100ED000FF90EF90DF90CF90089580E0EFCFCF9319
:100EE000DF93EC0188819981009711F00E949C1D8D
:100EF000198218821D821C821B821A82DF91CF9177
:100F00000895FC01808191810C949C1D6F927F92C9
:100F10008F929F92AF92BF92CF92DF92EF92FF9209
:100F20000F931F93CF93DF93CDB7DEB7162F6A01D0
:100F30003901ADB6BEB62091F30331E030939D0385
:100F40002093BF0310929E031092C003982E7C0141
:100F50008091F1039091F203D7016D917D01DC0145
:100F6000ED91FC910190F081E02D09958E2D89196C
:100F7000811770F381E00E943801B60190E080E0B3
:100F80000E94FF03002309F45FC0102F110F100F00
:100F9000412F6091F3038091F1039091F2030E943D
:100FA0007F061817A9F080E00FB6F894BEBE0FBEFA
:100FB000ADBEDF91CF911F910F91FF90EF90DF9029
:100FC000CF90BF90AF909F908F907F906F9008953B
:100FD000EDB7FEB7E11BF1090FB6F894FEBF0FBEE7
:100FE000EDBF8DB79EB701966C017C014C018091DD
:100FF000F1039091F203DC01ED91FC910284F38501
:10100000E02D0995F40181934F018E2F8C198117E2
:1010100070F3630110E0C7010E941E01D701129610
:101020009C9112978913BFCF8C9111969C9189271F
:1010300098278927F601819391936F011F5FF3E051
:10104000EF0EF11C0113E7CF81E0AECF0F93CF93EA
:10105000DF9300D0CDB7DEB780E2898383E08A8357
:1010600000E030E020E04AE050E062E0CE0101968E
:101070000E9486070F900F90DF91CF910F910895F6
:10108000FB0101900020E9F73197AF01461B570B98
:10109000DC01ED91FC910280F381E02D09940F9326
:1010A0001F93CF93DF93EC010E947F028C016EE3CC
:1010B00071E0CE010E944008800F911FDF91CF9117
:1010C0001F910F910895CF93C42F0E944F08CC23F6
:1010D00051F08091E20381111092E2038091F403B8
:1010E00081111092F403CF9108950F931F93CF9322
:1010F000DF938C010E943E048823C9F0C0916105F2
:10110000D0916205F8014481558160817181E88147
:10111000F9810280F381E02DCE0109956EE371E043
:10112000CE01DF91CF911F910F910C944008DF9178
:10113000CF911F910F910895EC01009739F00E9413
:1011400040086EE371E0CE010E9440080E942E0F1D
:10115000AF92BF92CF92DF92EF92FF920F931F93C5
:10116000CF93DF938C0161E471E01816190664F5E2
:101170000E94001DEC01009729F1A0903404B0906A
:101180003504E0903004F090310420913604309121
:101190003704C0903204D0903304FC01281B390B73
:1011A000CF018C1B9D0B8A159B05A4F4C9018E0FE2
:1011B0009F1FB6010E945F1CD701A80FB91F8C9119
:1011C0008193EECF66E771E080912E0490912F0419
:1011D0000E949C08C7010E949C1DD0933104C093BB
:1011E00030041092370410923604809134049091A8
:1011F000350490933904809338041093330400939A
:101200003204DF91CF911F910F91FF90EF90DF900B
:10121000CF90BF90AF900895CF93C82F80913404A2
:101220009091350420913204309133048217930752
:1012300021F4880F991F0E94A808E0913004F091D2
:10124000310480913804909139049C012F5F3F4F05
:101250003093390420933804E80FF91FC08320919C
:101260003804309139048091320490913304281766
:10127000390721F410923904109238048091340413
:101280009091350401969093350480933404CF9166
:1012900008950F931F93CF93DF93EC018881998179
:1012A000009759F02A813B812617370730F081E0FB
:1012B000DF91CF911F910F9108958B016F5F7F4F49
:1012C0000E94251E009759F0998388831B830A8307
:1012D0002C813D81232B59F7FC011082E8CF80E05F
:1012E000E7CF0F931F93CF93DF93EC010C811D8108
:1012F0000F5F1F4FB8010E944909882391F0288190
:1013000039818C819D8169E372E0820F931F0E9475
:10131000EB1E1D830C83CE01DF91CF911F910F91A6
:101320000895CE010E946F07F6CFEF92FF920F93C0
:101330001F93CF93DF93EC01FB01E080F180E11478
:10134000F10411F10481158101151105A9F08C81B9
:101350009D81080F191FB801CE010E9449098823F9
:1013600099F0288139818C819D81B701820F931F6B
:101370000E94EB1E1D830C83CE01DF91CF911F9144
:101380000F91FF90EF900895CE010E946F07F4CF68
:10139000EF92FF920F931F93CF93DF93EC017B01AA
:1013A0008A01BA010E94490981110BC0CE010E9435
:1013B0006F07CE01DF91CF911F910F91FF90EF90BA
:1013C00008951D830C83B701888199810E94EB1ECB
:1013D000F0CFFB0101900020E9F73197AF01461BE8
:1013E000570B0C94C809EF92FF920F931F93CF9362
:1013F000DF93CDB7DEB7A1970FB6F894DEBF0FBE6F
:10140000CDBF7C01CB01BA01F7011182108213829A
:101410001282158214828E010F5F1F4F22E044E07A
:101420000E946116009789F0BC01C7010E94E9097A
:10143000A1960FB6F894DEBF0FBECDBFDF91CF915E
:101440001F910F91FF90EF900895C7010E946F07C1
:10145000EFCF0F931F93CF93DF93CDB7DEB7619795
:101460000FB6F894DEBF0FBECDBF8C01CB01F801E3
:101470001182108213821282158214824AE0BE0108
:101480006F5F7F4F0E94A116BE016F5F7F4FC80143
:101490000E94E90961960FB6F894DEBF0FBECDBF7A
:1014A000DF91CF911F910F910895CF93DF93EC01BE
:1014B000FB018617970749F06081718161157105FD
:1014C00041F0448155810E94C809CE01DF91CF913E
:1014D00008950E946F07F9CFFC01118210821382D8
:1014E0001282158214826115710551F0FB01019081
:1014F0000020E9F73197AF01461B570B0C94C80940
:1015000008950F931F93CF93DF93CDB7DEB728973E
:101510000FB6F894DEBF0FBECDBF88E58093F3030E
:1015200085EC93E09093F2038093F1030E946C03A7
:1015300086E38F8382E8888703E02BEE33E04AE07E
:1015400050E062E0CE0107960E94860781111DC01F
:101550000091D5031091D60360EB71E0CE010196A6
:101560000E946C0ACE010196F8010995CE01019600
:101570000E94810728960FB6F894DEBF0FBECDBF3C
:10158000DF91CF911F910F91089580E28F838FE2B9
:10159000888701E09E012F5F3F4F4AE050E062E004
:1015A000CE0107960E948607882391F289819A814D
:1015B000807F9927809761F60E942608882341F250
:1015C0000091D5031091D60367EC71E0CE0101962E
:1015D0000E946C0ACE010196F8010995CE01019690
:1015E0000E9481070E942608882321F281E08093CF
:1015F000F4030091D5031091D6036AED71E0AECFEC
:101600000F931F93CF93DF9300D000D000D0CDB7BE
:10161000DEB70E946C0384E48093D90382EA90E3EE
:101620000E9497016AE070E080E090E00E94FF0372
:101630008DE293EF0E94970143E06091D90380917E
:10164000D7039091D8030E947F068091D703909191
:10165000D803DC01ED91FC910284F385E02D09951E
:1016600000E0182F8091D7039091D803DC01ED9111
:10167000FC910284F385E02D0995802B912B00913C
:10168000D5031091D6030196E1F060EF71E0CE0131
:1016900001960E946C0ACE010196F8010995CE01CF
:1016A00001960E94810781E08093E20326960FB69F
:1016B000F894DEBF0FBECDBFDF91CF911F910F9188
:1016C000089563E072E0CE0101960E946C0ACE019B
:1016D0000196F8010995CE0101960E948107E6CF97
:1016E000CF93C42F0E944F08CC2329F00E94000BF7
:1016F000CF910C94810ACF9108950F931F93CF93AC
:10170000DF93CDB7DEB767970FB6F894DEBF0FBE95
:10171000CDBF85E0EFE1F2E0DE01539601900D923E
:101720008A95E1F7209171043091720490E080E095
:101730004EE2B901082E02C0759567950A94E2F74A
:1017400060FD07C0E3E1F0E0EC0FFD1FE80FF91FBB
:10175000408301968430910561F700912C0410912B
:101760002D04BE016D5E7F4FCE0107960E946C0A6C
:101770006AE172E0CE010D960E946C0ABE01695FBB
:101780007F4FCE010D960E9495091A8219821C8204
:101790001B821E821D82BC01CE0101960E94550A49
:1017A000CE010196F8010995CE0101960E948107AC
:1017B000CE010D960E948107CE0107960E948107F7
:1017C00067960FB6F894DEBF0FBECDBFDF91CF9105
:1017D0001F910F9108950F931F93CF93DF93CDB770
:1017E000DEB76F970FB6F894DEBF0FBECDBF8DE0AA
:1017F000E9E2F2E0DE01119601900D928A95E1F79F
:10180000209173043091740490E080E04EE2B901BD
:10181000082E02C0759567950A94E2F760FD07C02F
:10182000E1E0F0E0EC0FFD1FE80FF91F40830196A7
:101830008C30910561F700912C0410912D04BE01AC
:101840006F5F7F4FCE0144960E946C0A64E272E0A3
:10185000CE014A960E946C0ABE016C5E7F4FCE019B
:101860004A960E9495091F861E86198A188A1B8A25
:101870001A8ABC01CE010E960E94550ACE010E9620
:10188000F8010995CE010E960E948107CE014A9675
:101890000E948107CE0144960E9481076F960FB681
:1018A000F894DEBF0FBECDBFDF91CF911F910F9196
:1018B00008950F931F93CF93DF93CDB7DEB7629751
:1018C0000FB6F894DEBF0FBECDBF00912C0410916F
:1018D0002D0465E774E0CE0107960E946C0A66E36A
:1018E00072E0CE010D960E946C0ABE01695F7F4FC7
:1018F000CE010D960E9495091A8219821C821B82C4
:101900001E821D82BC01CE0101960E94550ACE01A5
:101910000196F8010995CE0101960E948107CE013A
:101920000D960E948107CE0107960E94810762965C
:101930000FB6F894DEBF0FBECDBFDF91CF911F91E0
:101940000F9108956733D1F19CF4623379F13CF43F
:10195000603339F14CF58AEA613221F1089564333C
:1019600049F134F1653341F186E36633D9F00895E6
:101970006F3651F14CF4693329F114F16F3351F1A1
:101980008AE3633679F00895633711F124F48DE327
:10199000603741F008956637C9F08CE3683711F07D
:1019A000089580E30C940C0981E3FCCF82E3FACF25
:1019B00083E3F8CF84E3F6CF85E3F4CF87E3F2CF78
:1019C00088E3F0CF89E3EECF8BE3ECCF8EE3EACF71
:1019D0008FE3E8CF0E947D0B0E94EB0B0C94590C17
:1019E0001F920F920FB60F9211242F933F934F9394
:1019F0005F936F937F938F939F93AF93BF93EF9377
:101A0000FF9387EA94E00E945D02FF91EF91BF91FE
:101A1000AF919F918F917F916F915F914F913F9186
:101A20002F910F900FBE0F901F9018951F920F923D
:101A30000FB60F9211242F938F939F93EF93FF93E1
:101A4000E091B704F091B8048081E091BD04F09179
:101A5000BE0482FD1BC090818091C0048F5F8F7394
:101A60002091C104821741F0E091C004F0E0E955F3
:101A7000FB4F958F8093C004FF91EF919F918F91C1
:101A80002F910F900FBE0F901F9018958081F4CF6B
:101A90001F920F920FB60F9211242F933F938F93A3
:101AA0009F93AF93BF938091680390916903A09136
:101AB0006A03B0916B033091670323E0230F2D3746
:101AC00058F50196A11DB11D20936703809368030B
:101AD00090936903A0936A03B0936B0380916C03A6
:101AE00090916D03A0916E03B0916F030196A11DBB
:101AF000B11D80936C0390936D03A0936E03B0931C
:101B00006F03BF91AF919F918F913F912F910F9054
:101B10000FBE0F901F90189526E8230F0296A11D67
:101B2000B11DD2CF1F920F920FB60F9211242F9397
:101B30003F934F935F936F937F938F939F93AF9355
:101B4000BF93EF93FF938091B900887F803609F4AB
:101B50004AC0F0F5883209F4A7C018F5803109F4BD
:101B60009BC0B8F4882309F4F9C0883009F494C004
:101B7000FF91EF91BF91AF919F918F917F916F9165
:101B80005F914F913F912F910F900FBE0F901F903B
:101B90001895883109F488C0803251F780939A03F0
:101BA00014C0803409F49DC040F48033B9F3883305
:101BB000F9F680939A0385ECB0C0803509F485C0AE
:101BC000883509F496C0883499F60E947404D0CF01
:101BD000883909F48CC038F5883729F050F48836F4
:101BE00011F0803729F683E080939C0310926603FE
:101BF00057C0883809F47BC0803919F0803809F063
:101C0000B7CF80916603803208F071C0E09166031F
:101C100081E08E0F809366038091BB00F0E0EA5B69
:101C2000FC4F80833DC0803B39F0E0F4803A09F4FA
:101C300079C0883A09F09CCF84E080939C0310928D
:101C4000450310924403E0917203F09173030995E8
:101C50008091440381110FC081E08093440310926E
:101C6000240309C0803C09F4A6CF883C09F4A3CF23
:101C7000883B09F07DCFE091450381E08E0F809392
:101C80004503F0E0EC5DFC4F80818093BB009091B8
:101C900045038091440329C0809177038093BB0062
:101CA00085EC8093BC0064CF909199038091980358
:101CB000981758F5E091990381E08E0F809399036E
:101CC000F0E0E858FC4F8081E9CFE091990381E092
:101CD0008E0F809399038091BB00F0E0E858FC4F91
:101CE000808390919903809198039817C8F285E8B2
:101CF000D8CFE091990381E08E0F80939903809172
:101D0000BB00F0E0E858FC4F808380919B03811179
:101D10005CCF81E08093760384EA8093BC001092CC
:101D20009C0326CF85EC8093BC0010929C0380918D
:101D30006603803230F4E0916603F0E0EA5BFC4F2A
:101D400010826091660370E0E0917003F09171037E
:101D500086E493E00995109266030ACF10929A03E5
:101D600034CF1F920F920FB60F9211242F933F93EF
:101D70004F935F936F938F939F93AF93BF93CF9343
:101D8000DF93EF93FF93E091C303F091C403309787
:101D900049F0A685B7859585868D81FF15C08C9104
:101DA0008923A9F4FF91EF91DF91CF91BF91AF917A
:101DB0009F918F916F915F914F913F912F910F90D4
:101DC0000FBE0F901F9018958C91892359F7A38906
:101DD000B4899C918589809589238C93868997897C
:101DE0000197F1F7408D518DC685D785658589E0CE
:101DF00030E020E0DA011197F1F7369527959881C8
:101E0000962309F031608150A9F7868D81FF02C0C9
:101E1000209530958091C20390E001968F739927A9
:101E20004091C1034817B1F0A091C203B0E0AA0FDE
:101E3000BB1FAC57BD4F2D933C938093C203828D43
:101E4000938D0197F1F7A389B4898C919589892B9A
:101E50008C93A8CF868D8160868FF1CF61E08DE075
:101E60000E949E0361E08DE00E943E036AEF70E0F5
:101E700080E090E00E94FF0360E08DE00E943E035E
:101E80006AEF70E080E090E00E94FF03EBCFCF9319
:101E9000DF931092AA041092A90488EE93E0A0E0C8
:101EA000B0E08093AB049093AC04A093AD04B093E6
:101EB000AE042AE031E03093A8042093A70425EC77
:101EC00030E03093B4042093B30424EC30E030933A
:101ED000B6042093B50420EC30E03093B80420938E
:101EE000B70421EC30E03093BA042093B90422EC1B
:101EF00030E03093BC042093BB0426EC30E03093F8
:101F0000BE042093BD041092C0041092C10410922C
:101F1000C2041092C3041092C8031092C7038093A6
:101F2000C9039093CA03A093CB03B093CC032CE1D5
:101F300031E03093C6032093C503109256051092EA
:101F40005C0510925B0510925D0510925E05109283
:101F50005F051092600527EA34E030936205209314
:101F6000610540E052EC61E070E04093440550931D
:101F7000450560934605709347052DE030E03093AA
:101F80004905209348052BE220934A052DE2209332
:101F90004B054CED55E060E070E040934C055093EC
:101FA0004D0560934E0570934F0520E73BE030935D
:101FB00051052093500523E638E0309353052093D4
:101FC000520522EA3CE030935505209354051092C7
:101FD0000C0410920B0480930D0490930E04A093B4
:101FE0000F04B09310048EE291E090930A04809362
:101FF00009041092200410921F04109222041092DF
:1020000021041092240410922304109226041092AA
:102010002504609127046E7F6D7F60932704669589
:10202000617081E068278BE00E943E0361E08BE0F5
:102030000E949E03EBEDF1E0E491E0931904E7ECDC
:10204000F1E0E491F0E0EE0FFF1FEE54FE4F8591BA
:10205000949190931B0480931A0460E08AE00E949C
:102060009E038091270481FD04C061E08AE00E9404
:102070003E038AE080931504EAEDF1E0E491E093F9
:102080001604E6ECF1E0E491F0E0EE0FFF1FE855F6
:10209000FE4F8591949190931804809317041092A9
:1020A00033041092320410923504109234041092CA
:1020B00037041092360410923904109238041092AA
:1020C0002F0410922E0482E090E00E94001D909355
:1020D000310480933004892B11F40E942E0F82E08A
:1020E00090E0909333048093320483E0809328043B
:1020F00082E08093290484E080932A0485E0809321
:102100002B04C5E7D8E0D0932D04C0932C0462E0E3
:1021100083E00E949E0362E082E00E949E0362E0F0
:1021200084E00E949E0362E085E00E949E0385ECAD
:1021300093E09093D8038093D7031092D903109221
:10214000DA031092DB031092DC031092DD0310928D
:10215000DE031092DF031092E0031092E10310926D
:10216000F5031092F6031092F7031092F80388E833
:1021700093E1A0E0B0E08093D1039093D203A093C9
:10218000D303B093D403D093D603C093D503DF9188
:10219000CF910895CF93DF93CDB7DEB7CE57D10956
:1021A0000FB6F894DEBF0FBECDBF789484B58260C1
:1021B00084BD84B5816084BD85B5826085BD85B5EB
:1021C000816085BD80916E00816080936E00109269
:1021D00081008091810082608093810080918100E4
:1021E0008160809381008091800081608093800075
:1021F0008091B10084608093B1008091B0008160D3
:102200008093B00080917A00846080937A008091FE
:102210007A00826080937A0080917A008160809356
:102220007A0080917A00806880937A001092C100D1
:1022300061E0809148050E949E0361E0809148051D
:102240000E943E0364EC79E080E090E00E94FF038E
:10225000E0906105F09062058090440590904505FE
:10226000A0904605B090470560E079E08DE390E0EE
:10227000A50194010E94731C2150310941095109A3
:102280005695479537952795D7015096ED91FC9136
:1022900082E080838114B1EE9B06A104B10421F099
:1022A0002115E0E13E07A8F0D7015096ED91FC9191
:1022B000108260E874E88EE190E0A50194010E942C
:1022C000731C21503109410951095695479537959D
:1022D0002795D7011C96ED91FC911D9730831E9692
:1022E000ED91FC911F97208358961C925897549615
:1022F000ED91FC91559786E080835296ED91FC918B
:1023000053978081806180835296ED91FC91539721
:102310008081886080835296ED91FC9153978081F3
:10232000806880835296ED91FC9180818F7D8083BF
:1023300060E0809148050E943E03109224041092B0
:10234000230410922204109221041092200410926F
:102350001F0482E09DE090932604809325049091D1
:102360001504963108F047C02FE636E0309320047C
:1023700020931F0420E03DE03093220420932104A9
:1023800027EB39E030932404209323042091680044
:1023900084E0983048F031E09E3008F430E081E08D
:1023A00001C0880F3A95EAF7822B809368002DE6EA
:1023B00030E0983050F02BE630E09E3030F02CE6E4
:1023C00030E0963110F030E020E030931D0420938F
:1023D0001C04292F30E0983008F0EDC081E001C0E6
:1023E000880F9A95EAF780931E04809125049091B6
:1023F00026040197F1F70E944E060E943204609372
:102400003A0470933B0480933C0490933D040E94F3
:102410007D0B0E94EB0B0E94590C0E94000B0E9446
:10242000810A312C212CF101EE7FEF96FFAFEEAF48
:10243000EF97689420F88091610590916205DC0126
:10244000ED91FC910284F385E02D09957C0180914A
:102450004A05082E000C990BE816F90609F0B8C0D9
:102460001091560501E0009356050E9432046093D6
:102470005705709358058093590590935A050E940B
:10248000320460935D0570935E0580935F059093C1
:10249000600510925C0510925B05E0915005F0918B
:1024A0005105412F402760914A05309709F0A4C09B
:1024B0000E94320400915D0510915E0520915F0538
:1024C00030916005601771078207930718F16C500F
:1024D0007E4F8F4F9F4F60935D0570935E05809395
:1024E0005F05909360050E943E04882341F081E0DF
:1024F00020915B0530915C05232B09F080E0282FAB
:1025000030E030935C0520935B05682F809148058F
:102510000E943E0380912804882329F00E9415031D
:102520007101892B21F0EF96EEACFFACEF97809113
:102530002904882309F479C00E941503892B09F026
:1025400074C06894E1F880912A04882309F470C06B
:102550000E941503892B09F06BC06894E2F8809102
:102560002B04882309F467C00E941503892B09F006
:1025700062C06894E3F88091710490917204E81647
:10258000F90631F0F0927204E09271040E947D0B22
:1025900011E089E094E00E94FD05892B09F4C4C094
:1025A00089E094E00E94150690FF48C080933E04A5
:1025B00010937004EECF9E3040F42850310981E032
:1025C00001C0880F2A95EAF70ECF2E503109F7CFB8
:1025D00060914B05862F062E000C990BE816F90624
:1025E00089F44091560510925605E0915205F091FC
:1025F0005305309709F45CCF809161059091620595
:10260000099556CF0E943E04882309F451CFE091EA
:102610005405F0915505309709F44ACF6E2D8091FD
:10262000610590916205099543CFE894E1F88BCF5D
:10263000E894E2F894CFE894E3F89DCFE091700439
:10264000E23308F0A6CF20913E042C3451F120351E
:1026500009F09FCFE33048F491E09E0F909370040F
:10266000F0E0E75FFB4F85AB94CFE33009F091CF0B
:1026700090913F043091400420E5290F230F281347
:102680000AC0892F990F990B932B90937404809310
:1026900073040E94EB0B809170048F5F8093700431
:1026A00078CF6E2F70E0E13059F020913F04022E78
:1026B000000C330BA9014F5F5F4F461757073CF0E3
:1026C000EF5FE0937004675F7B4FFB01CCCF2E5F21
:1026D0003F4F2617370709F05CCFE9E0F4E090E0C0
:1026E000BF01695074406217730724F465A9960FFF
:1026F0003196F6CF8913CFCF275F3B4FD901D596BF
:102700001C9283E3EEE3F4E0DE01119601900D925A
:102710008A95E1F7BE016D5F7F4F85E794E00E94E7
:10272000F21E0E94590CB7CF809134049091350469
:10273000892B09F482C00E94320400913A0410915E
:102740003B0420913C0430913D04061717072807ED
:10275000390708F072C020913404309135042115F6
:10276000310541F46BE372E080912E0490912F04C7
:102770000E949C08E0913004F0913104809136046D
:1027800090913704AC014F5F5F4F509337044093F3
:102790003604E80FF91FE0802150310930933504E9
:1027A00020933404809132049091330448175907E0
:1027B00021F410923704109236042115310591F05E
:1027C000AC0197FF02C04D5F5F4F559547955595FA
:1027D00047954217530734F097FD019695958795D5
:1027E0000E94A80889E094E00E9438066BE471E03A
:1027F00089E094E00E9445050E2C000CFF08B7010B
:10280000772789E094E00E944505B701655B7F4F1B
:10281000772789E094E00E9445050E944E060E94B9
:1028200032046A567F4F8F4F9F4F60933A047093E4
:102830003B0480933C0490933D040E943204ED9647
:102840006CAF7DAF8EAF9FAFED978091E2038111AA
:1028500005C09091F403992309F4EBC14091F5036D
:102860005091F6036091F7037091F803ED960CAD6B
:102870001DAD2EAD3FADED974017510762077307B1
:1028800008F0D7C1882309F496C00E94C80688239F
:1028900009F4DCC18091DE039091DF03A091E00395
:1028A000B091E1038093F9039093FA03A093FB03A3
:1028B000B093FC030E94C806882309F4CCC1809021
:1028C000DA039090DB03A090DC03B090DD038092EC
:1028D000FD039092FE03A092FF03B0920004C0900B
:1028E000F903D090FA03E090FB03F090FC03A701FA
:1028F0009601C701B6010E944C1C8111B3C1A5010C
:102900009401C501B4010E944C1C8111ABC123ECA0
:1029100035EF4CE851E4C701B6010E9463192B0161
:102920003C0128EB3EE143E753E4C701B6010E94B6
:10293000681A9B01AC01C301B2010E94D41A0E9423
:102940004E1B2B013C0120E030E048EC52E4C50175
:10295000B4010E94D41A21E835E943EC50E40E9406
:102960006319A30192010E9463194B015C0123E3E7
:1029700033E948E853E4C701B6010E94681A9B0195
:10298000AC01C501B4010E94D41A23E333EB48E53E
:1029900053E40E94631920E030E04AE754E40E94C7
:1029A00063190E94801B609301047093020480935A
:1029B0000304909304048091F403882309F46BC00A
:1029C000C0900104D0900204E0900304F09004044D
:1029D000C701B6010E9402199B01AC010E944C1C68
:1029E000811129C011E0C11618EED10613E0E106ED
:1029F000F10408F5C701B60120E039E841E450E0F0
:102A00000E94951C08E10E94C21CC90120E22CAB67
:102A100021E62DAB9EAB8FABCE01C6960E941E0168
:102A200088AF00E030E020E04AE050E065E0CE0111
:102A3000C4960E94860780E266968FAF669788E00C
:102A400067968FAF679702E09E012C5C3F4F4CE08A
:102A500050E062E0CE018B5A9F4F0E9486078111A1
:102A60000AC1E090D503F090D6036DE672E0CE0186
:102A7000C4960E946C0ACE01C496F7010995CE0156
:102A8000C4960E94810710920604109205041092C9
:102A90000804109207040091D5031091D6036091A9
:102AA000070470910804CE0183599F4F0E94290AA0
:102AB0006091050470910604CE0189599F4F0E94D0
:102AC000290A60910104709102048091030490919D
:102AD0000404A3961FAE1EAEA397A5961FAE1EAE0E
:102AE000A597A7961FAE1EAEA7972AE0AE014C5C35
:102AF0005F4F0E947F16BE016C5C7F4FCE018F59E5
:102B00009F4F0E94E9094091FD035091FE0360919F
:102B1000FF0370910004CE01855A9F4F0E94F30974
:102B20004091F9035091FA036091FB037091FC030B
:102B3000CE018B5A9F4F0E94F3096EE772E0CE01DF
:102B4000C4960E946C0ABE016B5A7F4FCE01C49698
:102B50000E9495090E947109BE01655A7F4F0E942B
:102B600095090E947109BE016F597F4F0E94950916
:102B70000E947109BE0169597F4F0E9495090E9408
:102B80007109BE0163597F4F0E949509E5961FAEFA
:102B90001EAEE597E7961FAE1EAEE797E9961FAE0D
:102BA0001EAEE997BC01CE018D589F4F0E94550A79
:102BB000CE018D589F4FF8010995CE018D589F4F3A
:102BC0000E948107CE01C4960E948107CE018B5AD4
:102BD0009F4F0E948107CE01855A9F4F0E94810717
:102BE000CE018F599F4F0E948107CE0189599F4F77
:102BF0000E948107CE0183599F4F0E9481078091D7
:102C0000D1039091D203A091D303B091D403ED9658
:102C10000CAD1DAD2EAD3FADED97800F911FA21FE6
:102C2000B31F8093F5039093F603A093F703B0933B
:102C3000F80380E090E0892B09F4FDCB0E94490263
:102C4000882309F4F8CB0E940000F5CB80E090E0E7
:102C5000A0ECBFE727CE812C912C80ECA82E8FE72B
:102C6000B82E35CE10920104109202041092030483
:102C700010920404A0CE2EA93FA93093E403209320
:102C8000E3038CA99DA99093E6038093E503309319
:102C90000604209305049093080480930704FBCE58
:102CA000CF93DF93C9E0D4E08FA198A50E949C1D2B
:102CB0008EE291E099838883CE01DF91CF910C94CD
:102CC0003806EF920F931F93CF93DF93E80134E020
:102CD00047FD34E1042E000C550B57FF03C05195FE
:102CE00041955109E32E022F242FAE010E94BB16FD
:102CF000CE01DF91CF911F910F91EF900895BB27E7
:102D0000FA01A62F6217710581059105330B30FB7F
:102D100066F0AA27660F771F881F991FAA1FA217A0
:102D200010F0A21B63953850A9F7A05DAA3308F0F4
:102D3000A95DA19336F7B111B1931082CA010C9429
:102D4000F218BB27FB015527AA27880F991FAA1F36
:102D5000A41710F0A41B83955051B9F7A05DAA33B6
:102D600008F0A95DA193009779F7B111B193119281
:102D7000CB010C94F218A9E0B0E0E1ECF6E10C9480
:102D8000271A6A01F22EB02E102FFBE3AF2EA016E9
:102D900008F41BE31F5F012F27E0AE014F5F5F4F79
:102DA0000E941A18BC018981982F9970913009F4FA
:102DB0003FC09BE2E1FC04C09E2D9170E0FC3AC054
:102DC0005E2D5071E82FE87083FF46C084E09111BA
:102DD00001C083E0EF2DE81B8F1508F0E0E0D6017D
:102DE0008E2F20E2552351F1992329F0D6019C938F
:102DF000C60101966C0196012D5F3F4FE2FE24C093
:102E00008EE4D6018C9391E411969C9311971296BF
:102E10008C93D9018E2F90E281111BC0E20FF32F0A
:102E2000F11D10828EEF9FEF2996ECE00C94431A6F
:102E30009DE2C6CF90E2C4CF2D9381508111FCCF8B
:102E4000CE0ED11CE0E0D0CF8EE6D6018C9391E679
:102E5000DBCF9D938150E0CF482F447082FF3DC06F
:102E600084E0911101C083E08F1510F4EF2DE81B71
:102E7000D6018E2F20E2552309F1992329F0D6019E
:102E80009C93C60101966C0196012D5F3F4FE2FEB7
:102E90001BC089E4D6018C938EE411968C93119714
:102EA00086E412968C93D9018E2F90E2882309F440
:102EB000B5CF9D938150FACF2D9381508111FCCFD6
:102EC000CE0ED11CE0E0D9CF89E6D6018C938EE6F8
:102ED00011968C93119786E6E4CF9B0177FF02C091
:102EE00030E020E0A1E0B0E0911102C0B0E0A0E04D
:102EF000F9013196AE0FBF1F8B2C912CBB2009F42A
:102F000061C05401EFEFAE1ABE0AAA0DBB1DFA163E
:102F10001B0619F014F04F2D4A1B511188C0E3FC19
:102F200059C07601A42FB0E2A1114FC0C40ED11C2C
:102F3000992309F45BC040E0D6011196F601908315
:102F40006D01552309F448C0012F060F9A81582FAF
:102F5000507184FF03C0913309F4015010160CF036
:102F600047C0093008F008E0EEE2FE2E5B01A01A2F
:102F7000B10885019194819491082F3F320729F47B
:102F8000D601FC92F60131966F016217730794F136
:102F9000021713077CF5DB01A21BB30BAA24A39431
:102FA000B12CAC0EBD1EAA0DBB1D11968C912150EB
:102FB0003109D601119628153905F4F0F601808300
:102FC0006D01DBCFB12CA12CA0CFF701B1937F0114
:102FD000A150AACF9111B0CFD601942F50E302C0D7
:102FE0005D9391509111FCCFC40ED11C40E0ACCF49
:102FF00001E0BACF80E3DBCF6217730731F4963379
:1030000088F4953311F4552369F0F6018083FD01AE
:10301000842F90E2811108C0A40FB11D1C9290E092
:1030200080E002CF81E3F1CF91938150F3CF9111F2
:1030300083CF8ACF283008F027E03327DA01990FB1
:10304000311D87FD916000966105710539F432608C
:103050002E5F3D9330E32A95E1F708959F3F30F0CE
:1030600080387105610509F03C5F3C5F3D9391300C
:1030700008F08068911DDF93CF931F930F93FF9209
:10308000EF92192F987F9695E92F96959695E90FCF
:10309000FF27E651FF4F99273327EE24FF24A7018E
:1030A000E70105900894079428F4360FE71EF81EF0
:1030B000491F511D660F771F881F991F0694A1F79E
:1030C0000590079428F4E70EF81E491F561FC11DEE
:1030D000770F881F991F661F0694A1F70590079424
:1030E00028F4F80E491F561FC71FD11D880F991FBE
:1030F000661F771F0694A1F70590079420F4490FE7
:10310000561FC71FD81F990F661F771F881F069469
:10311000A9F784911095177041F0D695C7955795EA
:103120004795F794E7941A95C1F7E0E9F0E06894C1
:103130001590159135916591959105907FE2739564
:10314000E118F10A430B560BC90BD009C0F7E10C8B
:10315000F11E431F561FC91FD01D7EF4703311F49A
:103160008A95E6CFE894015030F0080F0AF4002762
:10317000021708F4202F2395022F7A3328F079E3E1
:103180007D932A95E9F710C07D932A9589F60694D8
:1031900097956795379517951794E118F10A430BA2
:1031A000560BC90BD00998F023957E9173957A330D
:1031B00008F070E37C932013B8F77E9170617D93E3
:1031C00030F0839571E37D9370E32A95E1F7112444
:1031D000EF90FF900F911F91CF91DF91992787FD7D
:1031E00090950895DC01FC01672F71917723E1F739
:1031F000329704C07C916D9370836291AE17BF07C4
:10320000C8F30895E89409C097FB3EF49095809523
:10321000709561957F4F8F4F9F4F9923A9F0F92F9C
:1032200096E9BB279395F695879577956795B7951A
:10323000F111F8CFFAF4BB0F11F460FF1BC06F5F00
:103240007F4F8F4F9F4F16C0882311F096E911C012
:10325000772321F09EE8872F762F05C0662371F033
:1032600096E8862F70E060E02AF09A95660F771F47
:10327000881FDAF7880F9695879597F90895990F23
:103280000008550FAA0BE0E8FEEF16161706E80730
:10329000F907C0F012161306E407F50798F0621B51
:1032A000730B840B950B39F40A2661F0232B242B26
:1032B000252B21F408950A2609F4A140A6958FEF45
:1032C000811D811D08950E9476190C94E7190E94B2
:1032D000D91938F00E94E01920F0952311F00C94D0
:1032E000D0190C94D61911240C941B1A0E94F819A9
:1032F00070F3959FC1F3950F50E0551F629FF00149
:10330000729FBB27F00DB11D639FAA27F00DB11D61
:10331000AA1F649F6627B00DA11D661F829F2227EA
:10332000B00DA11D621F739FB00DA11D621F839F71
:10333000A00D611D221F749F3327A00D611D231F47
:10334000849F600D211D822F762F6A2F11249F5795
:1033500050409AF0F1F088234AF0EE0FFF1FBB1F98
:10336000661F771F881F91505040A9F79E3F510557
:1033700080F00C94D0190C941B1A5F3FE4F3983E34
:10338000D4F3869577956795B795F795E7959F5F01
:10339000C1F7FE2B880F911D9695879597F9089593
:1033A00097F99F6780E870E060E008959FEF80ECF8
:1033B000089500240A94161617061806090608959B
:1033C00000240A9412161306140605060895092E01
:1033D0000394000C11F4882352F0BB0F40F4BF2B70
:1033E00011F460FF04C06F5F7F4F8F4F9F4F0895B0
:1033F00057FD9058440F551F59F05F3F71F04795A6
:10340000880F97FB991F61F09F3F79F0879508958A
:10341000121613061406551FF2CF4695F1DF08C0A9
:10342000161617061806991FF1CF869571056105C6
:1034300008940895E894BB2766277727CB0197F96E
:1034400008952F923F924F925F926F927F928F9248
:103450009F92AF92BF92CF92DF92EF92FF920F9323
:103460001F93CF93DF93CDB7DEB7CA1BDB0B0FB62D
:10347000F894DEBF0FBECDBF09942A8839884888EA
:103480005F846E847D848C849B84AA84B984C88480
:10349000DF80EE80FD800C811B81AA81B981CE0F77
:1034A000D11D0FB6F894DEBF0FBECDBFED0108955C
:1034B000A29FB001B39FC001A39F700D811D112475
:1034C000911DB29F700D811D1124911D08955058BA
:1034D000BB27AA270E947F1A0C94E7190E94D919CA
:1034E00038F00E94E01920F039F49F3F19F426F4D7
:1034F0000C94D6190EF4E095E7FB0C94D019E92F43
:103500000E94F81958F3BA176207730784079507E2
:1035100020F079F4A6F50C941A1A0EF4E0950B2E0F
:10352000BA2FA02D0B01B90190010C01CA01A00115
:103530001124FF27591B99F0593F50F4503E68F170
:103540001A16F040A22F232F342F4427585FF3CFB1
:10355000469537952795A795F0405395C9F77EF482
:103560001F16BA0B620B730B840BBAF09150A1F0CB
:10357000FF0FBB1F661F771F881FC2F70EC0BA0F51
:10358000621F731F841F48F4879577956795B795D9
:10359000F7959E3F08F0B0CF9395880F08F09927D4
:1035A000EE0F9795879508950E94E81A0C94E719F5
:1035B0000E94E01958F00E94D91940F029F45F3FA9
:1035C00029F00C94D01951110C941B1A0C94D61993
:1035D0000E94F81968F39923B1F3552391F3951BD1
:1035E000550BBB27AA2762177307840738F09F5F24
:1035F0005F4F220F331F441FAA1FA9F335D00E2E91
:103600003AF0E0E832D091505040E695001CCAF7FD
:103610002BD0FE2F29D0660F771F881FBB1F2617C0
:1036200037074807AB07B0E809F0BB0B802DBF0197
:10363000FF2793585F4F3AF09E3F510578F00C9466
:10364000D0190C941B1A5F3FE4F3983ED4F386958F
:1036500077956795B795F7959F5FC9F7880F911D87
:103660009695879597F90895E1E0660F771F881F73
:10367000BB1F621773078407BA0720F0621B730B26
:10368000840BBA0BEE1F88F7E095089529F416F025
:103690000C94D0190C941A1A0C94D6190E94001A82
:1036A000A8F39638A0F707F80F92E8942BE33AEACC
:1036B00048EB5FE70E9479190F920F920F924DB776
:1036C0005EB70F920E94181CE8E6F0E00E94AF1B64
:1036D0004F915F91EF91FF91E595EE1FFF1F49F02C
:1036E000FE57E0684427EE0F441FFA95E1F7419535
:1036F000550B0E94E21B0F9007FE0C94D61B0895F9
:103700000E94001A88F09F5798F0B92F9927B75157
:10371000B0F0E1F0660F771F881F991F1AF0BA9575
:10372000C9F714C0B13091F00E941A1AB1E008959F
:103730000C941A1A672F782F8827B85F39F0B93F91
:10374000CCF3869577956795B395D9F73EF4909528
:103750008095709561957F4F8F4F9F4F0895DF93B0
:10376000CF931F930F93FF92EF92DF927B018C0117
:10377000689406C0DA2EEF010E947619FE01E894E3
:10378000A5912591359145915591A6F3EF010E94A0
:103790007F1AFE019701A801DA9469F7DF90EF9094
:1037A000FF900F911F91CF91DF9108959B01AC0184
:1037B00060E070E080E89FE30C94D41A0C94D01978
:1037C0000C94511C0E94001AD8F39923C9F3940F4A
:1037D000511DA3F39150504094F059F0882332F0DA
:1037E000660F771F881F91505040C1F79E3F5105CB
:1037F0002CF7880F911D9695879597F908955F3F4F
:10380000ACF0983E9CF0BB27869577956795B79569
:1038100008F4B1609395C1F7BB0F58F711F460FF3E
:10382000E8CF6F5F7F4F8F4F9F4FE3CF0C941B1AF2
:10383000FA01DC01AA0FBB1F9B01AC01BF5728F4A2
:10384000222733274427507820C0B75190F4AB2F5C
:103850000024469537952795011CA395D2F30020A7
:1038600071F0220F331F441FB395DAF30ED00C947E
:10387000671A61307105A0E88A07B94630F49B01E8
:10388000AC016627772788279078309621F020832F
:1038900031834283538308950E943F19880B990B0B
:1038A00008959F3F31F0915020F487957795679563
:1038B000B795880F911D9695879597F9089597FB71
:1038C000072E16F4009407D077FD09D00E94DD1C66
:1038D00007FC05D03EF4909581959F4F0895709513
:1038E00061957F4F0895A1E21A2EAA1BBB1BFD0113
:1038F0000DC0AA1FBB1FEE1FFF1FA217B307E407CF
:10390000F50720F0A21BB30BE40BF50B661F771F26
:10391000881F991F1A9469F7609570958095909506
:103920009B01AC01BD01CF010895E894DF93CF93D3
:10393000FC01DB010E94581A7F936F93E9019A0101
:10394000AC01BF93AF933F932F93DF010E94581AAE
:1039500026F46C1B7D0B820B930B9E01EB01FC018B
:103960000E94F71CAF91BF912F913F910E94F71CCD
:10397000BE01CF01F9012F913F91CF91DF910895C1
:1039800097FD1094002E083098F00850232F342F04
:10399000452F562F672F782F892F912DF4CF15940F
:1039A0009795879577956795579547953795279577
:1039B0000A95AAF71124002D0895AA1BBB1B51E1FB
:1039C00007C0AA1FBB1FA617B70710F0A61BB70B8F
:1039D000881F991F5A95A9F780959095BC01CD0134
:1039E0000895EE0FFF1F0590F491E02D09940E94B9
:1039F000581A460F571FC81FD91F08F4319608954B
:103A00000F931F93CF93DF938230910510F482E0E0
:103A100090E0E0916505F091660530E020E0B0E0CF
:103A2000A0E0309799F42115310509F44AC0281B0C
:103A3000390B24303105D8F58A819B8161157105D8
:103A400089F1FB0193838283FE0111C04081518182
:103A50000281138148175907E0F04817590799F474
:103A6000109761F012960C93129713961C9332964E
:103A7000CF01DF91CF911F910F91089500936505BC
:103A800010936605F4CF2115310551F04217530705
:103A900038F0A901DB019A01BD01DF01F801C1CFB6
:103AA000EF01F9CF9093660580936505CDCFFE01B8
:103AB000E20FF31F819391932250310939832883B8
:103AC000D7CF2091630530916405232B41F42091D9
:103AD0000201309103013093640520936305209126
:103AE0000001309101012115310541F42DB73EB798
:103AF0004091040150910501241B350BE0916305B1
:103B0000F0916405E217F307A0F42E1B3F0B281772
:103B1000390778F0AC014E5F5F4F2417350748F046
:103B20004E0F5F1F509364054093630581939193FB
:103B30009FCFF0E0E0E09CCFCF93DF930097E9F0D8
:103B4000FC01329713821282A0916505B09166053F
:103B5000ED0130E020E01097A1F420813181820F47
:103B6000931F20916305309164052817390709F0E8
:103B700061C0F0936405E0936305DF91CF910895F0
:103B8000EA01CE17DF07E8F54A815B819E01411506
:103B90005105B1F7E901FB83EA8349915991C40FBB
:103BA000D51FEC17FD0761F4808191810296840F87
:103BB000951FE90199838883828193819B838A83FE
:103BC000F0E0E0E012968D919C9113970097B9F583
:103BD0002D913C911197CD010296820F931F209158
:103BE0006305309164052817390739F6309751F588
:103BF0001092660510926505B0936405A093630565
:103C0000BCCFD383C28340815181840F951FC817D5
:103C1000D90761F44E5F5F4F88819981480F591F22
:103C2000518340838A819B8193838283211531054F
:103C300009F0B0CFF0936605E09365059ECFFD01D6
:103C4000DC01C0CF13821282D7CFB0E0A0E0EBE25C
:103C5000FEE10C94231A8C01009751F4CB010E94D1
:103C6000001D8C01C801CDB7DEB7E0E10C943F1A0E
:103C7000FC01E60FF71F9C0122503109E217F30700
:103C800008F49DC0D901CD91DC911197C617D707D3
:103C900098F0C530D10530F3CE0104978617970709
:103CA00008F3C61BD70B2297C193D1936D937C93D6
:103CB000CF010E949C1DD6CF5B01AC1ABD0A4C01FE
:103CC0008C0E9D1EA0916505B0916605512C412C6E
:103CD000F12CE12C109731F58091630590916405EA
:103CE0008815990509F05CC04616570608F058C0BB
:103CF0008091000190910101009741F48DB79EB72A
:103D00004091040150910501841B950BE817F907B8
:103D100008F055C0F0936405E0936305F9017183E1
:103D20006083A0CF8D919C91119712966C90129701
:103D300013967C901397A815B90559F56C0142E0CC
:103D4000C40ED11CCA14DB0420F1AC014A195B0972
:103D5000DA011296159780F0628273825183408354
:103D6000D9016D937C93E114F10471F0D70113969E
:103D7000FC93EE93129776CF22968C0F9D1FF9013C
:103D800091838083F301EFCFF0936605E09365059F
:103D900069CF4816590608F42C017D01D3019ACF4A
:103DA000CB010E94001D7C01009749F0AE01B801D3
:103DB0000E94E21EC8010E949C1D870153CF10E0A3
:103DC00000E050CFFB01DC0102C001900D92415098
:103DD0005040D8F70895FB01DC0101900D920020BE
:103DE000E1F70895FB01DC014150504048F001909B
:103DF0000D920020C9F701C01D9241505040E0F7DC
:103E0000089510E0C3EFD0E004C0FE010E94F11C51
:0C3E10002196C43FD107C9F7F894FFCFFA
:103E1C00000067058000000000007F02DF010C023B
:103E2C00CC023D021B022F0200000000FC04CF0458
:103E3C007C06A504C804B504A60400000000A10576
:103E4C00DF017C06A504FD0515062B0545050D0AAD
:103E5C000051554555453A206572726F7220647554
:103E6C006520746F20756E646573697261626C6530
:103E7C002073697A6520666F72207175657565208F
:103E8C0073697A652E0051554555453A20696E7314
:103E9C00756666696369656E74206D656D6F7279A0
:103EAC0020746F20696E697469616C697A6520741D
:103EBC00656D706F726172792071756575652E0014
:103ECC0053454E3A5347503330206E6F742064651F
:103EDC007465637465640053454E3A5347503330F0
:103EEC002064657465637465640053454E3A5347AA
:103EFC0050333020696E697469616C697A6564004D
:103F0C0053454E3A53485433312064657465637499
:103F1C0065640053454E3A5348543331206E6F74E8
:103F2C00206465746563746564005349473A0053B3
:103F3C00414950004C45443A003132333435363720
:103F4C003855545350004C43443A0051554555454F
:103F5C003A2063616E277420706F70206974656DF0
:103F6C002066726F6D2071756575653A2071756587
:103F7C00756520697320656D7074792E0053454EFC
:103F8C003A205347503330206572726F72004149AA
:043F9C00523A000095
:00000001FF
