:100000000C9463000C948B000C948B000C944309AB
:100010000C9443090C9443090C948B000C948B00B2
:100020000C948B000C948B000C948B000C948B0024
:100030000C948B000C948B000C948B000C948B0014
:100040000C94DE070C948B000C94AC070C94860780
:100050000C948B000C948B000C948B000C948B00F4
:100060000C9428080C948B0000000000240027004A
:100070002A0000000008000201000003040700003D
:1000800000000000000000000000230026002900FE
:1000900000000000250028002B00040404040404D0
:1000A0000404020202020202030303030303010227
:1000B00004081020408001020408102001020408F6
:1000C0001020DF09670E11241FBECFEFD8E0DEBF7E
:1000D000CDBF24E0A4EFB1E001C01D92A434B2076B
:1000E000E1F711E0A0E0B1E0EAE1F2E202C0059040
:1000F0000D92A43FB107D9F710E0C2E6D0E004C0EA
:100100002197FE010E94F90EC136D107C9F70E945E
:10011000090B0C9400110C940000AF92BF92CF9287
:10012000DF92EF92FF920F931F93CF93DF936C01B7
:100130007B018B01040F151FEB015E01AE18BF0898
:10014000C017D10759F06991D601ED91FC9101904A
:10015000F081E02DC6010995892B79F7C501DF9162
:10016000CF911F910F91FF90EF90DF90CF90BF90B4
:10017000AF900895FC01538D448D252F30E0842FDE
:1001800090E0821B930B541710F0CF9608950197BF
:100190000895FC01918D828D981761F0A28DAE0FAC
:1001A000BF2FB11D5D968C91928D9F5F9F73928F33
:1001B00090E008958FEF9FEF0895FC01918D828D5F
:1001C000981731F0828DE80FF11D858D90E008952C
:1001D0008FEF9FEF0895FC01918D228D892F90E084
:1001E000805C9F4F821B91098F73992708958AE83D
:1001F00093E00E94EB0021E0892B09F420E0822F9C
:10020000089580E090E0892B29F00E94F700811189
:100210000C9400000895FC01A48DA80FB92FB11D06
:10022000A35ABF4F2C91848D90E001968F7399272C
:10023000848FA689B7892C93A089B1898C9183700A
:1002400080648C93938D848D981306C00288F38903
:10025000E02D80818F7D80830895EF92FF920F9330
:100260001F93CF93DF93EC0181E0888F9B8D8C8D62
:1002700098131AC0E889F989808185FF15C09FB756
:10028000F894EE89FF896083E889F9898081837019
:10029000806480839FBF81E090E0DF91CF911F91C8
:1002A0000F91FF90EF900895F62E0B8D10E00F5FE9
:1002B0001F4F0F731127E02E8C8D8E110CC00FB6BF
:1002C00007FCFACFE889F989808185FFF5CFCE0157
:1002D0000E940B01F1CFEB8DEC0FFD2FF11DE35AC6
:1002E000FF4FF0829FB7F8940B8FEA89FB898081DA
:1002F0008062CFCFCF93DF93EC01888D8823B9F054
:10030000AA89BB89E889F9898C9185FD03C0808120
:1003100086FD0DC00FB607FCF7CF8C9185FFF2CF9D
:10032000808185FFEDCFCE010E940B01E9CFDF91E7
:10033000CF910895833081F028F4813099F0823094
:10034000A9F008958730A9F08830C9F08430B1F45D
:10035000809180008F7D03C0809180008F77809393
:100360008000089584B58F7784BD089584B58F7D0E
:10037000FBCF8091B0008F778093B000089580917B
:10038000B0008F7DF9CFCF93DF93282F30E0F901B4
:10039000EE58FF4F8491F901E255FF4FD491F901D6
:1003A000E656FF4FC491CC23A1F081110E949A011F
:1003B000EC2FF0E0EE0FFF1FEA57FF4FA591B4912D
:1003C000EC91ED2381E090E009F480E0DF91CF91A2
:1003D000089580E090E0FACF1F93CF93DF93282F0A
:1003E00030E0F901EE58FF4F8491F901E255FF4FDB
:1003F000D491F901E656FF4FC491CC23A9F0162FF2
:1004000081110E949A01EC2FF0E0EE0FFF1FE057E0
:10041000FF4FA591B4918FB7F894EC91111108C0DA
:10042000D095DE23DC938FBFDF91CF911F9108958C
:10043000DE2BF8CFCF93DF9390E0FC01E255FF4F26
:10044000249186569F4FFC0184918823C9F090E047
:10045000880F991FFC01E859FF4FA591B491FC0149
:10046000E057FF4FC591D49161110DC09FB7F8942B
:100470008C91209582238C938881282328839FBF89
:10048000DF91CF910895623051F49FB7F8943C9179
:10049000822F809583238C93E8812E2BEFCF8FB70B
:1004A000F894EC912E2B2C938FBFEACF3FB7F894A2
:1004B0008091E4029091E502A091E602B091E702FA
:1004C00026B5A89B05C02F3F19F00196A11DB11DAF
:1004D0003FBFBA2FA92F982F8827BC01CD01620FEB
:1004E000711D811D911D42E0660F771F881F991FA6
:1004F0004A95D1F708958F929F92AF92BF92CF9273
:10050000DF92EF92FF924B015C010E9456026B0159
:100510007C010E9456026C197D098E099F09683E74
:10052000734081059105A8F321E0821A9108A10882
:10053000B10888EEC80E83E0D81EE11CF11C8114BE
:100540009104A104B10429F7FF90EF90DF90CF90C0
:10055000BF90AF909F908F9008952FB7F8946091BF
:10056000E0027091E1028091E2029091E3022FBFDC
:100570000895CF92DF92EF92FF920F931F930E9404
:10058000AD02C0903204D0903304E0903404F09077
:10059000350400912D0410912E0420912F043091E8
:1005A0003004E0913104EE2369F0AB01BC014C1939
:1005B0005D096E097F09E1E0401751076207730783
:1005C00008F0E0E08E2F1F910F91FF90EF90DF90E9
:1005D000CF90089585ED8093BC008091BC0084FD90
:1005E000FCCF1092B902089520919502260F33276F
:1005F000331F21323105ECF42091B902FC0190E067
:1006000080E0243069F082E00895A0919502219164
:10061000AC014B585D4FA40FB52FB11D2C93019623
:10062000861798F380919502680F6093950280E099
:10063000089581E0089508958FEF9FEF08958FEF5B
:100640009FEF08958091740290E0919581959109B2
:100650000895CF93DF93CB01EA01642F0E94F40247
:10066000CE01DF91CF910895CF93DF931F92CDB745
:10067000DEB7698361E0CE0101960E94F40281E059
:1006800090E00F90DF91CF9108952091EA02309190
:10069000EB022817390781F49091E8028091E90272
:1006A000981751F0E091E802F0E0EE0FFF1FEC50D8
:1006B000FE4F8081918108958FEF9FEF0895EF9213
:1006C000FF920F931F93CF93DF93DC015C964D91C4
:1006D0005C915D974115510579F481E090E01396A6
:1006E0009C938E93129790E080E0DF91CF911F91C1
:1006F0000F91FF90EF9008955196ED91FC915297D4
:1007000050968C915097982F9095EFB65E962C91BD
:100710005E97322F3270F32E21FF02C060957095E4
:10072000F8942081FF2001F1282B2083EA012197F2
:10073000F1F729E0308160FF19C0382B3083EA01DE
:100740002197F1F7769567952150A1F7FF2081F069
:10075000808189238083EFBE5C968D919C91019767
:10076000F1F781E090E0C1CF2923DFCF3923E6CF35
:100770009081892BEFCFEF92FF920F931F93CF932E
:10078000DF93DC015C96ED90FC905D97E114F10441
:1007900079F481E090E013969C938E93129790E009
:1007A00080E0DF91CF911F910F91FF90EF9008951E
:1007B0005196ED91FC91529750968C915097982FAD
:1007C00090950FB75E962C915E97122F127021FDB7
:1007D0006095F8942081112319F1282B2083E701DB
:1007E0002197F1F728E0462F50E0308160FF1AC0D2
:1007F000382B3083E7012197F1F7BA01759567959A
:10080000215089F7112381F08081892380830FBFD4
:100810005C968D919C910197F1F781E090E0C1CFBA
:100820002923DCCF3923E5CF9081892BEFCF20918D
:10083000EA023091EB022817390771F48091E9023E
:100840002091E80290E0805C9F4F821B910960E458
:1008500070E00E94AF0E089590E080E0089520912E
:10086000EA023091EB0228173907C9F49091E802A7
:100870008091E902981799F0E091E802F0E0EE0F1C
:10088000FF1FEC50FE4F808191812091E80230E003
:100890002F5F3F4F2F7333272093E80208958FEF88
:1008A0009FEF0895E091EA02F091EB02E817F90753
:1008B00069F4A389B4899C918589809589238C9357
:1008C0001092EB021092EA0281E0089580E0089510
:1008D0008091060390910703892B31F18091EA0200
:1008E0009091EB0222E08C3E9207F1F0009711F01C
:1008F0000E94520480910A038E7F80930A03109213
:10090000E9021092E8028CEE92E09093EB02809361
:10091000EA02E091FF02F0910003808190910103CF
:10092000892B808381E0089580E0089590E080E045
:100930000895CF93DF93EC0188819981009711F09E
:100940000E949B0F198218821D821C821B821A82B0
:10095000DF91CF910895FC01808191810C949B0FD0
:100960000F931F93CF93DF93EC01888199810097B8
:1009700059F02A813B812617370730F081E0DF915B
:10098000CF911F910F9108958B016F5F7F4F0E9450
:100990002410009759F0998388831B830A832C8144
:1009A0003D81232B59F7FC011082E8CF80E0E7CF8F
:1009B000EF92FF920F931F93CF93DF93EC01FB0114
:1009C000E080F180E114F10411F104811581011539
:1009D0001105A9F08C819D81080F191FB801CE0166
:1009E0000E94B004882399F0288139818C819D81EF
:1009F000B701820F931F0E94EA101D830C83CE0162
:100A0000DF91CF911F910F91FF90EF900895CE014C
:100A10000E949904F4CFEF92FF920F931F93CF930C
:100A2000DF93EC018617970781F0FB0100811181AC
:100A30000115110539F0E480F580B7010E94B0047A
:100A400081110BC0CE010E949904CE01DF91CF919C
:100A50001F910F91FF90EF900895FD82EC82B801F5
:100A6000888199810E94EA10F0CFEF92FF920F9354
:100A70001F93CF93DF93EC01198218821B821A8295
:100A80001D821C826115710521F18B01FB01019012
:100A90000020E9F731977F01E61AF70AB7010E94B3
:100AA000B004811109C0CE01DF91CF911F910F9148
:100AB000FF90EF900C949904FD82EC82B80188813C
:100AC0009981DF91CF911F910F91FF90EF900C943E
:100AD000EA10DF91CF911F910F91FF90EF90089551
:100AE0000F931F93CF93DF93CDB7DEB767970FB602
:100AF000F894DEBF0FBECDBF85E0E1E3F1E0DE019B
:100B0000539601900D928A95E1F72091540330910C
:100B1000550390E080E04EE2B901082E02C07595C1
:100B200067950A94E2F760FD07C0E3E1F0E0EC0F9F
:100B3000FD1FE80FF91F408301968430910561F78E
:100B400000910F0310911003BE016D5E7F4FCE0127
:100B500007960E9435056CE271E0CE010D960E9469
:100B60003505BE01695F7F4FCE010D960E94D80406
:100B70001A8219821C821B821E821D82BC01CE0138
:100B800001960E940B05CE010196F8010995CE0150
:100B900001960E94AB04CE010D960E94AB04CE01DB
:100BA00007960E94AB0467960FB6F894DEBF0FBE9F
:100BB000CDBFDF91CF911F910F9108950F931F9398
:100BC000CF93DF93CDB7DEB76F970FB6F894DEBF44
:100BD0000FBECDBF8DE0EBE3F1E0DE011196019099
:100BE0000D928A95E1F7209156033091570390E0DA
:100BF00080E04EE2B901082E02C0759567950A940F
:100C0000E2F760FD07C0E1E0F0E0EC0FFD1FE80F48
:100C1000F91F408301968C30910561F700910F0315
:100C200010911003BE016F5F7F4FCE0144960E946A
:100C3000350566E371E0CE014A960E943505BE0196
:100C40006C5E7F4FCE014A960E94D8041F861E8696
:100C5000198A188A1B8A1A8ABC01CE010E960E9434
:100C60000B05CE010E96F8010995CE010E960E9455
:100C7000AB04CE014A960E94AB04CE0144960E947A
:100C8000AB046F960FB6F894DEBF0FBECDBFDF91F9
:100C9000CF911F910F9108950F931F93CF93DF93DF
:100CA000CDB7DEB762970FB6F894DEBF0FBECDBFEB
:100CB00000910F031091100368E573E0CE010796D1
:100CC0000E94350568E471E0CE010D960E9435055D
:100CD000BE01695F7F4FCE010D960E94D8041A8233
:100CE00019821C821B821E821D82BC01CE010196CC
:100CF0000E940B05CE010196F8010995CE010196DF
:100D00000E94AB04CE010D960E94AB04CE01079663
:100D10000E94AB0462960FB6F894DEBF0FBECDBF43
:100D2000DF91CF911F910F910895FB010190002059
:100D3000E9F73197AF01461B570BDC01ED91FC91B0
:100D40000280F381E02D09940F931F93CF93DF93DB
:100D50008C010E94B9028823C9F0C0913E04D09151
:100D60003F04F8014481558160817181E881F981F6
:100D70000280F381E02DCE0109956DE471E0CE0192
:100D8000DF91CF911F910F910C949506DF91CF9138
:100D90001F910F910895EC01009739F00E9495067C
:100DA0006DE471E0CE010E9495060E94C609AF92E3
:100DB000BF92CF92DF92EF92FF920F931F93CF9348
:100DC000DF938C0160E571E01816190664F50E9446
:100DD000FF0EEC01009729F1A0901703B0901803C3
:100DE000E0901303F09014032091190330911A033B
:100DF000C0901503D0901603FC01281B390BCF01BE
:100E00008C1B9D0B8A159B05A4F4C9018E0F9F1F97
:100E1000B6010E94AF0ED701A80FB91F8C91819324
:100E2000EECF65E871E080911103909112030E946A
:100E3000CB06C7010E949B0FD0931403C0931303EA
:100E400010921A03109219038091170390911803BE
:100E500090931C0380931B031093160300931503B8
:100E6000DF91CF911F910F91FF90EF90DF90CF9086
:100E7000BF90AF900895CF93C82F809117039091A2
:100E8000180320911503309116038217930721F45C
:100E9000880F991F0E94D706E0911303F091140365
:100EA00080911B0390911C039C012F5F3F4F309357
:100EB0001C0320931B03E80FF91FC08320911B0321
:100EC00030911C0380911503909116032817390760
:100ED00021F410921C0310921B0380911703909130
:100EE000180301969093180380931703CF910895E8
:100EF000CF93DF93EC016FEB71E00E9495066DE4F8
:100F000071E0CE01DF91CF910C9495061F920F9264
:100F10000FB60F9211242F933F934F935F936F93CC
:100F20007F938F939F93AF93BF93EF93FF938AE841
:100F300093E00E940B01FF91EF91BF91AF919F91C0
:100F40008F917F916F915F914F913F912F910F9072
:100F50000FBE0F901F9018951F920F920FB60F9211
:100F600011242F938F939F93EF93FF93E0919A0314
:100F7000F0919B038081E091A003F091A10382FD99
:100F80001BC090818091A3038F5F8F732091A40376
:100F9000821741F0E091A303F0E0E657FC4F958FF4
:100FA0008093A303FF91EF919F918F912F910F90C9
:100FB0000FBE0F901F9018958081F4CF1F920F9253
:100FC0000FB60F9211242F933F938F939F93AF935C
:100FD000BF938091E0029091E102A091E202B09172
:100FE000E3023091DF0223E0230F2D3758F50196FD
:100FF000A11DB11D2093DF028093E0029093E102D6
:10100000A093E202B093E3028091E4029091E502A2
:10101000A091E602B091E7020196A11DB11D809357
:10102000E4029093E502A093E602B093E702BF9139
:10103000AF919F918F913F912F910F900FBE0F9085
:101040001F90189526E8230F0296A11DB11DD2CF3F
:101050001F920F920FB60F9211242F933F934F932D
:101060005F936F937F938F939F93AF93BF93EF9310
:10107000FF938091B900887F803609F44AC0F0F56B
:10108000883209F4A5C018F5803109F499C0B8F484
:10109000882309F4F5C0883009F492C0FF91EF91DC
:1010A000BF91AF919F918F917F916F915F914F9180
:1010B0003F912F910F900FBE0F901F901895883180
:1010C00009F486C0803251F78093B80214C080348E
:1010D00009F49BC040F48033B9F38833F9F6809368
:1010E000B80285ECAEC0803509F483C0883509F4B8
:1010F00094C0883499F60E94EA02D0CF883909F466
:101100008AC038F5883729F050F4883611F08037D6
:1011100029F683E08093B9021092B70255C088384F
:1011200009F479C0803919F0803809F0B7CF80917F
:10113000B702803208F06FC0E091B70281E08E0FF5
:101140008093B7028091BB00F0E0E956FD4F8083A9
:101150003BC0803B39F0D0F4803A09F477C0883A3C
:1011600009F09CCF84E08093B9021092960210920D
:101170009502F0E0E0E009958091950281110FC0A1
:1011800081E0809395021092750209C0803C09F4B9
:10119000A8CF883C09F4A5CF883B09F07FCFE09128
:1011A000960281E08E0F80939602F0E0EB58FD4F9F
:1011B00080818093BB00909196028091950229C016
:1011C0008091DE028093BB0085EC8093BC0066CFEB
:1011D0009091DD028091DC02981758F5E091DD02D4
:1011E00081E08E0F8093DD02F0E0E454FD4F8081BA
:1011F000E9CFE091DD0281E08E0F8093DD028091E6
:10120000BB00F0E0E454FD4F80839091DD028091BB
:10121000DC029817C8F285E8D8CFE091DD0281E0C2
:101220008E0F8093DD028091BB00F0E0E454FD4F0F
:1012300080838091BB0281115ECF81E08093BA02EE
:1012400084EA8093BC001092B90228CF85EC809389
:10125000BC001092B9028091B702803230F4E09164
:10126000B702F0E0E956FD4F10826091B70270E0DE
:1012700087E992E0F0E0E0E009951092B7020ECF26
:101280001092B80238CF1F920F920FB60F9211240E
:101290002F933F934F935F936F938F939F93AF934E
:1012A000BF93CF93DF93EF93FF93E091EA02F09126
:1012B000EB02309749F0A685B7859585868D81FF2D
:1012C00015C08C918923A9F4FF91EF91DF91CF9103
:1012D000BF91AF919F918F916F915F914F913F918E
:1012E0002F910F900FBE0F901F9018958C9189230E
:1012F00059F7A389B4899C918589809589238C931A
:10130000868997890197F1F7408D518DC685D785DC
:10131000658529E090E080E0DA011197F1F7969574
:1013200087953881362309F090682150A9F79C01F0
:10133000220F232F221F330B3195868D81FF02C090
:10134000209530958091E90290E001968F7399275E
:101350004091E8024817B1F0A091E902B0E0AA0F6D
:10136000BB1FAC50BE4F2D933C938093E902828DFE
:10137000938D0197F1F7A389B4898C919589892B75
:101380008C93A2CF868D8160868FF1CF61E08DE056
:101390000E941A0261E08DE00E94EC016AEF70E0A9
:1013A00080E090E00E947B0260E08DE00E94EC0112
:1013B0006AEF70E080E090E00E947B02EBCF109239
:1013C0008D0310928C0388EE93E0A0E0B0E0809350
:1013D0008E0390938F03A0939003B09391032AE020
:1013E00031E030938B0320938A0325EC30E0309377
:1013F00097032093960324EC30E0309399032093D5
:10140000980320EC30E030939B0320939A0321EC67
:1014100030E030939D0320939C0322EC30E0309326
:101420009F0320939E0326EC30E03093A10320938A
:10143000A0031092A3031092A4031092A50310928C
:10144000A6031092310410923904109238041092BD
:101450003A0410923B0410923C0410923D042AE896
:1014600033E030933F0420933E0440E052EC61E0CF
:1014700070E04093270450932804609329047093EC
:101480002A042DE030E030932C0420932B044CED03
:1014900055E060E070E040932D0450932E0460937B
:1014A0002F047093300428E737E0309337042093FB
:1014B00036041092EF021092EE028093F0029093A5
:1014C000F102A093F202B093F3028CE191E09093C9
:1014D000ED028093EC02109203031092020310922B
:1014E0000503109204031092070310920603109252
:1014F00009031092080360910A036E7F6D7F609369
:101500000A036695617081E068278BE00E94EC0118
:1015100061E08BE00E941A02E9EBF0E0E491E093D5
:10152000FC02E5EAF0E0E491F0E0EE0FFF1FE05787
:10153000FF4F859194919093FE028093FD0260E0AD
:101540008AE00E941A0280910A0381FD04C061E0D2
:101550008AE00E94EC018AE08093F802E8EBF0E078
:10156000E491E093F902E4EAF0E0E491F0E0EE0FB8
:10157000FF1FEA57FF4F859194919093FB02809350
:10158000FA0210921603109215031092180310928B
:10159000170310921A031092190310921C03109251
:1015A0001B03109212031092110382E090E00E943C
:1015B000FF0E9093140380931303892B11F40E9460
:1015C000C60982E090E0909316038093150383E0B0
:1015D00080930B0382E080930C0384E080930D03DF
:1015E00085E080930E0384EA96E090931003809345
:1015F0000F0362E083E00E941A0262E082E00E9430
:101600001A0262E084E00E941A0262E085E00C9413
:101610001A02CF93DF93CDB7DEB7E3970FB6F894F6
:10162000DEBF0FBECDBF789484B5826084BD84B523
:10163000816084BD85B5826085BD85B5816085BDCD
:1016400080916E00816080936E0010928100809185
:10165000810082608093810080918100816080930D
:101660008100809180008160809380008091B10032
:1016700084608093B1008091B00081608093B0005D
:1016800080917A00846080937A0080917A008260F1
:1016900080937A0080917A00816080937A008091B3
:1016A0007A00806880937A001092C10061E0809196
:1016B0002B040E941A0261E080912B040E94EC012D
:1016C00064EC79E080E090E00E947B0200913E04AF
:1016D00010913F04C0902704D0902804E090290482
:1016E000F0902A04D8015096ED91FC9182E080831D
:1016F000C114B1EEDB06E104F104A1F060E079E091
:101700008DE390E0A70196010E94C30E215031099C
:101710004109510956954795379527952115E0E1DF
:101720003E07A8F0D8015096ED91FC91108260E838
:1017300074E88EE190E0A70196010E94C30E21504B
:101740003109410951095695479537952795D80193
:101750001C96ED91FC911D9730831E96ED91FC91A6
:101760001F97208358961C9258975496ED91FC91A0
:10177000559786E080835296ED91FC915397808136
:10178000806180835296ED91FC91539780818860AF
:1017900080835296ED91FC9153978081806880837D
:1017A0005296ED91FC9180818F7D808360E08091E5
:1017B0002B040E94EC011092070310920603109272
:1017C000050310920403109203031092020382E0B7
:1017D0009DE090930903809308039091F80296315D
:1017E00008F047C02FE636E030930303209302034E
:1017F00020E03DE0309305032093040327EB39E01C
:1018000030930703209306032091680084E098300A
:1018100048F031E09E3008F430E081E001C0880FEC
:101820003A95EAF7822B809368002DE630E09830F5
:1018300050F02BE630E09E3030F02CE630E0963170
:1018400010F030E020E0309300032093FF02292FB6
:1018500030E0983008F0A4C081E001C0880F9A956C
:10186000EAF780930103809108039091090301979F
:10187000F1F70E9468040E94AD0260931D0370930B
:101880001E0380931F03909320030E9470050E9403
:10189000DE050E944C06F12CE12C6701E894C0F8AB
:1018A0006894E0F870E0A72E70E0B72E9924939426
:1018B0000E94AD0200913A0410913B0420913C0437
:1018C00030913D04061717072807390718F56C50A3
:1018D0007E4F8F4F9F4F60933A0470933B048093E9
:1018E0003C0490933D040E94B902882341F081E0BA
:1018F0002091380430913904232B09F080E0282FFF
:1019000030E03093390420933804682F80912B0401
:101910000E94EC0180910B03882329F00E94C301EF
:101920008701892B09F0860180910C03882309F433
:1019300044C00E94C301892B09F03FC0026080911E
:101940000D038823E1F10E94C301892BC1F50460D6
:1019500080910E038823A9F10E94C301892B89F588
:10196000086080915403909155030817190731F0CE
:1019700010935503009354030E9470058CEE92E07F
:101980000E941704892B09F491C08CEE92E00E940A
:101990002F0490FF18C08093210390925303EECF41
:1019A0009E3040F42850310981E001C0880F2A950B
:1019B000EAF757CF2E503109F7CF0D7FC0CF0B7FFD
:1019C000C7CF077FCECFE0915303E233B8F6209123
:1019D00021032C3441F1203589F6E33048F491E0BD
:1019E0009E0F90935303F0E0E451FD4F85ABC6CFBB
:1019F000E33021F6909122033091230320E5290F53
:101A0000230F28130AC0892F990F990B932B9093BA
:101A10005703809356030E94DE05809153038F5F26
:101A200080935303ABCF6E2F70E0E13059F02091DB
:101A30002203022E000C330BA9014F5F5F4F4617A4
:101A400057073CF0EF5FE093530364517D4FFB0178
:101A5000CDCF2E5F3F4F2617370709F08FCFECEE23
:101A6000F2E090E0BF016C5E72406217730724F4ED
:101A700065A9960F3196F6CF8913CFCF24513D4FEC
:101A8000D901D5961C9283E3E1E2F3E0DE011196E1
:101A900001900D928A95E1F7BE016D5F7F4F88E559
:101AA00093E00E94F1100E944C06B7CF809117037B
:101AB00090911803892B09F482C00E94AD02009115
:101AC0001D0310911E0320911F0330912003061760
:101AD00017072807390708F072C0209117033091C3
:101AE00018032115310541F461EC71E08091110377
:101AF000909112030E94CB06E0911303F09114031E
:101B00008091190390911A03AC014F5F5F4F50937E
:101B10001A0340931903E80FF91F0081215031097E
:101B200030931803209317038091150390911603A7
:101B30004817590721F410921A031092190321151E
:101B4000310591F0AC0197FF02C04D5F5F4F559595
:101B50004795559547954217530734F097FD0196E1
:101B6000959587950E94D7068CEE92E00E945204CC
:101B70006BE471E08CEE92E00E945F03002E000C9B
:101B8000110BB80177278CEE92E00E945F03B80139
:101B9000655B7F4F77278CEE92E00E945F030E9487
:101BA00068040E94AD026A567F4F8F4F9F4F60932B
:101BB0001D0370931E0380931F0390932003809155
:101BC0003E0490913F04DC01ED91FC910284F38589
:101BD000E02D09958C018A97B9F4909231040E9406
:101BE000AD02609332047093330480933404909375
:101BF0003504E0913604F091370480913E049091D1
:101C00003F0409950FEF1FEF0E94B902882381F06E
:101C10000F3F100769F0073309F446C004F502339B
:101C2000D9F194F40033A1F1ACF58AEA0132A1F0C4
:101C3000A114B10409F43CCE0E94F700882309F4F2
:101C400037CE0E94000034CE043351F13CF105330D
:101C500049F186E3063361F70E943B07E9CF0F366F
:101C600049F14CF4093321F10CF10F3349F18AE3C6
:101C7000033691F3DDCF033709F124F48DE3003708
:101C800059F3D6CF0637C1F08CE3083729F3D0CF0C
:101C900080E3E2CF81E3E0CF82E3DECF83E3DCCFFA
:101CA00084E3DACF85E3D8CF87E3D6CF88E3D4CFF8
:101CB00089E3D2CF8BE3D0CF8EE3CECF8FE3CCCFEF
:101CC0000E9470050E94DE050E944C06B1CFCF93A2
:101CD000DF93CCEED2E08FA198A50E949B0F8CE100
:101CE00091E099838883CE01DF91CF910C945204C7
:101CF0002F923F924F925F926F927F928F929F921C
:101D0000AF92BF92CF92DF92EF92FF920F931F9309
:101D1000CF93DF93CDB7DEB7CA1BDB0B0FB6F894BA
:101D2000DEBF0FBECDBF09942A88398848885F84FA
:101D30006E847D848C849B84AA84B984C884DF806B
:101D4000EE80FD800C811B81AA81B981CE0FD11D4F
:101D50000FB6F894DEBF0FBECDBFED01089597FB1F
:101D6000072E16F4009407D077FD09D00E94E50EE7
:101D700007FC05D03EF4909581959F4F089570958E
:101D800061957F4F0895A1E21A2EAA1BBB1BFD018E
:101D90000DC0AA1FBB1FEE1FFF1FA217B307E4074A
:101DA000F50720F0A21BB30BE40BF50B661F771FA2
:101DB000881F991F1A9469F7609570958095909582
:101DC0009B01AC01BD01CF010895AA1BBB1B51E1D2
:101DD00007C0AA1FBB1FA617B70710F0A61BB70B9B
:101DE000881F991F5A95A9F780959095BC01CD0140
:101DF0000895EE0FFF1F0590F491E02D09940F93C5
:101E00001F93CF93DF938230910510F482E090E02E
:101E1000E0914204F091430430E020E0B0E0A0E023
:101E2000309799F42115310509F44AC0281B390B64
:101E300024303105D8F58A819B816115710589F1BE
:101E4000FB0193838283FE0111C040815181028195
:101E5000138148175907E0F04817590799F410976C
:101E600061F012960C93129713961C933296CF0141
:101E7000DF91CF911F910F91089500934204109329
:101E80004304F4CF2115310551F04217530738F0C0
:101E9000A901DB019A01BD01DF01F801C1CFEF010A
:101EA000F9CF9093430480934204CDCFFE01E20F1B
:101EB000F31F819391932250310939832883D7CF1F
:101EC0002091400430914104232B41F420910201E0
:101ED000309103013093410420934004209100018C
:101EE000309101012115310541F42DB73EB74091E4
:101EF000040150910501241B350BE0914004F09141
:101F00004104E217F307A0F42E1B3F0B28173907F3
:101F100078F0AC014E5F5F4F2417350748F04E0F45
:101F20005F1F5093410440934004819391939FCF4E
:101F3000F0E0E0E09CCFCF93DF930097E9F0FC0165
:101F4000329713821282A0914204B0914304ED01B2
:101F500030E020E01097A1F420813181820F931F9F
:101F600020914004309141042817390709F061C0DD
:101F7000F0934104E0934004DF91CF910895EA018A
:101F8000CE17DF07E8F54A815B819E0141155105B7
:101F9000B1F7E901FB83EA8349915991C40FD51F39
:101FA000EC17FD0761F4808191810296840F951FE3
:101FB000E90199838883828193819B838A83F0E0FE
:101FC000E0E012968D919C9113970097B9F52D91B1
:101FD0003C911197CD010296820F931F20914004EE
:101FE000309141042817390739F6309751F510928E
:101FF000430410924204B0934104A0934004BCCF28
:10200000D383C28340815181840F951FC817D9079C
:1020100061F44E5F5F4F88819981480F591F51834A
:1020200040838A819B81938382832115310509F046
:10203000B0CFF0934304E09342049ECFFD01DC0156
:10204000C0CF13821282D7CFB0E0A0E0EAE2F0E185
:102050000C947A0E8C01009751F4CB010E94FF0E74
:102060008C01C801CDB7DEB7E0E10C94960EFC01FF
:10207000E60FF71F9C0122503109E217F30708F41D
:102080009DC0D901CD91DC911197C617D70798F063
:10209000C530D10530F3CE0104978617970708F3B2
:1020A000C61BD70B2297C193D1936D937C93CF011D
:1020B0000E949B0FD6CF5B01AC1ABD0A4C018C0E5F
:1020C0009D1EA0914204B0914304512C412CF12C4F
:1020D000E12C109731F580914004909141048815CE
:1020E000990509F05CC04616570608F058C0809163
:1020F000000190910101009741F48DB79EB7409186
:10210000040150910501841B950BE817F90708F0AD
:1021100055C0F0934104E0934004F901718360835A
:10212000A0CF8D919C91119712966C901297139657
:102130007C901397A815B90559F56C0142E0C40EBF
:10214000D11CCA14DB0420F1AC014A195B09DA0185
:102150001296159780F06282738251834083D90171
:102160006D937C93E114F10471F0D7011396FC9305
:10217000EE93129776CF22968C0F9D1FF9019183D3
:102180008083F301EFCFF0934304E093420469CFDF
:102190004816590608F42C017D01D3019ACFCB01D2
:1021A0000E94FF0E7C01009749F0AE01B8010E9429
:1021B000E110C8010E949B0F870153CF10E000E09F
:1021C00050CFFB01DC0102C001900D924150504004
:1021D000D8F70895FB01DC0101900D920020E1F792
:1021E0000895FB01DC014150504048F001900D92F0
:1021F0000020C9F701C01D9241505040E0F70895FA
:1022000010E0C2E6D0E004C0FE010E94F90E219663
:0A221000C336D107C9F7F894FFCFD9
:10221A00000044048000000000002D018D00BA0077
:10222A007A01EB00C900DD0000000000BB038D004D
:10223A0096041B0317042F0445035F035349473AC7
:10224A000053414950004C45443A00313233343549
:10225A0036373855545350004C43443A000D0A005F
:10226A0051554555453A206572726F7220647565FD
:10227A0020746F20756E646573697261626C652083
:10228A0073697A6520666F7220717565756520734A
:10229A00697A652E0051554555453A20696E737520
:1022AA006666696369656E74206D656D6F72792003
:1022BA00746F20696E697469616C697A65207465E6
:1022CA006D706F726172792071756575652E002A5D
:1022DA000051554555453A2063616E277420706F49
:1022EA0070206974656D2066726F6D2071756575F1
:1022FA00653A20717565756520697320656D70741E
:04230A00792E000028
:107E0000112484B714BE81FFF0D085E080938100F7
:107E100082E08093C00088E18093C10086E0809377
:107E2000C20080E18093C4008EE0C9D0259A86E02C
:107E300020E33CEF91E0309385002093840096BBD3
:107E4000B09BFECF1D9AA8958150A9F7CC24DD24C4
:107E500088248394B5E0AB2EA1E19A2EF3E0BF2EE7
:107E6000A2D0813461F49FD0082FAFD0023811F036
:107E7000013811F484E001C083E08DD089C08234E0
:107E800011F484E103C0853419F485E0A6D080C0E4
:107E9000853579F488D0E82EFF2485D0082F10E0AE
:107EA000102F00270E291F29000F111F8ED06801E7
:107EB0006FC0863521F484E090D080E0DECF843638
:107EC00009F040C070D06FD0082F6DD080E0C81688
:107ED00080E7D80618F4F601B7BEE895C0E0D1E017
:107EE00062D089930C17E1F7F0E0CF16F0E7DF06D8
:107EF00018F0F601B7BEE89568D007B600FCFDCFD4
:107F0000A601A0E0B1E02C9130E011968C91119780
:107F100090E0982F8827822B932B1296FA010C0160
:107F200087BEE89511244E5F5F4FF1E0A038BF0790
:107F300051F7F601A7BEE89507B600FCFDCF97BE46
:107F4000E89526C08437B1F42ED02DD0F82E2BD052
:107F50003CD0F601EF2C8F010F5F1F4F84911BD097
:107F6000EA94F801C1F70894C11CD11CFA94CF0C13
:107F7000D11C0EC0853739F428D08EE10CD085E9AC
:107F80000AD08FE07ACF813511F488E018D01DD067
:107F900080E101D065CF982F8091C00085FFFCCF94
:107FA0009093C60008958091C00087FFFCCF809118
:107FB000C00084FD01C0A8958091C6000895E0E648
:107FC000F0E098E1908380830895EDDF803219F02E
:107FD00088E0F5DFFFCF84E1DECF1F93182FE3DFCA
:107FE0001150E9F7F2DF1F91089580E0E8DFEE27F6
:047FF000FF270994CA
:027FFE00040479
:0400000300007E007B
:00000001FF
