:100000000C9463000C948B000C948B000C944209AC
:100010000C9442090C9442090C948B000C948B00B4
:100020000C948B000C948B000C948B000C948B0024
:100030000C948B000C948B000C948B000C948B0014
:100040000C94DD070C948B000C94AB070C94850783
:100050000C948B000C948B000C948B000C948B00F4
:100060000C9427080C948B0000000000240027004B
:100070002A0000000008000201000003040700003D
:1000800000000000000000000000230026002900FE
:1000900000000000250028002B00040404040404D0
:1000A0000404020202020202030303030303010227
:1000B00004081020408001020408102001020408F6
:1000C0001020DE09710E11241FBECFEFD8E0DEBF75
:1000D000CDBF24E0A2EFB1E001C01D92A334B2076E
:1000E000E1F711E0A0E0B1E0EEE2F2E202C005903B
:1000F0000D92A23FB107D9F710E0C2E6D0E004C0EC
:100100002197FE010E94030FC136D107C9F70E9453
:100110000B0B0C940A110C940000AF92BF92CF927B
:10012000DF92EF92FF920F931F93CF93DF936C01B7
:100130007B018B01040F151FEB015E01AE18BF0898
:10014000C017D10759F06991D601ED91FC9101904A
:10015000F081E02DC6010995892B79F7C501DF9162
:10016000CF911F910F91FF90EF90DF90CF90BF90B4
:10017000AF900895FC01538D448D252F30E0842FDE
:1001800090E0821B930B541710F0CF9608950197BF
:100190000895FC01918D828D981761F0A28DAE0FAC
:1001A000BF2FB11D5D968C91928D9F5F9F73928F33
:1001B00090E008958FEF9FEF0895FC01918D828D5F
:1001C000981731F0828DE80FF11D858D90E008952C
:1001D0008FEF9FEF0895FC01918D228D892F90E084
:1001E000805C9F4F821B91098F739927089588E83F
:1001F00093E00E94EB0021E0892B09F420E0822F9C
:10020000089580E090E0892B29F00E94F700811189
:100210000C9400000895FC01A48DA80FB92FB11D06
:10022000A35ABF4F2C91848D90E001968F7399272C
:10023000848FA689B7892C93A089B1898C9183700A
:1002400080648C93938D848D981306C00288F38903
:10025000E02D80818F7D80830895EF92FF920F9330
:100260001F93CF93DF93EC0181E0888F9B8D8C8D62
:1002700098131AC0E889F989808185FF15C09FB756
:10028000F894EE89FF896083E889F9898081837019
:10029000806480839FBF81E090E0DF91CF911F91C8
:1002A0000F91FF90EF900895F62E0B8D10E00F5FE9
:1002B0001F4F0F731127E02E8C8D8E110CC00FB6BF
:1002C00007FCFACFE889F989808185FFF5CFCE0157
:1002D0000E940B01F1CFEB8DEC0FFD2FF11DE35AC6
:1002E000FF4FF0829FB7F8940B8FEA89FB898081DA
:1002F0008062CFCFCF93DF93EC01888D8823B9F054
:10030000AA89BB89E889F9898C9185FD03C0808120
:1003100086FD0DC00FB607FCF7CF8C9185FFF2CF9D
:10032000808185FFEDCFCE010E940B01E9CFDF91E7
:10033000CF910895833081F028F4813099F0823094
:10034000A9F008958730A9F08830C9F08430B1F45D
:10035000809180008F7D03C0809180008F77809393
:100360008000089584B58F7784BD089584B58F7D0E
:10037000FBCF8091B0008F778093B000089580917B
:10038000B0008F7DF9CFCF93DF93282F30E0F901B4
:10039000EE58FF4F8491F901E255FF4FD491F901D6
:1003A000E656FF4FC491CC23A1F081110E949A011F
:1003B000EC2FF0E0EE0FFF1FEA57FF4FA591B4912D
:1003C000EC91ED2381E090E009F480E0DF91CF91A2
:1003D000089580E090E0FACF1F93CF93DF93282F0A
:1003E00030E0F901EE58FF4F8491F901E255FF4FDB
:1003F000D491F901E656FF4FC491CC23A9F0162FF2
:1004000081110E949A01EC2FF0E0EE0FFF1FE057E0
:10041000FF4FA591B4918FB7F894EC91111108C0DA
:10042000D095DE23DC938FBFDF91CF911F9108958C
:10043000DE2BF8CFCF93DF9390E0FC01E255FF4F26
:10044000249186569F4FFC0184918823C9F090E047
:10045000880F991FFC01E859FF4FA591B491FC0149
:10046000E057FF4FC591D49161110DC09FB7F8942B
:100470008C91209582238C938881282328839FBF89
:10048000DF91CF910895623051F49FB7F8943C9179
:10049000822F809583238C93E8812E2BEFCF8FB70B
:1004A000F894EC912E2B2C938FBFEACF3FB7F894A2
:1004B0008091E2029091E302A091E402B091E50202
:1004C00026B5A89B05C02F3F19F00196A11DB11DAF
:1004D0003FBFBA2FA92F982F8827BC01CD01620FEB
:1004E000711D811D911D42E0660F771F881F991FA6
:1004F0004A95D1F708958F929F92AF92BF92CF9273
:10050000DF92EF92FF924B015C010E9456026B0159
:100510007C010E9456026C197D098E099F09683E74
:10052000734081059105A8F321E0821A9108A10882
:10053000B10888EEC80E83E0D81EE11CF11C8114BE
:100540009104A104B10429F7FF90EF90DF90CF90C0
:10055000BF90AF909F908F9008952FB7F8946091BF
:10056000DE027091DF028091E0029091E1022FBFE4
:100570000895CF92DF92EF92FF920F931F930E9404
:10058000AD02C0903304D0903404E0903504F09074
:10059000360400912C0410912D0420912E043091EA
:1005A0002F04E0913204EE2369F0AB01BC014C1939
:1005B0005D096E097F09E1E0401751076207730783
:1005C00008F0E0E08E2F1F910F91FF90EF90DF90E9
:1005D000CF90089585ED8093BC008091BC0084FD90
:1005E000FCCF1092B702089520919302260F332773
:1005F000331F21323105ECF42091B702FC0190E069
:1006000080E0243069F082E00895A0919302219166
:10061000AC014D585D4FA40FB52FB11D2C93019621
:10062000861798F380919302680F6093930280E09D
:10063000089581E0089508958FEF9FEF08958FEF5B
:100640009FEF08958091720290E0919581959109B4
:100650000895CF93DF93CB01EA01642F0E94F40247
:10066000CE01DF91CF910895CF93DF931F92CDB745
:10067000DEB7698361E0CE0101960E94F40281E059
:1006800090E00F90DF91CF9108952091E802309192
:10069000E9022817390781F49091E6028091E70278
:1006A000981751F0E091E602F0E0EE0FFF1FEE50D8
:1006B000FE4F8081918108958FEF9FEF0895EF9213
:1006C000FF920F931F93CF93DF93DC015C964D91C4
:1006D0005C915D974115510579F481E090E01396A6
:1006E0009C938E93129790E080E0DF91CF911F91C1
:1006F0000F91FF90EF9008955196ED91FC915297D4
:1007000050968C915097982F9095EFB65E962C91BD
:100710005E97322F3270F32E21FF02C060957095E4
:10072000F8942081FF2001F1282B2083EA012197F2
:10073000F1F729E0308160FF19C0382B3083EA01DE
:100740002197F1F7769567952150A1F7FF2081F069
:10075000808189238083EFBE5C968D919C91019767
:10076000F1F781E090E0C1CF2923DFCF3923E6CF35
:100770009081892BEFCFEF92FF920F931F93CF932E
:10078000DF93DC015C96ED90FC905D97E114F10441
:1007900079F481E090E013969C938E93129790E009
:1007A00080E0DF91CF911F910F91FF90EF9008951E
:1007B0005196ED91FC91529750968C915097982FAD
:1007C00090950FB75E962C915E97122F127021FDB7
:1007D0006095F8942081112319F1282B2083E701DB
:1007E0002197F1F728E0462F50E0308160FF1AC0D2
:1007F000382B3083E7012197F1F7BA01759567959A
:10080000215089F7112381F08081892380830FBFD4
:100810005C968D919C910197F1F781E090E0C1CFBA
:100820002923DCCF3923E5CF9081892BEFCF20918D
:10083000E8023091E9022817390771F48091E70244
:100840002091E60290E0805C9F4F821B910960E45A
:1008500070E00E94B90E089590E080E00895209124
:10086000E8023091E90228173907C9F49091E602AD
:100870008091E702981799F0E091E602F0E0EE0F20
:10088000FF1FEE50FE4F808191812091E60230E003
:100890002F5F3F4F2F7333272093E60208958FEF8A
:1008A0009FEF0895E091E802F091E902E817F90757
:1008B00069F4A389B4899C918589809589238C9357
:1008C0001092E9021092E80281E0089580E0089514
:1008D0008091040390910503892B31F18091E80206
:1008E0009091E90222E08A3E9207F1F0009711F020
:1008F0000E945204809108038E7F80930803109217
:10090000E7021092E6028AEE92E09093E902809369
:10091000E802E091FD02F091FE0280819091FF02D9
:10092000892B808381E0089580E0089590E080E045
:100930000895CF93DF93EC0188819981009711F09E
:100940000E94A50F198218821D821C821B821A82A6
:10095000DF91CF910895FC01808191810C94A50FC6
:100960000F931F93CF93DF93EC01888199810097B8
:1009700059F02A813B812617370730F081E0DF915B
:10098000CF911F910F9108958B016F5F7F4F0E9450
:100990002E10009759F0998388831B830A832C813A
:1009A0003D81232B59F7FC011082E8CF80E0E7CF8F
:1009B000EF92FF920F931F93CF93DF93EC01FB0114
:1009C000E080F180E114F10411F104811581011539
:1009D0001105A9F08C819D81080F191FB801CE0166
:1009E0000E94B004882399F0288139818C819D81EF
:1009F000B701820F931F0E94F4101D830C83CE0158
:100A0000DF91CF911F910F91FF90EF900895CE014C
:100A10000E949904F4CFEF92FF920F931F93CF930C
:100A2000DF93EC018617970781F0FB0100811181AC
:100A30000115110539F0E480F580B7010E94B0047A
:100A400081110BC0CE010E949904CE01DF91CF919C
:100A50001F910F91FF90EF900895FD82EC82B801F5
:100A6000888199810E94F410F0CFEF92FF920F934A
:100A70001F93CF93DF93EC01198218821B821A8295
:100A80001D821C826115710521F18B01FB01019012
:100A90000020E9F731977F01E61AF70AB7010E94B3
:100AA000B004811109C0CE01DF91CF911F910F9148
:100AB000FF90EF900C949904FD82EC82B80188813C
:100AC0009981DF91CF911F910F91FF90EF900C943E
:100AD000F410DF91CF911F910F91FF90EF90089547
:100AE0000F931F93CF93DF93CDB7DEB767970FB602
:100AF000F894DEBF0FBECDBF85E0E1E3F1E0DE019B
:100B0000539601900D928A95E1F72091520330910E
:100B1000530390E080E04EE2B901082E02C07595C3
:100B200067950A94E2F760FD07C0E3E1F0E0EC0F9F
:100B3000FD1FE80FF91F408301968430910561F78E
:100B400000910D0310910E03BE016D5E7F4FCE012B
:100B500007960E9435056CE271E0CE010D960E9469
:100B60003505BE01695F7F4FCE010D960E94D80406
:100B70001A8219821C821B821E821D82BC01CE0138
:100B800001960E940B05CE010196F8010995CE0150
:100B900001960E94AB04CE010D960E94AB04CE01DB
:100BA00007960E94AB0467960FB6F894DEBF0FBE9F
:100BB000CDBFDF91CF911F910F9108950F931F9398
:100BC000CF93DF93CDB7DEB76F970FB6F894DEBF44
:100BD0000FBECDBF8DE0EBE3F1E0DE011196019099
:100BE0000D928A95E1F7209154033091550390E0DE
:100BF00080E04EE2B901082E02C0759567950A940F
:100C0000E2F760FD07C0E1E0F0E0EC0FFD1FE80F48
:100C1000F91F408301968C30910561F700910D0317
:100C200010910E03BE016F5F7F4FCE0144960E946C
:100C3000350566E371E0CE014A960E943505BE0196
:100C40006C5E7F4FCE014A960E94D8041F861E8696
:100C5000198A188A1B8A1A8ABC01CE010E960E9434
:100C60000B05CE010E96F8010995CE010E960E9455
:100C7000AB04CE014A960E94AB04CE0144960E947A
:100C8000AB046F960FB6F894DEBF0FBECDBFDF91F9
:100C9000CF911F910F9108950F931F93CF93DF93DF
:100CA000CDB7DEB762970FB6F894DEBF0FBECDBFEB
:100CB00000910D0310910E0366E573E0CE010796D7
:100CC0000E94350568E471E0CE010D960E9435055D
:100CD000BE01695F7F4FCE010D960E94D8041A8233
:100CE00019821C821B821E821D82BC01CE010196CC
:100CF0000E940B05CE010196F8010995CE010196DF
:100D00000E94AB04CE010D960E94AB04CE01079663
:100D10000E94AB0462960FB6F894DEBF0FBECDBF43
:100D2000DF91CF911F910F910895FB010190002059
:100D3000E9F73197AF01461B570BDC01ED91FC91B0
:100D40000280F381E02D09940F931F93CF93DF93DB
:100D50008C010E94B9028823C9F0C0913D04D09152
:100D60003E04F8014481558160817181E881F981F7
:100D70000280F381E02DCE0109956DE471E0CE0192
:100D8000DF91CF911F910F910C949506DF91CF9138
:100D90001F910F910895CF93DF93EC016AE20E94B7
:100DA0002D016DE471E0CE01DF91CF910C94950699
:100DB000EC01009739F00E9495066DE471E0CE01D8
:100DC0000E9495060E94C509AF92BF92CF92DF9212
:100DD000EF92FF920F931F93CF93DF938C0160E507
:100DE00071E01816190664F50E94090FEC010097CE
:100DF00029F1A0901503B0901603E0901103F09034
:100E000012032091170330911803C0901303D09060
:100E10001403FC01281B390BCF018C1B9D0B8A1579
:100E20009B05A4F4C9018E0F9F1FB6010E94B90E45
:100E3000D701A80FB91F8C918193EECF65E871E0BF
:100E400080910F03909110030E94D806C7010E9461
:100E5000A50FD0931203C0931103109218031092A0
:100E60001703809115039091160390931A038093B2
:100E700019031093140300931303DF91CF911F9173
:100E80000F91FF90EF90DF90CF90BF90AF900895BB
:100E9000CF93C82F809115039091160320911303CF
:100EA000309114038217930721F4880F991F0E9431
:100EB000E406E0911103F0911203809119039091DF
:100EC0001A039C012F5F3F4F30931A03209319039D
:100ED000E80FF91FC0832091190330911A03809104
:100EE0001303909114032817390721F410921A0361
:100EF0001092190380911503909116030196909317
:100F0000160380931503CF9108951F920F920FB689
:100F10000F9211242F933F934F935F936F937F937F
:100F20008F939F93AF93BF93EF93FF9388E893E0E2
:100F30000E940B01FF91EF91BF91AF919F918F9113
:100F40007F916F915F914F913F912F910F900FBEC5
:100F50000F901F9018951F920F920FB60F921124A9
:100F60002F938F939F93EF93FF93E0919803F091CA
:100F700099038081E0919E03F0919F0382FD1BC045
:100F800090818091A1038F5F8F732091A2038217BC
:100F900041F0E091A103F0E0E857FC4F958F80937A
:100FA000A103FF91EF919F918F912F910F900FBE11
:100FB0000F901F9018958081F4CF1F920F920FB65B
:100FC0000F9211242F933F938F939F93AF93BF93CF
:100FD0008091DE029091DF02A091E002B091E102E7
:100FE0003091DD0223E0230F2D3758F50196A11D26
:100FF000B11D2093DD028093DE029093DF02A09367
:10100000E002B093E1028091E2029091E302A091AC
:10101000E402B091E5020196A11DB11D8093E202A8
:101020009093E302A093E402B093E502BF91AF91E5
:101030009F918F913F912F910F900FBE0F901F9016
:10104000189526E8230F0296A11DB11DD2CF1F923D
:101050000F920FB60F9211242F933F934F935F93EC
:101060006F937F938F939F93AF93BF93EF93FF9370
:101070008091B900887F803609F44AC0F0F5883243
:1010800009F4A5C018F5803109F499C0B8F4882393
:1010900009F4F5C0883009F492C0FF91EF91BF9137
:1010A000AF919F918F917F916F915F914F913F9100
:1010B0002F910F900FBE0F901F901895883109F453
:1010C00086C0803251F78093B60214C0803409F490
:1010D0009BC040F48033B9F38833F9F68093B602AD
:1010E00085ECAEC0803509F483C0883509F494C01E
:1010F000883499F60E94EA02D0CF883909F48AC070
:1011000038F5883729F050F4883611F0803729F601
:1011100083E08093B7021092B50255C0883809F475
:1011200079C0803919F0803809F0B7CF8091B502C5
:10113000803208F06FC0E091B50281E08E0F80939D
:10114000B5028091BB00F0E0EB56FD4F80833BC0C1
:10115000803B39F0D0F4803A09F477C0883A09F03E
:101160009CCF84E08093B702109294021092930275
:10117000F0E0E0E009958091930281110FC081E0D9
:10118000809393021092730209C0803C09F4A8CFA7
:10119000883C09F4A5CF883B09F07FCFE091940209
:1011A00081E08E0F80939402F0E0ED58FD4F808136
:1011B0008093BB00909194028091930229C080910A
:1011C000DC028093BB0085EC8093BC0066CF9091DD
:1011D000DB028091DA02981758F5E091DB0281E09A
:1011E0008E0F8093DB02F0E0E654FD4F8081E9CF63
:1011F000E091DB0281E08E0F8093DB028091BB00E7
:10120000F0E0E654FD4F80839091DB028091DA029A
:101210009817C8F285E8D8CFE091DB0281E08E0F05
:101220008093DB028091BB00F0E0E654FD4F8083A9
:101230008091B90281115ECF81E08093B80284EA87
:101240008093BC001092B70228CF85EC8093BC003D
:101250001092B7028091B502803230F4E091B5026D
:10126000F0E0EB56FD4F10826091B50270E085E929
:1012700092E0F0E0E0E009951092B5020ECF1092F6
:10128000B60238CF1F920F920FB60F9211242F93F0
:101290003F934F935F936F938F939F93AF93BF93BE
:1012A000CF93DF93EF93FF93E091E802F091E9028F
:1012B000309749F0A685B7859585868D81FF15C045
:1012C0008C918923A9F4FF91EF91DF91CF91BF9188
:1012D000AF919F918F916F915F914F913F912F911E
:1012E0000F900FBE0F901F9018958C91892359F77E
:1012F000A389B4899C918589809589238C9386895B
:1013000097890197F1F7408D518DC685D785658501
:1013100029E090E080E0DA011197F1F79695879542
:101320003881362309F090682150A9F79C01220FDB
:10133000232F221F330B3195868D81FF02C020950C
:1013400030958091E70290E001968F739927409144
:10135000E6024817B1F0A091E702B0E0AA0FBB1F68
:10136000AE50BE4F2D933C938093E702828D938DB8
:101370000197F1F7A389B4898C919589892B8C9376
:10138000A2CF868D8160868FF1CF61E08DE00E94D3
:101390001A0261E08DE00E94EC016AEF70E080E0EB
:1013A00090E00E947B0260E08DE00E94EC016AEF19
:1013B00070E080E090E00E947B02EBCF10928B0304
:1013C00010928A0388EE93E0A0E0B0E080938C0353
:1013D00090938D03A0938E03B0938F032AE031E0A6
:1013E000309389032093880325EC30E030939503F4
:1013F0002093940324EC30E03093970320939603DA
:1014000020EC30E0309399032093980321EC30E0F6
:1014100030939B0320939A0322EC30E030939D039A
:1014200020939C0326EC30E030939F0320939E038F
:101430001092A1031092A2031092A3031092A4038E
:10144000109232041092380410923704109239042A
:1014500010923A0410923B0410923C0428E833E0C6
:1014600030933E0420933D0440E052EC61E070E094
:101470004093250450932604609327047093280416
:101480002DE030E030932A04209329042AE22093AF
:101490002B044CED55E060E070E040932C04509339
:1014A0002D0460932E0470932F042BEC36E03093C0
:1014B0003104209330041092ED021092EC028093DC
:1014C000EE029093EF02A093F002B093F1028CE150
:1014D00091E09093EB028093EA0210920103109244
:1014E000000310920303109202031092050310925E
:1014F00004031092070310920603609108036E7FA5
:101500006D7F609308036695617081E068278BE0CA
:101510000E94EC0161E08BE00E941A02E9EBF0E02E
:10152000E491E093FA02E5EAF0E0E491F0E0EE0FF6
:10153000FF1FE057FF4F859194919093FC02809399
:10154000FB0260E08AE00E941A028091080381FD9C
:1015500004C061E08AE00E94EC018AE08093F60218
:10156000E8EBF0E0E491E093F702E4EAF0E0E491E4
:10157000F0E0EE0FFF1FEA57FF4F85919491909393
:10158000F9028093F8021092140310921303109240
:10159000160310921503109218031092170310925D
:1015A0001A03109219031092100310920F0382E095
:1015B00090E00E94090F9093120380931103892BEE
:1015C00011F40E94C50982E090E090931403809387
:1015D000130383E08093090382E080930A0384E08D
:1015E00080930B0385E080930C0384EA96E090934C
:1015F0000E0380930D0362E083E00E941A0262E012
:1016000082E00E941A0262E084E00E941A0262E014
:1016100085E00C941A02CF93DF93CDB7DEB7E39742
:101620000FB6F894DEBF0FBECDBF789484B582604C
:1016300084BD84B5816084BD85B5826085BD85B576
:10164000816085BD80916E00816080936E001092F4
:10165000810080918100826080938100809181006F
:101660008160809381008091800081608093800000
:101670008091B10084608093B1008091B00081605E
:101680008093B00080917A00846080937A0080918A
:101690007A00826080937A0080917A0081608093E2
:1016A0007A0080917A00806880937A001092C1005D
:1016B00061E0809129040E941A0261E0809129046E
:1016C0000E94EC0164EC79E080E090E00E947B02F3
:1016D00000913D0410913E04C0902504D090260452
:1016E000E0902704F0902804D8015096ED91FC91E9
:1016F00082E08083C114B1EEDB06E104F104A1F0C5
:1017000060E079E08DE390E0A70196010E94CD0EA4
:10171000215031094109510956954795379527952B
:101720002115E0E13E07A8F0D8015096ED91FC911B
:10173000108260E874E88EE190E0A70196010E94B3
:10174000CD0E2150310941095109569547953795DC
:101750002795D8011C96ED91FC911D9730831E961C
:10176000ED91FC911F97208358961C9258975496A0
:10177000ED91FC91559786E080835296ED91FC9116
:1017800053978081806180835296ED91FC915397AD
:101790008081886080835296ED91FC91539780817F
:1017A000806880835296ED91FC9180818F7D80834B
:1017B00060E0809129040E94EC01109205031092D0
:1017C000040310920303109202031092010310927B
:1017D000000382E09DE090930703809306039091BD
:1017E000F602963108F047C02FE636E03093010349
:1017F0002093000320E03DE0309303032093020395
:1018000027EB39E03093050320930403209168000F
:1018100084E0983048F031E09E3008F430E081E018
:1018200001C0880F3A95EAF7822B809368002DE675
:1018300030E0983050F02BE630E09E3030F02CE66F
:1018400030E0963110F030E020E03093FE0220933B
:10185000FD02292F30E0983008F0A4C081E001C0DB
:10186000880F9A95EAF78093FF0280910603909182
:1018700007030197F1F70E9468040E94AD0260938C
:101880001B0370931C0380931D0390931E030E94FF
:1018900070050E94DE050E944C06F12CE12C6701C8
:1018A000E894C0F86894E0F870E0A72E70E0B72ED6
:1018B000992493940E94AD020091390410913A0446
:1018C00020913B0430913C0406171707280739077D
:1018D00018F56C507E4F8F4F9F4F60933904709373
:1018E0003A0480933B0490933C040E94B9028823FD
:1018F00041F081E02091370430913804232B09F026
:1019000080E0282F30E03093380420933704682F8C
:10191000809129040E94EC0180910903882329F019
:101920000E94C3018701892B09F0860180910A0377
:10193000882309F444C00E94C301892B09F03FC0E9
:10194000026080910B038823E1F10E94C301892B7F
:10195000C1F5046080910C038823A9F10E94C301A2
:10196000892B89F5086080915203909153030817E1
:10197000190731F010935303009352030E9470052E
:101980008AEE92E00E941704892B09F491C08AEE36
:1019900092E00E942F0490FF18C080931F03909242
:1019A0005103EECF9E3040F42850310981E001C050
:1019B000880F2A95EAF757CF2E503109F7CF0D7FC0
:1019C000C0CF0B7FC7CF077FCECFE0915103E2336B
:1019D000B8F620911F032C3441F1203589F6E3300D
:1019E00048F491E09E0F90935103F0E0E651FD4FD3
:1019F00085ABC6CFE33021F69091200330912103CF
:101A000020E5290F230F28130AC0892F990F990B5E
:101A1000932B90935503809354030E94DE0580918D
:101A200051038F5F80935103ABCF6E2F70E0E13095
:101A300059F020912003022E000C330BA9014F5FB7
:101A40005F4F461757073CF0EF5FE0935103665135
:101A50007D4FFB01CDCF2E5F3F4F2617370709F093
:101A60008FCFEAEEF2E090E0BF016A5E724062174B
:101A7000730724F465A9960F3196F6CF8913CFCF5B
:101A800026513D4FD901D5961C9283E3EFE1F3E057
:101A9000DE01119601900D928A95E1F7BE016D5F0E
:101AA0007F4F86E593E00E94FB100E944C06B7CF63
:101AB0008091150390911603892B09F482C00E942E
:101AC000AD0200911B0310911C0320911D03309166
:101AD0001E03061717072807390708F072C0209160
:101AE0001503309116032115310541F46FEB71E0B8
:101AF00080910F03909110030E94D806E09111038A
:101B0000F09112038091170390911803AC014F5F7D
:101B10005F4F5093180340931703E80FF91F00819C
:101B2000215031093093160320931503809113033C
:101B3000909114034817590721F41092180310923A
:101B400017032115310591F0AC0197FF02C04D5FDD
:101B50005F4F55954795559547954217530734F074
:101B600097FD0196959587950E94E4068AEE92E08E
:101B70000E9452046BE471E08AEE92E00E945F03DF
:101B8000002E000C110BB80177278AEE92E00E941C
:101B90005F03B801655B7F4F77278AEE92E00E9472
:101BA0005F030E9468040E94AD026A567F4F8F4F08
:101BB0009F4F60931B0370931C0380931D039093AE
:101BC0001E0380913D0490913E04DC01ED91FC9157
:101BD0000284F385E02D09958C0180912B04082E59
:101BE000000C990B08171907C9F4909232040E944F
:101BF000AD02609333047093340480933504909362
:101C00003604E0913004F0913104309729F080914E
:101C10003D0490913E0409950FEF1FEF0E94B90219
:101C2000882381F00F3F100769F0073309F446C09D
:101C300004F50233D9F194F40033A1F1ACF58AEA4A
:101C40000132A1F0A114B10409F434CE0E94F700CE
:101C5000882309F42FCE0E9400002CCE043351F1CA
:101C60003CF1053349F186E3063361F70E944807EA
:101C7000E9CF0F3649F14CF4093321F10CF10F3360
:101C800049F18AE3033691F3DDCF033709F124F4F8
:101C90008DE3003759F3D6CF0637C1F08CE3083710
:101CA00029F3D0CF80E3E2CF81E3E0CF82E3DECF40
:101CB00083E3DCCF84E3DACF85E3D8CF87E3D6CFE5
:101CC00088E3D4CF89E3D2CF8BE3D0CF8EE3CECFDE
:101CD0008FE3CCCF0E9470050E94DE050E944C0667
:101CE000B1CFCF93DF93CAEED2E08FA198A50E9427
:101CF000A50F8CE191E099838883CE01DF91CF918C
:101D00000C9452042F923F924F925F926F927F9267
:101D10008F929F92AF92BF92CF92DF92EF92FF92FB
:101D20000F931F93CF93DF93CDB7DEB7CA1BDB0BA7
:101D30000FB6F894DEBF0FBECDBF09942A8839884C
:101D400048885F846E847D848C849B84AA84B98453
:101D5000C884DF80EE80FD800C811B81AA81B9815F
:101D6000CE0FD11D0FB6F894DEBF0FBECDBFED0173
:101D7000089597FB072E16F4009407D077FD09D03D
:101D80000E94EF0E07FC05D03EF4909581959F4F81
:101D90000895709561957F4F0895A1E21A2EAA1BB0
:101DA000BB1BFD010DC0AA1FBB1FEE1FFF1FA2170B
:101DB000B307E407F50720F0A21BB30BE40BF50B08
:101DC000661F771F881F991F1A9469F76095709591
:101DD000809590959B01AC01BD01CF010895AA1B90
:101DE000BB1B51E107C0AA1FBB1FA617B70710F006
:101DF000A61BB70B881F991F5A95A9F78095909538
:101E0000BC01CD010895EE0FFF1F0590F491E02D68
:101E100009940F931F93CF93DF938230910510F4B1
:101E200082E090E0E0914104F091420430E020E053
:101E3000B0E0A0E0309799F42115310509F44AC0CB
:101E4000281B390B24303105D8F58A819B81611517
:101E5000710589F1FB0193838283FE0111C04081EA
:101E600051810281138148175907E0F0481759073B
:101E700099F4109761F012960C93129713961C9395
:101E80003296CF01DF91CF911F910F91089500936A
:101E9000410410934204F4CF2115310551F042174B
:101EA000530738F0A901DB019A01BD01DF01F801F8
:101EB000C1CFEF01F9CF9093420480934104CDCF7D
:101EC000FE01E20FF31F8193919322503109398370
:101ED0002883D7CF20913F0430914004232B41F435
:101EE00020910201309103013093400420933F047C
:101EF00020910001309101012115310541F42DB7E8
:101F00003EB74091040150910501241B350BE0912F
:101F10003F04F0914004E217F307A0F42E1B3F0B9F
:101F20002817390778F0AC014E5F5F4F241735074B
:101F300048F04E0F5F1F5093400440933F0481933D
:101F400091939FCFF0E0E0E09CCFCF93DF93009799
:101F5000E9F0FC01329713821282A0914104B09102
:101F60004204ED0130E020E01097A1F4208131819E
:101F7000820F931F20913F043091400428173907A6
:101F800009F061C0F0934004E0933F04DF91CF91EA
:101F90000895EA01CE17DF07E8F54A815B819E01CB
:101FA00041155105B1F7E901FB83EA834991599144
:101FB000C40FD51FEC17FD0761F480819181029653
:101FC000840F951FE90199838883828193819B8384
:101FD0008A83F0E0E0E012968D919C911397009730
:101FE000B9F52D913C911197CD010296820F931F67
:101FF00020913F04309140042817390739F6309773
:1020000051F51092420410924104B0934004A09301
:102010003F04BCCFD383C28340815181840F951F7D
:10202000C817D90761F44E5F5F4F88819981480FC7
:10203000591F518340838A819B8193838283211519
:10204000310509F0B0CFF0934204E09341049ECFF4
:10205000FD01DC01C0CF13821282D7CFB0E0A0E037
:10206000E4E3F0E10C94840E8C01009751F4CB0171
:102070000E94090F8C01C801CDB7DEB7E0E10C94D6
:10208000A00EFC01E60FF71F9C0122503109E21758
:10209000F30708F49DC0D901CD91DC911197C617C3
:1020A000D70798F0C530D10530F3CE0104978617D5
:1020B000970708F3C61BD70B2297C193D1936D9353
:1020C0007C93CF010E94A50FD6CF5B01AC1ABD0A4D
:1020D0004C018C0E9D1EA0914104B0914204512CE4
:1020E000412CF12CE12C109731F580913F04909117
:1020F00040048815990509F05CC04616570608F09B
:1021000058C08091000190910101009741F48DB772
:102110009EB74091040150910501841B950BE8176F
:10212000F90708F055C0F0934004E0933F04F9012B
:1021300071836083A0CF8D919C91119712966C90C2
:10214000129713967C901397A815B90559F56C0151
:1021500042E0C40ED11CCA14DB0420F1AC014A19C0
:102160005B09DA011296159780F0628273825183BF
:102170004083D9016D937C93E114F10471F0D70190
:102180001396FC93EE93129776CF22968C0F9D1F99
:10219000F90191838083F301EFCFF0934204E09340
:1021A000410469CF4816590608F42C017D01D3017A
:1021B0009ACFCB010E94090F7C01009749F0AE0134
:1021C000B8010E94EB10C8010E94A50F870153CFF0
:1021D00010E000E050CFFB01DC0102C001900D9245
:1021E00041505040D8F70895FB01DC0101900D9259
:1021F0000020E1F70895FB01DC014150504048F018
:1022000001900D920020C9F701C01D92415050402D
:10221000E0F7089510E0C2E6D0E004C0FE010E949D
:0E222000030F2196C336D107C9F7F894FFCFFC
:10222E00000043048000000000002D018D00BA0064
:10223E007A01EB00C900DD0000000000BB038D0039
:10224E0096041B0317042F0445035F035349473AB3
:10225E000053414950004C45443A00313233343535
:10226E0036373855545350004C43443A000D0A004B
:10227E0051554555453A206572726F7220647565E9
:10228E0020746F20756E646573697261626C65206F
:10229E0073697A6520666F72207175657565207336
:1022AE00697A652E0051554555453A20696E73750C
:1022BE006666696369656E74206D656D6F727920EF
:1022CE00746F20696E697469616C697A65207465D2
:1022DE006D706F726172792071756575652E005122
:1022EE00554555453A2063616E277420706F7020F6
:1022FE006974656D2066726F6D2071756575653ACE
:10230E0020717565756520697320656D7074792E01
:02231E000000BD
:107E0000112484B714BE81FFF0D085E080938100F7
:107E100082E08093C00088E18093C10086E0809377
:107E2000C20080E18093C4008EE0C9D0259A86E02C
:107E300020E33CEF91E0309385002093840096BBD3
:107E4000B09BFECF1D9AA8958150A9F7CC24DD24C4
:107E500088248394B5E0AB2EA1E19A2EF3E0BF2EE7
:107E6000A2D0813461F49FD0082FAFD0023811F036
:107E7000013811F484E001C083E08DD089C08234E0
:107E800011F484E103C0853419F485E0A6D080C0E4
:107E9000853579F488D0E82EFF2485D0082F10E0AE
:107EA000102F00270E291F29000F111F8ED06801E7
:107EB0006FC0863521F484E090D080E0DECF843638
:107EC00009F040C070D06FD0082F6DD080E0C81688
:107ED00080E7D80618F4F601B7BEE895C0E0D1E017
:107EE00062D089930C17E1F7F0E0CF16F0E7DF06D8
:107EF00018F0F601B7BEE89568D007B600FCFDCFD4
:107F0000A601A0E0B1E02C9130E011968C91119780
:107F100090E0982F8827822B932B1296FA010C0160
:107F200087BEE89511244E5F5F4FF1E0A038BF0790
:107F300051F7F601A7BEE89507B600FCFDCF97BE46
:107F4000E89526C08437B1F42ED02DD0F82E2BD052
:107F50003CD0F601EF2C8F010F5F1F4F84911BD097
:107F6000EA94F801C1F70894C11CD11CFA94CF0C13
:107F7000D11C0EC0853739F428D08EE10CD085E9AC
:107F80000AD08FE07ACF813511F488E018D01DD067
:107F900080E101D065CF982F8091C00085FFFCCF94
:107FA0009093C60008958091C00087FFFCCF809118
:107FB000C00084FD01C0A8958091C6000895E0E648
:107FC000F0E098E1908380830895EDDF803219F02E
:107FD00088E0F5DFFFCF84E1DECF1F93182FE3DFCA
:107FE0001150E9F7F2DF1F91089580E0E8DFEE27F6
:047FF000FF270994CA
:027FFE00040479
:0400000300007E007B
:00000001FF
