:100000000C9474010C949C010C949C010C949C0124
:100010000C949C010C949C010C949C010C949C01EC
:100020000C949C010C94B20B0C94C6060C943807EB
:100030000C949C010C949C010C949C010C949C01CC
:100040000C949C010C949C010C949C010C949C01BC
:100050000C949C010C949C010C949C010C943713FF
:100060000C949C010C94C5090C949F090C949C0160
:100070000C949C010C949C010C949C010C949C018C
:100080000C949C010C949C010C949C010C949C017C
:100090000C94F7090C949C010C949C010C949C0109
:1000A0000C949C010C949C010C949C01EF10F21098
:1000B000E110E510EB10131113111311F610FA10E3
:1000C000FE100411081113110E1107634236B79B7D
:1000D000D8A71A39685618AEBAAB558C1D3CB7CCA8
:1000E0005763BD6DEDFD753EF6177231BF00000020
:1000F000803F00407A10F35A00A0724E1809001099
:10010000A5D4E80000E87648170000E40B5402008C
:1001100000CA9A3B000000E1F505000080969800B7
:10012000000040420F000000A086010000001027E0
:1001300000000000E8030000000064000000000070
:100140000A00000000000100000000002C76D888A2
:10015000DC674F0823DFC1DFAE59E1B1B796E5E3B5
:10016000E453C63AE651997696E8E6C28426EB89CE
:100170008C9B62ED407C6FFCEFBC9C9F40F2BAA56B
:100180006FA5F490055A2AF75C936B6CF9676DC103
:100190001BFCE0E40D47FEF520E6B500D0ED902E07
:1001A0000300943577050080841E080000204E0A65
:1001B000000000C80C333333330F986E12831141A3
:1001C000EF8D2114893BE65516CFFEE6DB18D1846E
:1001D0004B381BF77C1D901DA4BBE4242032847295
:1001E0005E228100C9F124ECA1E53D27080B000245
:1001F00002020100090400000102020000052400BF
:100200001001052401010104240206052406000151
:100210000705810310004009040100020A000000E4
:1002200007050202400000070583024000000403A6
:10023000090412010002EF02014041234180000144
:100240000102030141726475696E6F204C4C4300DA
:1002500041726475696E6F2059756E000000000070
:100260002300260029002C002F000000000025009C
:1002700028002B002E0031000404040404030405AC
:100280000202020204030202020206060606060633
:100290000404020202040404080201104080401019
:1002A000204080408008020401804020100201109C
:1002B00080102040402000000000240027002A0079
:1002C0002D0030000000000200090F0000030401AF
:1002D000000C000000000000000000000000000012
:1002E00000000000A419811311241FBECFEFDAE033
:1002F000DEBFCDBF25E0A8E5B2E001C01D92AC385D
:10030000B207E1F712E0A0E0B1E0E6E9FCE402C0E8
:1003100005900D92A835B107D9F711E0C3E7D1E0F8
:1003200004C02197FE010E941421C237D107C9F7EA
:100330000E94AB130C943E260C94000040914103A4
:100340005091420320913F033091400342175307DD
:10035000B4F49091E8009570E1F39091E80092FD7B
:1003600019C08093F100809141039091420301965E
:100370008F739927892B19F48EEF8093E800809171
:10038000410390914203019690934203809341036D
:1003900081E0089580E00895DF92EF92FF920F933D
:1003A0001F93CF93DF93D82EF92EE42E062F10E063
:1003B000C8010196880F0E949E0183E00E949E0161
:1003C000CD2DDF2D0C0F1D1FC017D10789F0E7FEC3
:1003D00003C0FE01849101C088810E949E01F82E15
:1003E00080E00E949E018F2121968111EDCF01C0F6
:1003F00081E0DF91CF911F910F91FF90EF90DF90FF
:100400000895DF92EF92FF920F931F93CF93DF93A4
:10041000D82E8A017B01E40EF51EEB01CE15DF0517
:1004200071F0D7FE03C0FE01849101C088810E9453
:100430009E0121968111F2CF8FEF9FEF01C0C8017D
:10044000DF91CF911F910F91FF90EF90DF90089572
:10045000615030F02091F100FC0120830196F8CF2B
:10046000289884E6809371050895CF92DF92EF92E9
:10047000FF920F931F93CF93DF936C017A018B014F
:10048000C0E0D0E0CE15DF0581F0D8016D918D017F
:10049000D601ED91FC910190F081E02DC601099506
:1004A000892B11F02196EECF7E01C701DF91CF910C
:1004B0001F910F91FF90EF90DF90CF900895FC0176
:1004C000538D448D252F30E0842F90E0821B930BB9
:1004D000541710F0CF96089501970895FC01918D5F
:1004E000828D981761F0828DDF01A80FB11D5D9696
:1004F0008C91928D9F5F9F73928F90E008958FEF04
:100500009FEF0895FC01918D828D981731F0828DB7
:10051000E80FF11D858D90E008958FEF9FEF08950E
:10052000FC01918D228D892F90E0805C9F4F821B72
:1005300091098F73992708958CEC94E00E949002A2
:1005400021E0892B09F420E0822F0895FC01848D9D
:10055000DF01A80FB11DA35ABF4F2C91848D90E0ED
:1005600001968F739927848FA689B7892C93A089C8
:10057000B1898C9182748C93938D848D981306C06D
:100580000288F389E02D80818F7D80830895EF922A
:10059000FF920F931F93CF93DF93EC0181E0888F3D
:1005A0009B8D8C8D981305C0E889F989808185FD24
:1005B00026C0F62E0B8D10E00F5F1F4F0F73112713
:1005C000E02E8C8DE8120CC00FB607FCFACFE8893C
:1005D000F989808185FFF5CFCE010E94A602F1CF77
:1005E0008B8DFE01E80FF11DE35AFF4FF0829FB79C
:1005F000F8940B8FEA89FB898081806209C09FB7DC
:10060000F894EE89FF896083E889F9898081827492
:1006100080839FBF81E090E0DF91CF911F910F9188
:10062000FF90EF900895CF93DF93EC01888D88239E
:10063000C9F0EA89FB89808185FD05C0A889B9894F
:100640008C9186FD0FC00FB607FCF5CF808185FF2A
:10065000F2CFA889B9898C9185FFEDCFCE010E9498
:10066000A602E7CFDF91CF91089580E090E0892B3B
:1006700029F00E949C0281110C9400000895CF93F0
:10068000DF931F92CDB7DEB76983DC01ED91FC915A
:100690000280F381E02D41E050E0BE016F5F7F4FAB
:1006A00009950F90DF91CF91089583E08093E90041
:1006B0008091F200882319F08AE38093E80008957E
:1006C000FC018485958597FD0BC09FB7F89482E067
:1006D0008093E9008091F2009FBF90E00196089519
:1006E0009FB7F89482E08093E9008091F2009FBF69
:1006F00090E0089585ED8093BC008091BC0084FD5E
:10070000FCCF10929703089540911A03262F30E0F2
:10071000240F311D21323105DCF420919703243060
:10072000C9F4FC0180E090E0861758F430911A0378
:100730002191DC01A850BD4FA30FB11D2C93019650
:10074000F3CF80911A03680F60931A0380E0089535
:1007500081E0089582E00895089508950895E09154
:100760004C0380914B03E81730F4F0E0EF5AFC4F54
:10077000808190E008958FEF9FEF089590914C0352
:1007800080914B03981750F4E92FF0E0EF5AFC4F9B
:10079000208130E09F5F90934C0302C02FEF3FEF2A
:1007A000C901089580914B0390E020914C03821B76
:1007B00091090895CF92DF92EF92FF920F931F93CA
:1007C000CF93DF937C01CB018A0120915003222338
:1007D00089F0EB016B01C40ED51ECC15DD0569F067
:1007E0006991D701ED91FC910190F081E02DC70155
:1007F0000995F3CF642F0E948403C801DF91CF9144
:100800001F910F91FF90EF90DF90CF900895CF93BD
:10081000DF931F92CDB7DEB7698320915003222367
:10082000D1F020914D03203240F021E030E0FC0176
:100830003383228380E090E015C080914E03E82F3F
:10084000F0E0E852FD4F998190838F5F80934E03D3
:1008500080934D0305C061E0CE0101960E948403A0
:1008600081E090E00F90DF91CF91089520919E0359
:1008700030919F032817390781F490919C03809150
:100880009D03981751F0E0919C03F0E0EE0FFF1FDD
:10089000E85AFD4F8081918108958FEF9FEF089571
:1008A000EF92FF920F931F93CF93DF93DC015C963F
:1008B0008D919C915D97009739F421E030E013967B
:1008C0003C932E9312973FC05196ED91FC91529715
:1008D00050962C915097322F3095FFB65E964C91E2
:1008E0005E97542F5270E52E41FF02C060957095BF
:1008F000F8944081EE2011F0422B01C04323408345
:10090000EC012197F1F749E0508160FF02C0522BC2
:1009100001C053235083EC012197F1F77695679539
:10092000415091F78081EE2019F08323808302C02B
:10093000282B2083FFBE5C968D919C915D9701973B
:10094000F1F781E090E0DF91CF911F910F91FF903F
:10095000EF9008951F93CF93DF93DC015C968D9108
:100960009C915D97009739F421E030E013963C9319
:100970002E9312973BC05196ED91FC915297509651
:100980002C915097322F30951FB75E964C915E9701
:10099000742F727041FD6095F8944081772311F0B7
:1009A000422B01C043234083EC012197F1F748E03B
:1009B000508160FF02C0522B01C053235083EC01D1
:1009C0002197F1F76695415099F78081772319F0C7
:1009D0008323808302C0282B20831FBF5C968D91C8
:1009E0009C915D970197F1F781E090E0DF91CF91C5
:1009F0001F91089520919E0330919F032817390776
:100A000071F480919D0320919C0390E0805C9F4F46
:100A1000821B910960E470E00E94DE20089580E06E
:100A200090E0089520919E0330919F032817390785
:100A3000C9F490919C0380919D03981799F0E091DF
:100A40009C03F0E0EE0FFF1FE85AFD4F808191817B
:100A500020919C0330E02F5F3F4F2F73332720936B
:100A60009C0308958FEF9FEF0895089580E090E034
:100A700008950F931F93CF93DF931F92CDB7DEB7E7
:100A800082E0898342E450E06CEE71E080E80E94ED
:100A900001020E94B611DC0112960D911C91139770
:100AA0000115110589F0D801ED91FC910280F381C7
:100AB000E02DBE016F5F7F4FC801099597FD04C00F
:100AC000F80100851185ECCF89810F90DF91CF91DE
:100AD0001F910F9108958F929F92AF92BF92CF92E4
:100AE000DF92EF92FF920F931F93CF93DF936C01EE
:100AF0007B018A0180910B01882309F45CC08091FD
:100B00007205882309F457C08091450380FF05C012
:100B10008091E00082608093E000E801B12C8AEFD0
:100B2000A82E93E0892E2AE3922E209711F4BB2061
:100B3000D9F10E94A51181110AC0AA94AA20D9F165
:100B400061E070E080E090E00E945E12EECF282F1E
:100B500030E0C217D3070CF48C2F9FB7F894809223
:100B6000E9002091E80025FF1DC0282F30E0C21BBE
:100B7000D30BF701815020F041914093F100FACF5F
:100B8000E20EF31EBB2019F09092E8000AC080919B
:100B9000E80085FD07C09092E800BB24B39420973D
:100BA00009F0B12C9FBFC1CF5D9884E680934403C8
:100BB0001016110644F081E090E0F60193838283E1
:100BC00080E090E001C0C801DF91CF911F910F91AB
:100BD000FF90EF90DF90CF90BF90AF909F908F905D
:100BE00008950E94A51190E008950F931F93CF934D
:100BF000DF931F92CDB7DEB78C01FC01848595850C
:100C000097FF0EC0CE0101960E947711019719F44B
:100C1000898190E002C08FEF9FEFF801958784876C
:100C2000F801848595850F90DF91CF911F910F91E9
:100C30000895CF93DF931F92CDB7DEB7FC01848573
:100C4000958597FD05C02FEF3FEF358724870BC0B3
:100C5000CE0101960E947711019719F4898190E0E5
:100C600002C08FEF9FEF0F90DF91CF9108950F9308
:100C70001F93CF93DF93EC0188819981009729F02E
:100C80002A813B812617370788F48B016F5F7F4FDE
:100C90000E94A122009761F0998388831B830A83B5
:100CA0002C813D81232B11F4FC01108281E001C0D5
:100CB00080E0DF91CF911F910F910895CF93DF9343
:100CC000EC0188819981009711F00E941822198205
:100CD00018821D821C821B821A82DF91CF91089597
:100CE000FB01DC0111961C921E9213961C921E921F
:100CF000129715961C921E9214978617970749F023
:100D0000608171816115710521F0448155810C94D8
:100D1000490C0895CF93DF9300D000D000D0CDB719
:100D2000DEB7BC01CE0101960E947006CE0101968D
:100D30000E94730DCE0101960E946A0C0E942B1333
:100D400060934703709348038093490390934A0349
:100D500026960FB6F894DEBF0FBECDBFDF91CF91C0
:100D60000895FC011182108213821282158214826E
:100D70006115710551F0FB0101900020E9F73197F1
:100D8000AF01461B570B0C94490C08951F920F920C
:100D90000FB60F9211248F939F938091E100909151
:100DA000E100937F9093E10083FF0FC01092E90070
:100DB00091E09093EB001092EC0092E39093ED00A1
:100DC0001092720598E09093F00082FF20C093E0AB
:100DD0009093E9009091F200992319F09AE390938F
:100DE000E80090914403992339F090914403915085
:100DF00090934403992389F190917105992339F0D7
:100E000090917105915090937105992341F184FF60
:100E100010C08091E2008E7E81608093E20080911C
:100E2000E1008F7E8093E100809145038E7E80619A
:100E300011C080FF16C08091E2008E7E8061809399
:100E4000E2008091E1008E7E8093E1008091450375
:100E50008E7E81608093450304C05D9ACDCF289A31
:100E6000D6CF9F918F910F900FBE0F901F90189526
:100E70001F920F920FB60F921124CF92DF92EF9232
:100E8000FF920F931F932F933F934F935F936F9313
:100E90007F938F939F93AF93BF93EF93FF93CF93E2
:100EA000DF93CDB7DEB76C97DEBFCDBF1092E90000
:100EB0008091E80083FFFBC168E0CE0145960E9467
:100EC000280282EF8093E8008D8987FF05C090910A
:100ED000E80090FFFCCF03C09EEF9093E800982FAE
:100EE000907609F0C6C09E894F89588D2F89F88C5D
:100EF00091110CC0803829F4809146038093F10051
:100F000002C01092F1001092F10045C1913051F4ED
:100F1000811141C14130510509F03DC18091460325
:100F20008D7F0BC0933061F4811135C14130510583
:100F300009F031C1809146038260809346032BC142
:100F4000953049F48091E80080FFFCCF822F8068C3
:100F50008093E30020C1963009F05EC00B8D1C8D9C
:100F600022E01092E9001092420310924103F21223
:100F700032C01092400310923F030E94390599E05D
:100F8000BE016F5F7F4FDB01E92F1D92EA95E9F704
:100F90009983FA8291E09E8390EA98879AEF9987E5
:100FA0002091410330914203275F3F4F3C832B83C5
:100FB0008D831092E9001092420310924103109326
:100FC000400300933F0349E050E080E00E940102AB
:100FD0000E943905E0C01093400300933F030E9434
:100FE000B611DC0112960D911C9113970115110594
:100FF00009F4BBC0D801ED91FC910480F581E02D8E
:10100000BE016B5E7F4FC8010995009709F0C7C00C
:10101000F80100851185EACF973009F445C1983071
:1010200021F481E08093F100B6C0993009F0B3C09B
:10103000837009F039C1E3E1F1E081E031E096E34A
:101040002081211109C08EE78093EA001092EA0006
:101050008F89809372059FC08093E9003093EB00E5
:1010600021912093EC009093ED008F5F873041F742
:10107000EACF8B8D9C8D1092E90010924203109262
:1010800041039093400380933F03898D811153C0A6
:101090008E899D89913A49F4813209F005C147E072
:1010A00050E064E071E080E0BBC0913209F0FCC028
:1010B000833269F48F89988DA0E0B0E080930001BD
:1010C00090930101A0930201B093030164C08032A8
:1010D00069F48091E80082FFFCCF67E084E091E052
:1010E0000E9428028BEF8093E80055C0823209F0FD
:1010F00052C08F8980930B01EEEFFFE785919491A9
:101100008B3F9C4D19F0E0E0F8E002C0EEEFFAE012
:101110008091040190910501A0910601B091070111
:10112000803B9440A105B10509F09EC080910B0160
:1011300080FF79C099C00E94B611FC010281138121
:101140000115110509F4B0C0D801ED91FC91019091
:10115000F081E02DBE016B5E7F4FC80109958111C2
:101160001AC0F80100851185EBCFF1E0FF1609F4F4
:101170004EC0F3E0FF1298C08F89882309F44AC05B
:10118000823089F440E86BE080E592E00E94CC0177
:10119000882309F489C08EEF8093E80088C0181670
:1011A0001906CCF381C0813029F440E86BE084E477
:1011B00092E0ECCF833009F077C00E94B611DC01D9
:1011C0001296ED90FC9013978E010F5F1F4F6801F0
:1011D000E114F10479F0D701ED91FC910680F781DB
:1011E000E02DB801C7010995080F111DF701E08432
:1011F000F184EECFD8011C92F60101900020E9F7AE
:101200003197BF016C197D0940E0C601BFCF62E391
:1012100072E002C06EE272E0FB01449150E080E8AF
:101220000E940102B8CFEE3F2AE0F20751F0808120
:1012300091818737A7E79A0721F09093FF0A80935F
:10124000FE0A87E797E7918380838091600080930F
:1012500043039BE088E10FB6F894A8958093600063
:101260000FBE9093600097CF808191818737974719
:1012700009F091CFA895809160008861809360000B
:101280008091430380936000EE3FBAE0FB0739F0A2
:101290008091FE0A9091FF0A918380837CCF109207
:1012A000FF0A1092FE0A77CF81E28093EB006C96E2
:1012B0000FB6F894DEBF0FBECDBFDF91CF91FF9187
:1012C000EF91BF91AF919F918F917F916F915F91BE
:1012D0004F913F912F911F910F91FF90EF90DF90D1
:1012E000CF900F900FBE0F901F901895611571054C
:1012F00079F0FB0101900020E9F73197AF01461B1F
:10130000570BDC01ED91FC910280F381E02D0994F3
:1013100080E090E008950F931F93CF93DF93EC014B
:101320000E9476098C0168E671E0CE010E94760980
:10133000800F911FDF91CF911F910F9108951F9200
:101340000F920FB60F9211242F933F934F935F93F9
:101350006F937F938F939F93AF93BF93EF93FF937D
:101360008CEC94E00E94A602FF91EF91BF91AF91A7
:101370009F918F917F916F915F914F913F912F91AD
:101380000F900FBE0F901F9018951F920F920FB6DF
:101390000F9211242F938F939F93EF93FF93E091DC
:1013A000DC04F091DD048081E091E204F091E3043B
:1013B00082FD12C090818091E5048F5F8F73209130
:1013C000E604821751F0E091E504F0E0E453FB4FAE
:1013D000958F8093E50401C08081FF91EF919F91EB
:1013E0008F912F910F900FBE0F901F9018951F9205
:1013F0000F920FB60F9211242F933F934F935F9349
:101400006F937F938F939F93AF93BF93EF93FF93CC
:101410008091B900887F803609F49CC068F58832D5
:1014200009F45BC090F4803109F454C038F4882387
:1014300009F4F6C0883009F44DC0F6C0883109F4CB
:101440004CC0803209F45DC0EFC0803409F468C03C
:1014500048F4803309F455C0883309F0E5C080931F
:101460009503D8C0803509F44FC0883509F45DC0B4
:10147000883409F0D9C0D6C0883909F4C7C0A8F4A7
:10148000883709F467C038F4883609F463C08037B8
:1014900009F460C0C9C0883809F4B8C0803909F4BB
:1014A0005FC0803809F0C0C05BC0803B09F486C0D3
:1014B00038F4803A09F466C0883A09F47FC0B4C0B1
:1014C000803C09F4A7C0883C09F4A4C0883B09F417
:1014D0008AC0AAC08091920310C090919403809119
:1014E0009303981770F5E091940381E08E0F809339
:1014F0009403F0E0EF58FC4F80818093BB0085ECB3
:1015000086C0809395038EC0E091940381E08E0F96
:10151000809394038091BB00F0E0EF58FC4F8083F0
:1015200090919403809193036EC0E091940381E0C5
:101530008E0F809394038091BB00F0E0EF58FC4F36
:1015400080838091960381116DC081E08093910327
:1015500084EA61C083E08093970310923E03CFCF6B
:1015600080913E03803208F051C0E0913E0381E05B
:101570008E0F80933E038091BB00F0E0E25EFC4F53
:101580008083BDCF85EC8093BC001092970380913F
:101590003E03803230F4E0913E03F0E0E25EFC4F27
:1015A000108260913E0370E0E0911C03F0911D03F6
:1015B0008EE193E0099510923E0336C084E080935B
:1015C000970310921B0310921A03E0911803F091F5
:1015D0001903099580911A03811105C081E0809358
:1015E0001A031092F802E0911B0381E08E0F8093A2
:1015F0001B03F0E0E850FD4F80818093BB00909189
:101600001B0380911A03981708F479CF85E880931B
:10161000BC000AC085EC8093BC001092970304C004
:10162000109295030E947A03FF91EF91BF91AF91C1
:101630009F918F917F916F915F914F913F912F91EA
:101640000F900FBE0F901F90189530914D033132BF
:1016500008F04AC0809197038111FCCF90914F030D
:1016600022E020939703609396032FEF2093950336
:101670001092940330939303E8EDF2E0A1E7B3E016
:1016800020E0321721F041914D932F5FFACF109255
:10169000920320919203990F922B90939203909131
:1016A0009103913061F41092910390919203909381
:1016B000BB009091BC0093FDF8CF95EC01C095EE76
:1016C0009093BC00909197039230E1F39091950331
:1016D0009F3F79F080919503803241F0809195038E
:1016E000803331F084E005C081E003C082E001C0B6
:1016F00083E010924E0310924D0310925003089510
:1017000010924C0310924B0310924E0310924D0313
:101710001092970381E0809396031092910361E009
:1017200082E00E94F31161E083E00E94F311E9EB93
:10173000F0E080818E7F808380818D7F808388E44C
:101740008093B80085E48093BC008CEA93E090938A
:101750001903809318038DEA93E090931D038093FF
:101760001C0308951F920F920FB60F9211242F930E
:101770003F934F935F936F938F939F93AF93BF93D9
:10178000CF93DF93EF93FF93E0919E03F0919F033C
:10179000309709F454C0968DA685B785858591FF4D
:1017A00004C09C91892329F44AC09C91892309F0A3
:1017B00046C0A389B4899C918589809589238C939F
:1017C000868997890197F1F7408D518DC685D78518
:1017D000658589E020E030E0DA011197F1F7369570
:1017E00027959881962309F031608150A9F7868D5D
:1017F00081FF02C02095309580919D0390E0019675
:101800008F73992740919C03481761F0A0919D0325
:10181000B0E0AA0FBB1FA85ABD4F2D933C938093F5
:101820009D0303C0868D8160868F828D938D019785
:10183000F1F7A389B4899C918589892B8C93FF91B9
:10184000EF91DF91CF91BF91AF919F918F916F9168
:101850005F914F913F912F910F900FBE0F901F906E
:101860001895E0919E03F0919F03E817F90769F43A
:10187000A389B4899C918589809589238C93109242
:101880009F0310929E0381E0089580E008950E94D6
:101890006723EF92FF920F931F93CF93DF93EC0197
:1018A0007B018A01BA010E943706811104C0CE0172
:1018B0000E945E0607C01D830C83B7018881998151
:1018C0000E947523CE01DF91CF911F910F91FF9060
:1018D000EF900895FC01808191810C941822EF9281
:1018E000FF920F931F93CF93DF93EC01FB010481D1
:1018F0001581E080F180E114F104C9F001151105B2
:10190000C9F08C819D81080F191FB801CE010E947A
:101910003706882361F0288139818C819D81B70148
:10192000820F931F0E9475231D830C8303C0CE0179
:101930000E945E06CE01DF91CF911F910F91FF9023
:10194000EF9008958091480490914904892B31F1DA
:1019500080919E0390919F0324E08E329207F1F0D4
:10196000009711F00E94310C80914C048E7F80937F
:101970004C0410929D0310929C038EE294E090938D
:101980009F0380939E03E0914104F0914204908173
:1019900080914304892B808381E0089580E008953D
:1019A000AF92BF92CF92DF92EF92FF920F931F936D
:1019B000CF93DF938C01181619061CF06FEA71E0C3
:1019C00007C00E948021EC01009741F464EE71E0B1
:1019D00080915304909154040E94FF1AA0905904DE
:1019E000B0905A04E0905504F090560420915B04A6
:1019F00030915C04C0905704D0905804FC01281B1F
:101A0000390BCF018C1B9D0B8A159B0564F4C90112
:101A10008E0F9F1FB6010E94DE20D701A80FB91FAD
:101A20008C918193EECFC7010E941822D093560467
:101A3000C093550410925C0410925B048091590489
:101A400090915A0490935E0480935D04109358041F
:101A500000935704DF91CF911F910F91FF90EF906A
:101A6000DF90CF90BF90AF900895CF93C82F809113
:101A7000590490915A0420915704309158048217C8
:101A8000930721F4880F991F0E94D00C20915504D0
:101A90003091560480915D0490915E04AC014F5FDB
:101AA0005F4F50935E0440935D04F901E80FF91F06
:101AB000C08320915D0430915E0480915704909121
:101AC00058042817390721F410925E0410925D041F
:101AD0008091590490915A04019690935A048093EE
:101AE0005904CF910895CF93DF93C0916F05D091A2
:101AF0007005FC014481558160817181E881F98123
:101B00000280F381E02DCE01099568E671E0CE01F7
:101B10000E9476090E942B13609398037093990397
:101B200080939A0390939B03DF91CF910895FC01DA
:101B30009C012E5F3F4F8FEF41E39191892798E001
:101B400087FF03C0880F842701C0880F9150C1F719
:101B5000E217F30791F70895909197039111FCCF45
:101B600091E090939703909396032FEF2093950322
:101B700010929403260F20939303909392039091D5
:101B80009203880F892B8093920380919103813077
:101B900061F410929103809192038093BB00809135
:101BA000BC0083FDF8CF85EC01C085EE8093BC00BE
:101BB000809197038130E1F380919403861710F4AC
:101BC00060919403A1E7B3E0E1E5F3E080E08617DC
:101BD00021F09D9191938F5FFACF08956F927F923C
:101BE0008F929F92AF92BF92CF92DF92EF92FF922D
:101BF0000F931F93CF93DF93CDB7DEB76A01122FF8
:101C0000732EADB6BEB62091180431E03093500368
:101C100020934F0310924E0310924D037C014C0110
:101C2000860E911C8091160490911704E814F90413
:101C300059F0D7016D917D01DC01ED91FC9101908E
:101C4000F081E02D0995EECF61E00E94250BB601F1
:101C500080E090E00E945E12002309F453C0602EE1
:101C6000660C600E662DB0E2B61508F460E2809155
:101C700018040E94AC0D10924C0380934B0368161D
:101C800011F080E040C0EDB7FEB7E619F1090FB6DC
:101C9000F894FEBF0FBEEDBF8DB79EB701964C0105
:101CA0007C016C018C2D8819861578F480911604BE
:101CB00090911704DC01ED91FC910284F385E02DF5
:101CC0000995F60181936F01EDCFC12ED72C10E05D
:101CD000C7010E94970DD70112969C911297891304
:101CE000D0CF8C9190E0982F882711962C91822B41
:101CF000F601819391936F011F5FF3E0EF0EF11CEA
:101D00000113E6CF81E00FB6F894BEBE0FBEADBEA4
:101D1000DF91CF911F910F91FF90EF90DF90CF90C7
:101D2000BF90AF909F908F907F906F900895CF93CA
:101D3000C82F8091020421E02093500380934F0329
:101D400010924E0310924D03692F80EF93E00E9492
:101D500007046C2F80EF93E00E94070461E080EF9E
:101D600093E0CF910C94250BCF92DF92EF92FF92EC
:101D7000CF93DF93EC016A017B01E889F98982E066
:101D800080834115514E61057105B1F060E079E045
:101D90008DE390E0A70196010E94F220DA01C901CB
:101DA0000197A109B109B695A795979587959C01CB
:101DB000211580E13807A8F0E889F989108260E8E8
:101DC00074E88EE190E0A70196010E94F220DA010A
:101DD000C9010197A109B109B695A795979587956E
:101DE0009C01EC85FD853083EE85FF852083188E70
:101DF000EC89FD8986E08083EA89FB8980818061A6
:101E00008083EA89FB89808188608083EA89FB89F5
:101E1000808180688083EA89FB8980818F7D8083CF
:101E2000DF91CF91FF90EF90DF90CF900895CF9307
:101E3000DF9387E00E94CA11892B09F459C06EE133
:101E400072E080EA93E00E948B09C0916F05D09107
:101E50007005E881F9810680F781E02DCE010995B2
:101E6000EA89FB8980818F7E8083EA89FB89808172
:101E7000877F8083EA89FB8980818F778083EA89E5
:101E8000FB8980818F7D80838A8D898F87E00E9486
:101E9000CA11892BB9F061E080916D050E94F311A0
:101EA00064E670E080E090E00E945E1260E0809165
:101EB0006D050E94F31164E670E080E090E00E94FE
:101EC0005E12E4CF4091690550916A0560916B05FF
:101ED00070916C0580916F05909170050E94B40E11
:101EE0006EE272E080EA93E0DF91CF910C948B096F
:101EF00060E080916D05DF91CF910C94F311EF922A
:101F0000FF920F931F93CF93DF93CDB7DEB7619707
:101F10000FB6F894DEBF0FBECDBF8C01CB01F80128
:101F20001182108213821282158214824AE09E016D
:101F30002F5F3F4F7901B9010E94251BF7010190E6
:101F40000020E9F73197AF014E195F09B701C801C9
:101F50000E94490C61960FB6F894DEBF0FBECDBF4C
:101F6000DF91CF911F910F91FF90EF900895FC01A9
:101F7000AC014E5F5F4F8FEF91E32191822728E004
:101F800030E087FF03C0880F892701C0880F2150E8
:101F90003109B9F74E175F0781F708950F931F9323
:101FA000CF93DF93CDB7DEB767970FB6F894DEBF58
:101FB0000FBECDBF85E0E0E4F2E0DE015396019074
:101FC0000D928A95E1F72091960430919704FE01D5
:101FD000739680E090E0BF014EE2D901082E02C066
:101FE000B595A7950A94E2F7A0FF40830196319634
:101FF0008430910591F70091510410915204CE0163
:1020000007960E94B1066DE372E0CE010D960E9424
:10201000B106BE01695F7F4FCE010D960E946F0C25
:10202000BC01CE0101960E947006CE010196F80116
:102030000995CE0101960E946A0CCE010D960E9470
:102040006A0CCE0107960E946A0C67960FB6F89448
:10205000DEBF0FBECDBFDF91CF911F910F910895CD
:102060000F931F93CF93DF93CDB7DEB76F970FB664
:10207000F894DEBF0FBECDBF8DE0E8E4F2E0DE01F4
:10208000119601900D928A95E1F720919804309174
:102090009904FE01319680E090E04EE2B901082EED
:1020A00002C0759567950A94E2F760FF4083019638
:1020B00031968C30910591F70091510410915204A2
:1020C000BE016F5F7F4FCE0144960E94B10665E46A
:1020D00072E0CE014A960E94B106BE016C5E7F4F4F
:1020E000CE014A960E946F0CBC01CE010E960E9452
:1020F0007006CE010E96F8010995CE010E960E944B
:102100006A0CCE014A960E946A0CCE0144960E9447
:102110006A0C6F960FB6F894DEBF0FBECDBFDF918D
:10212000CF911F910F9108950F931F93CF93DF933A
:10213000CDB7DEB762970FB6F894DEBF0FBECDBF46
:1021400000915104109152046AE974E0CE0107969F
:102150000E94B10665E572E0CE010D960E94B106BF
:10216000BE01695F7F4FCE010D960E946F0CBC01CE
:10217000CE0101960E947006CE010196F8010995E4
:10218000CE0101960E946A0CCE010D960E946A0C47
:10219000CE0107960E946A0C62960FB6F894DEBFD5
:1021A0000FBECDBFDF91CF911F910F91089590E0A9
:1021B000FC013197EF30F105B0F5EA5AFF4F0C946E
:1021C0001421809180008F7703C0809180008F7DE3
:1021D00080938000089580918000877FF9CF84B537
:1021E0008F7702C084B58F7D84BD08958091900063
:1021F0008F7707C0809190008F7D03C08091900001
:10220000877F8093900008958091C0008F7703C0EE
:102210008091C0008F7D8093C00008958091C2009E
:10222000877F8093C20008953FB7F8948091780526
:1022300090917905A0917A05B0917B0526B5A89B70
:1022400005C02F3F19F00196A11DB11D3FBFBA2F48
:10225000A92F982F8827820F911DA11DB11DBC01A8
:10226000CD0142E0660F771F881F991F4A95D1F76D
:102270000895EF92FF920F931F93CF93DF93CDB703
:10228000DEB7A1970FB6F894DEBF0FBECDBF7C01BD
:10229000CB01BA01F70111821082138212821582DA
:1022A00014828E010F5F1F4F22E044E00E94051B45
:1022B000009769F0FC0101900020E9F73197AF0128
:1022C000481B590BBC01C7010E94490C03C0C70140
:1022D0000E945E06A1960FB6F894DEBF0FBECDBF7A
:1022E000DF91CF911F910F91FF90EF900895209172
:1022F0007205211103C08FEF9FEF08955FB7F89427
:1023000022E02093E9002091F20030E0121613063B
:1023100014F421E030E0422FFC0184E6415038F013
:102320002898809371059091F1009193F7CF211532
:10233000310521F08091F200882319F05FBFC901B7
:1023400008958BE68093E800F9CF2FB7F89483E0E7
:102350008093E9009091E800892F807295FF04C076
:102360009091F20080E4891B2FBF08958091800531
:1023700081110DC082E080937C0584E080937D050F
:1023800010927F0510927E0581E0809380058CE796
:1023900095E00895CF93DF93282F30E0F901EC53B7
:1023A000FD4F8491F901E956FD4FD491F901E858A8
:1023B000FD4FC491CC2391F081110E94D710EC2FD6
:1023C000F0E0EE0FFF1FE45AFD4FA591B491EC91A0
:1023D000ED2381E090E021F480E002C080E090E015
:1023E000DF91CF9108951F93CF93DF93282F30E093
:1023F000F901EC53FD4F8491F901E956FD4FD49159
:10240000F901E858FD4FC491CC23C1F0162F81117A
:102410000E94D710EC2FF0E0EE0FFF1FE659FD4FA2
:10242000A591B4919FB7F894111104C08C91D095E7
:10243000D82302C0EC91DE2BDC939FBFDF91CF91BC
:102440001F910895CF93DF9390E0FC01E956FD4F73
:102450002491FC01E858FD4F8491882361F190E0BC
:10246000880F991FFC01EA54FD4FC591D491FC01DE
:10247000E659FD4FA591B491611109C09FB7F89439
:102480008881209582238883EC912E230BC06230B3
:1024900061F49FB7F8948881322F30958323888325
:1024A000EC912E2B2C939FBF06C08FB7F894E88138
:1024B0002E2B28838FBFDF91CF9108958F929F920B
:1024C000AF92BF92CF92DF92EF92FF926B017C01AD
:1024D0000E9414114B015C01C114D104E104F10408
:1024E000F1F00E941411DC01CB0188199909AA09A5
:1024F000BB09883E9340A105B10570F321E0C21AE3
:10250000D108E108F10888EE880E83E0981EA11C2E
:10251000B11CC114D104E104F10419F7DDCFFF901F
:10252000EF90DF90CF90BF90AF909F908F900895E5
:10253000CF92DF92EF92FF920F931F93CF93DF938F
:1025400000D000D000D0CDB7DEB780E094E20E948A
:10255000970E64E170E080E090E00E945E1266E019
:10256000809102040E94AC0D10924C0380934B03A7
:10257000863009F060C08E010F5F1F4F6E0187E04B
:10258000C80ED11C780180EF93E00E94BE03F801D1
:1025900081938F01EC15FD05B1F71B81C7010E94E6
:1025A000B70F181348C01E81CE0104960E94B70FC2
:1025B000181341C00C811D8169817A8176276727B4
:1025C000762780E090E00E94811D20E030E04FE21D
:1025D00053E40E94E21D20E03FEF4FE757E40E94E2
:1025E000531F20E030E044E352E40E94E61E609373
:1025F0000704709308048093090490930A04702FD1
:10260000612F80E090E00E94811D20E030E048ECE6
:1026100052E40E94E21D20E03FEF4FE757E40E94A2
:10262000531F6093030470930404809305049093F4
:10263000060481E001C080E026960FB6F894DEBF64
:102640000FBECDBFDF91CF911F910F91FF90EF9003
:10265000DF90CF9008952FB7F89460917405709132
:10266000750580917605909177052FBF08951F928B
:102670000F920FB60F9211242F933F938F939F9336
:10268000AF93BF938091740590917505A0917605E5
:10269000B09177053091730523E0230F2D3720F497
:1026A0000196A11DB11D05C026E8230F0296A11DAC
:1026B000B11D209373058093740590937505A093C5
:1026C0007605B09377058091780590917905A09172
:1026D0007A05B0917B050196A11DB11D8093780507
:1026E00090937905A0937A05B0937B05BF91AF9144
:1026F0009F918F913F912F910F900FBE0F901F9040
:102700001895CF93DF93CEE2D4E08FA198A50E94D5
:10271000182288E591E099838883CE01DF91CF91DB
:102720000C94310C61E08DE00E94221261E08DE09A
:102730000E94F3116AEF70E080E090E00E945E1268
:1027400060E08DE00E94F3116AEF70E080E090E0BD
:102750000E945E12EBCFCF93DF93CDB7DEB7C055AB
:10276000D1090FB6F894DEBF0FBECDBF789484B503
:10277000826084BD84B5816084BD85B5826085BD7D
:1027800085B5816085BD80916E00816080936E000B
:1027900010928100809181008260809381008091FD
:1027A00081008160809381008091800081608093AE
:1027B00080008091910082608093910080919100CF
:1027C000816080939100809190008160809390005F
:1027D0008091C10084608093C1008091C1008260BB
:1027E0008093C1008091C10081608093C10080917D
:1027F000C30081608093C3008091C0008260809399
:10280000C0008091C20081608093C20080917A00F4
:10281000846080937A0080917A00826080937A004D
:1028200080917A00816080937A0080917A0080683C
:1028300080937A001092720510924603109245031D
:102840008091D70081608093D70080EA8093D80080
:1028500089B5806189BD89B5826089BD09B400FEF2
:10286000FDCF61E070E080E090E00E945E12809118
:10287000D8008F7C80618093D8008091E000807FB9
:102880008093E0008091E1008E7E8093E1008DE0F6
:102890008093E200559A209A62E087E00E9422121B
:1028A00061E080916D050E94221261E080916D05CA
:1028B0000E94F31164EC79E080E090E00E945E12E7
:1028C0004091690550916A0560916B0570916C05A6
:1028D00080916F05909170050E94B40E0E94170FB1
:1028E0001092490410924804109247041092460432
:1028F000109245041092440482E09DE090934B04B2
:1029000080934A0480913A0498EF980F943048F0ED
:1029100022EF280F243028F026EE280F233008F06D
:1029200060C02FE636E0309345042093440420E055
:102930003DE0309347042093460427EB39E0309381
:10294000490420934804943058F092EF980F943043
:1029500038F08A51833008F0EFC4A8E6B0E0EEC446
:10296000A8E6B0E0E8E6F0E0808181608C93809199
:102970003A0498EF980F943040F022EF280F24305B
:1029800020F026EE280F233018F42BE630E002C0AA
:1029900020E030E03093420420934104943010F45E
:1029A0009CEF09C08E3071F08F3071F0803171F082
:1029B000813171F09AEE980F81E001C0880F9A95ED
:1029C000EAF707C088E005C082E003C084E001C0E8
:1029D00081E08093430480914A0490914B040197D5
:1029E000F1F70E94A20C0E942B1360935F04709376
:1029F000600480936104909362040E94CE0F0E9451
:102A000030100E94941080EF93E00E94800B84E4C9
:102A10008093020482EA90E30E94970E6AE070E0DD
:102A200080E090E00E945E1211E010930B0488E5B4
:102A30008093180480EF93E090931704809316041A
:102A40000E94800B86E38BAF82E88CAF03E020E12D
:102A500034E04AE050E062E0CE01CB960E94EE0DF9
:102A6000882331F1E0E2FE2EFBAE8FE28CAF01E075
:102A70009E012C5C3F4F4AE050E062E0CE01CB96D5
:102A80000E94EE0D8823A1F08CA99DA9809781F466
:102A9000F98283E08A8300E020E030E04AE050E001
:102AA00062E0CE0101960E94EE0D8111109319048F
:102AB0006BE671E080EA93E00E948B09C12CD12C77
:102AC0001601E89420F86894C0F8CE01C4967C0101
:102AD0000E94170F80914D04882331F00E94CA1183
:102AE000892B11F4560101C0510180914E048823B5
:102AF00039F00E94CA11892B19F46894A1F802C018
:102B0000E894A1F880914F04882339F00E94CA11FB
:102B1000892B19F46894A2F802C0E894A2F8809175
:102B20005004882339F00E94CA11892B19F4689443
:102B3000A3F802C0E894A3F88091960490919704BA
:102B4000A816B90631F0B0929704A09296040E949C
:102B5000CE0F11E08EE294E00E94FA04892B09F472
:102B600083C08EE294E00E94120590FF05C080931E
:102B7000630410939504EECFE0919504E23350F78F
:102B8000209163042C3431F1203521F7E33030F407
:102B900091E09E0F90939504F0E02FC0E330D1F6C2
:102BA0002091640430E5320F90916504390F381399
:102BB00055C0892F990F990B982F8827022E000C4A
:102BC000330B822B932B90939904809398040E944B
:102BD000301044C04E2F50E0E13059F02091640491
:102BE000022E000C330BB9016F5F7F4F641775071E
:102BF00044F0EF5FE0939504FA01E25DFB4F85AB93
:102C0000A9CF2E5F3F4F4217530709F0A3CFEEE243
:102C1000F4E090E09F012E5234402417350724F44D
:102C200025A9920F3196F6CF891318C0FA01E25DFB
:102C3000FB4F15AA83E3E3E6F4E0DE011196019071
:102C40000D928A95E1F741505109BE016D5F7F4FAA
:102C50008AE994E00E947C230E949410809195045C
:102C60008F5F8093950476CF8091590490915A0498
:102C7000892B09F466C00E942B1380905F0490900A
:102C80006004A0906104B0906204DC01CB0188195B
:102C90009909AA09BB0987399105A105B10508F071
:102CA00097C14FC0609155047091560480915B04A8
:102CB00090915C04AC014F5F5F4F50935C04409374
:102CC0005B04FB01E80FF91FA0802150310930930C
:102CD0005A0420935904809157049091580448173E
:102CE000590721F410925C0410925B042115310500
:102CF00009F07EC18EE294E00E94310C6BE471E039
:102D00008EE294E00E9450040A2C000CBB08B5012E
:102D100077278EE294E00E945004B501655B7F4FF7
:102D200077278EE294E00E9450040E94A20C0E9439
:102D30002B1360935F0470936004809361049093FD
:102D4000620480910B04811105C0809119048823CD
:102D500009F46BC00E942B1380901A0490901B04FE
:102D6000A0901C04B0901D0486169706A806B9060C
:102D700008F05BC080910B048823D9F10E9498125F
:102D8000882309F449C18091070490910804A09117
:102D90000904B0910A0480931E0490931F04A09329
:102DA0002004B09321040E949812882309F439C1A9
:102DB0004090030450900404609005047090060451
:102DC00040922204509223046092240470922504BD
:102DD00080901E0490901F04A0902004B0902104C5
:102DE000A5019401C501B4010E94CB20882309F4F8
:102DF0001FC180911904811125C10E942B1380905D
:102E0000FC039090FD03A090FE03B090FF03DC0153
:102E1000CB01880D991DAA1DBB1D80931A049093A8
:102E20001B04A0931C04B0931D0480916F05909126
:102E30007005DC01ED91FC910084F185E02D099590
:102E4000892B09F45BC080916F0590917005DC01BE
:102E5000ED91FC910284F385E02D09958733D1F142
:102E6000A4F4823379F144F4803341F14CF581329A
:102E700009F044C08AEA39C0843341F12CF185332A
:102E800039F18633D9F586E330C08F3649F14CF4F9
:102E9000893321F10CF18F3359F1833679F58AE3C7
:102EA00024C0833709F124F4803741F58DE31DC038
:102EB0008637C1F0883711F58CE317C080E315C061
:102EC00081E313C082E311C083E30FC084E30DC02C
:102ED00085E30BC087E309C088E307C089E305C029
:102EE0008BE303C08EE301C08FE30E94350D06C063
:102EF0000E94CE0F0E9430100E9494100E942B134B
:102F00008090980390909903A0909A03B0909B03AF
:102F1000DC01CB0188199909AA09BB09813D9740B9
:102F2000A105B10508F451C00E942B1380904703FE
:102F300090904803A0904903B0904A03681979091A
:102F40008A099B0928EE33E040E050E00E94F2201D
:102F50005F934F933F932F9389E191E09F938F93DA
:102F6000FF92EF920E948B23B701CE018F5B9F4FA0
:102F70000E94B10669EA71E0CE01CB960E94B106CB
:102F8000BE016F5B7F4FCE01CB960E946F0CBC01E0
:102F9000CE01895B9F4F0E947006CE01895B9F4FD7
:102FA0000E94730DCE01895B9F4F0E946A0CCE0177
:102FB000CB960E946A0CCE018F5B9F4F0E946A0CD9
:102FC0000FB6F894DEBF0FBECDBF0E94350380CD93
:102FD0002091590430915A042115310509F062CE2F
:102FE00061E771E080915304909154040E94FF1AAC
:102FF000AC0197FF02C04D5F5F4F559547955595C2
:103000004795421753070CF475CE97FD0196959599
:1030100087950E94D00C6ECE80E090E0A0ECBFE7D8
:10302000BACE412C512C30EC632E3FE7732EC8CE24
:10303000A3019201C301B2010E94CB20882309F4AD
:10304000B8C0D7CE8090260490902704A090280482
:10305000B0902904C501B4010E94811D9B01AC01FF
:103060000E94CB20811128C091E0891698EE990624
:1030700093E0A906B10400F5C501B40120E039E8E8
:1030800041E450E00E941A2108E10E944721C90151
:1030900020E22CAB21E62DAB9EAB8FABCE01C696CA
:1030A0000E94970D88AF00E020E030E04AE050E059
:1030B00065E0C7010E94EE0D80E28BAF88E08CAF27
:1030C00002E097014CE050E062E0CE01CB960E9416
:1030D000EE0D882309F491CE6EA97FA970930D049B
:1030E00060930C048CA99DA990930F0480930E0407
:1030F00070932B0460932A0490932D0480932C04E6
:10310000A0900004B0900104CE01CB960E947F0FE6
:1031100063EA71E0CE018F5B9F4F0E94B106BE0152
:10312000655C7F4FCE018F5B9F4F0E946F0CBC018F
:10313000C7010E947006C701F5010995C7010E94E9
:103140006A0CCE018F5B9F4F0E946A0CCE01CB961A
:103150000E946A0CA0900004B090010460912C04BD
:1031600070912D04CE01CB960E947F0F66EA71E02C
:10317000CE018F5B9F4F0E94B106BE01655C7F4F01
:10318000CE018F5B9F4F0E946F0CBC01C7010E9454
:103190007006C701F5010995C7010E946A0CCE01AE
:1031A0008F5B9F4F0E946A0CCE01CB960E946A0CE7
:1031B00024CE23EC35EF4CE851E4C501B4010E9464
:1031C000E21D61966CAF7DAF8EAF9FAF619728EB2C
:1031D0003EE143E753E4C501B4010E94E71E9B01B1
:1031E000AC0161966CAD7DAD8EAD9FAD61970E94D7
:1031F000531F0E94CD1F61966CAF7DAF8EAF9FAF06
:10320000619720E030E048EC52E4C301B2010E9433
:10321000531F21E835E943EC50E40E94E21D61961A
:103220002CAD3DAD4EAD5FAD61970E94E21D2B010F
:103230003C0123E333E948E853E4C501B4010E94AB
:10324000E71E9B01AC01C301B2010E94531F23E39F
:1032500033EB48E553E40E94E21D20E030E04AE70A
:1032600054E40E94E21D0E94FF1F609326047093A5
:1032700027048093280490932904609000047090A0
:103280000104B501A401CE01CB960E9439116CEA6C
:1032900071E0CE018F5B9F4F0E94B106BE01655C5D
:1032A0007F4FCE018F5B9F4F0E946F0CBC01C70107
:1032B0000E947006C701F3010995C7010E946A0CBC
:1032C000CE018F5B9F4F0E946A0CCE01CB960E946D
:1032D0006A0CA0900004B090010440912204509127
:1032E00023046091240470912504CE01CB960E94A2
:1032F000391169EA71E0CE018F5B9F4F0E94B106E0
:10330000BE01655C7F4FCE018F5B9F4F0E946F0CAB
:10331000BC01C7010E947006C701F5010995C701EC
:103320000E946A0CCE018F5B9F4F0E946A0CCE01F7
:10333000CB960E946A0C5DCDA0E0B0E0833008F42B
:1033400011CBE0E0F0E010CBCF93DF931092CF04ED
:103350001092CE0488EE93E0A0E0B0E08093D00419
:103360009093D104A093D204B093D30422E231E02D
:103370003093CD042093CC042DEC30E03093D9046D
:103380002093D8042CEC30E03093DB042093DA0453
:1033900028EC30E03093DD042093DC0429EC30E0AD
:1033A0003093DF042093DE042AEC30E03093E10414
:1033B0002093E0042EEC30E03093E3042093E20409
:1033C0001092E5041092E6041092E7041092E804CB
:1033D0001092A3031092A2038093A4039093A503D9
:1033E000A093A603B093A70324E331E03093A10395
:1033F0002093A0032FEF3FEF3093AD032093AC0356
:103400001092F3031092F2038093F4039093F50368
:10341000A093F603B093F70326E431E03093F10371
:103420002093F0032CEC34E03093700520936F056B
:1034300040E052EC61E070E04093690550936A050A
:1034400060936B0570936C052DE030E030936E0552
:1034500020936D0510923104109230048093320451
:1034600090933304A0933404B093350488E591E03D
:1034700090932F0480932E041092450410924404DC
:103480001092470410924604109249041092480486
:1034900010924B0410924A0460914C046E7F6D7F31
:1034A00060934C046695617081E068278BE00E9410
:1034B000F31161E08BE00E942212E2EAF2E0E49173
:1034C000E0933E04E3E8F2E0E491F0E0EE0FFF1F4A
:1034D000E659FD4F859194919093400480933F0469
:1034E00060E08AE00E94221280914C0481FD04C0B9
:1034F00061E08AE00E94F3118AE080933A04E1EAF5
:10350000F2E0E491E0933B04E2E8F2E0E491F0E0E1
:10351000EE0FFF1FE45AFD4F8591949190933D0467
:1035200080933C04109258041092570410925A044D
:103530001092590410925C0410925B0410925E0485
:1035400010925D04109254041092530482E090E0B3
:103550000E9480219093560480935504892B11F486
:103560000E94921382E090E0909358048093570455
:1035700083E080934D0482E080934E0484E0809346
:103580004F0485E080935004CAE8D6E0D0935204FB
:10359000C093510462E083E00E94221262E082E064
:1035A0000E94221262E084E00E94221262E085E022
:1035B0000E9422121092020410920304109204043A
:1035C0001092050410920604109207041092080449
:1035D0001092090410920A0488E893E1A0E0B0E098
:1035E0008093FC039093FD03A093FE03B093FF032D
:1035F000D0930104C0930004DF91CF910895009708
:1036000011F00E948B090E949213EF920F931F9367
:10361000CF93DF93E80147FD02C034E001C034E1FD
:10362000042E000C550B57FF03C0519541955109CD
:10363000E32E022F242FAE010E943F1BCE01DF910B
:10364000CF911F910F91EF900895BB27FB01552754
:10365000AA27880F991FAA1FA41710F0A41B8395EF
:103660005051B9F7A05DAA3308F0A95DA193009766
:1036700079F7B111B1931192CB010C94711DA9E0AE
:10368000B0E0E5E4FBE10C94A61E6A01122FB02E17
:103690002BE3201720F0FF24F394F00E02C02CE35C
:1036A000F22E0F2D27E0AE014F5F5F4F0E94991C55
:1036B000BC014981842F8970813031F0E1FC06C062
:1036C000E0FE06C090E205C09DE203C09BE201C09F
:1036D00090E05E2D507143FF3CC0911102C083E029
:1036E00001C084E0811718F4212F281B01C020E0BD
:1036F00051110BC0F601822F30E2882319F031936B
:103700008150FBCFC20ED11C20E0992329F0D601B5
:103710009C93F60131966F01C6010396E2FE0AC042
:103720003EE4D6013C9341E411964C9311971296D6
:103730003C9306C03EE6F601308341E64183328386
:10374000FC01322F40E2332309F442C0419331504F
:10375000FACF42FF44C0911102C083E001C084E06F
:10376000811718F4212F281B01C020E051110BC034
:10377000F601822F30E2882319F031938150FBCF7C
:10378000C20ED11C20E0992329F0D6019C93F601AA
:1037900031966F01C6010396E2FE0BC039E4D601F3
:1037A0003C933EE411963C93119736E412963C9379
:1037B00007C039E6F60130833EE6318336E63283D0
:1037C000FC01322F40E2332319F041933150FBCFFB
:1037D000FC01E20FF11D10828EEF9FEFA6C021E0E9
:1037E00030E0911102C020E030E0161617061CF4FC
:1037F000FB01319602C0E1E0F0E02E0F3F1FBB203D
:1038000021F0EB2DF0E0319602C0E0E0F0E02E0F69
:103810003F1FE12FF0E02E173F071CF4121B212F52
:1038200001C020E08E2D887159F4F601822F30E21C
:10383000882319F031938150FBCFC20ED11C20E0B8
:10384000992329F0D6019C93F60131966F0151110D
:103850000BC0F601822F90E3882319F091938150D9
:10386000FBCFC20ED11C20E00F2D060F9A81342F02
:10387000307144FF03C0913309F40150101624F451
:10388000093018F008E001C001E0AB0177FF02C089
:1038900040E050E0FB01E41BF50BA1E0B0E0AC0F11
:1038A000BD1FEA0FFB1F8EE2A82E4B01801A910864
:1038B0000B2D10E01195019511094F3FBFEF5B07EC
:1038C00021F4D601AC9211966D01641775072CF0A6
:1038D0008416950614F4818101C080E3415051099A
:1038E0003196D60111967D014017510724F0D6017B
:1038F0008C936701E2CF6417750739F4963320F48F
:10390000953319F4311101C081E3F6018083F70189
:10391000822F90E2882319F091938150FBCFF70119
:10392000E20FF11D108280E090E02996ECE00C940B
:10393000C21E283008F027E03327DA01990F311D25
:1039400087FD916000966105710539F432602E5F44
:103950003D9330E32A95E1F708959F3F30F080389A
:103960007105610509F03C5F3C5F3D93913008F0C3
:103970008068911DDF93CF931F930F93FF92EF9277
:10398000192F987F9695E92F96959695E90FFF2721
:10399000E45BFE4F99273327EE24FF24A701E701BC
:1039A00005900894079428F4360FE71EF81E491F67
:1039B000511D660F771F881F991F0694A1F7059068
:1039C000079428F4E70EF81E491F561FC11D770FF4
:1039D000881F991F661F0694A1F70590079428F485
:1039E000F80E491F561FC71FD11D880F991F661F4C
:1039F000771F0694A1F70590079420F4490F561FEE
:103A0000C71FD81F990F661F771F881F0694A9F735
:103A100084911095177041F0D695C79557954795A5
:103A2000F794E7941A95C1F7E2EFF0E068941590E7
:103A3000159135916591959105907FE27395E11807
:103A4000F10A430B560BC90BD009C0F7E10CF11E6C
:103A5000431F561FC91FD01D7EF4703311F48A9581
:103A6000E6CFE894015030F0080F0AF4002702175F
:103A700008F4202F2395022F7A3328F079E37D93E1
:103A80002A95E9F710C07D932A9589F606949795B3
:103A90006795379517951794E118F10A430B560B64
:103AA000C90BD00998F023957E9173957A3308F06D
:103AB00070E37C932013B8F77E9170617D9330F0B2
:103AC000839571E37D9370E32A95E1F71124EF90DC
:103AD000FF900F911F91CF91DF91992787FD9095CE
:103AE0000895DC01FC01672F71917723E1F732978C
:103AF00004C07C916D9370836291AE17BF07C8F3C9
:103B00000895E89409C097FB3EF4909580957095D0
:103B100061957F4F8F4F9F4F9923A9F0F92F96E919
:103B2000BB279395F695879577956795B795F1118E
:103B3000F8CFFAF4BB0F11F460FF1BC06F5F7F4F2B
:103B40008F4F9F4F16C0882311F096E911C077233D
:103B500021F09EE8872F762F05C0662371F096E846
:103B6000862F70E060E02AF09A95660F771F881F15
:103B7000DAF7880F9695879597F90895990F0008B9
:103B8000550FAA0BE0E8FEEF16161706E807F9072F
:103B9000C0F012161306E407F50798F0621B730BCA
:103BA000840B950B39F40A2661F0232B242B252B4B
:103BB00021F408950A2609F4A140A6958FEF811DEE
:103BC000811D08950E94F51D0C94661E0E94581ECA
:103BD00038F00E945F1E20F0952311F00C944F1EC8
:103BE0000C94551E11240C949A1E0E94771E70F39B
:103BF000959FC1F3950F50E0551F629FF001729F92
:103C0000BB27F00DB11D639FAA27F00DB11DAA1FA0
:103C1000649F6627B00DA11D661F829F2227B00DED
:103C2000A11D621F739FB00DA11D621F839FA00D78
:103C3000611D221F749F3327A00D611D231F849FC8
:103C4000600D211D822F762F6A2F11249F5750401F
:103C50009AF0F1F088234AF0EE0FFF1FBB1F661F9A
:103C6000771F881F91505040A9F79E3F510580F063
:103C70000C944F1E0C949A1E5F3FE4F3983ED4F3CD
:103C8000869577956795B795F795E7959F5FC1F707
:103C9000FE2B880F911D9695879597F9089597F9B2
:103CA0009F6780E870E060E008959FEF80EC0895E2
:103CB00000240A941616170618060906089500240B
:103CC0000A9412161306140605060895092E039485
:103CD000000C11F4882352F0BB0F40F4BF2B11F4F9
:103CE00060FF04C06F5F7F4F8F4F9F4F089557FD58
:103CF0009058440F551F59F05F3F71F04795880F5A
:103D000097FB991F61F09F3F79F0879508951216F0
:103D100013061406551FF2CF4695F1DF08C016169C
:103D200017061806991FF1CF86957105610508944D
:103D30000895E894BB2766277727CB0197F9089564
:103D40002F923F924F925F926F927F928F929F92AB
:103D5000AF92BF92CF92DF92EF92FF920F931F9399
:103D6000CF93DF93CDB7DEB7CA1BDB0B0FB6F8944A
:103D7000DEBF0FBECDBF09942A88398848885F848A
:103D80006E847D848C849B84AA84B984C884DF80FB
:103D9000EE80FD800C811B81AA81B981CE0FD11DDF
:103DA0000FB6F894DEBF0FBECDBFED010895A29F00
:103DB000B001B39FC001A39F700D811D1124911DFF
:103DC000B29F700D811D1124911D08955058BB277D
:103DD000AA270E94FE1E0C94661E0E94581E38F0F0
:103DE0000E945F1E20F039F49F3F19F426F40C94D2
:103DF000551E0EF4E095E7FB0C944F1EE92F0E9430
:103E0000771E58F3BA17620773078407950720F0E7
:103E100079F4A6F50C94991E0EF4E0950B2EBA2FAA
:103E2000A02D0B01B90190010C01CA01A0011124C0
:103E3000FF27591B99F0593F50F4503E68F11A166C
:103E4000F040A22F232F342F4427585FF3CF4695FD
:103E500037952795A795F0405395C9F77EF41F161F
:103E6000BA0B620B730B840BBAF09150A1F0FF0FE9
:103E7000BB1F661F771F881FC2F70EC0BA0F621FD5
:103E8000731F841F48F4879577956795B795F795C5
:103E90009E3F08F0B0CF9395880F08F09927EE0F5A
:103EA0009795879508950E94671F0C94661E0E943F
:103EB0005F1E58F00E94581E40F029F45F3F29F021
:103EC0000C944F1E51110C949A1E0C94551E0E9476
:103ED000771E68F39923B1F3552391F3951B550B86
:103EE000BB27AA2762177307840738F09F5F5F4FCD
:103EF000220F331F441FAA1FA9F335D00E2E3AF00C
:103F0000E0E832D091505040E695001CCAF72BD023
:103F1000FE2F29D0660F771F881FBB1F2617370774
:103F20004807AB07B0E809F0BB0B802DBF01FF27A6
:103F300093585F4F3AF09E3F510578F00C944F1E16
:103F40000C949A1E5F3FE4F3983ED4F386957795E0
:103F50006795B795F7959F5FC9F7880F911D96955F
:103F6000879597F90895E1E0660F771F881FBB1FBB
:103F7000621773078407BA0720F0621B730B840B68
:103F8000BA0BEE1F88F7E095089529F416F00C940B
:103F90004F1E0C94991E0C94551E0E947F1EA8F370
:103FA0009638A0F707F80F92E8942BE33AEA48EB2B
:103FB0005FE70E94F81D0F920F920F924DB75EB708
:103FC0000F920E949720EAECF0E00E942E204F9181
:103FD0005F91EF91FF91E595EE1FFF1F49F0FE57AE
:103FE000E0684427EE0F441FFA95E1F74195550B21
:103FF0000E9461200F9007FE0C94552008950E94A6
:104000007F1E88F09F5798F0B92F9927B751B0F0CD
:10401000E1F0660F771F881F991F1AF0BA95C9F74C
:1040200014C0B13091F00E94991EB1E008950C9433
:10403000991E672F782F8827B85F39F0B93FCCF3E6
:10404000869577956795B395D9F73EF490958095C9
:10405000709561957F4F8F4F9F4F0895DF93CF935A
:104060001F930F93FF92EF92DF927B018C01689474
:1040700006C0DA2EEF010E94F51DFE01E894A5911D
:104080002591359145915591A6F3EF010E94FE1EB1
:10409000FE019701A801DA9469F7DF90EF90FF9095
:1040A0000F911F91CF91DF9108959B01AC0160E0CA
:1040B00070E080E89FE30C94531F0C944F1E0C9407
:1040C000D0200E947F1ED8F39923C9F3940F511D6D
:1040D000A3F39150504094F059F0882332F0660FCA
:1040E000771F881F91505040C1F79E3F51052CF714
:1040F000880F911D9695879597F908955F3FACF0CD
:10410000983E9CF0BB27869577956795B79508F400
:10411000B1609395C1F7BB0F58F711F460FFE8CF7A
:104120006F5F7F4F8F4F9F4FE3CF0C949A1EFA0122
:10413000DC01AA0FBB1F9B01AC01BF5728F422274B
:1041400033274427507820C0B75190F4AB2F002478
:10415000469537952795011CA395D2F3002071F061
:10416000220F331F441FB395DAF30ED00C94E61ED2
:1041700061307105A0E88A07B94630F49B01AC01B3
:104180006627772788279078309621F0208331831F
:104190004283538308950E94BE1D880B990B089596
:1041A0009F3F31F0915020F4879577956795B795AB
:1041B000880F911D9695879597F9089597FB072E7F
:1041C00016F4009407D077FD09D00E94632107FC04
:1041D00005D03EF4909581959F4F08957095619517
:1041E0007F4F0895A1E21A2EAA1BBB1BFD010DC033
:1041F000AA1FBB1FEE1FFF1FA217B307E407F50797
:1042000020F0A21BB30BE40BF50B661F771F881F72
:10421000991F1A9469F760957095809590959B0108
:10422000AC01BD01CF010895EE0FFF1F0590F49181
:10423000E02D0994E894DF93CF93FC01DB010E9409
:10424000D71E7F936F93E9019A01AC01BF93AF939F
:104250003F932F93DF010E94D71E26F46C1B7D0B2A
:10426000820B930B9E01EB01FC010E947721AF9121
:10427000BF912F913F910E947721BE01CF01F9019B
:104280002F913F91CF91DF91089597FB10F81694ED
:1042900000080F93083098F00850232F342F452F33
:1042A000562F672F782F892F902DF4CF059497954F
:1042B00087957795679557954795379527950A95EB
:1042C000AAF70F910895AA1BBB1B51E107C0AA1FB3
:1042D000BB1FA617B70710F0A61BB70B881F991FA7
:1042E0005A95A9F780959095BC01CD0108950E943B
:1042F000D71E460F571FC81FD91F08F431960895BF
:104300000F931F93CF93DF938230910510F482E0D7
:1043100090E0E0918A05F0918B0520E030E0A0E08C
:10432000B0E0309719F14081518102811381481723
:104330005907C8F08417950769F4109731F0129661
:104340000C93129713961C9327C000938A05109321
:104350008B0522C02115310519F04217530718F4B7
:104360009A01BD01EF01DF01F801DBCF2115310515
:10437000F9F0281B390B2430310580F48A819B81A8
:104380006115710521F0FB019383828304C0909332
:104390008B0580938A05FE01329644C0FE01E20F30
:1043A000F31F8193919322503109398328833AC0B6
:1043B0002091880530918905232B41F420910E012D
:1043C00030910F01309389052093880520910C01CD
:1043D00030910D012115310541F42DB73EB74091C3
:1043E000100150911101241B350BE0918805F091CB
:1043F0008905E217F307A0F42E1B3F0B2817390796
:1044000078F0AC014E5F5F4F2417350748F04E0F30
:104410005F1F50938905409388058193919302C053
:10442000E0E0F0E0CF01DF91CF911F910F9108956F
:10443000CF93DF93009709F481C0FC013297138278
:104440001282A0918A05B0918B05109781F420818A
:104450003181820F931F209188053091890528179B
:10446000390751F5F0938905E093880567C0ED01A0
:1044700020E030E0CE17DF0740F44A815B819E01E7
:1044800041155105F1F0EA01F5CFD383C283408194
:104490005181840F951FC817D90759F488819981D4
:1044A000840F951F0296918380838A819B819383D9
:1044B00082832115310529F4F0938B05E0938A0559
:1044C0003DC0E901FB83EA8349915991C40FD51F8F
:1044D000EC17FD0761F480819181840F951F02968E
:1044E000E90199838883828193819B838A83E0E0B9
:1044F000F0E012968D919C911397009719F0FD01B1
:10450000DC01F7CF8D919C9111979D012E5F3F4F5C
:10451000820F931F2091880530918905281739074C
:1045200069F4309729F410928B0510928A0502C025
:1045300013821282B0938905A0938805DF91CF91F1
:104540000895A0E0B0E0E7EAF2E20C94A41EEC01CA
:10455000009721F4CB010E948021B4C0FC01E60F3A
:10456000F71F9C0122503109E217F30708F4A8C095
:10457000D9010D911C91119706171707B0F005305E
:10458000110508F49BC0C80104978617970708F423
:1045900095C002501109061B170B019311936D93DF
:1045A0007C93CF010E94182289C05B01A01AB10A36
:1045B0004C01800E911EA0918A05B0918B05612C53
:1045C000712CE12CF12C109709F446C08D919C912F
:1045D0001197A815B905B1F56C0142E0C40ED11CC4
:1045E000CA14DB0478F14C018A189B08640142E08C
:1045F000C40ED11C1296BC9012971396AC91B5E0E4
:10460000CB16D10440F0B282A38391828082D9017B
:104610006D937C9309C00E5F1F4F800F911FF901AE
:1046200091838083EB2DFA2FE114F10431F0D7014F
:104630001396FC93EE93129741C0F0938B05E09391
:104640008A053CC06816790608F43C017D01129683
:104650000D90BC91A02DB7CF8091880590918905D0
:1046600088169906E1F466167706C8F480910C0165
:1046700090910D01009741F48DB79EB740911001C4
:1046800050911101841B950BE817F907C8F4F093BA
:104690008905E0938805F901718360830FC0CB0120
:1046A0000E9480217C01009759F0A801BE010E9460
:1046B0006C23CE010E941822C70104C0CE0102C0A3
:1046C00080E090E0CDB7DEB7EEE00C94C01E81E054
:1046D00090E0F8940C943E26FB01DC0102C00190AE
:1046E0000D9241505040D8F70895FB01DC01019034
:1046F0000D920020E1F70895FB01DC01415050408C
:1047000048F001900D920020C9F701C01D92415060
:104710005040E0F70895AEE0B0E0E1E9F3E20C9438
:10472000AE1E0D891E8986E08C831A8309838FEF64
:104730009FE79E838D83AE01475E5F4F6F89788DC3
:10474000CE0101960E94AD23EF81F885E00FF11FA5
:1047500010822E96E4E00C94CA1EABE0B0E0E3EBCE
:10476000F3E20C94A01E6C017B018A01FC0117820C
:104770001682838181FFCCC1CE0101963C01F601F6
:104780009381F70193FD859193FF81917F018823A8
:1047900009F4BAC1853239F493FD859193FF819173
:1047A0007F01853229F4B60190E00E94A425E7CF6D
:1047B000912C212C312CFFE1F315D8F08B3279F0BC
:1047C00038F4803279F08332A1F4232D20611DC0AA
:1047D0008D3261F0803369F4232D216016C0832D62
:1047E0008260382EE32DE4603E2E2AC0F32DF8605F
:1047F0001DC037FC2DC020ED280F2A3040F08E322E
:10480000B9F436FC81C1232D2064322E19C036FE46
:1048100006C08AE0989E200D1124922E11C0EAE075
:104820002E9E200D1124222EF32DF0623F2E08C063
:104830008C3621F4832D8068382E02C0883641F4EE
:10484000F70193FD859193FF81917F018111B3CF92
:10485000982F9F7D9554933028F40C5F1F4F9FE352
:1048600099830DC0833631F0833771F0833509F0B9
:1048700059C021C0F801808189830E5F1F4F8824B1
:104880008394912C530113C02801F2E04F0E511C68
:10489000F801A080B18036FE03C0692D70E002C02F
:1048A0006FEF7FEFC5010E9499254C018201F32D26
:1048B000FF773F2E16C0280122E0420E511CF8015E
:1048C000A080B18036FE03C0692D70E002C06FEF9A
:1048D0007FEFC5010E948E254C01F32DF0683F2E1D
:1048E000820133FC1BC0822D90E088169906B0F43B
:1048F000B60180E290E00E94A4252A94F4CFF5014D
:1049000037FC859137FE81915F01B60190E00E94EE
:10491000A42521102A9421E0821A9108811491047F
:1049200071F7E8C0843611F0893641F5F80137FE99
:1049300007C060817181828193810C5F1F4F08C025
:1049400060817181072E000C880B990B0E5F1F4F41
:10495000F32DFF763F2E97FF09C0909580957095B7
:1049600061957F4F8F4F9F4FF0683F2E2AE030E0D8
:10497000A3010E94E025882E861845C0853731F4B2
:10498000232D2F7EB22E2AE030E025C0932D997F73
:10499000B92E8F36C1F018F4883579F0B5C080375C
:1049A00019F0883721F0B0C0E92FE061BE2EB4FEC7
:1049B0000DC0FB2DF460BF2E09C034FE0AC0292FA4
:1049C0002660B22E06C028E030E005C020E130E0CD
:1049D00002C020E132E0F801B7FE07C060817181BA
:1049E000828193810C5F1F4F06C06081718180E0DE
:1049F00090E00E5F1F4FA3010E94E025882E8618CD
:104A0000FB2DFF773F2E36FE0DC0232D2E7FA22ECD
:104A1000891458F434FE0BC032FC09C0832D8E7EFD
:104A2000A82E05C0B82CA32C03C0B82C01C0B92CEB
:104A3000A4FE0FC0FE01E80DF11D8081803321F43A
:104A40009A2D997EA92E09C0A2FE06C0B394B394F4
:104A500004C08A2D867809F0B394A3FC11C0A0FE8F
:104A600006C0B21488F4280C922C9B180EC0B21405
:104A700060F4B60180E290E00E94A425B394F7CFE1
:104A8000B21418F42B1802C0982C212CA4FE10C0CC
:104A9000B60180E390E00E94A425A2FE17C0A1FC0D
:104AA00003C088E790E002C088E590E0B6010CC042
:104AB0008A2D867859F0A1FE02C08BE201C080E207
:104AC000A7FC8DE2B60190E00E94A425891438F479
:104AD000B60180E390E00E94A4259A94F7CF8A94CF
:104AE000F301E80DF11D8081B60190E00E94A4253C
:104AF0008110F5CF222009F442CEB60180E290E089
:104B00000E94A4252A94F6CFF6018681978102C0DF
:104B10008FEF9FEF2B96E2E10C94BC1EFC010590F9
:104B2000615070400110D8F7809590958E0F9F1FAF
:104B30000895FC016150704001900110D8F78095F4
:104B400090958E0F9F1F08950F931F93CF93DF9320
:104B5000FB01238121FD03C08FEF9FEF2CC022FFBB
:104B600016C046815781248135814217530744F48A
:104B7000A081B1819D012F5F3F4F318320838C93B2
:104B8000268137812F5F3F4F3783268314C08B01E7
:104B9000EC01FB010084F185E02D0995892BE1F6FC
:104BA000D80116968D919C911797019617969C9314
:104BB0008E931697CE01DF91CF911F910F9108959B
:104BC000FA01AA27283051F1203181F1E8946F933E
:104BD0006E7F6E5F7F4F8F4F9F4FAF4FB1E03ED0E4
:104BE000B4E03CD0670F781F891F9A1FA11D680F82
:104BF000791F8A1F911DA11D6A0F711D811D911DB5
:104C0000A11D20D009F468943F912AE0269F112429
:104C10003019305D3193DEF6CF010895462F47708D
:104C2000405D4193B3E00FD0C9F7F6CF462F4F70E8
:104C3000405D4A3318F0495D31FD4052419302D046
:104C4000A9F7EACFB4E0A6959795879577956795EC
:104C5000BA95C9F700976105710508959B01AC01EC
:104C60000A2E06945795479537952795BA95C9F713
:104C7000620F731F841F951FA01D089511E0C3E7E5
:104C8000D1E004C0FE010E9414212196C437D1074F
:064C9000C9F7F894FFCF04
:104C9600FFFFFFFF00E100000000000000008C05A0
:104CA600800000C18081000000256C7500000000B6
:104CB6000000C70235025F02130390026E028202F1
:104CC600000000003F036B05F1055503600319065C
:104CD600F505000000000704DA033605AE03D2032B
:104CE600BE03AF0300000000AA0435023605AE037A
:104CF600FA041205360450040D0A005265616479FF
:104D06000051554555453A2063616E277420706FF2
:104D160070206974656D2066726F6D20717565759A
:104D2600653A20717565756520697320656D7074C7
:104D3600792E00563A00433A00483A00543A005158
:104D4600554555453A206572726F72206475652027
:104D5600746F20756E646573697261626C65207329
:104D6600697A6520666F722071756575652073694D
:104D76007A652E0051554555453A20696E7375661C
:104D860066696369656E74206D656D6F72792074EE
:104D96006F20696E697469616C697A652074656DE6
:104DA600706F726172792071756575652E00427239
:104DB600696467652064697361626C656400427248
:104DC6006964676520656E61626C656400533A00CC
:104DD6005341495000503A00313233343536373872
:084DE60055545350004C3A00F3
:1070000055C000006EC000006CC000006AC00000E7
:1070100068C0000066C0000064C0000062C00000DC
:1070200060C000005EC00000FCC400005AC0000048
:1070300058C0000056C0000054C0000052C00000FC
:1070400050C000005DC000004CC000004AC00000FD
:1070500048C0000046C0000044C0000042C000001C
:1070600040C000003EC000003CC000003AC000002C
:1070700038C0000036C0000034C0000032C000003C
:1070800030C000002EC000002CC000002AC000004C
:1070900028C0000026C0000024C0000022C000005C
:1070A00020C000001EC000001CC0000011241FBE34
:1070B000CFEFDAE0DEBFCDBF11E0A0E0B1E0E6E463
:1070C000FFE702C005900D92A63AB107D9F711E08B
:1070D000A6EAB1E001C01D92AF3BB107E1F74FD383
:1070E00030C78ECFF89410926F001092810081E02B
:1070F00085BF15BE47985D9A289A0C9400000895A4
:107100001F920F920FB60F9211242F938F939F937C
:10711000EF93FF9310928500109284008091A60156
:107120009091A701009741F001979093A701809358
:10713000A601892B09F45D9A8091A8019091A9017B
:10714000009741F001979093A9018093A801892BA2
:1071500009F4289A8091AC019091AD010196909329
:10716000AD018093AC01E0E0F0E0859194918F5FF8
:107170009F4F49F08091AA019091AB0101969093A5
:10718000AB018093AA01FF91EF919F918F912F9175
:107190000F900FBE0F901F90189584E08093E90028
:1071A0000DC08091E8008B778093E80003C08EB318
:1071B000882351F08091E80082FFF9CF8091E800A8
:1071C00085FFEFCF8091F1000895982F83E08093A1
:1071D000E9008091E80085FD0DC08091E8008E7780
:1071E0008093E80003C08EB3882369F08091E800A3
:1071F00080FFF9CF9093F1005D9884E690E0909342
:10720000A7018093A60108954F925F926F927F929B
:107210008F929F92AF92BF92CF92DF92EF92FF92A6
:107220000F931F93CF93DF9384E08093E9008091C5
:10723000E80082FF57C2289884E690E09093A90165
:107240008093A801AADF182F853481F48CE49DE196
:107250009093AB018093AA0107B600FCFDCFF9998A
:10726000FECF81E180935700E89503C0843519F47F
:1072700094DF8DE00DC28C34E1F38035D1F3843797
:1072800021F484E4A2DF80E003C2813611F489E5B1
:10729000FFC18134B1F481DF182F7FDF90E0880FC8
:1072A000991FAA2797FDA095BA2F312F330F20E001
:1072B000442737FD4095542F822B932BA42BB52BBD
:1072C000B8C1803711F483E5E3C1833549F4C0E0E8
:1072D000D1E089917ADF21E0C730D207D1F7D9C157
:1072E000863521F481E371DF80E3D2C1833731F445
:1072F00087E86BDF85E969DF8EE1CAC18536B9F4BD
:10730000E0E0F0E093E085E090935700E89507B661
:1073100000FCFDCF80935700E89507B600FCFDCF39
:10732000E058FF4FA0E7E030FA0771F7A2CF8237AD
:1073300039F4E1E0F0E089E0809357008491A8C13E
:10734000863439F4E0E0F0E089E0809357008491DE
:107350009FC18E3439F4E3E0F0E089E08093570078
:10736000849196C1813539F4E2E0F0E089E08093C0
:10737000570084918DC1823631F489E526DF80E0A3
:1073800024DF80E885C1823419F0873609F0E5C032
:107390001092AB011092AA0100DF082FFEDEF82E3A
:1073A000FCDE682E8554823008F071C1902F80E099
:1073B000CF2DD0E0C82BD92B10926F00173609F0D3
:1073C0004BC081E180935700E895DD24CC24C39421
:1073D0003FC0E090AF01F090B0010091B101109179
:1073E000B201B6E46B16D9F4ED2DF0E0EE29FF29D9
:1073F000E4918E2FEADEDD2081F082E090E0A0E0D3
:10740000B0E0E80EF91E0A1F1B1FE092AF01F092D8
:10741000B0010093B1011093B201DC2418C0D8016F
:10742000C701B695A7959795879575D5CEDE82E06D
:1074300090E0A0E0B0E0E80EF91E0A1F1B1FE092EA
:10744000AF01F092B0010093B1011093B201219706
:10745000209709F0BECF7DC08090AF019090B00121
:10746000A090B101B090B20196E4691609F05DC038
:1074700083E0F40180935700E89507B600FCFDCF48
:1074800054C0F6E46F1661F5772031F1E090AF015A
:10749000F090B0010091B1011091B2017EDED82EC2
:1074A000CC24852D90E08C299D29F7010C01409278
:1074B0005700E895112482E090E0A0E0B0E0E80EEB
:1074C000F91E0A1F1B1FE092AF01F092B00100935A
:1074D000B1011093B20102C060DE582E742423C0A3
:1074E000E090AF01F090B0010091B1011091B201B4
:1074F00016950795F794E79450DE682FC70113D5CA
:107500008091AF019091B001A091B101B091B20111
:107510000296A11DB11D8093AF019093B001A0937D
:10752000B101B093B201219704C0552477244424BB
:107530004394209709F0A5CF96E4691641F485E0BD
:10754000F40180935700E89507B600FCFDCF8DE06D
:107550003CDE82E080936F009CC0833471F4009124
:10756000AF011091B00119DE90E021E0F8010C01AB
:1075700020935700E89511247CCE833619F5E090CE
:10758000AF01F090B0010091B1011091B20105DEA0
:10759000F701E16090E021E00C0120935700E895AD
:1075A000112482E090E0A0E0B0E0E80EF91E0A1F8E
:1075B0001B1FE092AF01F092B0010093B101109354
:1075C000B20157CE8D3661F4E091AF01F091B00178
:1075D00085E080935700E89507B600FCFDCF49CEC3
:1075E000823551F4E091AF01F091B0010591149111
:1075F000812FEBDD802F4CC0843421F5E090AF016A
:10760000F090B0010091B1011091B201169507956B
:10761000F794E794C2DD682FC70185D48091AF014C
:107620009091B001A091B101B091B2010296A11D5B
:10763000B11D8093AF019093B001A093B101B093BD
:10764000B20117CE843609F5E090AF01F090B00199
:107650000091B1011091B201D801C701B695A7956B
:107660009795879558D4B1DD82E090E0A0E0B0E036
:10767000E80EF91E0A1F1B1FE092AF01F092B00145
:107680000093B1011093B20104C08B3111F08FE36C
:107690009CDD83E08093E9009091E8008091E80010
:1076A0008E778093E80095FF04C010C08EB38823C6
:1076B000C9F08091E80080FFF9CF8091E8008E77D3
:1076C0008093E80003C08EB3882361F08091E800C6
:1076D00080FFF9CF84E08093E9008091E8008B7708
:1076E0008093E800DF91CF911F910F91FF90EF9071
:1076F000DF90CF90BF90AF909F908F907F906F90D2
:107700005F904F9008959091B701892F8F778132C4
:1077100049F58091B8018032A1F0813219F5913A92
:1077200009F58091E800877F8093E8008CE091E084
:1077300067E070E027D28091E8008B778093E800C3
:107740000895913279F48091E800877F8093E80072
:107750008CE091E067E070E079D28091E8008E776C
:107760008093E800089582E061EC42E0D1D083E0AC
:1077700061E842E1CDD084E060E842E1C9C01F93F6
:10778000209100081092000844B714BE88E10FB69B
:10779000F89480936000109260000FBE80E8E0E0F3
:1077A000F0E00FB6F89480936100E09361000FBEA3
:1077B00031E035BF92E095BF3F9A209A559A809369
:1077C00061001092610047985D9A289A1092890092
:1077D0008AEF8093880090936F0083E0809381000C
:1077E000859194918F5F9F4F11F03093AE01942F4C
:1077F00041FF19C0809109012817A9F08093000862
:10780000789480911301882339F08091AC01909194
:10781000AD018F5E9240C8F310920008F89481E0A9
:10782000809313010CC090FF04C08091AE018823A7
:1078300051F493FF09C080910901281729F0809124
:10784000AE01882309F04EDCD4D078941092AB01BD
:107850001092AA011EEF20C0D7DC4BD38091AA0161
:107860009091AB0181549F4110F0109213018091CF
:10787000B3019091B40101969093B4018093B30148
:10788000292F97FF03C0512F591B252F220F28178F
:1078900010F4479801C0479A809113018823E1F6BC
:1078A0008091E00081608093E0001CDC80E090E04B
:1078B0001F910895FA01923049F0933061F09130B0
:1078C000F9F484E191E022E130E01EC086E291E02B
:1078D0002EE330E019C0882329F484E691E024E007
:1078E00030E012C0813029F488E691E022E230E0F5
:1078F0000BC0823029F48CE891E028E130E004C02C
:1079000080E090E020E030E091838083C901089519
:107910008093E9008091EB0081608093EB001092EE
:10792000ED006093EC004093ED008091EE00881F25
:107930008827881F08958091B70188238CF403C09D
:107940008EB38823B1F08091E80082FFF9CF809157
:10795000E8008B778093E80008958EB3882349F080
:107960008091E80080FFF9CF8091E8008E778093C6
:10797000E8000895EF92FF920F931F9345D04CD0EB
:1079800008ED10E0F80180818F7780838081806826
:10799000808380818F7D808319BC1EBA1092B501CF
:1079A00080EEE82EF12CF70180818B7F8083F80137
:1079B00080818160808380E060E042E0A9DFE1EEC9
:1079C000F0E080818E7F8083E2EEF0E08081816054
:1079D0008083808188608083F70180818E7F8083AF
:1079E000F8018081806180831F910F91FF90EF905B
:1079F0000895E7EDF0E08081816080838AE482BFB2
:107A000081E08093B601B6CFE8EDF0E080818E7F13
:107A100080831092E20008951092DA001092E10043
:107A200008951F920F920FB60F9211242F933F9338
:107A30004F935F936F937F938F939F93AF93BF9376
:107A4000EF93FF938091DA0080FF1BC08091D800F4
:107A500080FF17C08091DA008E7F8093DA008091DA
:107A6000D90080FF0BC080E189BD82E189BD09B4E6
:107A700000FEFDCF81E08EBB3BD203C019BC1EBA15
:107A800037D28091E10080FF17C08091E20080FF33
:107A900013C08091E2008E7F8093E2008091E2002B
:107AA00080618093E2008091D80080628093D8004A
:107AB00019BC85E08EBB1CD28091E10084FF2CC0F4
:107AC0008091E20084FF28C080E189BD82E189BD08
:107AD00009B400FEFDCF8091D8008F7D8093D8003F
:107AE0008091E1008F7E8093E1008091E2008F7EA3
:107AF0008093E2008091E20081608093E2008091B7
:107B0000B501882331F48091E30087FD02C081E054
:107B100001C084E08EBBECD18091E10083FF21C0E5
:107B20008091E20083FF1DC08091E100877F8093F8
:107B3000E10082E08EBB1092B5018091E1008E7F62
:107B40008093E1008091E2008E7F8093E20080913B
:107B5000E20080618093E20080E060E042E0D8DEF5
:107B6000C7D1FF91EF91BF91AF919F918F917F917D
:107B70006F915F914F913F912F910F900FBE0F909A
:107B80001F9018959C014091BD015091BE01461770
:107B9000570718F4F90190E044C06115710511F020
:107BA000AB01F8CF8091E8008E778093E80040E049
:107BB00050E0F0CF8EB3882309F444C0853009F437
:107BC00043C08091E80083FF02C081E00895809166
:107BD000E80082FD31C08091E80080FF22C08091E2
:107BE000F3009091F200782F60E0292F30E0262BEF
:107BF000372B07C081918093F100415050402F5F97
:107C00003F4F4115510519F02830310598F390E0A8
:107C10002830310509F491E08091E8008E77809357
:107C2000E8004115510531F6992321F605C08EB3C0
:107C3000882341F0853041F08091E80082FFF7CF42
:107C400080E0089582E0089583E008959C01611525
:107C5000710529F48091E8008B778093E800F901A1
:107C600026C08EB3882391F1853091F18091E80090
:107C700083FF02C081E008958091E80082FFF1CF88
:107C800006C08091F10081936150704059F02091BD
:107C9000F3008091F200322F20E090E0822B932BB2
:107CA000892B79F78091E8008B778093E800611544
:107CB0007105B9F605C08EB3882341F0853041F0D7
:107CC0008091E80080FFF7CF80E0089582E008957A
:107CD00083E008950F931F93DF93CF9300D0CDB728
:107CE000DEB7E7EBF1E08091F100819381E0EF3BBB
