:100000000C9463000C948B000C948B000C940609E8
:100010000C9406090C9406090C948B000C948B002C
:100020000C948B000C948B000C948B000C948B0024
:100030000C948B000C948B000C948B000C948B0014
:100040000C94A1070C948B000C946F070C94490737
:100050000C948B000C948B000C948B000C948B00F4
:100060000C94EB070C948B00000000002400270088
:100070002A0000000008000201000003040700003D
:1000800000000000000000000000230026002900FE
:1000900000000000250028002B00040404040404D0
:1000A0000404020202020202030303030303010227
:1000B00004081020408001020408102001020408F6
:1000C0001020A209920E11241FBECFEFD8E0DEBF90
:1000D000CDBF24E0A6EFB1E001C01D92A334B2076A
:1000E000E1F711E0A0E0B1E0E4EDF2E202C005903A
:1000F0000D92A63FB107D9F710E0C2E6D0E004C0E8
:100100002197FE010E94560FC136D107C9F70E9400
:10011000D00A0C945D110C940000AF92BF92CF9264
:10012000DF92EF92FF920F931F93CF93DF936C01B7
:100130007B018B01040F151FEB015E01AE18BF0898
:10014000C017D10759F06991D601ED91FC9101904A
:10015000F081E02DC6010995892B79F7C501DF9162
:10016000CF911F910F91FF90EF90DF90CF90BF90B4
:10017000AF900895FC01538D448D252F30E0842FDE
:1001800090E0821B930B541710F0CF9608950197BF
:100190000895FC01918D828D981761F0A28DAE0FAC
:1001A000BF2FB11D5D968C91928D9F5F9F73928F33
:1001B00090E008958FEF9FEF0895FC01918D828D5F
:1001C000981731F0828DE80FF11D858D90E008952C
:1001D0008FEF9FEF0895FC01918D228D892F90E084
:1001E000805C9F4F821B91098F739927089580E946
:1001F00093E00E94EB0021E0892B09F420E0822F9C
:10020000089580E090E0892B29F00E94F700811189
:100210000C9400000895FC01A48DA80FB92FB11D06
:10022000A35ABF4F2C91848D90E001968F7399272C
:10023000848FA689B7892C93A089B1898C9183700A
:1002400080648C93938D848D981306C00288F38903
:10025000E02D80818F7D80830895EF92FF920F9330
:100260001F93CF93DF93EC0181E0888F9B8D8C8D62
:1002700098131AC0E889F989808185FF15C09FB756
:10028000F894EE89FF896083E889F9898081837019
:10029000806480839FBF81E090E0DF91CF911F91C8
:1002A0000F91FF90EF900895F62E0B8D10E00F5FE9
:1002B0001F4F0F731127E02E8C8D8E110CC00FB6BF
:1002C00007FCFACFE889F989808185FFF5CFCE0157
:1002D0000E940B01F1CFEB8DEC0FFD2FF11DE35AC6
:1002E000FF4FF0829FB7F8940B8FEA89FB898081DA
:1002F0008062CFCFCF93DF93EC01888D8823B9F054
:10030000AA89BB89E889F9898C9185FD03C0808120
:1003100086FD0DC00FB607FCF7CF8C9185FFF2CF9D
:10032000808185FFEDCFCE010E940B01E9CFDF91E7
:10033000CF910895833081F028F4813099F0823094
:10034000A9F008958730A9F08830C9F08430B1F45D
:10035000809180008F7D03C0809180008F77809393
:100360008000089584B58F7784BD089584B58F7D0E
:10037000FBCF8091B0008F778093B000089580917B
:10038000B0008F7DF9CFCF93DF93282F30E0F901B4
:10039000EE58FF4F8491F901E255FF4FD491F901D6
:1003A000E656FF4FC491CC23A1F081110E949A011F
:1003B000EC2FF0E0EE0FFF1FEA57FF4FA591B4912D
:1003C000EC91ED2381E090E009F480E0DF91CF91A2
:1003D000089580E090E0FACF1F93CF93DF93282F0A
:1003E00030E0F901EE58FF4F8491F901E255FF4FDB
:1003F000D491F901E656FF4FC491CC23A9F0162FF2
:1004000081110E949A01EC2FF0E0EE0FFF1FE057E0
:10041000FF4FA591B4918FB7F894EC91111108C0DA
:10042000D095DE23DC938FBFDF91CF911F9108958C
:10043000DE2BF8CFCF93DF9390E0FC01E255FF4F26
:10044000249186569F4FFC0184918823C9F090E047
:10045000880F991FFC01E859FF4FA591B491FC0149
:10046000E057FF4FC591D49161110DC09FB7F8942B
:100470008C91209582238C938881282328839FBF89
:10048000DF91CF910895623051F49FB7F8943C9179
:10049000822F809583238C93E8812E2BEFCF8FB70B
:1004A000F894EC912E2B2C938FBFEACF3FB7F894A2
:1004B0008091E6029091E702A091E802B091E902F2
:1004C00026B5A89B05C02F3F19F00196A11DB11DAF
:1004D0003FBFBA2FA92F982F8827BC01CD01620FEB
:1004E000711D811D911D42E0660F771F881F991FA6
:1004F0004A95D1F708958F929F92AF92BF92CF9273
:10050000DF92EF92FF924B015C010E9456026B0159
:100510007C010E9456026C197D098E099F09683E74
:10052000734081059105A8F321E0821A9108A10882
:10053000B10888EEC80E83E0D81EE11CF11C8114BE
:100540009104A104B10429F7FF90EF90DF90CF90C0
:10055000BF90AF909F908F9008952FB7F8946091BF
:10056000E2027091E3028091E4029091E5022FBFD4
:10057000089585ED8093BC008091BC0084FDFCCF84
:100580001092BB02089520919702260F3327331F44
:1005900021323105ECF42091BB02FC0190E080E0B7
:1005A000243069F082E00895A09197022191AC0176
:1005B00049585D4FA40FB52FB11D2C930196861796
:1005C00098F380919702680F6093970280E00895F6
:1005D00081E0089508958FEF9FEF08958FEF9FEFCB
:1005E00008958091760290E0919581959109089502
:1005F000CF93DF93CB01EA01642F0E94C302CE01A7
:10060000DF91CF910895CF93DF931F92CDB7DEB7DF
:10061000698361E0CE0101960E94C30281E090E00F
:100620000F90DF91CF9108952091F0023091F10267
:100630002817390781F49091EE028091EF02981704
:1006400051F0E091EE02F0E0EE0FFF1FEA50FE4F96
:100650008081918108958FEF9FEF0895EF92FF922F
:100660000F931F93CF93DF93DC015C964D915C91C8
:100670005D974115510579F481E090E013969C93C4
:100680008E93129790E080E0DF91CF911F910F91B0
:10069000FF90EF9008955196ED91FC9152975096EE
:1006A0008C915097982F9095EFB65E962C915E970F
:1006B000322F3270F32E21FF02C060957095F894AE
:1006C0002081FF2001F1282B2083EA012197F1F7F7
:1006D00029E0308160FF19C0382B3083EA0121976F
:1006E000F1F7769567952150A1F7FF2081F0808181
:1006F00089238083EFBE5C968D919C910197F1F7E1
:1007000081E090E0C1CF2923DFCF3923E6CF90816C
:10071000892BEFCFEF92FF920F931F93CF93DF932D
:10072000DC015C96ED90FC905D97E114F10479F4A6
:1007300081E090E013969C938E93129790E080E076
:10074000DF91CF911F910F91FF90EF9008955196F7
:10075000ED91FC91529750968C915097982F9095CF
:100760000FB75E962C915E97122F127021FD609547
:10077000F8942081112319F1282B2083E701219778
:10078000F1F728E0462F50E0308160FF1AC0382B87
:100790003083E7012197F1F7BA01759567952150EC
:1007A00089F7112381F08081892380830FBF5C96B4
:1007B0008D919C910197F1F781E090E0C1CF2923C1
:1007C000DCCF3923E5CF9081892BEFCF2091F00248
:1007D0003091F1022817390771F48091EF022091CE
:1007E000EE0290E0805C9F4F821B910960E470E014
:1007F0000E940C0F089590E080E008952091F0028F
:100800003091F10228173907C9F49091EE028091D6
:10081000EF02981799F0E091EE02F0E0EE0FFF1F63
:10082000EA50FE4F808191812091EE0230E02F5FEF
:100830003F4F2F7333272093EE0208958FEF9FEFE2
:100840000895E091F002F091F102E817F90769F4D8
:10085000A389B4899C918589809589238C93109272
:10086000F1021092F00281E0089580E008958091F5
:100870000C0390910D03892B31F18091F00290913E
:10088000F10222E0823F9207F1F0009711F00E94FE
:100890002104809110038E7F809310031092EF0249
:1008A0001092EE0282EF92E09093F1028093F002B8
:1008B000E0910503F0910603808190910703892B55
:1008C000808381E0089580E0089590E080E00895BD
:1008D000FC01808191810C94F80FFB0101900020B4
:1008E000E9F73197AF01461B570BDC01ED91FC9105
:1008F0000280F381E02D0994CF93DF93C0913904F6
:10090000D0913A04FC014481558160817181E88174
:10091000F9810280F381E02DCE0109956CE271E04E
:10092000CE010E946D040E94AD026053784F8F4F3C
:100930009F4F60933B0470933C0480933D049093DD
:100940003E04DF91CF910895EC01009739F00E94A9
:100950006D046CE271E0CE010E946D040E94890971
:10096000AF92BF92CF92DF92EF92FF920F931F93BD
:10097000CF93DF938C016FE271E01816190664F5CE
:100980000E945C0FEC01009729F1A0901D03B0902C
:100990001E03E0901903F0901A0320911F03309179
:1009A0002003C0901B03D0901C03FC01281B390BB3
:1009B000CF018C1B9D0B8A159B05A4F4C9018E0FDA
:1009C0009F1FB6010E940C0FD701A80FB91F8C9171
:1009D0008193EECF64E671E0809117039091180344
:1009E0000E94A404C7010E94F80FD0931A03C09379
:1009F00019031092200310921F0380911D03909100
:100A00001E03909322038093210310931C030093F1
:100A10001B03DF91CF911F910F91FF90EF90DF901B
:100A2000CF90BF90AF900895CF93C82F80911D03B2
:100A300090911E0320911B0330911C038217930792
:100A400021F4880F991F0E94B004E0911903F091DE
:100A50001A0380912103909122039C012F5F3F4F45
:100A60003093220320932103E80FF91FC0832091C4
:100A700021033091220380911B0390911C032817BE
:100A8000390721F4109222031092210380911D0353
:100A900090911E03019690931E0380931D03CF91A6
:100AA00008950F931F93CF93DF93EC018881998171
:100AB000009759F02A813B812617370730F081E0F3
:100AC000DF91CF911F910F9108958B016F5F7F4F41
:100AD0000E948110009759F0998388831B830A83B1
:100AE0002C813D81232B59F7FC011082E8CF80E057
:100AF000E7CFEF92FF920F931F93CF93DF93EC0119
:100B0000FB01E080F180E114F10411F10481158111
:100B100001151105A9F08C819D81080F191FB801DD
:100B2000CE010E945105882399F0288139818C815A
:100B30009D81B701820F931F0E9447111D830C8373
:100B4000CE01DF91CF911F910F91FF90EF9008950B
:100B500088819981009711F00E94F80F19821882FC
:100B60001D821C821B821A82EBCFEF92FF920F93A1
:100B70001F93CF93DF93EC017B018A01BA010E949E
:100B8000510528813981811114C02115310519F0D1
:100B9000C9010E94F80F198218821D821C821B82D3
:100BA0001A82CE01DF91CF911F910F91FF90EF90AC
:100BB00008951D830C83B701C9010E944711F1CF2D
:100BC000FB01DC0111961C921E9213961C921E9240
:100BD000129715961C921E9214978617970749F044
:100BE000608171816115710521F0448155810C94FA
:100BF000B5050895CF93DF9300D000D000D0CDB7D6
:100C0000DEB7BC01CE0101960E94E005CE0101963F
:100C10000E947C04CE0101960E9468040E94AD02ED
:100C20006093EA027093EB028093EC029093ED02E2
:100C300026960FB6F894DEBF0FBECDBFDF91CF91E1
:100C40000895FC011182108213821282158214828F
:100C50006115710551F0FB0101900020E9F7319712
:100C6000AF01461B570B0C94B50508950F931F93C6
:100C7000CF93DF93CDB7DEB767970FB6F894DEBF9B
:100C80000FBECDBF85E0E3EAF1E0DE0153960190AF
:100C90000D928A95E1F720915A0330915B0390E021
:100CA00080E04EE2B901082E02C0759567950A945E
:100CB000E2F760FD07C0E3E1F0E0EC0FFD1FE80F95
:100CC000F91F408301968430910561F70091150367
:100CD00010911603BE016D5E7F4FCE0107960E94F4
:100CE00021066EE971E0CE010D960E942106BE013B
:100CF000695F7F4FCE010D960E947905BC01CE0140
:100D000001960E94E005CE010196F8010995CE01F9
:100D100001960E946804CE010D960E946804CE01DF
:100D200007960E94680467960FB6F894DEBF0FBE60
:100D3000CDBFDF91CF911F910F9108950F931F9316
:100D4000CF93DF93CDB7DEB76F970FB6F894DEBFC2
:100D50000FBECDBF8DE0EDEAF1E0DE01119601900E
:100D60000D928A95E1F720915C0330915D0390E04C
:100D700080E04EE2B901082E02C0759567950A948D
:100D8000E2F760FD07C0E1E0F0E0EC0FFD1FE80FC7
:100D9000F91F408301968C30910561F7009115038E
:100DA00010911603BE016F5F7F4FCE0144960E94E3
:100DB000210668EA71E0CE014A960E942106BE0132
:100DC0006C5E7F4FCE014A960E947905BC01CE0130
:100DD0000E960E94E005CE010E96F8010995CE010F
:100DE0000E960E946804CE014A960E946804CE01C5
:100DF00044960E9468046F960FB6F894DEBF0FBE4B
:100E0000CDBFDF91CF911F910F9108950F931F9345
:100E1000CF93DF93CDB7DEB762970FB6F894DEBFFE
:100E20000FBECDBF00911503109116036EE573E060
:100E3000CE0107960E9421066AEB71E0CE010D9665
:100E40000E942106BE01695F7F4FCE010D960E9470
:100E50007905BC01CE0101960E94E005CE01019604
:100E6000F8010995CE0101960E946804CE010D9605
:100E70000E946804CE0107960E94680462960FB62D
:100E8000F894DEBF0FBECDBFDF91CF911F910F91C0
:100E900008951F920F920FB60F9211242F933F9334
:100EA0004F935F936F937F938F939F93AF93BF9372
:100EB000EF93FF9380E993E00E940B01FF91EF9184
:100EC000BF91AF919F918F917F916F915F914F9162
:100ED0003F912F910F900FBE0F901F9018951F926A
:100EE0000F920FB60F9211242F938F939F93EF932E
:100EF000FF93E091A003F091A1038081E091A6030C
:100F0000F091A70382FD1BC090818091A9038F5FA0
:100F10008F732091AA03821741F0E091A903F0E0BA
:100F2000E057FC4F958F8093A903FF91EF919F911C
:100F30008F912F910F900FBE0F901F901895808169
:100F4000F4CF1F920F920FB60F9211242F933F935D
:100F50008F939F93AF93BF938091E2029091E302AE
:100F6000A091E402B091E5023091E10223E0230F69
:100F70002D3758F50196A11DB11D2093E1028093F4
:100F8000E2029093E302A093E402B093E502809121
:100F9000E6029091E702A091E802B091E902019681
:100FA000A11DB11D8093E6029093E702A093E80291
:100FB000B093E902BF91AF919F918F913F912F9193
:100FC0000F900FBE0F901F90189526E8230F0296E2
:100FD000A11DB11DD2CF1F920F920FB60F921124F7
:100FE0002F933F934F935F936F937F938F939F9331
:100FF000AF93BF93EF93FF938091B900887F8036C2
:1010000009F44AC0F0F5883209F4A5C018F580311A
:1010100009F499C0B8F4882309F4F5C0883009F4BC
:1010200092C0FF91EF91BF91AF919F918F917F916E
:101030006F915F914F913F912F910F900FBE0F9045
:101040001F901895883109F486C0803251F780933B
:10105000BA0214C0803409F49BC040F48033B9F361
:101060008833F9F68093BA0285ECAEC0803509F476
:1010700083C0883509F494C0883499F60E94B90277
:10108000D0CF883909F48AC038F5883729F050F470
:10109000883611F0803729F683E08093BB021092E6
:1010A000B90255C0883809F479C0803919F0803800
:1010B00009F0B7CF8091B902803208F06FC0E0919B
:1010C000B90281E08E0F8093B9028091BB00F0E0FD
:1010D000E756FD4F80833BC0803B39F0D0F4803A27
:1010E00009F477C0883A09F09CCF84E08093BB0272
:1010F0001092980210929702F0E0E0E0099580913A
:10110000970281110FC081E08093970210927702BD
:1011100009C0803C09F4A8CF883C09F4A5CF883BDE
:1011200009F07FCFE091980281E08E0F80939802C2
:10113000F0E0E958FD4F80818093BB0090919802C8
:101140008091970229C08091E0028093BB0085ECDA
:101150008093BC0066CF9091DF028091DE029817E9
:1011600058F5E091DF0281E08E0F8093DF02F0E01E
:10117000E254FD4F8081E9CFE091DF0281E08E0FE4
:101180008093DF028091BB00F0E0E254FD4F80834A
:101190009091DF028091DE029817C8F285E8D8CFDF
:1011A000E091DF0281E08E0F8093DF028091BB002F
:1011B000F0E0E254FD4F80838091BD0281115ECF4B
:1011C00081E08093BC0284EA8093BC001092BB0251
:1011D00028CF85EC8093BC001092BB028091B902AD
:1011E000803230F4E091B902F0E0E756FD4F108212
:1011F0006091B90270E089E992E0F0E0E0E00995E1
:101200001092B9020ECF1092BA0238CF1F920F92ED
:101210000FB60F9211242F933F934F935F936F93C9
:101220008F939F93AF93BF93CF93DF93EF93FF93EE
:10123000E091F002F091F102309749F0A685B78570
:101240009585868D81FF15C08C918923A9F4FF9126
:10125000EF91DF91CF91BF91AF919F918F916F915E
:101260005F914F913F912F910F900FBE0F901F9064
:1012700018958C91892359F7A389B4899C91858904
:10128000809589238C93868997890197F1F7408D02
:10129000518DC685D785658529E090E080E0DA012B
:1012A0001197F1F7969587953881362309F0906864
:1012B0002150A9F79C01220F232F221F330B3195B8
:1012C000868D81FF02C0209530958091EF0290E0DD
:1012D00001968F7399274091EE024817B1F0A091C3
:1012E000EF02B0E0AA0FBB1FAA50BE4F2D933C9354
:1012F0008093EF02828D938D0197F1F7A389B489D2
:101300008C919589892B8C93A2CF868D8160868F55
:10131000F1CF61E08DE00E941A0261E08DE00E9451
:10132000EC016AEF70E080E090E00E947B0260E0F8
:101330008DE00E94EC016AEF70E080E090E00E9496
:101340007B02EBCFCF92DF92EF92FF92109293034A
:101350001092920398EEC92E93E0D92EE12CF12C35
:10136000C0929403D0929503E0929603F092970373
:101370008AE091E0909391038093900385EC90E054
:1013800090939D0380939C0384EC90E090939F0343
:1013900080939E0380EC90E09093A1038093A00340
:1013A00081EC90E09093A3038093A20382EC90E001
:1013B0009093A5038093A40386EC90E09093A703F9
:1013C0008093A6031092A9031092AA031092AB0374
:1013D0001092AC030E94AD026053784F8F4F9F4F25
:1013E00060933B0470933C0480933D0490933E04CF
:1013F0001092340410923304109235041092360483
:10140000109237041092380480E993E090933A04E4
:101410008093390480E092ECA1E0B0E080932D0449
:1014200090932E04A0932F04B09330048DE090E0AD
:1014300090933204809331041092F5021092F402DA
:10144000C092F602D092F702E092F802F092F9020E
:101450008CE191E09093F3028093F20210920903E1
:101460001092080310920B0310920A0310920D03BE
:1014700010920C0310920F0310920E036091100350
:101480006E7F6D7F609310036695617081E06827C1
:101490008BE00E94EC0161E08BE00E941A02E9EB14
:1014A000F0E0E491E0930203E5EAF0E0E491F0E09B
:1014B000EE0FFF1FE057FF4F859194919093040327
:1014C0008093030360E08AE00E941A028091100377
:1014D00081FD04C061E08AE00E94EC018AE0809313
:1014E000FE02E8EBF0E0E491E093FF02E4EAF0E0D2
:1014F000E491F0E0EE0FFF1FEA57FF4F85919491C2
:10150000909301038093000310921C0310921B031D
:1015100010921E0310921D031092200310921F03BD
:1015200010922203109221031092180310921703B5
:1015300082E090E00E945C0F90931A03809319035D
:10154000892B11F40E94890982E090E090931C039A
:1015500080931B0383E08093110382E08093120346
:1015600084E08093130385E0809314038AEF95E071
:10157000909316038093150362E083E00E941A02A1
:1015800062E082E00E941A0262E084E00E941A0295
:1015900062E085E0FF90EF90DF90CF900C941A020C
:1015A000CF93DF93CDB7DEB7C056D1090FB6F8940D
:1015B000DEBF0FBECDBF789484B5826084BD84B594
:1015C000816084BD85B5826085BD85B5816085BD3E
:1015D00080916E00816080936E00109281008091F6
:1015E000810082608093810080918100816080937E
:1015F0008100809180008160809380008091B100A3
:1016000084608093B1008091B00081608093B000CD
:1016100080917A00846080937A0080917A00826061
:1016200080937A0080917A00816080937A00809123
:101630007A00806880937A001092C10062E087E0AF
:101640000E941A0261E0809131040E941A0261E056
:10165000809131040E94EC0164EC79E080E090E03C
:101660000E947B020091390410913A04C0902D042D
:10167000D0902E04E0902F04F0903004D8015096C2
:10168000ED91FC9182E08083C114B1EEDB06E104B0
:10169000F104A1F060E079E08DE390E0A70196010C
:1016A0000E94200F21503109410951095695479553
:1016B000379527952115E0E13E07A8F0D80150960F
:1016C000ED91FC91108260E874E88EE190E0A70152
:1016D00096010E94200F2150310941095109569568
:1016E000479537952795D8011C96ED91FC911D974C
:1016F00030831E96ED91FC911F97208358961C9283
:1017000058975496ED91FC91559786E080835296B8
:10171000ED91FC9153978081806180835296ED9189
:10172000FC9153978081886080835296ED91FC9163
:1017300053978081806880835296ED91FC918081DF
:101740008F7D808360E0809131040E94EC011092D3
:101750000D0310920C0310920B0310920A031092C7
:1017600009031092080382E09DE090930F03809399
:101770000E039091FE02963108F047C02FE636E046
:10178000309309032093080320E03DE030930B03DE
:1017900020930A0327EB39E030930D0320930C03C9
:1017A0002091680084E0983048F031E09E3008F4E1
:1017B00030E081E001C0880F3A95EAF7822B8093F0
:1017C00068002DE630E0983050F02BE630E09E3097
:1017D00030F02CE630E0963110F030E020E030932D
:1017E000060320930503292F30E0983008F0A9C0A4
:1017F00081E001C0880F9A95EAF7809307038091F2
:101800000E0390910F030197F1F70E9437040E9495
:10181000AD02609323037093240380932503909378
:1018200026030E9436060E949E060E940607712C1F
:10183000612C2301E89440F8689460F8E8EE8E2E5D
:10184000E3E09E2EA12CB12C7E01B4E3EB0EF11C43
:101850003324339470E0C72E70E0D72E0E94AD027F
:1018600000913504109136042091370430913804EA
:101870000617170728073907F0F46C507E4F8F4F73
:101880009F4F609335047093360480933704909390
:10189000380461E08091330490913404892B09F07D
:1018A00060E0862F90E0909334048093330480911D
:1018B00031040E94EC0180911103882329F00E94D9
:1018C000C3018301892B09F08201809112038823CF
:1018D00009F444C00E94C301892B09F03FC0026093
:1018E000809113038823E1F10E94C301892BC1F584
:1018F0000460809114038823A9F10E94C301892BFD
:1019000089F5086080915A0390915B0308171907C5
:1019100031F010935B0300935A030E94360682EF66
:1019200092E00E94E603892B09F491C082EF92E0D5
:101930000E94FE0390FF18C0809327033092590342
:10194000EECF9E3040F42850310981E001C0880F6D
:101950002A95EAF752CF2E503109F7CF0D7FC0CF2D
:101960000B7FC7CF077FCECFE0915903E233B8F6A4
:10197000209127032C3441F1203589F6E33048F4D7
:1019800091E09E0F90935903F0E0EE50FD4F85AB30
:10199000C6CFE33021F6909128033091290320E54A
:1019A000290F230F28130AC0892F990F990B932B06
:1019B00090935D0380935C030E949E06809159037F
:1019C0008F5F80935903ABCF6E2F70E0E13059F0F9
:1019D00020912803022E000C330BA9014F5F5F4FAB
:1019E000461757073CF0EF5FE09359036E507D4F69
:1019F000FB01CDCF2E5F3F4F2617370709F08FCF62
:101A0000E2EFF2E090E0BF01625F7240621773079D
:101A100024F465A9960F3196F6CF8913CFCF2E50B7
:101A20003D4FD901D5961C9283E3E7E2F3E0DE0156
:101A3000119601900D928A95E1F7BE016D5F7F4F7F
:101A40008EE593E00E944E110E940607B7CF809169
:101A50001D0390911E03892B09F482C00E94AD02E0
:101A60000091230310912403209125033091260334
:101A7000061717072807390708F072C020911D03C1
:101A800030911E032115310541F46FEB71E0809117
:101A90001703909118030E94A404E0911903F09198
:101AA0001A0380911F0390912003AC014F5F5F4F99
:101AB0005093200340931F03E80FF91F008121502A
:101AC000310930931E0320931D0380911B039091D5
:101AD0001C034817590721F41092200310921F038A
:101AE0002115310591F0AC0197FF02C04D5F5F4FAA
:101AF00055954795559547954217530734F097FDEF
:101B00000196959587950E94B00482EF92E00E941D
:101B100021046BE471E082EF92E00E942E03002E1C
:101B2000000C110BB801772782EF92E00E942E0380
:101B3000B801655B7F4F772782EF92E00E942E030A
:101B40000E9437040E94AD026A567F4F8F4F9F4F0D
:101B500060932303709324038093250390932603BB
:101B60008091390490913A04DC01ED91FC9100845C
:101B7000F185E02D0995892BE9F080913904909148
:101B80003A04DC01ED91FC910284F385E02D099586
:101B9000873309F4B2C00CF086C0823309F4A5C0C3
:101BA0000CF077C0803309F49AC00CF09CC08132ED
:101BB00009F4AFC00E94AD0200913B0410913C04B7
:101BC00020913D0430913E04061717072807390776
:101BD00008F053C00091EA021091EB022091EC0250
:101BE0003091ED02601B710B820B930BA5019401E8
:101BF0000E94200FCA01B90167961FAE1EAE6797FB
:101C000069961FAE1EAE69976B961FAE1EAE6B97A0
:101C10002AE0A7010E94A30EF70101900020E9F736
:101C20003197AF014E195F09B701CE018B5A9F4F13
:101C30000E94B50561EF71E0CE01855A9F4F0E9469
:101C40002106BE016B5A7F4FCE01855A9F4F0E94DD
:101C50007905BC01C7010E94E005C7010E947C0410
:101C6000C7010E946804CE01855A9F4F0E946804F4
:101C7000CE018B5A9F4F0E946804C114D10409F40D
:101C8000EDCD0E94F700882309F4E2CD0E94000008
:101C9000DBCD843371F15CF1853369F1863309F072
:101CA00089CF86E31DC08F3671F154F4893349F131
:101CB00034F18F3381F1833609F07CCF8AE310C091
:101CC000833729F12CF4803709F074CF8DE308C0F5
:101CD0008637D9F0883709F06DCF8CE301C080E3F7
:101CE0000E94140567CF81E3FBCF82E3F9CF83E342
:101CF000F7CF84E3F5CF85E3F3CF87E3F1CF88E334
:101D0000EFCF89E3EDCF8BE3EBCF8EE3E9CF8FE32A
:101D1000E7CF8AEAE5CF0E9436060E949E060E941F
:101D2000060748CFCF93DF93C2EFD2E08FA198A5EB
:101D30000E94F80F8CE191E099838883CE01DF91B6
:101D4000CF910C942104BB27FA01A62F62177105CD
:101D500081059105330B30FB66F0AA27660F771FCC
:101D6000881F991FAA1FA21710F0A21B6395385055
:101D7000A9F7A05DAA3308F0A95DA19336F7B111C8
:101D8000B1931082CA010C94C50EDC01FC01672FCF
:101D900071917723E1F7329704C07C916D93708342
:101DA0006291AE17BF07C8F308952F923F924F92EA
:101DB0005F926F927F928F929F92AF92BF92CF92DB
:101DC000DF92EF92FF920F931F93CF93DF93CDB7E4
:101DD000DEB7CA1BDB0B0FB6F894DEBF0FBECDBF5C
:101DE00009942A88398848885F846E847D848C842D
:101DF0009B84AA84B984C884DF80EE80FD800C8136
:101E00001B81AA81B981CE0FD11D0FB6F894DEBF18
:101E10000FBECDBFED01089597FB072E16F4009479
:101E200007D077FD09D00E94420F07FC05D03EF491
:101E3000909581959F4F0895709561957F4F089576
:101E4000A1E21A2EAA1BBB1BFD010DC0AA1FBB1FBE
:101E5000EE1FFF1FA217B307E407F50720F0A21B30
:101E6000B30BE40BF50B661F771F881F991F1A949D
:101E700069F760957095809590959B01AC01BD01C7
:101E8000CF010895AA1BBB1B51E107C0AA1FBB1FAE
:101E9000A617B70710F0A61BB70B881F991F5A95F6
:101EA000A9F780959095BC01CD010895EE0FFF1F15
:101EB0000590F491E02D09940F931F93CF93DF9336
:101EC0008230910510F482E090E0E0914104F091BD
:101ED000420430E020E0B0E0A0E0309799F4211512
:101EE000310509F44AC0281B390B24303105D8F5D7
:101EF0008A819B816115710589F1FB01938382833E
:101F0000FE0111C040815181028113814817590798
:101F1000E0F04817590799F4109761F012960C9366
:101F2000129713961C933296CF01DF91CF911F9198
:101F30000F9108950093410410934204F4CF2115AA
:101F4000310551F04217530738F0A901DB019A011E
:101F5000BD01DF01F801C1CFEF01F9CF9093420439
:101F600080934104CDCFFE01E20FF31F8193919343
:101F70002250310939832883D7CF20913F043091F3
:101F80004004232B41F4209102013091030130934E
:101F9000400420933F04209100013091010121155C
:101FA000310541F42DB73EB7409104015091050130
:101FB000241B350BE0913F04F0914004E217F30736
:101FC000A0F42E1B3F0B2817390778F0AC014E5FA9
:101FD0005F4F2417350748F04E0F5F1F50934004A2
:101FE00040933F04819391939FCFF0E0E0E09CCF3A
:101FF000CF93DF930097E9F0FC01329713821282AE
:10200000A0914104B0914204ED0130E020E010972E
:10201000A1F420813181820F931F20913F043091E0
:1020200040042817390709F061C0F0934004E09399
:102030003F04DF91CF910895EA01CE17DF07E8F55D
:102040004A815B819E0141155105B1F7E901FB838E
:10205000EA8349915991C40FD51FEC17FD0761F42C
:10206000808191810296840F951FE901998388836D
:10207000828193819B838A83F0E0E0E012968D91C8
:102080009C9113970097B9F52D913C911197CD0133
:102090000296820F931F20913F043091400428172D
:1020A000390739F6309751F51092420410924104E5
:1020B000B0934004A0933F04BCCFD383C28340813C
:1020C0005181840F951FC817D90761F44E5F5F4F88
:1020D00088819981480F591F518340838A819B8150
:1020E000938382832115310509F0B0CFF093420428
:1020F000E09341049ECFFD01DC01C0CF1382128228
:10210000D7CFB0E0A0E0E7E8F0E10C94D70E8C0167
:10211000009751F4CB010E945C0F8C01C801CDB730
:10212000DEB7E0E10C94F30EFC01E60FF71F9C0113
:1021300022503109E217F30708F49DC0D901CD916F
:10214000DC911197C617D70798F0C530D10530F349
:10215000CE0104978617970708F3C61BD70B229763
:10216000C193D1936D937C93CF010E94F80FD6CF8A
:102170005B01AC1ABD0A4C018C0E9D1EA09141045E
:10218000B0914204512C412CF12CE12C109731F5E7
:1021900080913F04909140048815990509F05CC036
:1021A0004616570608F058C0809100019091010131
:1021B000009741F48DB79EB74091040150910501FD
:1021C000841B950BE817F90708F055C0F0934004FD
:1021D000E0933F04F90171836083A0CF8D919C91BE
:1021E000119712966C90129713967C901397A815DE
:1021F000B90559F56C0142E0C40ED11CCA14DB04C8
:1022000020F1AC014A195B09DA011296159780F0AA
:102210006282738251834083D9016D937C93E11470
:10222000F10471F0D7011396FC93EE93129776CFD9
:1022300022968C0F9D1FF90191838083F301EFCFCC
:10224000F0934204E093410469CF4816590608F41C
:102250002C017D01D3019ACFCB010E945C0F7C0140
:10226000009749F0AE01B8010E943E11C8010E94DA
:10227000F80F870153CF10E000E050CFFB01DC01E5
:1022800002C001900D9241505040D8F70895FB01D3
:10229000DC0101900D920020E1F70895FB01DC01C3
:1022A0004150504048F001900D920020C9F701C004
:1022B0001D9241505040E0F7089510E0C2E6D0E092
:1022C00004C0FE010E94560F2196C336D107C9F7FC
:0422D000F894FFCFB0
:1022D400000043048000000000002D018D00BA00BE
:1022E4007A01EB00C900DD00000000008A038D00C4
:1022F4006504EA02E603FE0314032E030D0A0051EB
:10230400554555453A206572726F72206475652093
:10231400746F20756E646573697261626C65207395
:10232400697A6520666F72207175657565207369B9
:102334007A652E0051554555453A20696E73756688
:1023440066696369656E74206D656D6F727920745A
:102354006F20696E697469616C697A652074656D52
:10236400706F726172792071756575652E005349BD
:10237400473A0053414950004C45443A0031323306
:10238400343536373855545350004C43443A005191
:10239400554555453A2063616E277420706F70204F
:1023A4006974656D2066726F6D2071756575653A27
:1023B40020717565756520697320656D7074792E5B
:0623C400004842543A00FB
:107E0000112484B714BE81FFF0D085E080938100F7
:107E100082E08093C00088E18093C10086E0809377
:107E2000C20080E18093C4008EE0C9D0259A86E02C
:107E300020E33CEF91E0309385002093840096BBD3
:107E4000B09BFECF1D9AA8958150A9F7CC24DD24C4
:107E500088248394B5E0AB2EA1E19A2EF3E0BF2EE7
:107E6000A2D0813461F49FD0082FAFD0023811F036
:107E7000013811F484E001C083E08DD089C08234E0
:107E800011F484E103C0853419F485E0A6D080C0E4
:107E9000853579F488D0E82EFF2485D0082F10E0AE
:107EA000102F00270E291F29000F111F8ED06801E7
:107EB0006FC0863521F484E090D080E0DECF843638
:107EC00009F040C070D06FD0082F6DD080E0C81688
:107ED00080E7D80618F4F601B7BEE895C0E0D1E017
:107EE00062D089930C17E1F7F0E0CF16F0E7DF06D8
:107EF00018F0F601B7BEE89568D007B600FCFDCFD4
:107F0000A601A0E0B1E02C9130E011968C91119780
:107F100090E0982F8827822B932B1296FA010C0160
:107F200087BEE89511244E5F5F4FF1E0A038BF0790
:107F300051F7F601A7BEE89507B600FCFDCF97BE46
:107F4000E89526C08437B1F42ED02DD0F82E2BD052
:107F50003CD0F601EF2C8F010F5F1F4F84911BD097
:107F6000EA94F801C1F70894C11CD11CFA94CF0C13
:107F7000D11C0EC0853739F428D08EE10CD085E9AC
:107F80000AD08FE07ACF813511F488E018D01DD067
:107F900080E101D065CF982F8091C00085FFFCCF94
:107FA0009093C60008958091C00087FFFCCF809118
:107FB000C00084FD01C0A8958091C6000895E0E648
:107FC000F0E098E1908380830895EDDF803219F02E
:107FD00088E0F5DFFFCF84E1DECF1F93182FE3DFCA
:107FE0001150E9F7F2DF1F91089580E0E8DFEE27F6
:047FF000FF270994CA
:027FFE00040479
:0400000300007E007B
:00000001FF
