:100000000C9463000C948B000C948B000C942309CB
:100010000C9423090C9423090C948B000C948B00F2
:100020000C948B000C948B000C948B000C948B0024
:100030000C948B000C948B000C948B000C948B0014
:100040000C94BE070C948B000C948C070C946607E0
:100050000C948B000C948B000C948B000C948B00F4
:100060000C9408080C948B0000000000240027006A
:100070002A0000000008000201000003040700003D
:1000800000000000000000000000230026002900FE
:1000900000000000250028002B00040404040404D0
:1000A0000404020202020202030303030303010227
:1000B00004081020408001020408102001020408F6
:1000C0001020BF093A0E11241FBECFEFD8E0DEBFCB
:1000D000CDBF24E0A4EFB1E001C01D92AE33B20762
:1000E000E1F711E0A0E0B1E0E0ECF1E202C0059040
:1000F0000D92A43FB107D9F710E0C2E6D0E004C0EA
:100100002197FE010E94CC0EC136D107C9F70E948B
:10011000D50A0C94D3100C940000AF92BF92CF92EA
:10012000DF92EF92FF920F931F93CF93DF936C01B7
:100130007B018B01040F151FEB015E01AE18BF0898
:10014000C017D10759F06991D601ED91FC9101904A
:10015000F081E02DC6010995892B79F7C501DF9162
:10016000CF911F910F91FF90EF90DF90CF90BF90B4
:10017000AF900895FC01538D448D252F30E0842FDE
:1001800090E0821B930B541710F0CF9608950197BF
:100190000895FC01918D828D981761F0A28DAE0FAC
:1001A000BF2FB11D5D968C91928D9F5F9F73928F33
:1001B00090E008958FEF9FEF0895FC01918D828D5F
:1001C000981731F0828DE80FF11D858D90E008952C
:1001D0008FEF9FEF0895FC01918D228D892F90E084
:1001E000805C9F4F821B91098F73992708958FE838
:1001F00093E00E94EB0021E0892B09F420E0822F9C
:10020000089580E090E0892B29F00E94F700811189
:100210000C9400000895FC01A48DA80FB92FB11D06
:10022000A35ABF4F2C91848D90E001968F7399272C
:10023000848FA689B7892C93A089B1898C9183700A
:1002400080648C93938D848D981306C00288F38903
:10025000E02D80818F7D80830895EF92FF920F9330
:100260001F93CF93DF93EC0181E0888F9B8D8C8D62
:1002700098131AC0E889F989808185FF15C09FB756
:10028000F894EE89FF896083E889F9898081837019
:10029000806480839FBF81E090E0DF91CF911F91C8
:1002A0000F91FF90EF900895F62E0B8D10E00F5FE9
:1002B0001F4F0F731127E02E8C8D8E110CC00FB6BF
:1002C00007FCFACFE889F989808185FFF5CFCE0157
:1002D0000E940B01F1CFEB8DEC0FFD2FF11DE35AC6
:1002E000FF4FF0829FB7F8940B8FEA89FB898081DA
:1002F0008062CFCFCF93DF93EC01888D8823B9F054
:10030000AA89BB89E889F9898C9185FD03C0808120
:1003100086FD0DC00FB607FCF7CF8C9185FFF2CF9D
:10032000808185FFEDCFCE010E940B01E9CFDF91E7
:10033000CF910895833081F028F4813099F0823094
:10034000A9F008958730A9F08830C9F08430B1F45D
:10035000809180008F7D03C0809180008F77809393
:100360008000089584B58F7784BD089584B58F7D0E
:10037000FBCF8091B0008F778093B000089580917B
:10038000B0008F7DF9CFCF93DF93282F30E0F901B4
:10039000EE58FF4F8491F901E255FF4FD491F901D6
:1003A000E656FF4FC491CC23A1F081110E949A011F
:1003B000EC2FF0E0EE0FFF1FEA57FF4FA591B4912D
:1003C000EC91ED2381E090E009F480E0DF91CF91A2
:1003D000089580E090E0FACF1F93CF93DF93282F0A
:1003E00030E0F901EE58FF4F8491F901E255FF4FDB
:1003F000D491F901E656FF4FC491CC23A9F0162FF2
:1004000081110E949A01EC2FF0E0EE0FFF1FE057E0
:10041000FF4FA591B4918FB7F894EC91111108C0DA
:10042000D095DE23DC938FBFDF91CF911F9108958C
:10043000DE2BF8CFCF93DF9390E0FC01E255FF4F26
:10044000249186569F4FFC0184918823C9F090E047
:10045000880F991FFC01E859FF4FA591B491FC0149
:10046000E057FF4FC591D49161110DC09FB7F8942B
:100470008C91209582238C938881282328839FBF89
:10048000DF91CF910895623051F49FB7F8943C9179
:10049000822F809583238C93E8812E2BEFCF8FB70B
:1004A000F894EC912E2B2C938FBFEACF3FB7F894A2
:1004B0008091E4029091E502A091E602B091E702FA
:1004C00026B5A89B05C02F3F19F00196A11DB11DAF
:1004D0003FBFBA2FA92F982F8827BC01CD01620FEB
:1004E000711D811D911D42E0660F771F881F991FA6
:1004F0004A95D1F708958F929F92AF92BF92CF9273
:10050000DF92EF92FF924B015C010E9456026B0159
:100510007C010E9456026C197D098E099F09683E74
:10052000734081059105A8F321E0821A9108A10882
:10053000B10888EEC80E83E0D81EE11CF11C8114BE
:100540009104A104B10429F7FF90EF90DF90CF90C0
:10055000BF90AF909F908F9008952FB7F8946091BF
:10056000E0027091E1028091E2029091E3022FBFDC
:10057000089585ED8093BC008091BC0084FDFCCF84
:100580001092B902089520919502260F3327331F48
:1005900021323105ECF42091B902FC0190E080E0B9
:1005A000243069F082E00895A09195022191AC0178
:1005B0004B585D4FA40FB52FB11D2C930196861794
:1005C00098F380919502680F6093950280E00895FA
:1005D00081E0089508958FEF9FEF08958FEF9FEFCB
:1005E00008958091740290E0919581959109089504
:1005F000CF93DF93CB01EA01642F0E94C302CE01A7
:10060000DF91CF910895CF93DF931F92CDB7DEB7DF
:10061000698361E0CE0101960E94C30281E090E00F
:100620000F90DF91CF9108952091EF023091F00269
:100630002817390781F49091ED028091EE02981706
:1006400051F0E091ED02F0E0EE0FFF1FEC50FE4F95
:100650008081918108958FEF9FEF0895EF92FF922F
:100660000F931F93CF93DF93DC015C964D915C91C8
:100670005D974115510579F481E090E013969C93C4
:100680008E93129790E080E0DF91CF911F910F91B0
:10069000FF90EF9008955196ED91FC9152975096EE
:1006A0008C915097982F9095EFB65E962C915E970F
:1006B000322F3270F32E21FF02C060957095F894AE
:1006C0002081FF2001F1282B2083EA012197F1F7F7
:1006D00029E0308160FF19C0382B3083EA0121976F
:1006E000F1F7769567952150A1F7FF2081F0808181
:1006F00089238083EFBE5C968D919C910197F1F7E1
:1007000081E090E0C1CF2923DFCF3923E6CF90816C
:10071000892BEFCFEF92FF920F931F93CF93DF932D
:10072000DC015C96ED90FC905D97E114F10479F4A6
:1007300081E090E013969C938E93129790E080E076
:10074000DF91CF911F910F91FF90EF9008955196F7
:10075000ED91FC91529750968C915097982F9095CF
:100760000FB75E962C915E97122F127021FD609547
:10077000F8942081112319F1282B2083E701219778
:10078000F1F728E0462F50E0308160FF1AC0382B87
:100790003083E7012197F1F7BA01759567952150EC
:1007A00089F7112381F08081892380830FBF5C96B4
:1007B0008D919C910197F1F781E090E0C1CF2923C1
:1007C000DCCF3923E5CF9081892BEFCF2091EF0249
:1007D0003091F0022817390771F48091EE022091D0
:1007E000ED0290E0805C9F4F821B910960E470E015
:1007F0000E94820E089590E080E008952091EF021B
:100800003091F00228173907C9F49091ED028091D8
:10081000EE02981799F0E091ED02F0E0EE0FFF1F65
:10082000EC50FE4F808191812091ED0230E02F5FEE
:100830003F4F2F7333272093ED0208958FEF9FEFE3
:100840000895E091EF02F091F002E817F90769F4DA
:10085000A389B4899C918589809589238C93109272
:10086000F0021092EF0281E0089580E008958091F7
:100870000B0390910C03892B31F18091EF02909141
:10088000F00222E0813F9207F1F0009711F00E9400
:10089000210480910F038E7F80930F031092EE024C
:1008A0001092ED0281EF92E09093F0028093EF02BC
:1008B000E0910403F0910503808190910603892B58
:1008C000808381E0089580E0089590E080E00895BD
:1008D000CF93DF93EC0188819981009711F00E94FA
:1008E0006E0F198218821D821C821B821A82DF9170
:1008F000CF910895FC01808191810C946E0F0F932C
:100900001F93CF93DF93EC0188819981009759F071
:100910002A813B812617370730F081E0DF91CF91A4
:100920001F910F9108958B016F5F7F4F0E94F70F0A
:10093000009759F0998388831B830A832C813D811A
:10094000232B59F7FC011082E8CF80E0E7CFEF922C
:10095000FF920F931F93CF93DF93EC01FB01E08095
:10096000F180E114F10411F10481158101151105E3
:10097000A9F08C819D81080F191FB801CE010E943A
:100980007F04882399F0288139818C819D81B7016A
:10099000820F931F0E94BD101D830C83CE01DF9137
:1009A000CF911F910F91FF90EF900895CE010E947B
:1009B0006804F4CFEF92FF920F931F93CF93DF93CE
:1009C000EC018617970781F0FB0100811181011569
:1009D000110539F0E480F580B7010E947F04811190
:1009E0000BC0CE010E946804CE01DF91CF911F9110
:1009F0000F91FF90EF900895FD82EC82B8018881FD
:100A000099810E94BD10F0CFEF92FF920F931F9338
:100A1000CF93DF93EC01198218821B821A821D8208
:100A20001C826115710521F18B01FB0101900020F1
:100A3000E9F731977F01E61AF70AB7010E947F04B0
:100A4000811109C0CE01DF91CF911F910F91FF90CD
:100A5000EF900C946804FD82EC82B8018881998142
:100A6000DF91CF911F910F91FF90EF900C94BD10EB
:100A7000DF91CF911F910F91FF90EF9008950F9309
:100A80001F93CF93DF93CDB7DEB767970FB6F89478
:100A9000DEBF0FBECDBF85E0E1E3F1E0DE0153969E
:100AA00001900D928A95E1F72091590330915A03F4
:100AB00090E080E04EE2B901082E02C0759567957E
:100AC0000A94E2F760FD07C0E3E1F0E0EC0FFD1FE0
:100AD000E80FF91F408301968430910561F700917A
:100AE000140310911503BE016D5E7F4FCE01079672
:100AF0000E9404056CE271E0CE010D960E9404058F
:100B0000BE01695F7F4FCE010D960E94A7041A8235
:100B100019821C821B821E821D82BC01CE0101969D
:100B20000E94DA04CE010196F8010995CE010196E2
:100B30000E947A04CE010D960E947A04CE01079697
:100B40000E947A0467960FB6F894DEBF0FBECDBF41
:100B5000DF91CF911F910F9108950F931F93CF9322
:100B6000DF93CDB7DEB76F970FB6F894DEBF0FBE39
:100B7000CDBF8DE0EBE3F1E0DE01119601900D9227
:100B80008A95E1F720915B0330915C0390E080E06F
:100B90004EE2B901082E02C0759567950A94E2F7F6
:100BA00060FD07C0E1E0F0E0EC0FFD1FE80FF91F6A
:100BB000408301968C30910561F7009114031091E8
:100BC0001503BE016F5F7F4FCE0144960E9404055E
:100BD00066E371E0CE014A960E940405BE016C5E98
:100BE0007F4FCE014A960E94A7041F861E86198A4F
:100BF000188A1B8A1A8ABC01CE010E960E94DA045A
:100C0000CE010E96F8010995CE010E960E947A0447
:100C1000CE014A960E947A04CE0144960E947A043C
:100C20006F960FB6F894DEBF0FBECDBFDF91CF91A8
:100C30001F910F9108950F931F93CF93DF93CDB71B
:100C4000DEB762970FB6F894DEBF0FBECDBF00913E
:100C50001403109115036DE573E0CE0107960E9411
:100C6000040568E471E0CE010D960E940405BE0102
:100C7000695F7F4FCE010D960E94A7041A821982E8
:100C80001C821B821E821D82BC01CE0101960E9425
:100C9000DA04CE010196F8010995CE0101960E9471
:100CA0007A04CE010D960E947A04CE0107960E9426
:100CB0007A0462960FB6F894DEBF0FBECDBFDF9107
:100CC000CF911F910F910895FB0101900020E9F74A
:100CD0003197AF01461B570BDC01ED91FC9102806F
:100CE000F381E02D0994CF92DF92EF92FF920F9360
:100CF0001F93CF93DF938C010E94AD022091EC02F1
:100D0000222371F1C090E802D090E902E090EA025B
:100D1000F090EB026C197D098E099F096C3D7540BE
:100D200081059105E8F4C0913804D0913904F801A7
:100D30004481558160817181E881F9810280F3816C
:100D4000E02DCE0109956DE471E0CE01DF91CF91E8
:100D50001F910F91FF90EF90DF90CF900C9464065D
:100D6000DF91CF911F910F91FF90EF90DF90CF9087
:100D70000895EC01009739F00E9464066DE471E07B
:100D8000CE010E9464060E94A609AF92BF92CF9244
:100D9000DF92EF92FF920F931F93CF93DF938C011B
:100DA00060E571E01816190664F50E94D20EEC0198
:100DB000009729F1A0901C03B0901D03E090180348
:100DC000F090190320911E0330911F03C0901A0365
:100DD000D0901B03FC01281B390BCF018C1B9D0BF2
:100DE0008A159B05A4F4C9018E0F9F1FB6010E94AE
:100DF000820ED701A80FB91F8C918193EECF65E8C1
:100E000071E080911603909117030E94B906C70103
:100E10000E946E0FD0931903C093180310921F0302
:100E200010921E0380911C0390911D039093210347
:100E30008093200310931B0300931A03DF91CF913B
:100E40001F910F91FF90EF90DF90CF90BF90AF90E8
:100E50000895CF93C82F80911C0390911D0320917A
:100E60001A0330911B038217930721F4880F991FEF
:100E70000E94C506E0911803F091190380912003A8
:100E8000909121039C012F5F3F4F309321032093CA
:100E90002003E80FF91FC083209120033091210324
:100EA00080911A0390911B032817390721F410929F
:100EB00021031092200380911C0390911D03019641
:100EC00090931D0380931C03CF9108951F920F925E
:100ED0000FB60F9211242F933F934F935F936F930D
:100EE0007F938F939F93AF93BF93EF93FF938FE87D
:100EF00093E00E940B01FF91EF91BF91AF919F9101
:100F00008F917F916F915F914F913F912F910F90B2
:100F10000FBE0F901F9018951F920F920FB60F9251
:100F200011242F938F939F93EF93FF93E0919F034F
:100F3000F091A0038081E091A503F091A60382FDCA
:100F40001BC090818091A8038F5F8F732091A903AC
:100F5000821741F0E091A803F0E0E157FC4F958F34
:100F60008093A803FF91EF919F918F912F910F9004
:100F70000FBE0F901F9018958081F4CF1F920F9293
:100F80000FB60F9211242F933F938F939F93AF939C
:100F9000BF938091E0029091E102A091E202B091B2
:100FA000E3023091DF0223E0230F2D3758F501963D
:100FB000A11DB11D2093DF028093E0029093E10216
:100FC000A093E202B093E3028091E4029091E502E3
:100FD000A091E602B091E7020196A11DB11D809398
:100FE000E4029093E502A093E602B093E702BF917A
:100FF000AF919F918F913F912F910F900FBE0F90C6
:101000001F90189526E8230F0296A11DB11DD2CF7F
:101010001F920F920FB60F9211242F933F934F936D
:101020005F936F937F938F939F93AF93BF93EF9350
:10103000FF938091B900887F803609F44AC0F0F5AB
:10104000883209F4A5C018F5803109F499C0B8F4C4
:10105000882309F4F5C0883009F492C0FF91EF911C
:10106000BF91AF919F918F917F916F915F914F91C0
:101070003F912F910F900FBE0F901F9018958831C0
:1010800009F486C0803251F78093B80214C08034CE
:1010900009F49BC040F48033B9F38833F9F68093A8
:1010A000B80285ECAEC0803509F483C0883509F4F8
:1010B00094C0883499F60E94B902D0CF883909F4D7
:1010C0008AC038F5883729F050F4883611F0803717
:1010D00029F683E08093B9021092B70255C0883890
:1010E00009F479C0803919F0803809F0B7CF8091C0
:1010F000B702803208F06FC0E091B70281E08E0F36
:101100008093B7028091BB00F0E0E956FD4F8083E9
:101110003BC0803B39F0D0F4803A09F477C0883A7C
:1011200009F09CCF84E08093B9021092960210924D
:101130009502F0E0E0E009958091950281110FC0E1
:1011400081E0809395021092750209C0803C09F4F9
:10115000A8CF883C09F4A5CF883B09F07FCFE09168
:10116000960281E08E0F80939602F0E0EB58FD4FDF
:1011700080818093BB00909196028091950229C056
:101180008091DE028093BB0085EC8093BC0066CF2B
:101190009091DD028091DC02981758F5E091DD0214
:1011A00081E08E0F8093DD02F0E0E454FD4F8081FA
:1011B000E9CFE091DD0281E08E0F8093DD02809126
:1011C000BB00F0E0E454FD4F80839091DD028091FC
:1011D000DC029817C8F285E8D8CFE091DD0281E003
:1011E0008E0F8093DD028091BB00F0E0E454FD4F50
:1011F00080838091BB0281115ECF81E08093BA022F
:1012000084EA8093BC001092B90228CF85EC8093C9
:10121000BC001092B9028091B702803230F4E091A4
:10122000B702F0E0E956FD4F10826091B70270E01E
:1012300087E992E0F0E0E0E009951092B7020ECF66
:101240001092B80238CF1F920F920FB60F9211244E
:101250002F933F934F935F936F938F939F93AF938E
:10126000BF93CF93DF93EF93FF93E091EF02F09161
:10127000F002309749F0A685B7859585868D81FF68
:1012800015C08C918923A9F4FF91EF91DF91CF9143
:10129000BF91AF919F918F916F915F914F913F91CE
:1012A0002F910F900FBE0F901F9018958C9189234E
:1012B00059F7A389B4899C918589809589238C935A
:1012C000868997890197F1F7408D518DC685D7851D
:1012D000658529E090E080E0DA011197F1F79695B5
:1012E00087953881362309F090682150A9F79C0131
:1012F000220F232F221F330B3195868D81FF02C0D1
:10130000209530958091EE0290E001968F73992799
:101310004091ED024817B1F0A091EE02B0E0AA0FA3
:10132000BB1FAC50BE4F2D933C938093EE02828D39
:10133000938D0197F1F7A389B4898C919589892BB5
:101340008C93A2CF868D8160868FF1CF61E08DE096
:101350000E941A0261E08DE00E94EC016AEF70E0E9
:1013600080E090E00E947B0260E08DE00E94EC0152
:101370006AEF70E080E090E00E947B02EBCF109279
:1013800092031092910388EE93E0A0E0B0E0809386
:10139000930390939403A0939503B09396032AE04C
:1013A00031E03093900320938F0325EC30E03093AD
:1013B0009C0320939B0324EC30E030939E03209306
:1013C0009D0320EC30E03093A00320939F0321EC99
:1013D00030E03093A2032093A10322EC30E030935D
:1013E000A4032093A30326EC30E03093A6032093BC
:1013F000A5031092A8031092A9031092AA031092B9
:10140000AB03109233041092320410923404109201
:10141000350410923604109237042FE833E03093ED
:1014200039042093380440E052EC61E070E04093CE
:101430002C0450932D0460932E0470932F042DE000
:1014400030E030933104209330041092F402109273
:10145000F3028093F5029093F602A093F702B09303
:10146000F8028CE191E09093F2028093F1021092E5
:1014700008031092070310920A03109209031092B6
:101480000C0310920B0310920E0310920D03609147
:101490000F036E7F6D7F60930F036695617081E02F
:1014A00068278BE00E94EC0161E08BE00E941A0249
:1014B000E9EBF0E0E491E0930103E5EAF0E0E49188
:1014C000F0E0EE0FFF1FE057FF4F8591949190934E
:1014D00003038093020360E08AE00E941A02809175
:1014E0000F0381FD04C061E08AE00E94EC018AE004
:1014F0008093FD02E8EBF0E0E491E093FE02E4EA81
:10150000F0E0E491F0E0EE0FFF1FEA57FF4F859106
:101510009491909300038093FF0210921B0310920A
:101520001A0310921D0310921C0310921F031092B5
:101530001E031092210310922003109217031092A1
:10154000160382E090E00E94D20E909319038093DC
:101550001803892B11F40E94A60982E090E0909371
:101560001B0380931A0383E08093100382E080932F
:10157000110384E08093120385E08093130383E7D3
:1015800096E0909315038093140362E083E00E9439
:101590001A0262E082E00E941A0262E084E00E9485
:1015A0001A0262E085E00C941A02CF93DF93CDB764
:1015B000DEB7E3970FB6F894DEBF0FBECDBF7894C9
:1015C00084B5826084BD84B5816084BD85B5826048
:1015D00085BD85B5816085BD80916E0081608093F9
:1015E0006E00109281008091810082608093810062
:1015F0008091810081608093810080918000816072
:10160000809380008091B10084608093B1008091CC
:10161000B00081608093B00080917A0084608093F4
:101620007A0080917A00826080937A0080917A00BB
:10163000816080937A0080917A00806880937A003C
:101640001092C10062E087E00E941A0261E080917E
:1016500030040E941A0261E0809130040E94EC0183
:1016600064EC79E080E090E00E947B020091380415
:1016700010913904C0902C04D0902D04E0902E04D9
:10168000F0902F04D8015096ED91FC9182E0808378
:10169000C114B1EEDB06E104F104A1F060E079E0F1
:1016A0008DE390E0A70196010E94960E215031092A
:1016B0004109510956954795379527952115E0E140
:1016C0003E07A8F0D8015096ED91FC91108260E899
:1016D00074E88EE190E0A70196010E94960E2150D9
:1016E0003109410951095695479537952795D801F4
:1016F0001C96ED91FC911D9730831E96ED91FC9107
:101700001F97208358961C9258975496ED91FC9100
:10171000559786E080835296ED91FC915397808196
:10172000806180835296ED91FC915397808188600F
:1017300080835296ED91FC915397808180688083DD
:101740005296ED91FC9180818F7D808360E0809145
:1017500030040E94EC0110920C0310920B031092C3
:101760000A0310920903109208031092070382E003
:101770009DE090930E0380930D039091FD029631AE
:1017800008F047C02FE636E03093080320930703A4
:1017900020E03DE030930A032093090327EB39E072
:1017A00030930C0320930B032091680084E0983061
:1017B00048F031E09E3008F430E081E001C0880F4D
:1017C0003A95EAF7822B809368002DE630E0983056
:1017D00050F02BE630E09E3030F02CE630E09631D1
:1017E00010F030E020E03093050320930403292F0C
:1017F00030E0983008F09FC081E001C0880F9A95D2
:10180000EAF78093060380910D0390910E030197F0
:10181000F1F70E9437040E94AD0260932203709397
:10182000230380932403909325030E943F050E9485
:10183000AD050E941B06F12CE12C6701E894C0F86D
:101840006894E0F870E0A72E70E0B72E9924939486
:101850000E94AD02009134041091350420913604A9
:10186000309137040617170728073907F0F46C5032
:101870007E4F8F4F9F4F6093340470933504809355
:1018800036049093370461E08091320490913304E0
:10189000892B09F060E0862F90E0909333048093C9
:1018A0003204809130040E94EC018091100388235F
:1018B00029F00E94C3018701892B09F086018091DC
:1018C0001103882309F444C00E94C301892B09F045
:1018D0003FC00260809112038823E1F10E94C3019E
:1018E000892BC1F50460809113038823A9F10E941C
:1018F000C301892B89F508608091590390915A039F
:101900000817190731F010935A03009359030E94E6
:101910003F0581EF92E00E94E603892B09F491C014
:1019200081EF92E00E94FE0390FF18C0809326038F
:1019300090925803EECF9E3040F42850310981E058
:1019400001C0880F2A95EAF75CCF2E503109F7CFF6
:101950000D7FC0CF0B7FC7CF077FCECFE09158035D
:10196000E233B8F6209126032C3441F1203589F674
:10197000E33048F491E09E0F90935803F0E0EF506D
:10198000FD4F85ABC6CFE33021F690912703309110
:10199000280320E5290F230F28130AC0892F990F48
:1019A000990B932B90935C0380935B030E94AD058E
:1019B000809158038F5F80935803ABCF6E2F70E0F8
:1019C000E13059F020912703022E000C330BA901BE
:1019D0004F5F5F4F461757073CF0EF5FE0935803A8
:1019E0006F507D4FFB01CDCF2E5F3F4F261737073E
:1019F00009F08FCFE1EFF2E090E0BF01615F72404C
:101A00006217730724F465A9960F3196F6CF8913F0
:101A1000CFCF2F503D4FD901D5961C9283E3E6E2FC
:101A2000F3E0DE01119601900D928A95E1F7BE0177
:101A30006D5F7F4F8DE593E00E94C4100E941B06EE
:101A4000B7CF80911C0390911D03892B09F482C0AC
:101A50000E94AD02009122031091230320912403E0
:101A600030912503061717072807390708F072C0B9
:101A700020911C0330911D032115310541F46FEBBA
:101A800071E080911603909117030E94B906E091CE
:101A90001803F091190380911E0390911F03AC016C
:101AA0004F5F5F4F50931F0340931E03E80FF91FD2
:101AB00000812150310930931D0320931C03809134
:101AC0001A0390911B034817590721F410921F0322
:101AD00010921E032115310591F0AC0197FF02C051
:101AE0004D5F5F4F5595479555954795421753075D
:101AF00034F097FD0196959587950E94C50681EF74
:101B000092E00E9421046BE471E081EF92E00E9478
:101B10002E03002E000C110BB801772781EF92E005
:101B20000E942E03B801655B7F4F772781EF92E01B
:101B30000E942E030E9437040E94AD026A567F4F16
:101B40008F4F9F4F6093220370932303809324034E
:101B5000909325038091380490913904DC01ED9134
:101B6000FC910084F185E02D0995892B39F1809154
:101B7000380490913904DC01ED91FC910284F385E5
:101B8000E02D09958A3231F500913804109139041D
:101B900061EF71E0C8010E9464066DE471E0C80164
:101BA0000E9464069092EC020E94AD026093E802EB
:101BB0007093E9028093EA029093EB02A114B104BE
:101BC00009F446CE0E94F700882309F441CE0E9412
:101BD00000003ECE8733D9F19CF4823381F13CF48E
:101BE000803339F154F5813249F78AEA23C08433CE
:101BF00051F13CF1853349F1863301F786E31AC090
:101C00008F3659F14CF4893331F11CF18F3359F18E
:101C10008336A1F68AE30EC0833719F124F48037A6
:101C200069F68DE307C08637D1F0883739F68CE343
:101C300001C080E30E942907C1CF81E3FBCF82E38B
:101C4000F9CF83E3F7CF84E3F5CF85E3F3CF87E3E1
:101C5000F1CF88E3EFCF89E3EDCF8BE3EBCF8EE3DA
:101C6000E9CF8FE3E7CF0E943F050E94AD050E94B8
:101C70001B06A4CFCF93DF93C1EFD2E08FA198A52D
:101C80000E946E0F8CE191E099838883CE01DF91F1
:101C9000CF910C9421042F923F924F925F926F92BA
:101CA0007F928F929F92AF92BF92CF92DF92EF92EC
:101CB000FF920F931F93CF93DF93CDB7DEB7CA1B6D
:101CC000DB0B0FB6F894DEBF0FBECDBF09942A8898
:101CD000398848885F846E847D848C849B84AA8440
:101CE000B984C884DF80EE80FD800C811B81AA81CD
:101CF000B981CE0FD11D0FB6F894DEBF0FBECDBF98
:101D0000ED01089597FB072E16F4009407D077FD98
:101D100009D00E94B80E07FC05D03EF4909581953D
:101D20009F4F0895709561957F4F0895A1E21A2EF7
:101D3000AA1BBB1BFD010DC0AA1FBB1FEE1FFF1F6F
:101D4000A217B307E407F50720F0A21BB30BE40BBF
:101D5000F50B661F771F881F991F1A9469F7609506
:101D60007095809590959B01AC01BD01CF010895C0
:101D7000AA1BBB1B51E107C0AA1FBB1FA617B707B1
:101D800010F0A61BB70B881F991F5A95A9F78095CD
:101D90009095BC01CD010895EE0FFF1F0590F491C1
:101DA000E02D09940F931F93CF93DF938230910519
:101DB00010F482E090E0E0913C04F0913D0430E0CA
:101DC00020E0B0E0A0E0309799F42115310509F446
:101DD0004AC0281B390B24303105D8F58A819B81F4
:101DE0006115710589F1FB0193838283FE0111C0A6
:101DF000408151810281138148175907E0F048174B
:101E0000590799F4109761F012960C931297139654
:101E10001C933296CF01DF91CF911F910F910895BE
:101E200000933C0410933D04F4CF2115310551F08B
:101E30004217530738F0A901DB019A01BD01DF0108
:101E4000F801C1CFEF01F9CF90933D0480933C049A
:101E5000CDCFFE01E20FF31F819391932250310900
:101E600039832883D7CF20913A0430913B04232B28
:101E700041F4209102013091030130933B042093FF
:101E80003A0420910001309101012115310541F4FE
:101E90002DB73EB74091040150910501241B350B2D
:101EA000E0913A04F0913B04E217F307A0F42E1BF3
:101EB0003F0B2817390778F0AC014E5F5F4F2417AE
:101EC000350748F04E0F5F1F50933B0440933A0490
:101ED000819391939FCFF0E0E0E09CCFCF93DF938D
:101EE0000097E9F0FC01329713821282A0913C0422
:101EF000B0913D04ED0130E020E01097A1F4208185
:101F00003181820F931F20913A0430913B042817AE
:101F1000390709F061C0F0933B04E0933A04DF9184
:101F2000CF910895EA01CE17DF07E8F54A815B817A
:101F30009E0141155105B1F7E901FB83EA834991FF
:101F40005991C40FD51FEC17FD0761F48081918171
:101F50000296840F951FE90199838883828193817A
:101F60009B838A83F0E0E0E012968D919C91139719
:101F70000097B9F52D913C911197CD010296820FF2
:101F8000931F20913A0430913B042817390739F602
:101F9000309751F510923D0410923C04B0933B04ED
:101FA000A0933A04BCCFD383C28340815181840F74
:101FB000951FC817D90761F44E5F5F4F88819981DB
:101FC000480F591F518340838A819B819383828369
:101FD0002115310509F0B0CFF0933D04E0933C04A6
:101FE0009ECFFD01DC01C0CF13821282D7CFB0E0BB
:101FF000A0E0EDEFFFE00C944D0E8C01009751F442
:10200000CB010E94D20E8C01C801CDB7DEB7E0E152
:102010000C94690EFC01E60FF71F9C012250310958
:10202000E217F30708F49DC0D901CD91DC91119717
:10203000C617D70798F0C530D10530F3CE01049705
:102040008617970708F3C61BD70B2297C193D19326
:102050006D937C93CF010E946E0FD6CF5B01AC1ABB
:10206000BD0A4C018C0E9D1EA0913C04B0913D0414
:10207000512C412CF12CE12C109731F580913A0430
:1020800090913B048815990509F05CC046165706E7
:1020900008F058C08091000190910101009741F42F
:1020A0008DB79EB74091040150910501841B950B9B
:1020B000E817F90708F055C0F0933B04E0933A04A1
:1020C000F90171836083A0CF8D919C911197129635
:1020D0006C90129713967C901397A815B90559F533
:1020E0006C0142E0C40ED11CCA14DB0420F1AC0127
:1020F0004A195B09DA011296159780F062827382A1
:1021000051834083D9016D937C93E114F10471F004
:10211000D7011396FC93EE93129776CF22968C0FED
:102120009D1FF90191838083F301EFCFF0933D046C
:10213000E0933C0469CF4816590608F42C017D0150
:10214000D3019ACFCB010E94D20E7C01009749F0B7
:10215000AE01B8010E94B410C8010E946E0F870141
:1021600053CF10E000E050CFFB01DC0102C0019032
:102170000D9241505040D8F70895FB01DC010190C9
:102180000D920020E1F70895FB01DC014150504021
:1021900048F001900D920020C9F701C01D924150F6
:1021A0005040E0F7089510E0C2E6D0E004C0FE0120
:1021B0000E94CC0E2196C336D107C9F7F894FFCF01
:1021C00000003E048000000000002D018D00BA00D8
:1021D0007A01EB00C900DD00000000008A038D00D9
:1021E0006504EA02E603FE0314032E035349473A4B
:1021F0000053414950004C45443A003132333435A4
:1022000036373855545350004C43443A000D0A00B9
:1022100051554555453A206572726F722064756557
:1022200020746F20756E646573697261626C6520DD
:1022300073697A6520666F722071756575652073A4
:10224000697A652E0051554555453A20696E73757A
:102250006666696369656E74206D656D6F7279205D
:10226000746F20696E697469616C697A6520746540
:102270006D706F726172792071756575652E005190
:10228000554555453A2063616E277420706F702064
:102290006974656D2066726F6D2071756575653A3C
:1022A00020717565756520697320656D7074792E70
:0422B000002A000000
:107E0000112484B714BE81FFF0D085E080938100F7
:107E100082E08093C00088E18093C10086E0809377
:107E2000C20080E18093C4008EE0C9D0259A86E02C
:107E300020E33CEF91E0309385002093840096BBD3
:107E4000B09BFECF1D9AA8958150A9F7CC24DD24C4
:107E500088248394B5E0AB2EA1E19A2EF3E0BF2EE7
:107E6000A2D0813461F49FD0082FAFD0023811F036
:107E7000013811F484E001C083E08DD089C08234E0
:107E800011F484E103C0853419F485E0A6D080C0E4
:107E9000853579F488D0E82EFF2485D0082F10E0AE
:107EA000102F00270E291F29000F111F8ED06801E7
:107EB0006FC0863521F484E090D080E0DECF843638
:107EC00009F040C070D06FD0082F6DD080E0C81688
:107ED00080E7D80618F4F601B7BEE895C0E0D1E017
:107EE00062D089930C17E1F7F0E0CF16F0E7DF06D8
:107EF00018F0F601B7BEE89568D007B600FCFDCFD4
:107F0000A601A0E0B1E02C9130E011968C91119780
:107F100090E0982F8827822B932B1296FA010C0160
:107F200087BEE89511244E5F5F4FF1E0A038BF0790
:107F300051F7F601A7BEE89507B600FCFDCF97BE46
:107F4000E89526C08437B1F42ED02DD0F82E2BD052
:107F50003CD0F601EF2C8F010F5F1F4F84911BD097
:107F6000EA94F801C1F70894C11CD11CFA94CF0C13
:107F7000D11C0EC0853739F428D08EE10CD085E9AC
:107F80000AD08FE07ACF813511F488E018D01DD067
:107F900080E101D065CF982F8091C00085FFFCCF94
:107FA0009093C60008958091C00087FFFCCF809118
:107FB000C00084FD01C0A8958091C6000895E0E648
:107FC000F0E098E1908380830895EDDF803219F02E
:107FD00088E0F5DFFFCF84E1DECF1F93182FE3DFCA
:107FE0001150E9F7F2DF1F91089580E0E8DFEE27F6
:047FF000FF270994CA
:027FFE00040479
:0400000300007E007B
:00000001FF
